:020000040800F2
:10000000F006002029020008271800083F17000802
:100010002518000883040008391C000800000000AF
:10002000000000000000000000000000C1180008EF
:10003000850400080000000029180008C318000803
:10004000430200084302000843020008B5180008F4
:10005000430200084302000843020008430200086C
:10006000430200084302000843020008430200085C
:10007000430200084302000843020008430200084C
:10008000430200084302000843020008430200083C
:10009000430200084302000843020008430200082C
:1000A000430200084302000843020008430200081C
:1000B000430200084302000843020008430200080C
:1000C00043020008430200084302000843020008FC
:1000D000430200082D1C00084302000843020008E8
:1000E00043020008430200084302000843020008DC
:1000F00043020008430200084302000843020008CC
:1001000043020008430200084302000843020008BB
:1001100043020008430200084302000843020008AB
:10012000430200084302000843020008430200089B
:10013000430200084302000843020008430200088B
:10014000430200084302000843020008430200087B
:10015000430200084302000843020008430200086B
:10016000430200084302000843020008430200085B
:100170004302000843020008430200080000000098
:10018000430200084302000800F002F800F03CF8C7
:100190000AA090E8000C82448344AAF10107DA45E2
:1001A00001D100F031F8AFF2090EBAE80F0013F0F8
:1001B000010F18BFFB1A43F0010318472C1B000066
:1001C0004C1B0000103A24BF78C878C1FAD85207F7
:1001D00024BF30C830C144BF04680C6070470000C1
:1001E0000023002400250026103A28BF78C1FBD840
:1001F000520728BF30C148BF0B6070471FB501F0E0
:1002000061FD1FBD10B510BD00F001F91146FFF7EB
:10021000F5FF01F023FD00F01FF903B4FFF7F2FF33
:1002200003BC00F027F9000009488047094800474F
:10023000FEE7FEE7FEE7FEE7FEE7FEE7FEE7FEE796
:10024000FEE7FEE704480549054A064B70470000F3
:100250004919000889010008F0000020F00600207C
:10026000F0020020F002002053EA020C00F0698046
:100270002DE9F04B4FF00006002B1FBFB3FA83F5BA
:1002800003FA05F424FA05F65E4012BF1643B2FAEB
:1002900082F502FA05F4C5F120051EBF22FA05FC1D
:1002A00044EA0C04203556EA044C4FEA144418BFC3
:1002B000641C4FF000084FF00009904271EB030CF2
:1002C00039D3002919BFB1FA81F701FA07F6B0FA5C
:1002D00080F700FA07F6C7F120071EBF20FA07FCD7
:1002E00046EA0C062037B6FBF4FCA7EB0507103FE7
:1002F00007F01F0BCBF120060CFA0BFB2CFA06F6CD
:1003000044BFB3460026202FA4BF5E464FF0000B2B
:100310005BEA060C08BF4FF0010B19EB0B09ABFBB6
:10032000027C48EB0608C01B06FB02CC0BFB03CC8F
:1003300071EB0C01C1E70B46024641464846BDE859
:10034000F08B13B54FF000004FF00001AFF30080C9
:10035000BDE81C40704710B5203AC0F00B80B1E8F2
:100360001850203AA0E81850B1E81850A0E81850EA
:10037000BFF4F5AF5FEA027C24BFB1E81850A0E8F3
:10038000185044BF18C918C0BDE810405FEA827C0D
:1003900024BF51F8043B40F8043B08BF7047D20724
:1003A00028BF31F8023B48BF11F8012B28BF20F8C5
:1003B000023B48BF00F8012B70474FF0000200B528
:1003C000134694469646203922BFA0E80C50A0E878
:1003D0000C50B1F12001BFF4F7AF090728BFA0E826
:1003E0000C5048BF0CC05DF804EB890028BF40F8F2
:1003F000042B08BF704748BF20F8022B11F0804F34
:1004000018BF00F8012B704770477047704775465A
:1004100000F02CF8AE4605006946534620F0070070
:10042000854618B020B5FFF70DFFBDE820404FF01E
:1004300000064FF000074FF000084FF0000B21F0CE
:100440000701AC46ACE8C009ACE8C009ACE8C0099B
:10045000ACE8C0098D46704710B50446AFF3008084
:100460002046BDE81040FFF7D8BE000000487047A6
:100470009000002001491820ABBEFEE726000200D4
:100480007047FEE7704772B6FEE72DE9F04104467B
:10049000876D00F05FF9064694F8350000250228C4
:1004A00006D08020606584F834500120BDE8F081DA
:1004B0002068016821F0160101602068416921F07F
:1004C00080014161206C08B9A06C20B120680168EE
:1004D00021F0080101602068016821F0010101603C
:1004E0000CE000F037F9801B052807D92020606553
:1004F000032084F8350084F83450D7E7206800687A
:10050000C007EED194F85C103F208840B86001200D
:1005100084F8350084F834500020C7E790F835108F
:10052000022903D08021416501207047052180F810
:1005300035100068016821F001010160002070475A
:1005400070B5044600F006F90546601C02D0044868
:100550000078044400F0FEF8401BA042FAD370BDBE
:10056000040000202DE9F84FDFF8BCA1002201258E
:1005700003264FF00F090AF1040BAAF1040E00BF85
:100580000B6805FA02F42340A34270D10F7907F0FB
:100590000307012F01D0022F16D187684FEA4208C6
:1005A00006FA08FC27EA0C07D1F80CC00CFA08FC84
:1005B0004CEA070CC0F808C04768A7430C79C4F39D
:1005C000001494403C4344600C79E443A4070AD0EF
:1005D000C4684FEA420C06FA0CF7BC438F6807FA6E
:1005E0000CF72743C7600C7904F00304022C12D1E6
:1005F000D40800EB840CDCF820405707FF0E09FA02
:1006000007F824EA0804D1F8108008FA07F848EA45
:100610000408CCF8208004684FEA420C06FA0CF774
:10062000BC430F7907F0030707FA0CF7274307606D
:100630004C6814F4403F70D03C4C276847F4804726
:100640002760246822F0030704F480440094384CA7
:1006500007EB040CDCF8084897074FEA177809FA0B
:1006600008F7BC43334FB84202D1002724E054E0DE
:10067000314FB84201D101271EE0304FB84201D1BD
:10068000022719E02E4FB84201D1032714E02D4F65
:10069000B84201D104270FE02B4FB84201D1052702
:1006A0000AE02A4FB84201D1062705E0284FB84298
:1006B00001D1072700E0082707FA08F72743CCF8FD
:1006C0000878DAF800405746D1F804C09C435FEA46
:1006D000CC2C00D51C433C60DBF800405F46D1F8D1
:1006E00004C09C435FEA8C2C00D51C433C60DEF8C0
:1006F00000407746D1F804C09C435FEA8C3C00D5AB
:100700001C433C60084F083F3C68D1F804C09C4340
:100710005FEACC3C00D51C433C60521C102AFFF41D
:100720002FAFBDE8F88F0000083C0140443802407C
:100730000030014000000240000402400008024076
:10074000000C024000100240001402400018024059
:10075000001C02400148806870470000040000202F
:1007600002488168027811448160704704000020CB
:100770000B4810B5016841F400710160016841F453
:1007800080610160016841F480710160032000F024
:100790006FF80F2000F006F800F024F8002010BDDC
:1007A000003C024070B50D4D04464FF47A71287834
:1007B000B1FBF0F00A490968B1FBF0F000F080FDF0
:1007C00048B9102C07D200222146501E00F030F804
:1007D00000206C6070BD012070BD0000040000208E
:1007E000100000200A4808B5016841F4804101600A
:1007F000006800F4804000900548001F016841F047
:1008000080510160006800F08050009008BD000039
:1008100044380240002809DB00F01F02012191400A
:100820004009800000F1E020C0F80011704700008E
:10083000F0B40E4B1B680C46C3F30223C3F107054B
:10084000042D00D90425191D072901D2002300E039
:10085000DB1E012606FA05F1491E214099409E4003
:10086000761E16403143F0BC01F0E7B90CED00E014
:10087000064900F0070208684FF6FF03184040EAF7
:100880000220034A10430860704700000CED00E0AE
:100890000000FA052DE9F843054600684FF001090C
:1008A000C1074FF0000601D1400727D5DFF80C81C2
:1008B000C8F86860FFF74EFF0746414C05E000BFEF
:1008C000FFF748FFC01B022857D820680001F7D463
:1008D00068688101287A41EA0070394984310860EA
:1008E000C8F86890FFF736FF074604E0FFF732FFCD
:1008F000C01B022841D820680001F7D5287880075E
:1009000052D52F484030016841F0805101600068A5
:100910002C4C00F080500090206840F480702060E3
:10092000FFF718FF074604E0FFF714FFC01B02287B
:1009300023D82068C005F7D5214C7034206810F406
:10094000407020D0A98901F4407181421BD02068F9
:100950001D4920F44070C1F800900E6020602068AE
:10096000C00710D0FFF7F6FE064641F2883707E0D1
:10097000FFF7F0FE801BB84202D90320BDE8F883E0
:1009800020688007F4D5E9680D48C1F301220830DA
:10099000032A0BD0016821F4F81101602068A989AD
:1009A000C1F30B01084320600020E7E70268074B12
:1009B00022F4F81219400A430260EFE700004742B0
:1009C0000038024000700040400E4742FFFCFF0F1D
:1009D0002DE9F0470E46050065D0DFF81481D8F800
:1009E0000000F7B200F00700B04207D288F80070AC
:1009F000D8F8000000F00700B04254D128683D4C00
:100A0000810712D5400703D5206840F4E0502060EC
:100A10002878000703D5206840F4604020602068F3
:100A2000A96820F0F000084320602878C0072DD086
:100A3000304968680839012812D0022813D00328E9
:100A400011D00968890700292DDA216821F00301F6
:100A500001432160FFF77EFE814641F2883A0EE0B5
:100A600009688903EFE709688901ECE7FFF772FE7F
:100A7000A0EB0901514502D90320BDE8F0872068A9
:100A8000696800F00C00B0EB810FEFD1D8F80010CE
:100A9000404601F00701B14207D90770006800F035
:100AA0000700B04201D00120E7E72878400705D5CC
:100AB0002068E96820F4E0500843206028780007A7
:100AC00006D52068296920F4604040EAC100206012
:100AD00000F038F82168084AC1F30311515CC8409E
:100AE0000649086006480068FFF75CFE0020C4E77E
:100AF000003C024008380240CE1C000810000020D4
:100B0000080000200448054900680968044AC1F348
:100B10008221515CC8407047100000200838024014
:100B2000DE1C00080448054900680968044AC1F34E
:100B30004231515CC8407047100000200838024024
:100B4000DE1C0008154810B5006810F00C021448AF
:100B500013D01449042A0FD0082A0ED10F4C241F99
:100B60002268236802F03F025B0207D52068C0F3C9
:100B70008810A0FB010106E0084610BD2168C1F302
:100B80008811A1FB00010023FFF76EFB2168C1F370
:100B90000141491C4900B0FBF1F010BD083802408A
:100BA0000024F40040787D012DE9F84F04006ED058
:100BB0002078DFF84C93C007A9F104054AD009F169
:100BC00004000168C1F38101012908D00068C0F365
:100BD000810002280AD1D9F80000400206D5286811
:100BE000800337D560680028E1D033E06068B0F555
:100BF000803F10D0B0F5A02F286810D020F48030AE
:100C00002860286820F4802028606068A8B1FFF779
:100C1000A1FD06460DE0286840F48030F4E740F47A
:100C200080202860F7E700BFFFF794FD801B642851
:100C300073D828688003F7D50CE0FFF78BFD0646D4
:100C400005E000BFFFF786FD801B6428F0D8286808
:100C50008003F7D42078DFF8AC8280074FF0000AD9
:100C60003ED5A748001D016811F00C0F08D00068A0
:100C7000C0F3810002280BD1D9F80000400207D44C
:100C80002868800716D5E068012800D112E033E11A
:100C9000E068B8B10120C8F80000FFF75BFD064628
:100CA00005E000BFFFF756FD801B0228C0D828686A
:100CB0008007F7D52868216920F0F80040EAC100D4
:100CC00028600DE0C8F800A0FFF744FD064604E0E8
:100CD000FFF740FD801B02281FD828688007F7D443
:100CE0002078000722D5864F87486169703771B137
:100CF00001210160FFF72EFD064604E0FFF72AFD03
:100D0000801B022809D838688007F7D50EE0C0F8A4
:100D100000A0FFF71FFD064605E082E0FFF71AFD81
:100D2000801B02287DD838688007F7D420784007D8
:100D300068D5DFF8CCB100270BF13C0BDBF80000E5
:100D4000C0000BD4DBF8001041F08051CBF800104C
:100D5000DBF80000012700F0805000906B4E3068F7
:100D6000C00510D4306840F480703060FFF7F2FCAA
:100D7000009005E0FFF7EEFC0099401A022850D8D9
:100D80003068C005F6D55E4EA0686C3601280FD0DD
:100D90000528306810D020F001003060306820F065
:100DA00004003060A068B8B1FFF7D4FC00900FE0F9
:100DB000306840F00100F4E740F004003060F7E7ED
:100DC000FFF7C8FC0099411A41F28830814266D889
:100DD00030688007F4D50EE0FFF7BCFC009007E018
:100DE000FFF7B8FC0099411A41F28830814256D889
:100DF00030688007F4D42FB1DBF8001021F0805167
:100E0000CBF80010A069C8B33D49091D0968C1F3BA
:100E1000810102294AD00228504607D0C8F8600054
:100E200000E03CE0FFF796FC04463BE04746C8F88C
:100E30006000FFF78FFC064605E000BFFFF78AFC65
:100E4000801B02282BD828688001F7D4D4E9070139
:100E50000843A16A2E4A490802EB0141626A41EA4D
:100E60008211084394F82C1040EA0161C9F800107F
:100E700001203866FFF76EFC044606E03EE000BF46
:100E8000FFF768FC001B022809D828688001F7D505
:100E900034E000BFFFF75EFC001B022802D90320EC
:100EA000BDE8F88F28688001F4D427E00128F7D046
:100EB000D9F80000E26900F4800191421CD1226A55
:100EC00000F03F01914217D147F6C071626A0140BC
:100ED000B1EB821F10D1A26A4FF0FF3300F4403112
:100EE00003EB5202B1EB024F06D194F82C1000F044
:100EF0007060B0EB016F01D00120D1E70020CFE797
:100F00000438024000004742800E47420070004013
:100F10000000FFFF2DE9F84389463D494FF4FA4CA4
:100F20004FF47A730F68B7FBFCF159430091017FCE
:100F3000012965D001250577022141770368CA217F
:100F4000596203685321596201688B684FF0FF04AE
:100F50005FEA43584FF000034FF003060CD500BF83
:100F6000DDF80080B8F10108CDF800804AD0D1F852
:100F70000C805FEA4878F3D4D1F8088028F48068C0
:100F8000C1F808800168D1F80C8008F0800868F486
:100F90009068C1F80C80B7FBFCF14FF47A77794385
:100FA00000910168009F7F1E00972BD0CF687F07BC
:100FB000F8D58E6826F007068E6001688E681643A5
:100FC0008E600268C2F8149012490A6842F48002E6
:100FD0000A60104908310A6842F480020A60016818
:100FE0008A6842F480428A6001688A6842F48062BA
:100FF0008A6001684C62457703770020BDE8F8837A
:101000000220FBE74C62467703770320F6E70000F7
:1010100010000020003C01407047000010B50A4954
:1010200004464FF4800008602068C168490508D56F
:10103000C16801F0800161F49061C1602046FFF752
:10104000EBFF0120607710BD143C014010B5040097
:1010500002D0607F10B106E0012010BD0020207793
:10106000204600F041F8022060772068C168C9433B
:10107000C90632D5CA214162216853204862204600
:1010800000F0DEFB20BB20688168164A11408160B9
:101090002168886862681043D4E904231A43104326
:1010A00088602168E068086120680169228941EA56
:1010B00002410161204600F0E7FB48B921680A6C53
:1010C00022F480220A6421680A6CA3691A430A6424
:1010D0002268FF21516208B110BD00200121617713
:1010E00010BD0000BFFF8FFF1FB5002100910191CF
:1010F0000291039100680C49884214D102200090AB
:10110000000203906846FFF7C5FB08B1FFF7BBF983
:10111000064901200860014600220320FFF788FBF2
:101120000320FFF777FB1FBD002800403C0E47421D
:1011300070B50446007F0B46012819D0012626779A
:1011400002206077B2B19878D97840EA01455878A2
:101150001978000240EA413005432168CA204862FC
:10116000216853204862204600F06AFBD0B122E09B
:10117000022070BD5878C10603D500F0EF000A3098
:101180005870D87800F051FB0204587800F04DFBFD
:1011900042EA0022987800F048FB0243187842EABD
:1011A0004035DAE70748054020684560204600F0F2
:1011B0006BFB00B966772268FF215162002121771D
:1011C00070BD00003FFFFF002DE9F0410446007FA5
:1011D0000D46012823D04FF0010884F81C8002201E
:1011E00060772068002780684FEA4060D2B100280D
:1011F00000DBEF70A878297840EA01466878E97842
:10120000000240EA815006432168CA2048622168F2
:1012100053204862204600F013FBB8B12CE00220B6
:10122000BDE8F081002800DBEF70287800F0FDFABF
:101230000204687800F0F9FA42EA0022A87800F087
:10124000F4FA0243E87842EA8056DDE70D480640AA
:10125000206806602068816821F480218160D5E9DA
:101260000301084321688A6810438860204600F023
:101270000BFB08B984F81D802268FF215162277793
:10128000CEE700007F7F7F0070B504460B482168E1
:10129000C860FFF75FFA05464FF47A7607E000BFB3
:1012A000FFF758FA401BB04201D9032070BD2068F7
:1012B000C0688006F4D5002070BD00005F7F01008B
:1012C00010B5401EB0F1807F01D3012010BD4FF05A
:1012D000E02460610F21601700F0AFFC0020A061E6
:1012E00007202061002010BD70477047F8B50168E5
:1012F00004460868CA684B6910F00F0F4FF00005EC
:1013000059D003F0010602F49077374365D0C10746
:1013100005D0D10503D5616C41F00101616441073D
:1013200005D5D90703D0616C41F0020161648107E2
:1013300005D5D90703D0616C41F004016164010750
:1013400007D502F02001314303D0616C41F0080160
:101350006164616C00293AD0800604D5900602D5FC
:10136000204600F028FB20684069616CC0F38010C3
:10137000090700D460B3204600F0F6FA20684069FF
:10138000400621D52068143050E8001F21F04001AC
:1013900040E80012002AF5D1E06BA8B16E49016562
:1013A000E06BFFF7BBF8002811D0E06B016D01B0D6
:1013B000BDE8F040084783060FD593060DD52046BB
:1013C000BDE8F84000F0F7BA2046FFF78EFFF8BD01
:1013D0002046FFF78AFF6564F8BD266B2023012EA7
:1013E0007DD1C6067BD5D60679D5086848680090B9
:1013F00048694FF00206400641D5E16B0868406835
:101400000004000CE8D0A28D8242E5D9E085C869CD
:10141000B0F5807F2DD020680C3050E8001F21F4FB
:10142000807140E80012002AF5D12068143050E89D
:10143000001F21F0010140E80012002AF5D12068C8
:10144000143050E8001F21F0400140E80012002A4B
:10145000F5D184F84230256320680C3050E8001F35
:1014600021F0100140E80012002AF5D1E06BFFF7EF
:101470000CF86663A08DE18D401A81B22AE0A08D40
:10148000E18D401A81B2E08D0028A5D00029A3D0BB
:1014900022680C3252E8000F20F4907042E80007F6
:1014A000002FF5D12068143050E8002F22F00102FF
:1014B00040E80027002FF5D184F8423025632068EA
:1014C0000C3050E8002F22F0100240E80023002BDF
:1014D000F5D166632046FFF707FFF8BDFFE7050675
:1014E0002BD5150629D594F841002128F5D1A068FF
:1014F000B0F5805F01D12069B0B1206A411C216242
:10150000216800784860E08C401E0004000CE084F4
:10151000E3D12068C16821F08001C1602068C16802
:1015200041F04001C160D8E7206A0088C0F308009C
:101530004860206A801C2062E5E74006CDD5500651
:10154000CBD5CA68204622F04002CA6084F84130F8
:1015500000F0F4F8C1E700005919000870B5040064
:1015600004D094F84100002510B106E0012070BDC0
:1015700084F84050204600F023F8242084F84100ED
:101580002068C16821F40051C160204600F074FA5F
:101590002068016921F4904101612068416921F0CE
:1015A0002A0141612068C16841F40051C16065644D
:1015B000202084F8410084F842006563002070BD5B
:1015C00010B586B0044614216846FEF7F6FE1849A9
:1015D0002068884229D117480021026842F0100291
:1015E0000260006800F0100005901248143802688C
:1015F00042F001020260006800F0010005904FF423
:10160000C06000900220CDE9010103200390072073
:10161000049069460848FEF7A5FF00220121252015
:10162000FFF706F92520FFF7F5F806B010BD00001A
:1016300000100140443802400000024090F842305F
:10164000202B01D00220704721B11AB1002303637F
:1016500000F098BA0120704700680C49884214D104
:101660000B4901200B4A08700020A2F10A01135C0B
:101670000B54401C80B20A28F9D306490A224FF4C1
:10168000FA730A39044800F009B8704700100140A5
:10169000000000201E000020480000202DE9F84333
:1016A000044690F84100984616460D46202802D080
:1016B0000220BDE8F88385B17EB10020606421205E
:1016C00084F84100FFF746F8A6848146E684A068C6
:1016D0002027B0F5805F02D003E00120E9E7206910
:1016E00010B12E4600250EE000260CE08021204699
:1016F00000F063FAA8B9C6B116F8010B216848607A
:10170000E08C401EE084E08C4B464FF00002CDF8A8
:1017100000800028EAD14FF04001204600F04DFA49
:1017200040B184F841700320C3E735F8020BC0F3E1
:101730000800E3E784F841700020BAE77047FEE74D
:10174000054808B5016841F001010160006800F03A
:101750000100009008BD00003038024010B586B08E
:1017600014216846FEF729FE1F4800241D490594F0
:10177000C0E900147F218160FF21C0E903144461A6
:101780008461FFF763FC08B1FEF77DFE8DF8004031
:101790008DF801408DF802400394012269461248F9
:1017A0000494FFF711FD08B1FEF76DFE01208DF8DE
:1017B00014008DF815008DF8160002468DF81740BC
:1017C00005A90948FFF7B4FC08B1FEF75CFE042246
:1017D00000210548FFF79EFB002801D0FEF753FECD
:1017E00006B010BD00280040280000200C4810B5AD
:1017F0000A4901604FF461414160002181600C227F
:10180000C160C0E904128161C161FFF7A7FE002831
:1018100003D0BDE81040FEF736BE10BD00100140F9
:1018200048000020FEE7FEE77047002102E00A388A
:10183000C0B2491C0A28FAD2090740EA1160704771
:101840002DE9F041044600680025C168490618D416
:10185000C16841F08001C160FEF77CFF06464FF48D
:101860007A78042707E000BFFEF774FF801B40452D
:1018700001D9677701252068C068400601D4002D92
:10188000F2D02846BDE8F08170B504460068002516
:10189000C16821F08001C16020688068800606D49C
:1018A0002046FFF7F1FC10B104206077012528469F
:1018B00070BD00000148FFF7B1BB00002800002008
:1018C0007047FEF74DBF000010B592B0302168465A
:1018D000FEF773FD14210CA8FEF76FFD18480024D5
:1018E000016841F080510160006800F08050119063
:1018F0001448016841F4804101600068102100F43F
:10190000804011900A2000900120CDE90301CDE92B
:1019100005046846FFF748F908B172B6FEE70F20E4
:10192000CDE90C040E940F9400210CA81094FFF73D
:101930004FF8002801D072B6FEE712B010BD0000CB
:1019400040380240007000400248016841F47001D4
:101950000160704788ED00E010B5806B0021C18503
:10196000C184FFF7C2FC10BD01680C3151E8002FA3
:1019700022F4907241E80023002BF5D10168143164
:1019800051E8002F22F0010241E80023002BF5D19D
:10199000016B012909D101680C3151E8002F22F0B7
:1019A000100241E80023002BF5D1202180F84210DD
:1019B00000210163704708B590F84210222901D038
:1019C000022008BD82684FF480539A4201D1016918
:1019D00021B1816A9A421BD04AB10AE00268816A49
:1019E0005268C2F308020A80816A891C08E0026911
:1019F00072B10268526802F07F020A70816A491C63
:101A00008162C18D491E0904090CC18503D01BE008
:101A100002685268F1E70168CA6822F02002CA60D1
:101A20000168CA6822F48072CA6001684A6922F0BB
:101A300001024A61202180F8421000214163026BBB
:101A4000012A03D0FFF708FE002008BD01630168EA
:101A50000C3151E8002F22F0100241E80023002B46
:101A6000F5D101680A68D20602D50A684968009172
:101A7000818DFFF739FCE7E770B50446006801691E
:101A8000E26821F44051114301612169A068E269D3
:101A900008436169114308432168CA6849F20C632D
:101AA0009A430243CA6020684169A26921F44071E7
:101AB0001143416131492068884202D0304988424F
:101AC00002D1FFF72FF801E0FFF71CF8E2690023CD
:101AD000192164253226B2F5004F626828D0A0FB98
:101AE0000101930F9200FEF7BFFB0146B0FBF5F03A
:101AF0006FF01802504301EB800006EB0010B0FBC2
:101B0000F5F000F0F002B1FBF5F002EB0012B1FBD2
:101B1000F5F06FF01803584301EB800006EB00105E
:101B2000B0FBF5F000F00F0021681044886070BD34
:101B3000A0FB010192185B41FEF796FB0146B0FB4A
:101B4000F5F00201B1FBF5F06FF01803584301EB1B
:101B5000800006EBC000B0FBF5F000F0F80002EBEF
:101B60004002B1FBF5F0584301EB800006EBC000EA
:101B7000B0FBF5F000F00700D6E7000000100140D0
:101B80000014014081628285C285002141642221C6
:101B900080F84210016921B10168CA6842F480727C
:101BA000CA6001684A6942F001024A610068C1687E
:101BB00041F02001C160002070472DE9F8439846AC
:101BC00017460D460446089E24E0701C22D0FEF7FE
:101BD000C1FDA0EB0800B0421AD8CEB12068C168A0
:101BE000490717D5802D15D0402D13D00168C94362
:101BF00009070FD401680025406800902046FFF7D0
:101C0000B3FE0820606484F840500120BDE8F883EA
:101C10000320FBE72068006835EA000004D00020BC
:101C2000B842D2D00020F1E70120F9E70148FFF7E0
:101C30005DBB000048000020FEE70907090E0028F0
:101C400004DB00F1E02080F80014704700F00F0082
:101C500000F1E02080F8141D7047000086B0FEF708
:101C600087FDFFF731FEFFF76BFDFFF777FDFFF70D
:101C7000BDFD14220CA16846FEF76DFB4FF4FA730C
:101C8000112269460D48FFF709FD0A220C490B484D
:101C9000FFF7D4FC0A20FEF753FC0A220849074844
:101CA000FFF7CCFCF9E7000048656C6C6F2C2062F4
:101CB0006C6F636B696E670A0000000048000020CB
:101CC0001E0000204FF04070E1EE100A7047000047
:101CD00000000000000001020304060708090000DC
:101CE0000000010203040000081D0008000000209D
:101CF00014000000C40100081C1D0008140000208E
:101D0000DC060000E0010008000000000100000007
:0C1D100010000000000000000024F4009F
:040000050800018965
:00000001FF
