:020000040800F2
:10000000E80C002029020008232600081922000815
:1000100021260008AD05000861300008000000003E
:10002000000000000000000000000000192B000884
:10003000AF05000800000000692900081B2B00081C
:10004000430200084302000843020008430200087C
:10005000430200084302000843020008430200086C
:10006000430200084302000843020008430200085C
:10007000430200084302000843020008430200084C
:10008000430200084302000843020008430200083C
:10009000430200084302000843020008430200082C
:1000A000430200084302000843020008430200081C
:1000B000430200084302000843020008430200080C
:1000C00043020008430200084302000843020008FC
:1000D00043020008553000084302000843020008AC
:1000E00043020008430200084302000843020008DC
:1000F00043020008430200084302000843020008CC
:1001000043020008430200084302000843020008BB
:100110004302000843020008B12B00084302000814
:10012000430200084302000843020008430200089B
:10013000430200084302000843020008430200088B
:10014000430200084302000843020008430200087B
:10015000430200084302000843020008430200086B
:10016000430200084302000843020008430200085B
:100170004302000843020008430200080000000098
:10018000430200084302000800F002F800F03CF8C7
:100190000AA090E8000C82448344AAF10107DA45E2
:1001A00001D100F031F8AFF2090EBAE80F0013F0F8
:1001B000010F18BFFB1A43F001031847CC4D000094
:1001C000EC4D0000103A24BF78C878C1FAD8520725
:1001D00024BF30C830C144BF04680C6070470000C1
:1001E0000023002400250026103A28BF78C1FBD840
:1001F000520728BF30C148BF0B6070471FB502F0DF
:10020000A9FF1FBD10B510BD00F001F91146FFF7A1
:10021000F5FF02F036FF00F01FF903B4FFF7F2FF1D
:1002200003BC00F027F9000009488047094800474F
:10023000FEE7FEE7FEE7FEE7FEE7FEE7FEE7FEE796
:10024000FEE7FEE704480549054A064B70470000F3
:10025000A12B000889010008E8060020E80C002016
:10026000E8080020E808002053EA020C00F069804A
:100270002DE9F04B4FF00006002B1FBFB3FA83F5BA
:1002800003FA05F424FA05F65E4012BF1643B2FAEB
:1002900082F502FA05F4C5F120051EBF22FA05FC1D
:1002A00044EA0C04203556EA044C4FEA144418BFC3
:1002B000641C4FF000084FF00009904271EB030CF2
:1002C00039D3002919BFB1FA81F701FA07F6B0FA5C
:1002D00080F700FA07F6C7F120071EBF20FA07FCD7
:1002E00046EA0C062037B6FBF4FCA7EB0507103FE7
:1002F00007F01F0BCBF120060CFA0BFB2CFA06F6CD
:1003000044BFB3460026202FA4BF5E464FF0000B2B
:100310005BEA060C08BF4FF0010B19EB0B09ABFBB6
:10032000027C48EB0608C01B06FB02CC0BFB03CC8F
:1003300071EB0C01C1E70B46024641464846BDE859
:10034000F08B13B54FF000004FF00001AFF30080C9
:10035000BDE81C40704710B5203AC0F00B80B1E8F2
:100360001850203AA0E81850B1E81850A0E81850EA
:10037000BFF4F5AF5FEA027C24BFB1E81850A0E8F3
:10038000185044BF18C918C0BDE810405FEA827C0D
:1003900024BF51F8043B40F8043B08BF7047D20724
:1003A00028BF31F8023B48BF11F8012B28BF20F8C5
:1003B000023B48BF00F8012B70474FF0000200B528
:1003C000134694469646203922BFA0E80C50A0E878
:1003D0000C50B1F12001BFF4F7AF090728BFA0E826
:1003E0000C5048BF0CC05DF804EB890028BF40F8F2
:1003F000042B08BF704748BF20F8022B11F0804F34
:1004000018BF00F8012B704770477047704775465A
:1004100000F02CF8AE4605006946534620F0070070
:10042000854618B020B5FFF70DFFBDE820404FF01E
:1004300000064FF000074FF000084FF0000B21F0CE
:100440000701AC46ACE8C009ACE8C009ACE8C0099B
:10045000ACE8C0098D46704710B50446AFF3008084
:100460002046BDE81040FFF7D8BE000000487047A6
:100470008406002001491820ABBEFEE726000200DA
:1004800070470000464910B54A6822F440324A607D
:100490004A6843681A434A6001684A6822F48072D5
:1004A0004A6001684A68036942EA03224A600168B7
:1004B0004A6822F040724A6001684A6883681A43B9
:1004C0004A6001688A6822F400628A6001688A686A
:1004D000C3681A438A60816A6FF07062D142016812
:1004E0008A6822F070628A6001688A680CD0836A28
:1004F0001A438A6001688A6822F040528A60016863
:100500008A68C36A1A4301E022F040528A60016897
:100510008A6822F002028A6001688A68037E42EAE1
:1005200043028A6090F82010002901684A680FD0C1
:1005300042F400624A6001684A6822F460424A60FC
:1005400001684A68174C436A04EB43331A4301E0DD
:1005500022F400624A600168CA6A22F47002CA6228
:100560000168CA6A838B104C04EB03531A43CA62B6
:1005700001688A6822F400728A6001688A6890F8CB
:10058000303042EA43228A6001688A6822F480623D
:100590008A6001688A68406942EA8020886010BDEC
:1005A0000023014000E0FFFF0000F0FFFEE770477E
:1005B00072B6FEE778B50024009490F83C20012A3A
:1005C00019D0012280F83C200A6807230568092A0F
:1005D00013D9EE680A3A02EB420293409E43EE6062
:1005E0000B788A680A3B03EB43039A400368DD6893
:1005F0002A43DA6010E0022078BD2E6902EB420245
:1006000093409E432E610B788A6803EB43039A4024
:1006100003681D692A431A614A681F23072A13D2F7
:1006200005686E6B521E02EB820293409E436E631E
:100630000B790A885B1E92B203EB83039A4003682E
:100640005D6B2A435A6327E005680D2A12D22E6B90
:10065000D21F02EB820293409E432E630B790A88DD
:10066000DB1F92B203EB83039A4003681D6B2A439E
:100670001A6311E0EE6A0D3A02EB820293409E4348
:10068000EE620B790A880D3B92B203EB83039A402A
:100690000368DD6A2A43DA62164B0568144A9D42F4
:1006A00006D10D68122D03D1556845F480055560BB
:1006B00005689D4218D10B68102B01D0112B13D166
:1006C000536843F400035360096810290CD10A49A8
:1006D0000A4A0968B1FBF2F101EB8101490000E02F
:1006E000491E00910029FBD180F83C40002078BDD4
:1006F00000230140002001400C00002040420F0078
:1007000070B504004FF0000503D0206C002610B136
:1007100007E0012070BD204600F01CF8666484F8F4
:100720003C60206CC00610D4206C20F4885040F04F
:10073000020020642046FFF7A5FE6664206C20F0CE
:10074000020040F00100206400E0012584F83C60D4
:10075000284670BD10B586B0044614216846FFF7E0
:100760002CFE1149206888421CD1104800210268E3
:1007700042F480720260006800F4807005900B48BB
:100780001438026842F001020260006800F00100C3
:100790000590602000900320CDE9010169460448DE
:1007A00000F020F906B010BD00200140443802409E
:1007B00000000240704770B500B3F9B14379012BD6
:1007C0001ED0012646710223037105682C6802F0D1
:1007D000100340F6FE729A409443D1E900210A4387
:1007E0009A4022432A6001680A68C0249C40A243C0
:1007F0000A60067100214171084670BD012070BD7C
:10080000022070BD70472DE9F0410446006806687B
:10081000456BB1044FF0040710D5A9040ED527711C
:10082000216941F001012161F902416320680168F9
:1008300021F4805101602046FFF7E4FFB00014D599
:10084000A80012D52771206940F0020020612168BC
:100850004FF0005048632068016821F0805101602A
:100860002046BDE8F041FFF7A5BFBDE8F08170B5B7
:10087000040003D02079002510B105E0012070BDEF
:100880006571204600F008F80220207125610120E2
:100890002071002070BD000010B586B00446142100
:1008A0006846FFF78AFD15492068884224D114481C
:1008B0000021026842F000520260006800F000501F
:1008C00005900F481038026842F00102026000688B
:1008D00000F001000590302000900320CDE90101D7
:1008E0006946084800F07EF800221146362000F0E4
:1008F000E5F9362000F0D4F906B010BD00740040D0
:1009000040380240000002402DE9F0410446876D66
:1009100000F066F9064694F835000025022806D056
:100920008020606584F834500120BDE8F0812068A3
:10093000016821F0160101602068416921F0800101
:100940004161206C08B9A06C20B12068016821F0D9
:10095000080101602068016821F0010101600CE0DC
:1009600000F03EF9801B052807D920206065032090
:1009700084F8350084F83450D7E720680068C00751
:10098000EED194F85C103F208840B860012084F8D4
:10099000350084F834500020C7E790F8351002295C
:1009A00003D08021416501207047052180F8351072
:1009B0000068016821F0010101600020704700001B
:1009C00070B5044600F00CF90546601C02D00448DE
:1009D0000078044400F004F9401BA042FAD370BD33
:1009E000000000202DE9F84FDFF8BCA1002201250E
:1009F00003264FF00F090AF1040BAAF1040E00BF01
:100A00000B6805FA02F42340A34270D10F7907F076
:100A10000307012F01D0022F16D187684FEA420841
:100A200006FA08FC27EA0C07D1F80CC00CFA08FCFF
:100A30004CEA070CC0F808C04768A7430C79C4F318
:100A4000001494403C4344600C79E443A4070AD06A
:100A5000C4684FEA420C06FA0CF7BC438F6807FAE9
:100A60000CF72743C7600C7904F00304022C12D161
:100A7000D40800EB840CDCF820405707FF0E09FA7D
:100A800007F824EA0804D1F8108008FA07F848EAC1
:100A90000408CCF8208004684FEA420C06FA0CF7F0
:100AA000BC430F7907F0030707FA0CF727430760E9
:100AB0004C6814F4403F70D03C4C276847F48047A2
:100AC0002760246822F0030704F480440094384C23
:100AD00007EB040CDCF8084897074FEA177809FA87
:100AE00008F7BC43334FB84202D1002724E054E05A
:100AF000314FB84201D101271EE0304FB84201D139
:100B0000022719E02E4FB84201D1032714E02D4FE0
:100B1000B84201D104270FE02B4FB84201D105277D
:100B20000AE02A4FB84201D1062705E0284FB84213
:100B300001D1072700E0082707FA08F72743CCF878
:100B40000878DAF800405746D1F804C09C435FEAC1
:100B5000CC2C00D51C433C60DBF800405F46D1F84C
:100B600004C09C435FEA8C2C00D51C433C60DEF83B
:100B700000407746D1F804C09C435FEA8C3C00D526
:100B80001C433C60084F083F3C68D1F804C09C43BC
:100B90005FEACC3C00D51C433C60521C102AFFF499
:100BA0002FAFBDE8F88F0000083C014044380240F8
:100BB00000300140000002400004024000080240F2
:100BC000000C0240001002400014024000180240D5
:100BD000001C02400AB1816170470904FBE7000074
:100BE00001488068704700000000002002488168CA
:100BF0000278114481607047000000200B4810B556
:100C0000016841F400710160016841F48061016094
:100C1000016841F480710160032000F06FF80F203B
:100C200000F006F800F024F8002010BD003C02405F
:100C300070B50D4D04464FF47A712878B1FBF0F091
:100C40000A490968B1FBF0F000F0A1FE48B9102C88
:100C500007D200222146501E00F030F800206C60C0
:100C600070BD012070BD0000000000200C000020BD
:100C70000A4808B5016841F480410160006800F449
:100C8000804000900548001F016841F080510160DC
:100C9000006800F08050009008BD00004438024019
:100CA000002809DB00F01F0201219140400980006B
:100CB00000F1E020C0F8001170470000F0B40E4BC6
:100CC0001B680C46C3F30223C3F10705042D00D9AA
:100CD0000425191D072901D2002300E0DB1E01268F
:100CE00006FA05F1491E214099409E40761E1640A5
:100CF0003143F0BC02F0B5B90CED00E0064900F05C
:100D0000070208684FF6FF03184040EA0220034A32
:100D100010430860704700000CED00E00000FA0589
:100D20002DE9F843054600684FF00109C1074FF06F
:100D3000000601D1400727D5DFF80C81C8F86860AC
:100D4000FFF74EFF0746414C05E000BFFFF748FFA5
:100D5000C01B022857D820680001F7D468688101B9
:100D6000287A41EA0070394984310860C8F86890EF
:100D7000FFF736FF074604E0FFF732FFC01B0228EB
:100D800041D820680001F7D52878800752D52F4830
:100D90004030016841F08051016000682C4C00F047
:100DA00080500090206840F480702060FFF718FFAA
:100DB000074604E0FFF714FFC01B022823D8206871
:100DC000C005F7D5214C7034206810F4407020D055
:100DD000A98901F4407181421BD020681D4920F48B
:100DE0004070C1F800900E6020602068C00710D0ED
:100DF000FFF7F6FE064641F2883707E0FFF7F0FE00
:100E0000801BB84202D90320BDE8F8832068800720
:100E1000F4D5E9680D48C1F301220830032A0BD04C
:100E2000016821F4F81101602068A989C1F30B0160
:100E3000084320600020E7E70268074B22F4F8121D
:100E400019400A430260EFE70000474200380240C1
:100E500000700040400E4742FFFCFF0F2DE9F047B5
:100E60000E46050065D0DFF81481D8F80000F7B20F
:100E700000F00700B04207D288F80070D8F80000F0
:100E800000F00700B04254D128683D4C810712D5CC
:100E9000400703D5206840F4E05020602878000720
:100EA00003D5206840F4604020602068A96820F0E5
:100EB000F000084320602878C0072DD030496868CA
:100EC0000839012812D0022813D0032811D009684C
:100ED000890700292DDA216821F0030101432160EF
:100EE000FFF77EFE814641F2883A0EE009688903E9
:100EF000EFE709688901ECE7FFF772FEA0EB090153
:100F0000514502D90320BDE8F0872068696800F0E8
:100F10000C00B0EB810FEFD1D8F80010404601F083
:100F20000701B14207D90770006800F00700B0421E
:100F300001D00120E7E72878400705D52068E96857
:100F400020F4E050084320602878000706D5206888
:100F5000296920F4604040EAC100206000F038F8C0
:100F60002168084AC1F30311515CC8400649086072
:100F700006480068FFF75CFE0020C4E7003C024022
:100F8000083802406E4F00080C00002004000020CA
:100F90000448054900680968044AC1F38221515C8C
:100FA000C84070470C000020083802407E4F0008FF
:100FB0000448054900680968044AC1F34231515C9C
:100FC000C84070470C000020083802407E4F0008DF
:100FD000154810B5006810F00C02144813D01449DD
:100FE000042A0FD0082A0ED10F4C241F2268236830
:100FF00002F03F025B0207D52068C0F38810A0FB17
:10100000010106E0084610BD2168C1F38811A1FB6B
:1010100000010023FFF728F92168C1F30141491CB1
:101020004900B0FBF1F010BD083802400024F40084
:1010300040787D012DE9F84F04006ED02078DFF86C
:101040004C93C007A9F104054AD009F104000168D6
:10105000C1F38101012908D00068C0F38100022892
:101060000AD1D9F80000400206D52868800337D598
:1010700060680028E1D033E06068B0F5803F10D0B0
:10108000B0F5A02F286810D020F4803028602868A0
:1010900020F4802028606068A8B1FFF7A1FD064613
:1010A0000DE0286840F48030F4E740F480202860A8
:1010B000F7E700BFFFF794FD801B642873D828680A
:1010C0008003F7D50CE0FFF78BFD064605E000BF77
:1010D000FFF786FD801B6428F0D828688003F7D4CA
:1010E0002078DFF8AC8280074FF0000A3ED5A74891
:1010F000001D016811F00C0F08D00068C0F38100DA
:1011000002280BD1D9F80000400207D428688007D4
:1011100016D5E068012800D112E033E1E068B8B1EB
:101120000120C8F80000FFF75BFD064605E000BFA0
:10113000FFF756FD801B0228C0D828688007F7D526
:101140002868216920F0F80040EAC10028600DE01D
:10115000C8F800A0FFF744FD064604E0FFF740FD95
:10116000801B02281FD828688007F7D42078000742
:1011700022D5864F87486169703771B101210160BE
:10118000FFF72EFD064604E0FFF72AFD801B02282C
:1011900009D838688007F7D50EE0C0F800A0FFF73F
:1011A0001FFD064605E082E0FFF71AFD801B0228BE
:1011B0007DD838688007F7D42078400768D5DFF8F5
:1011C000CCB100270BF13C0BDBF80000C0000BD4C6
:1011D000DBF8001041F08051CBF80010DBF8000084
:1011E000012700F0805000906B4E3068C00510D48D
:1011F000306840F480703060FFF7F2FC009005E04A
:10120000FFF7EEFC0099401A022850D83068C0055C
:10121000F6D55E4EA0686C3601280FD005283068E0
:1012200010D020F001003060306820F00400306001
:10123000A068B8B1FFF7D4FC00900FE0306840F030
:101240000100F4E740F004003060F7E7FFF7C8FC66
:101250000099411A41F28830814266D8306880078F
:10126000F4D50EE0FFF7BCFC009007E0FFF7B8FCF8
:101270000099411A41F28830814256D8306880077F
:10128000F4D42FB1DBF8001021F08051CBF800101E
:10129000A069C8B33D49091D0968C1F3810102294C
:1012A0004AD00228504607D0C8F8600000E03CE071
:1012B000FFF796FC04463BE04746C8F86000FFF79E
:1012C0008FFC064605E000BFFFF78AFC801B022862
:1012D0002BD828688001F7D4D4E907010843A16A14
:1012E0002E4A490802EB0141626A41EA8211084331
:1012F00094F82C1040EA0161C9F80010012038660A
:10130000FFF76EFC044606E03EE000BFFFF768FC16
:10131000001B022809D828688001F7D534E000BFF7
:10132000FFF75EFC001B022802D90320BDE8F88FFE
:1013300028688001F4D427E00128F7D0D9F800000C
:10134000E26900F4800191421CD1226A00F03F0161
:10135000914217D147F6C071626A0140B1EB821F1A
:1013600010D1A26A4FF0FF3300F4403103EB520278
:10137000B1EB024F06D194F82C1000F07060B0EB86
:10138000016F01D00120D1E70020CFE704380240EF
:1013900000004742800E4742007000400000FFFFFF
:1013A0002DE9F74F0446007F934601281BD04FF0EC
:1013B000010884F81C80022060772168CA204862F6
:1013C000206853214162206880684FF00005400585
:1013D0004FF0FF064FF0030A4FF47A790FD5FFF76D
:1013E000FFFB074607E00220BDE8FE8FFFF7F8FB92
:1013F000C01B484519D82068C0684007F6D420684B
:10140000816821F4806181602068C16801F08001F9
:1014100061F49061C160FFF7E3FB07460CE000BF99
:10142000FFF7DEFBC01B484506D92068466284F8FA
:101430001DA025770320D7E72068C0684007EFD5B7
:101440002068816821F0070181602068816841EA95
:101450000B0181602168019848612068816841F42E
:10146000806181602068466284F81D8025770020B5
:10147000BAE7000010B5040002D0607F10B106E0AA
:10148000012010BD00202077204600F041F8022006
:1014900060772068C168C943C90632D5CA21416254
:1014A000216853204862204601F06AFA20BB206878
:1014B0008168164A1140816021688868626810431B
:1014C000D4E904231A43104388602168E068086166
:1014D00020680169228941EA02410161204601F048
:1014E00073FA48B921680A6C22F480220A642168E0
:1014F0000A6CA3691A430A642268FF21516208B189
:1015000010BD00200121617710BD0000BFFF8FFFDB
:101510001FB50021009101910291039100680849D3
:1015200088420CD102200090000203906846FFF729
:10153000F7FB08B1FFF73CF80249012008601FBD26
:10154000002800403C0E474270B50446007F0B4621
:10155000012819D00126267702206077B2B1987849
:10156000D97840EA014558781978000240EA4130BC
:1015700005432168CA2048622168532048622046FA
:1015800001F0FEF9D0B122E0022070BD5878C1060A
:1015900003D500F0EF000A305870D87801F0E5F973
:1015A0000204587801F0E1F942EA0022987801F04B
:1015B000DCF90243187842EA4035DAE7074805408B
:1015C00020684560204601F0FFF900B9667722687F
:1015D000FF2151620021217770BD00003FFFFF0015
:1015E0002DE9F0410446007F0D46012823D04FF03D
:1015F000010884F81C80022060772068002780683A
:101600004FEA4060D2B1002800DBEF70A87829785B
:1016100040EA01466878E978000240EA81500643D2
:101620002168CA204862216853204862204601F0A0
:10163000A7F9B8B12CE00220BDE8F081002800DB5A
:10164000EF70287801F091F90204687801F08DF9C3
:1016500042EA0022A87801F088F90243E87842EAD9
:101660008056DDE70D4806402068066020688168E6
:1016700021F480218160D5E90301084321688A684B
:1016800010438860204601F09FF908B984F81D8056
:101690002268FF2151622777CEE700007F7F7F001D
:1016A00070B504460B482168C860FFF799FA0546F3
:1016B0004FF47A7607E000BFFFF792FA401BB04282
:1016C00001D9032070BD2068C0688006F4D50020D1
:1016D00070BD00005F7F010070B5040009D0606A32
:1016E000002540B125616561A56294F8510040B1C3
:1016F0000CE0012070BD6068B0F5827FF4D0E56138
:10170000F2E784F85050204600F044F8022084F8B4
:1017100051002068016821F040010160A088218902
:1017200000F4827001F404410843A18901F40061CE
:101730000843217C01F002010843217D01F00101F1
:101740000843218B01F400710843217F01F0380127
:10175000084394F8201001F080010843218D01F422
:101760000051084321680860A069042101EA104083
:1017700094F8241001F010010843216848602068A3
:10178000C16921F40061C1616565012084F85100DF
:10179000002070BDF0B587B0044614216846FEF7FE
:1017A0000CFE1D492068884233D11C480024016882
:1017B00041F480410160006800F4804005901748C2
:1017C0001038016841F004010160016801F0040172
:1017D0000591016841F0020101600068022500F0F6
:1017E000020005900820CDE9000502AA032605277E
:1017F00082E8D00069460A48FFF7F4F84FF4A840A1
:10180000CDE9000502AA694682E8D0000548FFF745
:10181000E9F807B0F0BD0000003800404038024051
:1018200000080240000402402DE9F84F9846164691
:101830008A460446FFF7D4F9814694F851000128FE
:101840001ED1BAF1000F73D0002E71D094F8500061
:10185000012815D0012784F85070032084F8510026
:1018600000256565C4F830A0A686E686A563A58731
:10187000E58765642564A068B0F5004F03D00CE0EF
:101880000220BDE8F88F2068016821F04001016066
:101890002068016841F480410160206801684906C0
:1018A00003D4016841F040010160E068B0F5006FC9
:1018B000606803D048B3012E27D047E008B1012E5D
:1018C0001FD1206B21680088C86006E0206881680D
:1018D000890709D5216B0988C160206B801C2063B2
:1018E000E08E401EE0860CE0FFF77AF9A0EB0901DC
:1018F000414503D3B8F1FF3F03D035E0B8F1000F05
:1019000032D0E08E0028E1D123E0206B21680078FE
:10191000087306E02068816889070AD5216B097879
:101920000173206B401C2063E08E401EE0860DE0BA
:101930002BE0FFF755F9A0EB0901414503D3B8F1BE
:10194000FF3F03D010E0B8F1000F0DD0E08E00286B
:10195000E0D14A464146204601F04CF808B120202B
:101960006065A06830B109E084F8517084F8505087
:10197000032086E72068C1688068009084F8517071
:1019800004F8505F60680028F3D0012079E710B5B3
:10199000401EB0F1807F01D3012010BD4FF0E02444
:1019A00060610F21601701F05CFB0020A06107203F
:1019B0002061002010BD70477047000070B590F89E
:1019C0003C20012A32D0012480F83C40022280F8D9
:1019D0003D2003685A689D6822F070060A68324309
:1019E0005A60134B02689A4214D0B2F1804F11D062
:1019F000104B9A420ED0104B9A420BD00F4B9A428A
:101A000008D00F4B9A4205D00E4B9A4202D00E4B93
:101A10009A4204D1496825F080031943916080F807
:101A20003D40002180F83C10084670BD022070BD8A
:101A3000000001400004004000080040000C00408D
:101A400000040140004001400018004010B50400AF
:101A500003D094F83D0010B107E0012010BD002034
:101A600084F83C00204600F01FF8022084F83D0076
:101A7000211D206801F0AAF8012084F8460084F8AE
:101A80003E0084F83F0084F8400084F8410084F868
:101A9000420084F8430084F8440084F8450084F848
:101AA0003D00002010BD000008B5114A0168114832
:101AB000914211D1016841F01001016000680022DB
:101AC00000F01000009011463620FFF7F7F8BDE84F
:101AD00008403620FFF7E4B8074A914207D1016871
:101AE00041F480710160006800F48070009008BDCE
:101AF0000010004040380240002000402DE9F04135
:101B00000D46040003D094F83D0018B108E0012010
:101B1000BDE8F081002084F83C00204600F040F849
:101B2000022084F83D002068816844F20702914356
:101B30008160211D206801F049F822689068916950
:101B4000166A2B68AF69034340F20330814341EAD0
:101B50000721A868EF6908434FF6FC418843E9680C
:101B600040EA0720014328692F6A000140EA073054
:101B7000084369686D6926F0AA0646EA05152943F7
:101B800093602268906154F8460B0162012004F8CA
:101B90001F09E0752076E0762077A0750020B7E772
:101BA00010B586B0044614216846FEF706FC1349BA
:101BB000206888421FD112480021026842F00802C2
:101BC0000260006800F0080005900D4810380268B7
:101BD00042F0010202600068012200F0010005905D
:101BE000032000900220CDE90102CDE903106946EF
:101BF0000448FEF7F7FE06B010BD0000000C0040E0
:101C0000403802400000024070472DE9F041044690
:101C10000068C66805694FF00007A90713D5B1072A
:101C200011D5F91E016101202077206880698007A5
:101C3000204602D0FFF7E8FF04E000F0A9F82046B4
:101C400000F03BF92777680716D5700714D521688F
:101C50006FF004000861022020772068806910F48A
:101C6000407F204602D0FFF7CFFF04E000F090F85D
:101C7000204600F022F92777280715D5300713D51D
:101C800021686FF008000861042020772068C0698F
:101C90008007204602D0FFF7B7FF04E000F078F895
:101CA000204600F00AF92777E80616D5F00614D585
:101CB00021686FF010000861082020772068C06953
:101CC00010F4407F204602D0FFF79EFF04E000F0B2
:101CD0005FF8204600F0F1F82777E80708D0F00712
:101CE00006D021686FF001000861204600F0E6F898
:101CF000280608D5300606D521686FF080000861F7
:101D00002046FFF758FE680608D5700606D52168FC
:101D10006FF040000861204600F0D1F8A8060AD50F
:101D2000B00608D521686FF0200008612046BDE8A4
:101D3000F041FFF741BEBDE8F081000010B586B06C
:101D4000044614216846FEF738FB0E492068884295
:101D500015D10D480021026842F0010202600068BE
:101D600000F001000590802000900220CDE90101E3
:101D70000920CDE9031069460448FEF733FE06B09A
:101D800010BD00000020004030380240000002403A
:101D9000704770B5044690F83C0000260D460128B7
:101DA0000FD0012084F83C006AB1042A1DD0082A13
:101DB0002FD00C2A3FD00126002084F83C0030466A
:101DC00070BD022070BD206800F06CFF2068816942
:101DD00041F0080181612068816921F0040181617D
:101DE000206881692A69114311E0206800F08AFFA8
:101DF0002068816941F4006181612068816921F472
:101E000080618161206881692A6941EA02218161DA
:101E1000D2E7206800F0ACFF2068C16941F00801FA
:101E2000C1612068C16921F00401C1612068C169F4
:101E30002A69114311E0206800F0CEFF2068C169D3
:101E400041F40061C1612068C16921F48061C16110
:101E50002068C1692A6941EA0221C161ACE710B575
:101E6000040003D094F83D0010B107E0012010BD3C
:101E7000002084F83C00204600F01EF8022084F880
:101E80003D00211D206800F0A1FE012084F84600DD
:101E900084F83E0084F83F0084F8400084F8410054
:101EA00084F8420084F8430084F8440084F8450034
:101EB00084F83D00002010BD7047704770477047A0
:101EC00070477047F8B5016804460868CA684B69EE
:101ED00010F00F0F4FF0000559D003F0010602F487
:101EE0009077374365D0C10705D0D10503D5616C24
:101EF00041F001016164410705D5D90703D0616C48
:101F000041F002016164810705D5D90703D0616CF6
:101F100041F004016164010707D502F0200131435B
:101F200003D0616C41F008016164616C00293AD012
:101F3000800604D5900602D5204600F0A4FF206854
:101F40004069616CC0F38010090700D460B320467B
:101F500000F072FF20684069400621D520681430E7
:101F600050E8001F21F0400140E80012002AF5D19E
:101F7000E06BA8B16E490165E06BFEF70EFD00282D
:101F800011D0E06B016D01B0BDE8F0400847830659
:101F90000FD593060DD52046BDE8F84000F073BF7D
:101FA0002046FFF78EFFF8BD2046FFF78AFF6564E5
:101FB000F8BD266B2023012E7DD1C6067BD5D60623
:101FC00079D508684868009048694FF002064006D5
:101FD00041D5E16B086840680004000CE8D0A28D90
:101FE0008242E5D9E085C869B0F5807F2DD02068B0
:101FF0000C3050E8001F21F4807140E80012002AE4
:10200000F5D12068143050E8001F21F0010140E8AC
:102010000012002AF5D12068143050E8001F21F08A
:10202000400140E80012002AF5D184F842302563CF
:1020300020680C3050E8001F21F0100140E8001229
:10204000002AF5D1E06BFEF75FFC6663A08DE18DA1
:10205000401A81B22AE0A08DE18D401A81B2E08D54
:102060000028A5D00029A3D022680C3252E8000F26
:1020700020F4907042E80007002FF5D1206814305A
:1020800050E8002F22F0010240E80027002FF5D190
:1020900084F84230256320680C3050E8002F22F08D
:1020A000100240E80023002BF5D166632046FFF7BD
:1020B00007FFF8BDFFE705062BD5150629D594F8CF
:1020C00041002128F5D1A068B0F5805F01D12069D9
:1020D000B0B1206A411C2162216800784860E08C20
:1020E000401E0004000CE084E3D12068C16821F0A8
:1020F0008001C1602068C16841F04001C160D8E73B
:10210000206A0088C0F308004860206A801C2062B2
:10211000E5E74006CDD55006CBD5CA68204622F06B
:102120004002CA6084F8413000F075F8C1E7000051
:10213000292E000870B5040004D094F84100002551
:1021400010B106E0012070BD84F84050204600F038
:1021500023F8242084F841002068C16821F400514C
:10216000C160204600F0F0FE2068016921F4904132
:1021700001612068416921F02A0141612068C1683C
:1021800041F40051C1606564202084F8410084F866
:1021900042006563002070BD10B586B0044614216E
:1021A0006846FEF70AF918492068884229D117487D
:1021B0000021026842F010020260006800F0100086
:1021C000059012481438026842F00102026000686B
:1021D00000F0010005904FF4C06000900220CDE9AE
:1021E0000101032003900720049069460848FEF788
:1021F000F9FB002211462520FEF760FD2520FEF7A1
:102200004FFD06B010BD00000010014044380240F0
:102210000000024070477047FEE700007FB50024D1
:10222000144800940194029411490394C0E90014E5
:1022300084600461047680F820400F49C0E90A14E4
:102240000125C561C46080F830404561FEF758FA49
:1022500008B1FEF7ADF90620CDE900056946029404
:102260000448FEF7A7F9002801D0FEF7A1F97FBDC9
:1022700000200140100000200100000F1CB50024C8
:10228000104900940E48019408600846FEF7EFFAE2
:1022900008B1FEF78DF900940022694609480194BF
:1022A000FEF789FA08B1FEF783F91022694605485E
:1022B000FEF781FA002801D0FEF77AF91CBD000074
:1022C00000740040580000202DE9F04F87B0142121
:1022D0006846FEF772F844480024016841F0100196
:1022E0000160016801F010010591016841F00401ED
:1022F0000160016801F004010591016841F02001CD
:102300000160016801F020010591016841F00101BF
:102310000160016801F001010591016841F00201CD
:102320000160016801F002010591016841F040017E
:1023300001600068DFF8B48000F0400005900022E2
:1023400030214046FEF746FCDFF8A4904CF206062A
:10235000002231464846FEF73DFCDFF898A00022F7
:1023600007215046FEF736FCDFF88CB04FF4FE77BD
:10237000002239465846FEF72DFC0F20CDE9000417
:10238000694640460294FEF72DFB3020009001255F
:10239000CDE90154694640460394FEF723FB0096BD
:1023A000CDE90154694648460394FEF71BFB07201C
:1023B0000090CDE90154694650460394FEF712FBA4
:1023C0000097CDE90154694658460394FEF70AFB8D
:1023D0004FF42040CDE90004694658460294FEF7C8
:1023E00001FB07B0BDE8F08F30380240001002401A
:1023F00000080240001402400018024010B586B0E8
:1024000014216846FDF7D9FF1F4800241D49059493
:10241000C0E900147F218160FF21C0E903144461F9
:102420008461FFF727F808B1FEF7C2F88DF8004085
:102430008DF801408DF8024003940122694612484C
:102440000494FFF7CDF808B1FEF7B2F801208DF83B
:1024500014008DF815008DF8160002468DF817400F
:1024600005A90948FFF770F808B1FEF7A1F80422A2
:1024700000210548FEF794FF002801D0FEF798F8E8
:1024800006B010BD002800406C0000200F4810B5B9
:102490000D4901604FF48271416000218160C1608B
:1024A0004FF480220161C0E90512C16101624162FD
:1024B00081620A21C162FFF70FF9002803D0BDE84D
:1024C0001040FEF775B810BD003800408C000020A9
:1024D00010B588B01C216846FDF76FFF15481449F8
:1024E0000024016043F67F61C0E901146321C0E963
:1024F00003148461FFF7AAFA08B1FEF759F80D48F2
:10250000FFF7ADFC08B1FEF753F86020CDE90004F9
:1025100002940022694607480494FFF73AFC08B188
:10252000FEF746F80348FFF709FC08B010BD0000AD
:10253000002000407401002010B58CB024216846B2
:10254000FDF73BFF00241648099414490A94C0E99A
:1025500000144FF6FF71C0E9024104618461032059
:10256000CDE900040120CDE902040494CDE9054041
:10257000079469460A480894FFF7C0FA08B1FEF7C5
:1025800017F8099409A906480A94FFF717FA0028D2
:1025900001D0FEF70DF80CB010BD0000000C00409B
:1025A000E40000201CB500240E4800940C4901945E
:1025B000016043F67F61C0E9011409218461C160B3
:1025C000FFF744FA08B1FDF7F3FF009469460548A8
:1025D0000194FFF7F3F9002801D0FDF7E9FF1CBDD6
:1025E000001000402C0100200C4810B50A49016081
:1025F0004FF4E1314160002181600C22C160C0E9EB
:1026000004128161C161FFF795FD002803D0BDE888
:102610001040FDF7CDBF10BD00100140BC010020EF
:10262000FEE7FEE730B40021084B0A465FF00000E9
:1026300003EBC004401CC0B262548028F8D3491C8C
:10264000C9B20829F2D330BC00F0AEB804020020B1
:1026500010B500218D2000F05DF90021142000F05C
:1026600059F90021BDE81040AF2000F053B9000037
:1026700030B5CC0801F0070301259D40EBB2064DB3
:1026800005EBC005C808285C0AB1184302E063EAFC
:102690000000C043285530BD0402002010B5414C55
:1026A000002202212046FEF795FAC820FEF788F99D
:1026B000012202212046FEF78DFA0021AE2000F013
:1026C00029F90021084600F025F90021102000F02A
:1026D00021F90021B02000F01DF90021402000F078
:1026E00019F90021812000F015F90021882000F05F
:1026F00011F90021822000F00DF90021084600F0B8
:1027000009F90021A12000F005F90021A22000F024
:1027100001F90021A42000F0FDF80021A62000F01E
:10272000F9F80021A82000F0F5F800213F2000F082
:10273000F1F80021C82000F0EDF80021D32000F0CE
:10274000E9F80021084600F0E5F80021D52000F066
:10275000E1F80021A02000F0DDF80021D92000F0F0
:10276000D9F80021222000F0D5F80021DB2000F06C
:10277000D1F80021402000F0CDF80021312000F0F8
:10278000C9F80021AD2000F0C5F800218B2000F031
:10279000C1F8FFF747FF0021BDE81040AF2000F06F
:1027A000B9B800000008024070B5114E002400BF07
:1027B00004F1B000C0B2002100F0ACF800210846DE
:1027C00000F0A8F80021102000F0A4F85FF0000548
:1027D00006EBC5000121005D00F09CF86D1CEDB218
:1027E000802DF5D3641CE4B2082CE1D370BD000049
:1027F000040200202DE9FC4F1C460E4682468B4603
:102800000190082B0ED0600700D0012000EBD4000F
:10281000610810FB01F0C0B28146203AD0B20090AE
:1028200000204AE00620F7E7082C12D00C2C17D025
:10283000102C1AD0182C43D10098234900EBC0006B
:1028400001EB8001002711F80850E80712D00B9A1D
:1028500013E000981D4900EB400001EB4001F1E757
:1028600000981B4900EB4000EAE71A49009801EB89
:102870000011E7E70B9828B3002231465046FFF7D6
:10288000F7FE761C7F1C6D08FFB2F6B2082FDCD372
:102890000AF1010000F0FF0A082C0AD00199AAEB06
:1028A0000100B0EB540F04D10BF108008A4600F090
:1028B000FF0B08F101005E46C0B280464845B3D325
:1028C000BDE8FC8F0122D8E7EA3D00085E31000830
:1028D00086330008FA3700082DE9F8411E461546F0
:1028E00088460446079F0BE0334641462046009742
:1028F000FFF780FF082E0AD004EB5600C4B26D1C0F
:102900002A78A2F120005E28EED9BDE8F881A41D46
:10291000E4B2F4E773B5114C09B1012200E00022E2
:1029200004212046FEF756F90D4E4FF48055002243
:1029300029463046FEF74EF94FF47A730122694674
:102940000848FEF771FF012229463046FEF742F99A
:10295000012204212046FEF73DF97CBD000802401B
:10296000000402408C0000207047002102E00A3879
:10297000C0B2491C0A28FAD2090740EA1160704720
:102980002DE9F041044600680025C168490618D4C5
:10299000C16841F08001C160FEF722F906464FF49C
:1029A0007A78042707E000BFFEF71AF9801B40453C
:1029B00001D9677701252068C068400601D4002D41
:1029C000F2D02846BDE8F08170B5044600680025C5
:1029D000C16821F08001C16020688068800606D44B
:1029E0002046FEF75DFE10B10420607701252846E1
:1029F00070BD0000F8B515460E460B460092044621
:102A00000122022100F02CF8A0B9134813490068F4
:102A1000B0FBF1F04FF47A71484300906068B0F574
:102A2000827F0DD13346002280212046009500F0A0
:102A300017F870B1606D40F0200060650320F8BDAC
:102A4000009830B1401E009020688068C0430006A6
:102A5000F6D50020F8BD00000C00002000366E0105
:102A60002DE9F8431E46914688460446089DFEF728
:102A7000B7F8401B351AFEF7B3F80746254800683B
:102A8000C0F3CB30684338E0701C37D0FEF7A8F8AD
:102A9000C01BA84203D215B1009860B32CE0206897
:102AA000416821F0E00141606068B0F5827F0BD1A0
:102AB000A068B0F5004F02D0B0F5806F04D1206857
:102AC000016821F040010160A06AB0F5005F09D102
:102AD0002068016821F4005101602068016841F418
:102AE00000510160012084F85100002084F850005A
:102AF0000320BDE8F8830025401E0090206881680F
:102B000038EA010004D000214945BDD10020F0E79A
:102B10000121F9E70C0000207047FEF767B80000BC
:102B200010B592B030216846FDF747FC14210CA87F
:102B3000FDF743FC18480024016841F08051016012
:102B4000006800F0805011901448016841F4804101
:102B500001600068102100F4804011900A2000906C
:102B60000120CDE90301CDE905046846FEF762FACC
:102B700008B172B6FEE70F20CDE90C040E940F9455
:102B800000210CA81094FEF769F9002801D072B654
:102B9000FEE712B010BD0000403802400070004057
:102BA0000248016841F470010160704788ED00E05F
:102BB00010B50448FDF727FEBDE810400248FFF7B6
:102BC00024B80000580000202C010020F0B5026855
:102BD000294C2A4D2A4E2B4F2B4B4FF0804CA042B4
:102BE00009D0604507D0A84205D0B04203D0B84212
:102BF00001D0984204D122F0700E4A6842EA0E02D7
:102C0000A0421BD0604519D0A84217D0B04215D0C1
:102C1000B84213D0984211D01C4DA8420ED01C4D82
:102C2000A8420BD01B4DA84208D01B4DA84205D08E
:102C30001A4DA84202D01A4DA84203D122F4407581
:102C4000CA682A434D6922F080022A4302608A68DA
:102C5000C2620A688262A04201D0984201D1096929
:102C60000163012141610169C90703D0016921F0B4
:102C700001010161F0BD00000000014000040040BE
:102C800000080040000C00400004014000400140EA
:102C9000004401400048014000180040001C004072
:102CA00000200040F0B5036A026A22F001020262CD
:102CB00042688469124E24F073050C682C4323F09B
:102CC00002058B682B430D4DA84201D0B04205D1BF
:102CD00023F00807CB683B4323F00403A84201D04C
:102CE000B04205D14D6922F4407215438A692A43E6
:102CF00042608461496841630362F0BD00000140A5
:102D000000040140F0B5026A036A23F01003036275
:102D1000436884690D6824F4E64444EA05248D6818
:102D200022F0200242EA05120F4D104EA84201D0B7
:102D3000B04206D1CF6822F0800242EA071222F0A8
:102D40004002A84201D0B04207D14D6923F440634C
:102D500043EA85038D6943EA8503436084614968DA
:102D600081630262F0BD00000000014000040140E8
:102D7000F0B5026A036A23F4807303624368C4698E
:102D800022F4007224F073050C68124E2C438D68F7
:102D900042EA05220E4DA84201D0B04206D1CF68CA
:102DA00022F4006242EA072222F48062A84201D0A3
:102DB000B04207D14D6923F4405343EA05138D69AE
:102DC00043EA05134360C4614968C1630262F0BD10
:102DD000000001400004014030B5046A026A22F498
:102DE000805202624268C3690D6823F4E64343EAF5
:102DF00005238D6824F4005444EA0534084DA842A4
:102E000002D0084DA84204D14D6922F4804242EA22
:102E100085124260C36149680164046230BD0000EC
:102E2000000001400004014010B5806B0021C18505
:102E3000C184FFF746F810BD01680C3151E8002F3E
:102E400022F4907241E80023002BF5D1016814317F
:102E500051E8002F22F0010241E80023002BF5D1B8
:102E6000016B012909D101680C3151E8002F22F0D2
:102E7000100241E80023002BF5D1202180F84210F8
:102E800000210163704708B590F84210222901D053
:102E9000022008BD82684FF480539A4201D1016933
:102EA00021B1816A9A421BD04AB10AE00268816A64
:102EB0005268C2F308020A80816A891C08E002692C
:102EC00072B10268526802F07F020A70816A491C7E
:102ED0008162C18D491E0904090CC18503D01BE024
:102EE00002685268F1E70168CA6822F02002CA60ED
:102EF0000168CA6822F48072CA6001684A6922F0D7
:102F000001024A61202180F8421000214163026BD6
:102F1000012A03D0FFF77EF9002008BD0163016894
:102F20000C3151E8002F22F0100241E80023002B61
:102F3000F5D101680A68D20602D50A68496800918D
:102F4000818DFEF7BDFFE7E770B5044600680169B3
:102F5000E26821F44051114301612169A068E269EE
:102F600008436169114308432168CA6849F20C6348
:102F70009A430243CA6020684169A26921F4407102
:102F80001143416131492068884202D0304988426A
:102F900002D1FEF70DF801E0FDF7FAFFE269002328
:102FA000192164253226B2F5004F626828D0A0FBB3
:102FB0000101930F9200FDF757F90146B0FBF5F0C0
:102FC0006FF01802504301EB800006EB0010B0FBDD
:102FD000F5F000F0F002B1FBF5F002EB0012B1FBEE
:102FE000F5F06FF01803584301EB800006EB00107A
:102FF000B0FBF5F000F00F0021681044886070BD50
:10300000A0FB010192185B41FDF72EF90146B0FBD0
:10301000F5F00201B1FBF5F06FF01803584301EB36
:10302000800006EBC000B0FBF5F000F0F80002EB0A
:103030004002B1FBF5F0584301EB800006EBC00005
:10304000B0FBF5F000F00700D6E7000000100140EB
:10305000001401400148FEF735BF0000BC0100200C
:10306000FEE70907090E002804DB00F1E02080F8E4
:103070000014704700F00F0000F1E02080F8141DEC
:103080007047FDF7BBFDFFF74BFDFFF71DF9FFF79D
:103090001FFAFFF7C3F8FFF7F1F8FFF7F7F9FFF7AB
:1030A0004BFAFFF7ABF9FFF79FFAFFF77BFAFFF751
:1030B000CFFAFFF7F3FA00F001F8F8E7002592B035
:1030C000012413A10823D1E90001CDE9100110AAC0
:1030D000009401211820FFF7FFFB1C220EA109A874
:1030E000FDF739F9082309AA092100200094FFF708
:1030F000F3FB20220FA101A8FDF72DF9082301AA57
:10310000112100200095FFF7E7FBFFF74DFBD8E703
:103110004D454E550000000020504944436F6E74E9
:10312000726F6C20202020202020202020202020B2
:103130000000000020504944446174612020202098
:10314000202020202020202020202020202020207F
:10315000000000004FF04070E1EE100A70470000E0
:10316000000000000000002F000000000700070022
:1031700000147F147F1400242A7F2A12006264083E
:1031800013230036495522500000050300000000BB
:103190001C224100000041221C000014083E0814BB
:1031A0000008083E0808000000A0600000080808A9
:1031B0000808000060600000002010080402003EC3
:1031C0005149453E0000427F40000042615149465E
:1031D000002141454B31001814127F10002745454E
:1031E0004539003C4A494930000171090503003660
:1031F0004949493600064949291E00003636000073
:103200000000563600000008142241000014141477
:103210001414000041221408000201510906003272
:103220004959513E007C1211127C007F49494936B0
:10323000003E41414122007F4141221C007F49491B
:103240004941007F09090901003E4149497A007F4F
:103250000808087F0000417F4100002040413F01F5
:10326000007F08142241007F40404040007F020C54
:10327000027F007F0408107F003E4141413E007FF5
:1032800009090906003E4151215E007F09192946BE
:103290000046494949310001017F0101003F40409A
:1032A000403F001F2040201F003F4038403F006348
:1032B000140814630007087008070061514945436A
:1032C00000007F41410000552A552A550000414128
:1032D0007F00000402010204004040404040000022
:1032E00001020400002054545478007F48444438BC
:1032F00000384444442000384444487F0038545443
:10330000541800087E0901020018A4A4A47C007FC0
:10331000080404780000447D4000004080847D0063
:10332000007F102844000000417F4000007C04180A
:103330000478007C0804047800384444443800FCD5
:10334000242424180018242418FC007C08040408F1
:1033500000485454542000043F444020003C404066
:10336000207C001C2040201C003C4030403C00449D
:1033700028102844001CA0A0A07C004464544C44A5
:1033800014141414141400000000000000000000C5
:1033900000000000FC000000000002000000000C23
:1033A000020C020000000000000090D0BCD0BC90D5
:1033B0000003000300001824FE448C0003020702EF
:1033C00001001824D8B04C80000300010201C0386D
:1033D000E438E000010202010202080600000000D9
:1033E000000000000000000000F8040200000001DE
:1033F0000204000204F800000004020100009060D2
:10340000F86090000000010000002020FC20200057
:10341000000001000000000000000000080600009D
:1034200000002020202020000000000000000000FC
:10343000000000000002000000000080601C02008C
:10344000040300000000F8040404F8000102020272
:1034500001000008FC0000000002030200001884C4
:103460004424180003020202020008042424D800A5
:1034700001020202010040B088FC8000000000034D
:1034800002003C242424C400010202020100F824AA
:10349000242CC0000102020201000C04E41C040000
:1034A000000003000000D8242424D80001020202F6
:1034B000010038444444F800000302020100000007
:1034C00010000000000002000000000020000000CA
:1034D00000000600000000205088040200000000E8
:1034E0000102909090909000000000000000000207
:1034F000048850200002010000001804C4241800B1
:10350000000002000000F804E494F8000102020246
:10351000020000E09CF0800002030000030204FCB3
:103520002424D800020302020100F80404040C0061
:1035300001020202010004FC0404F800020302027A
:10354000010004FC24740C0002030202030004FCCA
:1035500024740C00020302000000F0080444CC4074
:1035600000010202010004FC2020FC040203000010
:1035700003020404FC04040002020302020000042B
:1035800004FC040406040403000004FC24D00C041E
:1035900002030200030204FC040000000203020212
:1035A0000203FC3CC03CFC0003000300030004FCDD
:1035B00030C4FC04020302000300F8040404F80011
:1035C00001020202010004FC24241800020302008C
:1035D0000000F8848404F80001020207050004FCDE
:1035E00024649800020302000302182424448C007F
:1035F0000302020201000C04FC040C00000203029E
:10360000000004FC0000FC04000102020100047C34
:1036100080E01C040000030000001CE03CE01C00F3
:10362000000300030000049C609C040002030003EC
:103630000200041CE01C04000002030200000C84D1
:10364000641C04000203020203000000FE020200E8
:10365000000007040400000E30C00000000000015C
:103660000200000202FE0000000404070000000443
:103670000204000000000000000000000000000044
:103680000808080808080000020000000000000008
:1036900000000040A0A0C00000010202030204FCE0
:1036A0002020C00000030202010000C020206000B2
:1036B00000010202020000C02024FC0000010202FE
:1036C000030200C0A0A0C00000010202020000200E
:1036D000F82424040002030202000040A0A060209D
:1036E00000070A0A0A0404FC2020C00002030200AA
:1036F00003020020E40000000002030200000000BA
:1037000020E4000008080807000004FC80E02020F6
:103710000203020003020404FC0000000202030290
:103720000200E020E020C00003000300030020E0CE
:103730002020C00002030200030200C02020C000BD
:1037400000010202010020E02020C000080F0A0250
:10375000010000C02020E0000001020A0F0820E064
:10376000402020000203020000000060A0A0200012
:103770000002020203000020F82000000000010205
:10378000020020E00020E00000010202030220E02D
:10379000208060200000030100006080E080600065
:1037A000000300030000206080602000020300038B
:1037B000020020E0208060200808070100000020AF
:1037C000A0602000000203020200000020DE0200D0
:1037D000000000070400000000FF00000000000FD0
:1037E00000000002DE2000000004070000000201CB
:1037F00002040402000000000000000000000000BD
:1038000000000000000000000000000000F80000C0
:103810000000000000333000000000100C06100C07
:103820000600000000000000000040C07840C078A2
:103830004000043F04043F040400007088FC08308A
:103840000000001820FF211E0000F008F000E01822
:10385000000000211C031E211E0000F008887000DB
:1038600000001E2123241927211010160E0000002D
:1038700000000000000000000000000000E018044C
:103880000200000000071820400000020418E000B9
:1038900000000040201807000000404080F08040F9
:1038A00040000202010F01020200000000F00000CF
:1038B00000000101011F01010100000000000000E3
:1038C000000080B070000000000000000000000058
:1038D00000000001010101010101000000000000E1
:1038E0000000003030000000000000000000806098
:1038F0001804006018060100000000E0100808101D
:10390000E000000F102020100F00001010F8000041
:1039100000000020203F20200000007008080888D8
:1039200070000030282422213000003008888848A8
:1039300030000018202020110E000000C02010F8D8
:10394000000000070424243F240000F808888808A9
:1039500008000019212020110E0000E010888818AE
:103960000000000F112020110E0000380808C83890
:1039700008000000003F0000000000708808088870
:103980007000001C222121221C0000E010080810F9
:10399000E0000000312222110F00000000C0C00032
:1039A0000000000000303000000000000080000037
:1039B0000000000080600000000000008040201037
:1039C0000800000102040810200040404040404030
:1039D0004000040404040404040000081020408093
:1039E00000000020100804020100007048080808C8
:1039F000F0000000003036010000C030C828E81098
:103A0000E0000718272423140B000000C038E00052
:103A10000000203C23020227382008F8888888709C
:103A20000000203F202020110E00C03008080808A8
:103A30003800071820202010080008F8080808108F
:103A4000E000203F202020100F0008F88888E808B8
:103A50001000203F20202320180008F88888E8085C
:103A60001000203F200003000000C0300808083884
:103A7000000007182020221E020008F80800000895
:103A8000F808203F210101213F20000808F808081C
:103A900000000020203F2020000000000808F80857
:103AA0000800C08080807F00000008F888C02818C7
:103AB0000800203F20012638200008F808000000F8
:103AC0000000203F20202020300008F8F800F8F8FF
:103AD0000800203F003F003F200008F830C00008E9
:103AE000F808203F200007183F00E01008080810E1
:103AF000E0000F10202020100F0008F80808080828
:103B0000F000203F210101010000E010080808102A
:103B1000E0000F18242438504F0008F8888888885F
:103B20007000203F2000030C302000708808080837
:103B300038000038202121221C00180808F8080845
:103B400018000000203F2000000008F808000008CE
:103B5000F808001F202020201F000878880000C8D7
:103B60003808000007380E010000F80800F80008C7
:103B7000F800033C0700073C0300081868808068D1
:103B8000180820302C03032C30200838C800C8380F
:103B900008000000203F2000000010080808C83876
:103BA00008002038262120201800000000FE020214
:103BB00002000000007F40404000000C30C00000C8
:103BC0000000000000010638C00000020202FE00F2
:103BD0000000004040407F0000000000040202029C
:103BE00004000000000000000000000000000000D1
:103BF00000008080808080808080000202040000BD
:103C000000000000000000000000000080808080B4
:103C100000000019242222223F2008F800808000A2
:103C20000000003F112020110E0000000080808065
:103C30000000000E1120202011000000008080886C
:103C4000F800000E112020103F20000080808080AE
:103C50000000001F222222221300008080F08888AA
:103C600088180020203F20200000000080808080F5
:103C70008000006B94949493600008F8008080802A
:103C80000000203F210000203F2000809898000085
:103C900000000020203F20200000000000809898B5
:103CA000000000C08080807F000008F80000808055
:103CB0008000203F24022D302000000808F800007A
:103CC00000000020203F2020000080808080808035
:103CD0008000203F20003F20003F808000808080C7
:103CE0000000203F210000203F20000080808080D5
:103CF0000000001F202020201F0080800080800006
:103D0000000080FFA12020110E00000000808080B4
:103D10008000000E112020A0FF8080808000808025
:103D2000800020203F212000010000008080808052
:103D300080000033242424241900008080E0808047
:103D400000000000001F2020000080800000008094
:103D50008000001F202020103F20808080000080F5
:103D6000808000010E300806010080800080008005
:103D700080800F300C030C300F00008080008080AA
:103D800080000020312E0E312000808080000080D5
:103D9000808080818E701806010000808080808085
:103DA00080000021302C2221300000000000807CA7
:103DB000020200000000003F404000000000FF0041
:103DC000000000000000FF0000000002027C8000F4
:103DD00000000040403F0000000000060101020218
:103DE00004040000000000000000000000000000CB
:103DF00000000000000000000000000000000000C3
:103E000000000000000000000000000000000000B2
:103E1000000000F0F0F000000000000000000001D1
:103E20007F010000000000000000001C1C1C0000BE
:103E3000000000008060301C8C60301C0C00000012
:103E40000000000000000000000000000000000072
:103E5000000000000000000000E00000000000E0A2
:103E600000000086E69F86868686E69F8600000123
:103E70001F01010101011F010100000080C060203D
:103E8000F820E0C00000000003070C18FF70E1817B
:103E900000000000070F10107F100F070000806067
:103EA000206080000000E02000000F3020309F7074
:103EB000DC371030C0000000100E03000718101887
:103EC00007000000C02020E0C0000000000080E0EB
:103ED0001F38E88703C43C040000070F1810100BBC
:103EE000070D1010080000808C4C38000000000006
:103EF00000000000000000000000000000000000C2
:103F000000000000000000000000000000000000B1
:103F100080E0300804000000000000FEFF01000007
:103F20000000000000000000030F18204000000403
:103F30000830E0800000000000000000000001FFE9
:103F4000FE0000000000004020180F0300000000E9
:103F50000000000000000000C0000000000000425F
:103F600066663C18FF183C666642000000000000D0
:103F700003000000000000000000000080000000BE
:103F80000000001010101010FF1010101010000092
:103F9000000000000300000000000000000000001E
:103FA0000000000000000000000000000000000011
:103FB000000000808C4C3800000000000000000071
:103FC00000000000000000000000001010101010A1
:103FD0001010101010000000000000000000000091
:103FE00000000000000000000000000000000000D1
:103FF0000000000000000000000000001C1C1C006D
:104000000000000000000000000000000000E03898
:104010000C000000000080701C0300000000006025
:10402000380E0100000000000000000080C0602089
:104030002060C080000000FEFF010000000001FFC2
:10404000FE000001070E181010180E0701000000F6
:10405000808080C0E000000000000000000000FF41
:10406000FF000000000000001010101F1F101010B3
:1040700000000080402020202060C080000000035D
:104080000300804020381F070000001C1A19181870
:104090001818181F00000080C020202060C0800079
:1040A0000000000303001010182FE7800000000735
:1040B0000F10101010180F07000000000000000083
:1040C000C0E0F000000000C0B088868180FFFF8063
:1040D0008000000000000010101F1F1010000000E2
:1040E000E060606060606060000000003F100808F1
:1040F0000818F0E0000000070B101010101C0F0350
:104100000000000080C040202020E0C0000000FC33
:10411000FF211008080818F0E0000001070C181033
:104120001010080F03000000C0E06060606060E0F5
:104130006000000003000000E0180700000000001D
:104140000000001F1F00000000000080C060202051
:10415000202060C080000087EF2C1818303068CF16
:10416000830000070F0810101010180F0700000040
:10417000C0C020202020C0800000001F3F604040C1
:10418000402010FFFE0000000C1C101010080F0350
:10419000000000000000000000000000000000001F
:1041A0000000000E0E0E0000000000000000001CC9
:1041B0001C1C0000000000000000000000000000C7
:1041C000000000000000000C0C00000000000000D7
:1041D000000000583800000000000000000000004F
:1041E00000804020100000001028448201000000E0
:1041F00000000000000000000102040810000000A0
:10420000000000000000000000000084848484841A
:10421000848484848400000000000000000000000A
:10422000000000001020408000000000000000009E
:104230000000000001824428100000001008040261
:1042400001000000000000C020201010101030E01D
:10425000C0000003030000F010080C07030000007A
:1042600000001C1C1C0000000000000000C040609A
:1042700020202040C00000FCFF01F00E03C1FE031F
:10428000807F0001070E08111110110904020000BF
:10429000000080E0E000000000000000807C43405F
:1042A000477FF880000010181F1000000000131F47
:1042B0001C1020E0E02020202060C080000000FFD3
:1042C000FF10101010182FE78000101F1F10101083
:1042D0001010180F0700000080C040202020206030
:1042E000E00000FCFF0100000000000001000001F0
:1042F000070E181010100804030020E0E020202012
:104300002040C080000000FFFF000000000001FF0F
:10431000FE00101F1F10101018080E07010020E0EB
:10432000E020202020202060800000FFFF101010DF
:10433000107C00000000101F1F101010101010182B
:10434000060020E0E020202020206060800000FFA8
:10435000FF101010107C00000100101F1F10000043
:10436000000000000000000080C06020202040E02D
:10437000000000FCFF0100004040C0C140400001BF
:10438000070E181010100F0F000020E0E0200000B2
:10439000000020E0E02000FFFF101010101010FFC0
:1043A000FF00101F1F1000000000101F1F10000052
:1043B000202020E0E020202000000000000000FF7E
:1043C000FF000000000000001010101F1F10101050
:1043D000000000000000202020E0E020202000005D
:1043E0000000000000FFFF0000000060E08080800F
:1043F000C07F3F00000020E0E020000020A06020FF
:10440000200000FFFF30187CE3C000000000101FF8
:104410001F10000001131F1C181020E0E0200000F6
:1044200000000000000000FFFF000000000000008E
:104430000000101F1F10101010101018060020E0B0
:10444000E0E000000000E0E0E02000FF013FFEC0EF
:10445000E01E01FFFF00101F1000031F0300101FCC
:104460001F1020E0E0C0000000000020E02000FF5E
:104470000003071C78E08000FF00101F1000000000
:104480000000030F1F00000080C060202060C0807B
:10449000000000FEFF010000000000FFFE00000120
:1044A000070E181010180C07010020E0E020202053
:1044B000202060C0800000FFFF2020202020301F2F
:1044C0000F00101F1F10000000000000000000007F
:1044D00080C060202060C080000000FEFF0100005E
:1044E000000000FFFE000001070E1111133C7C6765
:1044F000210020E0E0202020202060C0800000FF7C
:10450000FF101030F0D0080F0700101F1F10000020
:1045100000030F1C10100080C060202020204040AD
:10452000E00000070F0C1818303060E08100001F19
:104530000C0810101010180F07008060202020E0D9
:10454000E020202060800100000000FFFF0000004C
:10455000000100000000101F1F100000000020E0FC
:10456000E020000000000020E02000FFFF0000002D
:1045700000000000FF0000070F18101010101008B6
:1045800007002060E0E02000000020E06020000044
:10459000077FF88000807C03000000000000071FF8
:1045A0001C070000000020E0E02000E0E0200020E8
:1045B000E0200007FFF8E01FFFFCE01F0000000004
:1045C000031F0300011F03000000002060E0A000A3
:1045D0000020E0602000000000038F7CF8C601008E
:1045E00000000010181E130001171F181000206093
:1045F000E0E02000000020E06020000001073EF81D
:10460000E0180700000000000010101F1F1010002D
:10461000000000806020202020A0E0E020000000BA
:104620000000C0F03E0F0300000000101C1F171018
:104630001010101806000000000000FC0404040420
:1046400004000000000000FF000000000000000067
:104650000000007F404040404000000010E00000AB
:1046600000000000000000000000031C608000004B
:10467000000000000000000000030C70800000003B
:104680000404040404FC000000000000000000001A
:1046900000FF00000000000040404040407F00005C
:1046A000000000000010080C040C081000000000BE
:1046B00000000000000000000000000000000000FA
:1046C00000000000000000000000000000000000EA
:1046D00000000000000000000000000000008080DA
:1046E00080808080808080808080000000040408BA
:1046F00008000000000000000000000000000000B2
:1047000000000000000000000000000000000000A9
:1047100000000000000000000000000098D8446481
:104720002424FCF80000000F1F18101010081F1F91
:1047300010180020E0F00000000000000000000061
:10474000FFFF180804040CF8F00000001F0F1810F9
:104750001010180F0300000000000000000000000F
:10476000000000E0F8180404043C380000000003D6
:104770000F0C1010101008060000000000000000D0
:104780000020E0F0000000E0F81C04040408FFFF33
:10479000000000030F18101010081F0F0800000081
:1047A000000000000000000000000000E0F84844A5
:1047B00044444C7870000000030F0C1810101008CF
:1047C00004000000000080C0602020E0C000000461
:1047D0000404FFFF040404040000000010101F1F65
:1047E0001010100000000000000000000000000099
:1047F0000000000070F88C04048CF874040C007045
:1048000076CF8D8D8D89C87870000020E0F0000093
:104810000000000000000000FFFF08040404FCF892
:10482000000000101F1F100000101F1F10000000CC
:10483000000000606000000000000000040404FCB0
:10484000FC000000000000001010101F1F101010CE
:104850000000000000000000006060000000000098
:104860000000040404FCFC0000000000C0C08080C4
:10487000C07F3F0000000020E0F0000000000000CA
:1048800000000000FFFF80C0F41C040400000010C2
:104890001F1F1100031F1C1010000000202020E02B
:1048A000F000000000000000000000FFFF0000001A
:1048B000000000001010101F1F101010000000005A
:1048C0000000000000000000000004FCFC0804FCE4
:1048D000FC0804FCFC00101F1F10001F1F10001F0D
:1048E0001F10000000000000000000000000000495
:1048F000FCFC08080404FCF8000000101F1F100056
:1049000000101F1F10000000000000000000000049
:10491000000000E0F0180C04040C18F0E0000003A4
:104920000F0C101010100C0F03000000000000000E
:104930000000000000000004FCFC080404040CF863
:10494000F0000080FFFF889010101C0F0300000093
:104950000000000000000000000000E0F81C04045B
:104960000408F8FC000000030F1810109088FFFFE7
:1049700080000000000000000000000000000404AF
:1049800004FCFC100804040C0C001010101F1F1075
:1049900010100000000000000000000000000000F7
:1049A000000000003078CCC48484840C1C0000001B
:1049B0001E1810101011190F06000000000000C092
:1049C00000000000000000040404FFFF04040400D1
:1049D0000000000000000F1F1010100C000000006D
:1049E000000000000000000000000004FCFE0000C9
:1049F0000004FCFE000000000F1F181010081F0F1D
:104A0000080000000000000000000000000000049A
:104A10000C3CFCC40000C43C0C0400000000010F6E
:104A20001E0E010000000000000000000000000059
:104A30000000043CFCC400E47CFC84807C04000096
:104A4000071F070000071F0700000000000000000C
:104A50000000000000000004041C7CE4C0341C04BE
:104A600004000010101C1601131F1C181000000079
:104A70000000000000000000000000040C3CFCC42A
:104A800000C43C0404000000C080C1370E010000D7
:104A90000000000000000000000000000000000016
:104AA0001C0404C4F47C1C0400000000101C1F172C
:104AB000111010180E0000000000000000F80C0497
:104AC000000000000000001028EF000000000000BF
:104AD00000000000003F60400000000000000000F7
:104AE000FF0000000000000000000000FF000000C8
:104AF0000000000000000000FF00000000000000B7
:104B0000040CF80000000000000000000000EF2886
:104B1000100000000000000040603F0000000000A6
:104B200000000018060202040810202030080000CF
:104B30000000000000000000000000000000000075
:104B40000000000000000000F010101010FF101016
:104B50001010F000000000000F04040404FF04041F
:104B600004040F0000004040405F555555755555F1
:104B7000555F404040000040200F094989790909EC
:104B8000090F2040000000FE02424ACA4A4ACA4AAF
:104B90004A4202FE000000FF40504C4340404F504C
:104BA000505C40FF00000000F888888888FF8888F3
:104BB0008888F800000000001F080808087F88881F
:104BC00088889F80F00080828282828282E2A29224
:104BD0008A8682808000000000000040807F000004
:104BE000000000000000101010FF10900888888856
:104BF000FF88888808000444827F01808040432C1D
:104C00001028468180000010101010D030FF30D0E6
:104C1000121C1010000010080402010000FF000028
:104C200001020408100004040484E43C2724242422
:104C300024E40404040004020100FF0909090949ED
:104C4000897F0000000000FE225A8600FE929292A8
:104C50009292FE00000000FF04080700FF402003BE
:104C60000C142241400000804020180680000718E4
:104C700020408000000001002070282621202024F0
:104C800038600001010000101292929292929212EA
:104C90001202FE0000000000003F101010103F0044
:104CA00040807F000000000000C080808080808005
:104CB00080FC84808080808080C0C0000000000074
:104CC00000FF7F404040404040FF40404040404067
:104CD00040FF7F0000000000000000000000000016
:104CE000007F7000000000000000000000000000D5
:104CF00000000000000000000000000000FCF800C0
:104D000000000000000000000000000000000000A3
:104D10000000FFFE020202020202020202FFFF0284
:104D20000202020202020202FF0300000000000071
:104D300000001F1F040404040404040404FFFF040F
:104D400004040404040404041F0000000000000024
:104D5000000000000000000000000000007F3F0095
:104D60000000000000000000000000000000000043
:104D70000000000000000000000000000000000033
:104D80000000000000000000000000F8F8F0F070E3
:104D900020000000000000000000000000000000F3
:104DA0000000000000000000000000000000000003
:104DB0000000000000008000000000000000000073
:104DC0000000000000000000000000FFFFFFFF00E7
:104DD00000000000000000000000000000000000D3
:104DE00000008080000000000000000000000000C3
:104DF00000000000000000FFFFFE06060606060693
:104E00000606060606060606060606FFFFFFFF065E
:104E10000606060606060606060606060606060632
:104E200006FFFFFFFF070200000000000000000077
:104E300000000000000000FFFFFF00000000000075
:104E40000000000000000000000000FFFFFFFF0066
:104E50000000000000000000000000000000000052
:104E600000FFFFFFFF000000000000000000000046
:104E700000000000000000FFFFFF181818181818A5
:104E80001818181818181818181818FFFFFFFF1806
:104E90001818181818181818181818181818181892
:104EA00018FFFFFFFF0000000000000000000000EE
:104EB00000000000000002010100000000000000EE
:104EC0000000000000000000000000FFFFFFFF00E6
:104ED00000000000000000000000000000000000D2
:104EE00000010100000000000000000000000000C0
:104EF00000000000000000000000000000000000B2
:104F00000000000000000000000000FFFFFFFF00A5
:104F10000000000000000000000000000000000091
:104F20000000000000000000000000000000000081
:104F30000000000000000000000000000000000071
:104F400000000000000000000000001F1F0F0F0005
:104F50000000000000000000000000000000000051
:104F60000000000000000000000000000000000041
:104F70000000000000000102030406070809000009
:104F80000000010203040000A84F000800000020F8
:104F900010000000C4010008B84F000810000020F5
:104FA000D80C0000E0010008010000001000000023
:084FB000000000000024F400E1
:040000050800018965
:00000001FF
