:020000040800F2
:10000000300B00202902000813170008FF15000814
:10001000111700083B0400089D18000800000000AC
:10002000000000000000000000000000171700089A
:1000300051050008000000001517000819170008F6
:10004000430200084302000843020008430200087C
:10005000430200084302000843020008430200086C
:10006000430200084302000843020008430200085C
:10007000430200084302000843020008430200084C
:10008000A1040008430200084302000843020008DC
:10009000430200084302000843020008430200082C
:1000A000430200084302000843020008430200081C
:1000B000430200084302000843020008430200080C
:1000C00043020008430200084302000843020008FC
:1000D00043020008430200084302000843020008EC
:1000E00043020008430200084302000843020008DC
:1000F00043020008430200084302000843020008CC
:1001000043020008430200084302000843020008BB
:100110004302000843020008A91700084302000830
:10012000430200084302000843020008430200089B
:10013000430200084302000843020008430200088B
:10014000430200084302000843020008430200087B
:10015000430200084302000843020008430200086B
:10016000430200084302000843020008430200085B
:100170004302000843020008430200080000000098
:10018000430200084302000800F002F800F03CF8C7
:100190000AA090E8000C82448344AAF10107DA45E2
:1001A00001D100F031F8AFF2090EBAE80F0013F0F8
:1001B000010F18BFFB1A43F0010318475C2B000026
:1001C0007C2B0000103A24BF78C878C1FAD85207B7
:1001D00024BF30C830C144BF04680C6070470000C1
:1001E0000023002400250026103A28BF78C1FBD840
:1001F000520728BF30C148BF0B6070471FB502F0DF
:10020000E7FC1FBD10B510BD00F0E2F81146FFF786
:10021000F5FF02F033F800F000F903B4FFF7F2FF46
:1002200003BC00F003F90000094880470948004773
:10023000FEE7FEE7FEE7FEE7FEE7FEE7FEE7FEE796
:10024000FEE7FEE704480549054A064B70470000F3
:10025000991700088901000830050020300B0020A4
:10026000300700203007002053EA020C00F06980BC
:100270002DE9F04B4FF00006002B1FBFB3FA83F5BA
:1002800003FA05F424FA05F65E4012BF1643B2FAEB
:1002900082F502FA05F4C5F120051EBF22FA05FC1D
:1002A00044EA0C04203556EA044C4FEA144418BFC3
:1002B000641C4FF000084FF00009904271EB030CF2
:1002C00039D3002919BFB1FA81F701FA07F6B0FA5C
:1002D00080F700FA07F6C7F120071EBF20FA07FCD7
:1002E00046EA0C062037B6FBF4FCA7EB0507103FE7
:1002F00007F01F0BCBF120060CFA0BFB2CFA06F6CD
:1003000044BFB3460026202FA4BF5E464FF0000B2B
:100310005BEA060C08BF4FF0010B19EB0B09ABFBB6
:10032000027C48EB0608C01B06FB02CC0BFB03CC8F
:1003300071EB0C01C1E70B46024641464846BDE859
:10034000F08B13B54FF000004FF00001AFF30080C9
:10035000BDE81C4070474FF0000200B513469446BC
:100360009646203922BFA0E80C50A0E80C50B1F10D
:100370002001BFF4F7AF090728BFA0E80C5048BF21
:100380000CC05DF804EB890028BF40F8042B08BFBF
:10039000704748BF20F8022B11F0804F18BF00F8BB
:1003A000012B704770477047704710B500F008F890
:1003B000006810BD10B5044600F002F8046010BDDE
:1003C00000487047CC04002000487047CC0400204F
:1003D0007546FFF7F9FFAE4605006946534620F023
:1003E0000700854618B020B5FFF72CFFBDE8204078
:1003F0004FF000064FF000074FF000084FF0000BE1
:1004000021F00701AC46ACE8C009ACE8C009ACE893
:10041000C009ACE8C0098D46704710B50446AFF37B
:1004200000802046BDE81040FFF7F7BE01491820C4
:10043000ABBEFEE7260002007047FEE710B5846BF6
:10044000204600F0B3F80120207110BD10B5846B78
:10045000204600F080F80120207110BD10B5846B9B
:10046000206940F004002061204600F0A2F801203D
:10047000207110BD10B5846B206940F0040020612C
:10048000204600F06BF80120207110BD10B5806B84
:1004900000F08DF810BD10B5806B00F05DF810BD58
:1004A000014800F097B900002404002001681823D7
:1004B000CAB2103AB2FBF3F2054B6FF30901032AFB
:1004C0009B5CC36500D9091D816508467047000023
:1004D000DA2B000810B5014600208B698A6A4FF0BC
:1004E000C07453B1B3F5005F15D072B1012A0CD0BE
:1004F000022A0AD0032A09D104E01AB1012A06D03F
:10050000022A03D1C96AC90100D5012010BDC96AF8
:10051000A142FAD010BD002AF7D0012AF2D0022A57
:10052000F3D0032AF3D010BD30B50468256825F454
:1005300080252560046863608368402B036803D0CE
:1005400099600068C26030BD9A600068C16030BDCB
:10055000704772B6FEE7704770477047704770B5D6
:1005600000B3F9B14379012B1ED001264671022355
:10057000037105682C6802F0100340F6FE729A4081
:100580009443D1E900210A439A4022432A6001683A
:100590000A68C0249C40A2430A6006710021417190
:1005A000084670BD012070BD022070BD70477047C5
:1005B000704770472DE9F041044600680668456BB6
:1005C000B1044FF0040710D5A9040ED52771216995
:1005D00041F001012161F90241632068016821F4C1
:1005E000805101602046FFF7E3FFB00014D5A8005A
:1005F00012D52771206940F00200206121684FF078
:10060000005048632068016821F080510160204655
:10061000BDE8F041FFF7A1BFBDE8F08170B504006F
:1006200003D02079002510B105E0012070BD65716F
:10063000204600F007F8022020712561012020717A
:10064000002070BD70B586B0054614216846FFF7DE
:1006500082FE23492868884240D12248002601684A
:1006600041F000510160006800F0005005901D4805
:100670001038016841F0010101600068694600F02E
:1006800001000590102000900320CDE901061648D6
:1006900000F012FA164C154820604FF06060606060
:1006A0004020C4E9020600012061800060618000F2
:1006B000A0618011E0610002C4E90806204600F054
:1006C00059F908B1FFF745FFAC600022114636200A
:1006D000A56300F05DFB362000F04CFB06B070BD5A
:1006E0000074004040380240000002408860024030
:1006F000240400202DE9F0410400069817460D4619
:100700001BD0617901291BD001266671022121715C
:10071000C5B1E2682949D163E26829491164E268F8
:100720002849D16421680A6842F080520A6040B3C7
:100730002268042828D01C3227E00120BDE8F0817F
:100740000220FBE7A2682049D163A2681F49116417
:10075000A2681F49D16421680A6842F480520A6085
:1007600020B12268042804D0103203E02268083245
:1007700000E00C322068016841F400510160A0687B
:1007800009E02268143200E018322068016841F064
:1007900000510160E068394600F056F900216171AE
:1007A00020B1216941F004012161C7E721680A688D
:1007B00005F010039E4032430A60BFE74D04000875
:1007C00097040008750400083D0400088D04000823
:1007D0005D0400082DE9F84304464FF00009CDF808
:1007E000009063484FF41651A56D0068B0FBF1F717
:1007F0002E6894F85C10082000FA01F131420FD005
:1008000021680A6852070BD50A6822F004020A60C0
:1008100094F85C108840A860606D40F0010060654D
:1008200094F85C104FF0010808FA01F0304208D04B
:1008300021684969090604D5A860606D40F002008E
:10084000606594F85C1004208840304208D021682C
:100850000968890704D5A860606D40F004006065F0
:1008600094F85C1010208840304218D02168096844
:10087000090714D5A86020680168490304D50068F9
:10088000000308D5A16C07E00168C90503D401681D
:1008900021F008010160216C09B12046884794F8D5
:1008A0005C1020208840304231D021680968C90698
:1008B0002DD5A86094F8350005282068016806D079
:1008C000490347D5006800031DD4616C1CE021F08A
:1008D000160101602068416921F080014161206CAE
:1008E00008B9A06C20B12068016821F008010160FE
:1008F00094F85C103F208840A86084F8358084F824
:100900003490216D1FE0E16B09B120468847606D8E
:1009100000282BD0606DC00714D0052084F8350066
:100920002068016821F0010101600098401C0090DE
:10093000B84203D820680068C007F6D184F8358033
:1009400084F83490E16C002910D001B02046BDE855
:10095000F04308470168C905D5D4016821F01001AA
:10096000016084F8358084F83490CCE7BDE8F883E2
:100970000C0000202DE9F041044600F09BF90646EA
:100980005CB1022084F83500002584F834502068DA
:10099000016821F0010101600DE00120BDE8F08156
:1009A00000F088F9801B052805D920206065032008
:1009B00084F83500F2E720680068C007F0D12268AB
:1009C000116820480140D4E901031843D4E90336F3
:1009D0003343184363691843A3691843E369184311
:1009E000236A18430843616A042903D1D4E90B132D
:1009F00019430843106020684069666A20F00701C7
:100A000030460E43012704280CD1A06A0643E06A51
:100A100040B12046FFF75EFD20B14020606584F8BC
:100A20003570BAE7206846612046FFF73FFD94F82D
:100A30005C203F2191408160656584F8357000201D
:100A4000ACE700003F8010F02DE9F0410446866DD0
:100A500090F83400002501280DD0012084F83400DE
:100A600094F835700020012F07D084F83400022557
:100A70002846BDE8F0810220FBE7022784F83570A4
:100A800060652046FFF750FD94F85C103F208840D9
:100A9000B0602068016841F016010160206C20B14F
:100AA0002068016841F0080101602068016841F098
:100AB00001010160DCE700002DE9F84FDFF8BCA17F
:100AC0000022012503264FF00F090AF1040BAAF1B9
:100AD000040E00BF0B6805FA02F42340A34270D154
:100AE0000F7907F00307012F01D0022F16D1876875
:100AF0004FEA420806FA08FC27EA0C07D1F80CC0B6
:100B00000CFA08FC4CEA070CC0F808C04768A74379
:100B10000C79C4F3001494403C4344600C79E443E2
:100B2000A4070AD0C4684FEA420C06FA0CF7BC438B
:100B30008F6807FA0CF72743C7600C7904F00304A9
:100B4000022C12D1D40800EB840CDCF820405707AB
:100B5000FF0E09FA07F824EA0804D1F8108008FA11
:100B600007F848EA0408CCF8208004684FEA420CF1
:100B700006FA0CF7BC430F7907F0030707FA0CF7E6
:100B8000274307604C6814F4403F70D03C4C276802
:100B900047F480472760246822F0030704F4804468
:100BA0000094384C07EB040CDCF8084897074FEA30
:100BB000177809FA08F7BC43334FB84202D100272F
:100BC00024E054E0314FB84201D101271EE0304FFC
:100BD000B84201D1022719E02E4FB84201D10327B4
:100BE00014E02D4FB84201D104270FE02B4FB8423B
:100BF00001D105270AE02A4FB84201D1062705E0B6
:100C0000284FB84201D1072700E0082707FA08F764
:100C10002743CCF80878DAF800405746D1F804C0EA
:100C20009C435FEACC2C00D51C433C60DBF80040C1
:100C30005F46D1F804C09C435FEA8C2C00D51C436E
:100C40003C60DEF800407746D1F804C09C435FEA80
:100C50008C3C00D51C433C60084F083F3C68D1F8F1
:100C600004C09C435FEACC3C00D51C433C60521C52
:100C7000102AFFF42FAFBDE8F88F0000083C0140B8
:100C800044380240003001400000024000040240AD
:100C900000080240000C0240001002400014024014
:100CA00000180240001C02400AB18161704709042B
:100CB000FBE700000148806870470000000000204A
:100CC000024881680278114481607047000000206A
:100CD0000B4810B5016841F400710160016841F4EE
:100CE00080610160016841F480710160032000F0BF
:100CF0006FF80F2000F006F800F024F8002010BD77
:100D0000003C024070B50D4D04464FF47A712878CE
:100D1000B1FBF0F00A490968B1FBF0F000F0ECFA21
:100D200048B9102C07D200222146501E00F030F89E
:100D300000206C6070BD012070BD0000000000202C
:100D40000C0000200A4808B5016841F480410160A8
:100D5000006800F4804000900548001F016841F0E1
:100D600080510160006800F08050009008BD0000D4
:100D700044380240002809DB00F01F0201219140A5
:100D80004009800000F1E020C0F800117047000029
:100D9000F0B40E4B1B680C46C3F30223C3F10705E6
:100DA000042D00D90425191D072901D2002300E0D4
:100DB000DB1E012606FA05F1491E214099409E409E
:100DC000761E16403143F0BC00F081BD0CED00E012
:100DD000064900F0070208684FF6FF03184040EA92
:100DE0000220034A10430860704700000CED00E049
:100DF0000000FA052DE9F0470E46050065D0DFF842
:100E00001481D8F80000F7B200F00700B04207D212
:100E100088F80070D8F8000000F00700B04254D104
:100E200028683D4C810712D5400703D5206840F45F
:100E3000E05020602878000703D5206840F4604027
:100E400020602068A96820F0F0000843206028781E
:100E5000C0072DD0304968680839012812D002280F
:100E600013D0032811D00968890700292DDA2168D9
:100E700021F0030101432160FFF71CFF814641F28D
:100E8000883A0EE009688903EFE709688901ECE711
:100E9000FFF710FFA0EB0901514502D90320BDE87F
:100EA000F0872068696800F00C00B0EB810FEFD18B
:100EB000D8F80010404601F00701B14207D9077089
:100EC000006800F00700B04201D00120E7E7287871
:100ED000400705D52068E96820F4E0500843206009
:100EE0002878000706D52068296920F4604040EA88
:100EF000C100206000F018F82168084AC1F303110E
:100F0000515CC8400649086006480068FFF7FAFED1
:100F10000020C4E7003C024008380240E22B0008F1
:100F20000C00002004000020154810B5006810F0E7
:100F30000C02144813D01449042A0FD0082A0ED1E9
:100F40000F4C241F2268236802F03F025B0207D582
:100F50002068C0F38810A0FB010106E0084610BD20
:100F60002168C1F38811A1FB00010023FFF77CF980
:100F70002168C1F30141491C4900B0FBF1F010BDEB
:100F8000083802400024F40040787D012DE9F84F34
:100F900004006ED02078DFF84C93C007A9F1040557
:100FA0004AD009F104000168C1F38101012908D088
:100FB0000068C0F3810002280AD1D9F8000040027D
:100FC00006D52868800337D560680028E1D033E073
:100FD0006068B0F5803F10D0B0F5A02F286810D021
:100FE00020F480302860286820F480202860606821
:100FF000A8B1FFF75FFE06460DE0286840F4803098
:10100000F4E740F480202860F7E700BFFFF752FEC6
:10101000801B642873D828688003F7D50CE0FFF79D
:1010200049FE064605E000BFFFF744FE801B64282A
:10103000F0D828688003F7D42078DFF8AC828007E6
:101040004FF0000A3ED5A748001D016811F00C0FB3
:1010500008D00068C0F3810002280BD1D9F8000045
:10106000400207D42868800716D5E068012800D11F
:1010700012E033E1E068B8B10120C8F80000FFF7E2
:1010800019FE064605E000BFFFF714FE801B02288C
:10109000C0D828688007F7D52868216920F0F800B3
:1010A00040EAC10028600DE0C8F800A0FFF702FE8A
:1010B000064604E0FFF7FEFD801B02281FD82868C3
:1010C0008007F7D42078000722D5864F87486169CA
:1010D000703771B101210160FFF7ECFD064604E0B5
:1010E000FFF7E8FD801B022809D838688007F7D58C
:1010F0000EE0C0F800A0FFF7DDFD064605E082E047
:10110000FFF7D8FD801B02287DD838688007F7D408
:101110002078400768D5DFF8CCB100270BF13C0BF5
:10112000DBF80000C0000BD4DBF8001041F0805168
:10113000CBF80010DBF80000012700F08050009091
:101140006B4E3068C00510D4306840F48070306059
:10115000FFF7B0FD009005E0FFF7ACFD0099401AE5
:10116000022850D83068C005F6D55E4EA0686C36AF
:1011700001280FD00528306810D020F00100306021
:10118000306820F004003060A068B8B1FFF792FD2D
:1011900000900FE0306840F00100F4E740F00400F8
:1011A0003060F7E7FFF786FD0099411A41F2883079
:1011B000814266D830688007F4D50EE0FFF77AFDEB
:1011C000009007E0FFF776FD0099411A41F2883060
:1011D000814256D830688007F4D42FB1DBF8001074
:1011E00021F08051CBF80010A069C8B33D49091D1A
:1011F0000968C1F3810102294AD00228504607D06C
:10120000C8F8600000E03CE0FFF754FD04463BE016
:101210004746C8F86000FFF74DFD064605E000BFF1
:10122000FFF748FD801B02282BD828688001F7D4DF
:10123000D4E907010843A16A2E4A490802EB01419B
:10124000626A41EA8211084394F82C1040EA016175
:10125000C9F8001001203866FFF72CFD044606E0AF
:101260003EE000BFFFF726FD001B022809D82868D2
:101270008001F7D534E000BFFFF71CFD001B0228FA
:1012800002D90320BDE8F88F28688001F4D427E054
:101290000128F7D0D9F80000E26900F480019142FA
:1012A0001CD1226A00F03F01914217D147F6C0716C
:1012B000626A0140B1EB821F10D1A26A4FF0FF3386
:1012C00000F4403103EB5202B1EB024F06D194F827
:1012D0002C1000F07060B0EB016F01D00120D1E75D
:1012E0000020CFE70438024000004742800E47420A
:1012F000007000400000FFFF10B5401EB0F1807F7D
:1013000001D3012010BD4FF0E02460610F21601770
:1013100000F0DDFA0020A06107202061002010BD50
:101320007047704770B590F83C20012A32D00124F4
:1013300080F83C40022280F83D2003685A689D688E
:1013400022F070060A6832435A60134B02689A42D0
:1013500014D0B2F1804F11D0104B9A420ED0104BE6
:101360009A420BD00F4B9A4208D00F4B9A4205D0AD
:101370000E4B9A4202D00E4B9A4204D1496825F096
:1013800080031943916080F83D40002180F83C10B3
:10139000084670BD022070BD0000014000040040FE
:1013A00000080040000C00400004014000400140E3
:1013B0000018004010B5040003D094F83D0010B1AF
:1013C00007E0012010BD002084F83C00204600F01A
:1013D0001FF8022084F83D00211D206800F0F2F97A
:1013E000012084F8460084F83E0084F83F0084F829
:1013F000400084F8410084F8420084F8430084F8F7
:10140000440084F8450084F83D00002010BD000031
:1014100008B500680B49884212D10B48016841F0B9
:10142000100101600068002200F0100000901146D9
:101430003620FFF7ADFCBDE808403620FFF79ABC28
:1014400008BD0000001000404038024090F83D10F8
:10145000012901D001207047022180F83D10006869
:101460001149884214D0B0F1804F11D00F49884201
:101470000ED00F4988420BD00E49884208D00E4941
:10148000884205D00D49884202D00D49884204D1D6
:10149000816801F00701062903D0016841F00101CC
:1014A000016000207047000000000140000400407F
:1014B00000080040000C00400004014000400140D2
:1014C0000018004070472DE9F04104460068C668E6
:1014D00005694FF00007A90713D5B10711D5F91E0B
:1014E000016101202077206880698007204602D0B2
:1014F000FFF7E8FF04E000F07EF8204600F07CF8FB
:101500002777680716D5700714D521686FF0040097
:101510000861022020772068806910F4407F20460F
:1015200002D0FFF7CFFF04E000F065F8204600F09E
:1015300063F82777280715D5300713D521686FF092
:1015400008000861042020772068C06980072046D1
:1015500002D0FFF7B7FF04E000F04DF8204600F09E
:101560004BF82777E80616D5F00614D521686FF0FA
:1015700010000861082020772068C06910F4407FBF
:10158000204602D0FFF79EFF04E000F034F820462A
:1015900000F032F82777E80708D0F00706D0216876
:1015A0006FF001000861204600F027F8280608D5F2
:1015B000300606D521686FF0800008612046FFF7ED
:1015C000AFFE680608D5700606D521686FF04000AA
:1015D0000861204600F012F8A8060AD5B00608D522
:1015E00021686FF0200008612046BDE8F041FFF758
:1015F00098BEBDE8F0817047704770477047FEE7BE
:101600001CB500200D49009001900B480860084669
:10161000FFF704F808B1FEF79CFF042000900220B9
:101620000190002269460548FEF799FF002801D085
:10163000FEF78FFF1CBD0000007400401004002066
:10164000094808B5016841F40011016000680022F2
:1016500000F40010009011461020FFF799FBBDE840
:1016600008401020FFF786BB3038024030B587B005
:1016700014216846FEF76FFE11480024016841F00E
:1016800020010160016801F020010591016841F02D
:101690000101016000680B4D00F001000590224639
:1016A00080212846FFF700FB802000900120CDE933
:1016B0000104694628460394FFF7FEF907B030BDE0
:1016C00030380240001402401CB500240F4800943A
:1016D0000D490194016040F23F61C0E9011401210C
:1016E0008461C160FFF766FE08B1FEF732FF20207B
:1016F000CDE9000469460548FFF714FE002801D033
:10170000FEF727FF1CBD00000010004084040020ED
:10171000FEE7FEE770477047FFF7D2BA10B592B008
:1017200030216846FEF717FE14210CA8FEF713FEC1
:1017300017480024016841F080510160006800F002
:10174000805011901348016841F4804101600068A5
:10175000069400F480401190022000900120039034
:10176000102004906846FFF711FC08B172B6FEE73E
:101770000F20CDE90C040E940F9400210CA81094B6
:10178000FFF738FB002801D072B6FEE712B010BD9B
:1017900040380240007000400248016841F4700186
:1017A0000160704788ED00E010B50448FEF702FFC5
:1017B000BDE810400248FFF786BE0000100400207C
:1017C00084040020F0B50268294C2A4D2A4E2B4F84
:1017D0002B4B4FF0804CA04209D0604507D0A84267
:1017E00005D0B04203D0B84201D0984204D122F0D3
:1017F000700E4A6842EA0E02A0421BD0604519D022
:10180000A84217D0B04215D0B84213D0984211D098
:101810001C4DA8420ED01C4DA8420BD01B4DA84217
:1018200008D01B4DA84205D01A4DA84202D01A4D2F
:10183000A84203D122F44075CA682A434D6922F0B8
:1018400080022A4302608A68C2620A688262A042F9
:1018500001D0984201D10969016301214161016907
:10186000C90703D0016921F001010161F0BD000049
:10187000000001400004004000080040000C00404F
:101880000004014000400140004401400048014084
:1018900000180040001C004000200040FEE703B498
:1018A00001984100009850EAC12018BF04204A0D59
:1018B00018BF40F0010040F2FF72B2EB515F08BF69
:1018C00040F00200012808BF052002B07047090758
:1018D000090E002804DB00F1E02080F800147047B6
:1018E00000F00F0000F1E02080F8141D70470000A8
:1018F00010B52F499FED2C1B2DED020B84B00598E0
:1019000020F000408842DCBF00209DED040B32DD5A
:101910002849884209D1049840B94FF00100FEF7E8
:1019200049FD00F03DFC06B010BD05DB9DED040B4C
:1019300000F02AFC06B010BD68469DED040B00F0D7
:101940003BF810F0030011D0012818D09DED021BC8
:101950009DED000B02281AD000F04AFA51EC100B52
:1019600000F0AEFC06B041EC100B10BD9DED021B6B
:101970009DED000B012000F06FFB06B010BD9DED4A
:10198000021B9DED000B00F033FA06B010BD0120E4
:1019900000F062FB51EC100B00F092FC06B041EC41
:1019A000100B10BD0000000000000000000000004F
:1019B000FB21E93F0000F07F2DE9F14F04462DEDBA
:1019C000020B2DED088B8AB09FEDE70B80ED020B2B
:1019D000139EE74826F0004585420ADC9DED120B78
:1019E000002084ED000B0AB0BDEC088B03B0BDE80D
:1019F000F08FE0489FEDE0AB9FEDE1BBA84247DDF3
:101A0000E14F9FEDE39B9FEDE48B9DED120B53ECBB
:101A10001A2B51EC100B002E1CDD00F0EFFF41ECF7
:101A2000100BBD4208D053EC1B2B51EC100B00F0F7
:101A3000E5FFC4E900010BE053EC192B51EC100B4E
:101A400000F0DCFF53EC182B00F0D8FFC4E90001D4
:101A50000120C8E700F040FC41EC100BBD4208D06B
:101A600053EC1B2B51EC100B00F036FCC4E90001C9
:101A70000BE053EC192B51EC100B00F02DFC53EC48
:101A8000182B00F029FCC4E900014FF0FF30AAE751
:101A9000C348A84279DB9DED120B51EC100B00F00E
:101AA0009FFB41EC180B9FEDC00B53EC102B00F08B
:101AB0009BFE9FEDBF1B53EC112B00F00DFC00F0C3
:101AC0000BFE074600F065FE41EC190B53EC1A2B98
:101AD00000F08AFE53EC182B00F084FF41EC180B49
:101AE00053EC1B2B51EC190B00F07EFEDFF8C8A263
:101AF00041EC100B4FEA15580125FA4453EC102B1A
:101B000051EC180B00F07AFF032DC4E900013DD021
:101B1000C1F30A5005EB4511A8EB000011398142D1
:101B200034DA0AEB051BB0EE48AA9BED000BF0EE91
:101B300068AA53EC102B51EC190B00F055FE41EC48
:101B40001B0B51EC1A0B53EC1B2B00F057FF41EC15
:101B5000180B51EC1A0B53EC182B00F04FFF53EC01
:101B60001B2B00F04BFF9BED020B41EC1A0B53ECCF
:101B7000102B51EC190B00F037FE53EC1A2B00F030
:101B80003DFF41EC100B6D1CB8E70EE0002EA8BF26
:101B90003846BFF628AF94ED000B51EC100B00F067
:101BA0008FFBC4E9000178421DE7C6F3130040F43F
:101BB000801EC6F30A50A0F2F530471100F01F0551
:101BC000C5F12000DDF848B008900020069007908D
:101BD0000520EC467949002D07EB0002794408BF47
:101BE00051F8221009D051F8223001EB8201AB40AC
:101BF0004A68089922FA01F11943A1FB0E26A1FBBC
:101C00000B131A449A4234BF0123002303EB060846
:101C10000CEB8003D3E901A60E448E4234BF0121B0
:101C2000002192448A4411B1924502D903E09245C1
:101C300001D2012100E00021C3E901A641444CF892
:101C40002010011EA0F10100C4DC029800F1005038
:101C5000850F0298DDE903678000DDF8148000F04D
:101C600098FD41EC1A0B304600F0AAFD9FED541B85
:101C700053EC112B00F0B8FD41EC1B0B384600F083
:101C80009FFD9FED511B53EC112B00F0ADFD41EC7E
:101C9000180B404600F094FD9FED4D1B53EC112BAB
:101CA00000F0A2FD41EC190B51EC180B53EC192B71
:101CB00000F012FB53EC1B2B00F00EFB53EC1A2B25
:101CC00000F00AFBCDE90801002008909DED080B0B
:101CD00053EC1A2B51EC100B00F090FE53EC1B2B25
:101CE00000F08CFE53EC182B00F088FE53EC192BFF
:101CF00000F078FE9FED381B53EC112B00F074FDC3
:101D00009FED370B41EC180B53EC102B9DED080B9E
:101D100051EC100B00F068FD53EC182B00F0DCFACE
:101D20009FED310B41EC180B53EC102B9DED080B84
:101D300051EC100B00F058FD53EC182B00F0CCFACE
:101D400041EC100B139810F0004F06D06D4251EC8F
:101D5000100B00F0B5FA41EC100B284684ED000B97
:101D600041E600000000000000000000000000004C
:101D7000FB21E93F7CD9024000004054FB21F93FA0
:101D80003163621A61B4D03DFB21F93F00000000CD
:101D90000000601A61B4D03D7370032E8A19A33B12
:101DA000FB2139410000000083C8C96D305FE43F6A
:101DB000000000000000E03F2A1100007810000041
:101DC000000000000000103E000000000000103C79
:101DD000000000000000103A182D4454FB21F93D8A
:101DE0003326A611460B113C00000054FB21F93D9F
:101DF00010B52DED040B2DED088B82B0B0EE419A9D
:101E0000F0EE619A0B9820F000449FED4BABB4F1DB
:101E1000795F11DA9DED0A0B51EC100B00F05CFCC0
:101E2000002801BFB0EE4A0AF0EE6A0A02B0BDEC2B
:101E3000088B04BF04B010BD9DED0A0B53EC102BB2
:101E400051EC100B00F0D0FC41EC180B3C48062183
:101E5000B0EE480AF0EE680A784400F081F853ECDE
:101E6000182B51EC100B00F0BFFC9DED0A0B41EC60
:101E70001B0B53EC192B51EC100B00F0B5FC41EC93
:101E8000190B53EC1B2B51EC180B00F0ADFC53EC71
:101E9000192B00F0B3FD9FED2C0B41EC190B53EC0B
:101EA000102B51EC180B00F09FFC41EC100B284854
:101EB000844210DA53EC192B51EC100B00F09EFD0C
:101EC00053EC1A2B00F08EFD41EC100B02B0BDEC70
:101ED000088B04B010BD1F48A042BCBF9FED1E1B65
:101EE0008DED001B06DBA4F5001001900020009092
:101EF0009DED001B51EC100B53EC112B00F07EFDFF
:101F00009DED000B41EC180B53EC102B51EC1A0B10
:101F100000F074FD41EC1A0B53EC192B51EC180B2B
:101F200000F06CFD53EC1A2B00F05CFD41EC100B43
:101F3000CCE7000000000000000000000000F03FBF
:101F40009C0D000000000000000000000000E03FC9
:101F50003333D33F0000E93F000000000000D23FD0
:101F600070B504462DED028B4D1E00EBC500B0EEA2
:101F7000408AF0EE608A90ED000B35F0060017D035
:101F800053EC182B51EC100B00F02EFC41EC100B15
:101F90006D1E04EBC50090ED001B51EC100B53ECD3
:101FA000112B00F099F941EC100B35F00600E7D148
:101FB000022D36D0042D1CD0062D1CBFBDEC028B8B
:101FC00070BD53EC182B51EC100B00F00DFC94ED90
:101FD0000A1B53EC112B00F07FF953EC182B00F087
:101FE00003FC94ED081B53EC112B00F075F941EC48
:101FF000100B53EC182B51EC100B00F0F5FB94ED8B
:10200000061B53EC112B00F067F953EC182B00F072
:10201000EBFB94ED040B53EC102B00F05DF941EC5D
:10202000100B53EC182B51EC100B00F0DDFB94ED72
:10203000021B53EC112B00F04FF953EC182B00F05E
:10204000D3FB94ED001B53EC112B00F045F9BDECD4
:10205000028B41EC100B70BD31B504462DED040B25
:102060002DED0A8BB0EE41BAF0EE61BA0B989DED02
:102070000A0B20F00040B0F1795F0DDA51EC100B43
:10208000FFF70DFC042808BF00F09AF89DED0A0B3D
:10209000BDEC0A8B05B030BD53EC102B51EC100B8E
:1020A00000F0A2FB41EC180B9DED0A0B53EC182B32
:1020B00051EC100B00F098FB41EC190B2C48B0EEE2
:1020C000480AF0EE680A05217844FFF749FF9FEDC2
:1020D0002ACBB0EE40AAF0EE60AA9CB353EC1C2BC6
:1020E00051EC190B00F080FB41EC1C0B53EC1A2B4C
:1020F00051EC190B00F078FB9FED210B41EC190B13
:1021000053EC102B51EC1B0B00F06EFB53EC192B16
:1021100000F074FC53EC182B00F066FB53EC1B2B07
:1021200000F06CFC53EC1C2B00F068FC9DED0A1BCE
:1021300053EC112B00F056FCBDEC0A8B05B041ECC2
:10214000100B30BDFFE753EC1A2B51EC180B00F0CD
:102150004BFB53EC1C2B00F0BFF853EC192B00F099
:1021600043FB9DED0A1B53EC112B00F0B5F8E3E7A0
:10217000240C000000000000495555555555C5BFB9
:10218000000000000000E03F10B553EC102B51ECB4
:10219000100B00F0A1F841EC100B10BD0000000086
:1021A0009FED050B10B553EC102B51EC100B00F00C
:1021B0003BF941EC100B10BD0000000000000000D6
:1021C0009FED050B10B553EC102B51EC100B00F0EC
:1021D0000BFB41EC100B10BD0000000000000010D4
:1021E00082B0CDE9000121F0004001909DED000B8F
:1021F00002B051EC100B704770B51F4D00242DED4F
:10220000088B9FED158B9FED169B9FED17AB9FEDF8
:1022100018BB600000F0BDFA53EC182B00F0E4FA94
:1022200053EC192B00F0E0FA41EC100BFFF760FBC8
:1022300053EC1A2B51EC100B00F04EF853EC1B2B07
:1022400000F0D2FA00F078FA45F82400641CFF2C64
:10225000DFDDBDEC088B70BD112D4454FB2109401E
:10226000000000000000703F000000000000F03F90
:102270000000000000FE9F401000002008B5FEF79F
:1022800027FDFFF74BFAFFF7F1F9FFF7D9F9FFF751
:10229000B7F9FFF719FAFFF7AFFF002001460090EA
:1022A0004FF48073034A0448FEF724FA0348FFF70B
:1022B000CDF8FEE710000020100400208404002068
:1022C00081F00041704780F00040704721F00041EC
:1022D000704720F00040704710B591EA030F48BFE7
:1022E00083F0004300F19283841A71EB030C05D252
:1022F000121943EB0C03001B61EB0C01DFF824E126
:102300004FEA1154A4EB135C1EEA430F18BF9EEA78
:10231000445F73D023EA0E03DCF1200E21EA04515E
:1023200043F4801332D322FA0CFE10EB0E0023FA92
:102330000CFE41EB0E01CCF1200E03FA0EFE10EB69
:102340000E0051F10001B1F5801FCCF1200E32D208
:1023500001EB045112FA0EF2BDE8104058BF70476D
:10236000401C38BF5FEA420218BF7047002814BF04
:1023700020F0010041F100014FEA410313F5001F75
:1023800038BF7047A1F1C04100F026BB012A43EBE2
:102390000302ACF1200CDCF11F0E32BF4FF0000E37
:1023A00023FA0CF310EB030041EB0451B4EB115F83
:1023B000D0D0A1EB045101F5801149085FEA30004B
:1023C00001EB04510ED350F1000038BF12FA0EFE9B
:1023D00008D1BDE81040C9E7401C38BF5FEA42029F
:1023E000CAD1C3E7BDE810404FEA410313F5001F0F
:1023F00038BF7047A1F1C04100F0EEBA9EEA445FD9
:1024000008D011EA5E0FBDE8104004BF01F00041A2
:1024100000207047BDE8104070B500F08FFA00BF93
:1024200064FBBE3E0000E0FF2DE9C04130B4DFF8A0
:10243000A0C23CEA111418BF3CEA131400F0EC806F
:1024400081EA03051CEA111444EAD57418BF1CEA9A
:10245000131500F0C780A4EB05044FF0004545EAD2
:10246000C12145EAC32341EA505143EA525304F1E2
:102470007F74994204F500344FEAC0204FEAC2222B
:1024800008BF904200F09C804FEA13650FF240169F
:10249000765D4FEA134506FB05F7C7F1807706FB2B
:1024A00007F74FEAD737A7FB03687642C8F58038AD
:1024B000A7FB06CE38BFA8F1010807FB08E64FF0DE
:1024C000000EA6FB028CE6FB03CEDCF1000CCEF185
:1024D000004E38BFAEF1010EA6FB0C584FF00007BE
:1024E0004FF00005E6FB0E87A1FB08C6A0FB07CE58
:1024F00016EB0E0645F10005E1FB076515F1E04E10
:102500007EBFA4F580345FEA46066D4116F1800770
:1025100045F100054FEA17274FEA066647EA0567C7
:10252000A6F1DE46B6F1805F4FEA15251FD9384681
:1025300024F0010C05EBC471BCF1FE6F01EB0C1132
:1025400002D8F0BCBDE8008124425CBF01F5801ECA
:102550009EEAC47F02D4F0BCBDE80081244238D496
:10256000F0BCA1F1C041BDE8004100F035BA4FEA2E
:10257000D22242EA43524FEAD323A7FB02864FEA14
:10258000D02040EA415007FB03661EEA0E0F4FEAD7
:10259000D12105FB026658BFA6EB0056B6EB0056EC
:1025A0004FEA520E4EEAC37E18EB0E0E56EB530E58
:1025B000BDD518EB02085E417F1C55F10005B6E75A
:1025C0004FF480154FF000074FF000064FF0000861
:1025D000ADE7F0BC4FF0000001F1C04101F0004157
:1025E000BDE8008111EA0C1F0CEA131500D00CE0C5
:1025F00013EA0C1F00F025804FF00000F0BC81EAC8
:10260000030101F00041BDE80081F0BCBDE80041DC
:1026100081EA030100F0E0B9F0BCBDE8004170B50B
:1026200000F08CF9097EFC3E00F007B881EA030156
:102630004FF0000001F00041704781EA030100F013
:10264000CBB9F0BCBDE800414FF000002149704714
:10265000FFFDFBF9F7F5F4F2F0EEEDEBE9E8E6E467
:10266000E3E1E0DEDDDBDAD8D7D5D4D3D1D0CFCDEE
:10267000CCCBCAC8C7C6C5C4C2C1C0BFBEBDBCBB27
:10268000BAB9B8B7B6B5B4B3B2B1B0AFAEADACAB22
:10269000AAA9A8A8A7A6A5A4A3A3A2A1A09F9F9EFC
:1026A0009D9C9C9B9A9999989797969595949393AE
:1026B000929191908F8F8E8E8D8C8C8B8B8A898945
:1026C00088888787868585848483838282818180C8
:1026D0000000FF070000F87F4FEA41034FEA535321
:1026E000A3F58063D3F11E03C8BFD3F1210C0CDD29
:1026F0004FF0004242EAC12242EA505232FA03FC51
:102700008CEAE17CACEBE1707047102BC4BF002079
:10271000704703F5787CBCF1FF3F04D06FF00042B6
:1027200082EA2100704770B500F008F949922480D0
:1027300000207047F2E700004FEA1153A3F58063D1
:10274000D3F11E03A8BFD3F1200C08DB4FF00042E9
:1027500042EAC12252EA505232FA03F0704709426B
:102760000BD4102BC4BF0020704703F5787CBCF15C
:10277000FF3F05D04FF0FF3070474FF0000070472B
:1027800070B500F0DBF800BF49922480002070474C
:10279000F0E710F0004248BF4042B0FA80F310FA70
:1027A00003F10AD0C3F11D0303F580634FEA4150E2
:1027B00002EB035202EBD12170474FF0000070474B
:1027C000B0FA80F310FA03F10AD0C3F11D0303F548
:1027D00080634FEA41504FEA035202EBD121704728
:1027E0004FF0000070470000DFF848C170B51CEAE8
:1027F000111E1EBF1CEA13159EEA0C0F95EA0C0F62
:1028000000F06F8081EA030423EA4C134EEAD47E81
:1028100021EA4C1141F4801143F48013AE44A1FB32
:10282000024CA0FB0365AEF17F7E361955EB0C051B
:10283000A1FB034C4CF10003A0FB021C16EB0C06A1
:10284000654153F10003094218BF46F0010613F435
:10285000007F0BD14FEA03314FEA0530340341EAE0
:10286000155140EA16506FF003020AE04FEAC32107
:102870004FEAC520F40241EA555140EA56506FF044
:10288000020202EB2E4201EB025585EACE710AD01C
:102890005FEA440C18BF24F0004450F1000041F1FD
:1028A000000120EAD47040F2FE7C624500D270BD87
:1028B000A84214BF4FF080444FF04044002E08BFA0
:1028C0000024BEF1806FA8BFA1F1C041BDE87040F7
:1028D00080F282804FF0000001F1C04101F0004120
:1028E00070479EEA0C0F0CEA131518BF95EA0C0FFF
:1028F00006D04FF0000081EA030E0EF0004170BDDB
:1029000000F01CF88900013E00F007B800F009B89B
:102910004FEA430C5FEA5C5C08D081EA030100F0F7
:102920005BB84FEA410C5FEA5C5CF6D14FF0000007
:10293000014970470000FF070000F87F0EF1020E0A
:102940002EF0030E5EF8046B364205D4012A43EBE9
:10295000030515F5001F12D8012841EB010C1CF5E9
:10296000001F0CD80ED14FEAD17C15F5001F0CEBDF
:102970004C0C0CF1020C08BF4CEBD37C04E04FF084
:10298000080C01E04FEAD37C0CEB4C0526FA05F667
:1029900006F00706B6F1040C06D20EEB860CBDE875
:1029A00070404CF0010C6047DFE80CF0090B0202AC
:1029B0004FF000414FF00000A1F5002170BD194615
:1029C0001046012851EB010418BFD4F5001484BF50
:1029D000002001F0004170BD0808A0F500114FEA89
:1029E0003101704791EA030F10B581F000413FF5C6
:1029F0007BAC83F0004300F009B8000010B591EA09
:102A0000030F48BF83F000433FF56EAC841A71EBAF
:102A1000030C07D212198CF0004C43EB0C03001B83
:102A200061EB0C01DFF8A4E14FEA1154A4EB135C55
:102A30001EEA430F18BF9EEA445F00F0B08023EA0D
:102A40006E03524221EA0451C3EB6E0338BF5B1E92
:102A5000DCF1200E25D322FA0CFE10EB0E0043FA17
:102A60000CFE41EB0E01CCF1200E03FA0EFE10EB32
:102A70000E0051F10001CCF1200E29D412FA0EF211
:102A800001EB0451BDE8104058BF7047401C1CBF0B
:102A9000B2F1004F704700280CBF491C20F0010024
:102AA000704712EB020E43EB030218BF4FF0010E0A
:102AB0004EEA4202ACF1200CDCF11E0E54D943FA6E
:102AC0000CFE10EB0E0051F1FF31CCF11E0ED5D5EE
:102AD0000EF1010E12FA0EFE404141EB010101EB35
:102AE000445C5FEA5C5C10D910EBDE7001EB0451D2
:102AF00038BFBEF1004FBDE8104018BF7047002836
:102B00000CBF491C20F00100704730D24FEAD42C92
:102B100011F5001124F400641BD0B1FA81F20B3AD4
:102B2000A41AA41ED2F12003914030FA03F31943F2
:102B3000904001EBCC71002C01EB0451BDE810403A
:102B4000A8BF704701F1C0414FF0000001F0004103
:102B50007047B0FA80F310FA03F100D110BDE41A07
:102B6000173C4805C90AE4E701EB045110BD4910C0
:102B700001EB0451BDE810404FEA300002E04FF095
:102B8000000170474A0008BF0042F8D0B2F5001FAC
:102B900028BF704701F000414FF0000070479EEAE7
:102BA000445F07D011EA5E0FBDE8104004BF00216A
:102BB00000207047BDE8104070B5FFF7BFFE00BFB2
:102BC00040DFF63E83F00041104670470000E0FF12
:102BD0004FF04070E1EE100A704700061016000634
:102BE00010160000000000000000010203040607A8
:102BF00008090000000000004C5555555555A53FEB
:102C00007751C1166CC156BF9015CB19A001FA3E81
:102C1000AD529C804F7E92BEC4B1B4BD9EEE213EAB
:102C2000D43888BEE9FAA8BD00004054FB21F93F22
:102C30003163621A61B4D03D0000601A61B4D03DC6
:102C40007370032E8A19A33B0000002E8A19A33B40
:102C5000C14920259A837B39000000000000000054
:102C60006E83F9A22915444ED15727FCC0DD34F5F7
:102C7000999562DB4190433CAB6351FE61C5BBDE7D
:102C80003A6E24B7E0D24D42EA2E49061C92D10991
:102C90001CEB1DFE3EA729B1F53582E88444BB2E0E
:102CA00026709CE9417E5FB439D69139F43953835B
:102CB0008B5F849C3B28F9BDFF97F81F0F9805DEBA
:102CC0008B112FEF1F6D0A5ACF7E366DB709CB27B8
:102CD000663F464F2DEA5F9EC7BA27757BF1E5EB4D
:102CE000F739073DEA92528AB15FFB6B085D8D1F91
:102CF000A6F810111111813FD561C119A0012ABF99
:102D00007DFEB157E31DC73EEB9C2B8AE6E55ABE1C
:102D10007CD5CF5A3AD9E53D382D00080000002077
:102D200010000000C4010008482D00081000002019
:102D3000200B0000E001000801000000100000006E
:082D4000000000000024F40073
:040000050800018965
:00000001FF
