:020000040800F2
:10000000C806002029020008AB10000843100008B1
:10001000A91000081F0400089D120008000000003D
:10002000000000000000000000000000F1110008C6
:100030002104000800000000AD100008F3110008C2
:10004000430200084302000843020008430200087C
:10005000430200084302000843020008430200086C
:10006000430200084302000843020008430200085C
:10007000430200084302000843020008430200084C
:10008000430200084302000843020008430200083C
:10009000430200084302000843020008430200082C
:1000A000430200084302000843020008430200081C
:1000B000430200084302000843020008430200080C
:1000C000430200084302000843020008B110000880
:1000D00043020008430200084302000843020008EC
:1000E00043020008430200084302000843020008DC
:1000F00043020008430200084302000843020008CC
:1001000043020008430200084302000843020008BB
:1001100043020008430200084302000843020008AB
:10012000430200084302000843020008430200089B
:10013000430200084302000843020008430200088B
:10014000430200084302000843020008430200087B
:10015000430200084302000843020008430200086B
:10016000430200084302000843020008430200085B
:100170004302000843020008430200080000000098
:10018000430200084302000800F002F800F03CF8C7
:100190000AA090E8000C82448344AAF10107DA45E2
:1001A00001D100F031F8AFF2090EBAE80F0013F0F8
:1001B000010F18BFFB1A43F001031847501100004C
:1001C00070110000103A24BF78C878C1FAD85207DD
:1001D00024BF30C830C144BF04680C6070470000C1
:1001E0000023002400250026103A28BF78C1FBD840
:1001F000520728BF30C148BF0B6070471FB501F0E0
:1002000077F81FBD10B510BD00F0CFF81146FFF70D
:10021000F5FF01F055F800F0EDF803B4FFF7F2FF39
:1002200003BC00F0F5F80000094880470948004782
:10023000FEE7FEE7FEE7FEE7FEE7FEE7FEE7FEE796
:10024000FEE7FEE704480549054A064B70470000F3
:100250008D12000889010008C8000020C80600208F
:10026000C8020020C802002053EA020C00F0698096
:100270002DE9F04B4FF00006002B1FBFB3FA83F5BA
:1002800003FA05F424FA05F65E4012BF1643B2FAEB
:1002900082F502FA05F4C5F120051EBF22FA05FC1D
:1002A00044EA0C04203556EA044C4FEA144418BFC3
:1002B000641C4FF000084FF00009904271EB030CF2
:1002C00039D3002919BFB1FA81F701FA07F6B0FA5C
:1002D00080F700FA07F6C7F120071EBF20FA07FCD7
:1002E00046EA0C062037B6FBF4FCA7EB0507103FE7
:1002F00007F01F0BCBF120060CFA0BFB2CFA06F6CD
:1003000044BFB3460026202FA4BF5E464FF0000B2B
:100310005BEA060C08BF4FF0010B19EB0B09ABFBB6
:10032000027C48EB0608C01B06FB02CC0BFB03CC8F
:1003300071EB0C01C1E70B46024641464846BDE859
:10034000F08B13B54FF000004FF00001AFF30080C9
:10035000BDE81C4070474FF0000200B513469446BC
:100360009646203922BFA0E80C50A0E80C50B1F10D
:100370002001BFF4F7AF090728BFA0E80C5048BF21
:100380000CC05DF804EB890028BF40F8042B08BFBF
:10039000704748BF20F8022B11F0804F18BF00F8BB
:1003A000012B7047704770477047754600F02CF876
:1003B000AE4605006946534620F00700854618B052
:1003C00020B5FFF73FFFBDE820404FF000064FF09B
:1003D00000074FF000084FF0000B21F00701AC467A
:1003E000ACE8C009ACE8C009ACE8C009ACE8C00999
:1003F0008D46704710B50446AFF300802046BDE837
:100400001040FFF70ABF0000004870476800002056
:1004100001491820ABBEFEE7260002007047FEE748
:10042000704772B6FEE790F83510022903D080219C
:10043000416501207047052180F83510006801688A
:1004400021F0010101600020704700002DE9F84F04
:10045000DFF8BCA10022012503264FF00F090AF1A5
:10046000040BAAF1040E00BF0B6805FA02F4234046
:10047000A34270D10F7907F00307012F01D0022F9B
:1004800016D187684FEA420806FA08FC27EA0C07EB
:10049000D1F80CC00CFA08FC4CEA070CC0F808C0F4
:1004A0004768A7430C79C4F3001494403C4344606C
:1004B0000C79E443A4070AD0C4684FEA420C06FA58
:1004C0000CF7BC438F6807FA0CF72743C7600C7919
:1004D00004F00304022C12D1D40800EB840CDCF8E5
:1004E00020405707FF0E09FA07F824EA0804D1F85C
:1004F000108008FA07F848EA0408CCF8208004685D
:100500004FEA420C06FA0CF7BC430F7907F00307D9
:1005100007FA0CF7274307604C6814F4403F70D08B
:100520003C4C276847F480472760246822F0030783
:1005300004F480440094384C07EB040CDCF80848C1
:1005400097074FEA177809FA08F7BC43334FB842C8
:1005500002D1002724E054E0314FB84201D10127F5
:100560001EE0304FB84201D1022719E02E4FB842A9
:1005700001D1032714E02D4FB84201D104270FE029
:100580002B4FB84201D105270AE02A4FB84201D1CA
:10059000062705E0284FB84201D1072700E00827C9
:1005A00007FA08F72743CCF80878DAF800405746EE
:1005B000D1F804C09C435FEACC2C00D51C433C60BE
:1005C000DBF800405F46D1F804C09C435FEA8C2C06
:1005D00000D51C433C60DEF800407746D1F804C0EB
:1005E0009C435FEA8C3C00D51C433C60084F083FAD
:1005F0003C68D1F804C09C435FEACC3C00D51C4366
:100600003C60521C102AFFF42FAFBDE8F88F0000A9
:10061000083C0140443802400030014000000240E4
:100620000004024000080240000C0240001002409A
:100630000014024000180240001C0240014880687B
:1006400070470000000000200248816802781144D1
:1006500081607047000000200B4810B5016841F42C
:1006600000710160016841F480610160016841F43A
:1006700080710160032000F06FF80F2000F006F891
:1006800000F024F8002010BD003C024070B50D4D74
:1006900004464FF47A712878B1FBF0F00A490968F2
:1006A000B1FBF0F000F0B9FC48B9102C07D20022E1
:1006B0002146501E00F030F800206C6070BD012013
:1006C00070BD0000000000200C0000200A4808B5A2
:1006D000016841F480410160006800F480400090AE
:1006E0000548001F016841F080510160006800F07A
:1006F0008050009008BD000044380240002809DB0B
:1007000000F01F02012191404009800000F1E0202B
:10071000C0F8001170470000F0B40E4B1B680C4687
:10072000C3F30223C3F10705042D00D90425191DC5
:10073000072901D2002300E0DB1E012606FA05F19D
:10074000491E214099409E40761E16403143F0BC20
:1007500000F0A5BD0CED00E0064900F007020868B6
:100760004FF6FF03184040EA0220034A1043086096
:10077000704700000CED00E00000FA052DE9F0479D
:100780000E46050065D0DFF81481D8F80000F7B2F6
:1007900000F00700B04207D288F80070D8F80000D7
:1007A00000F00700B04254D128683D4C810712D5B3
:1007B000400703D5206840F4E05020602878000707
:1007C00003D5206840F4604020602068A96820F0CC
:1007D000F000084320602878C0072DD030496868B1
:1007E0000839012812D0022813D0032811D0096833
:1007F000890700292DDA216821F0030101432160D6
:10080000FFF71CFF814641F2883A0EE00968890330
:10081000EFE709688901ECE7FFF710FFA0EB09019A
:10082000514502D90320BDE8F0872068696800F0CF
:100830000C00B0EB810FEFD1D8F80010404601F06A
:100840000701B14207D90770006800F00700B04205
:1008500001D00120E7E72878400705D52068E9683E
:1008600020F4E050084320602878000706D520686F
:10087000296920F4604040EAC100206000F018F8C7
:100880002168084AC1F30311515CC8400649086059
:1008900006480068FFF7FAFE0020C4E7003C02406B
:1008A00008380240FA1200080C0000200400002062
:1008B000154810B5006810F00C02144813D0144904
:1008C000042A0FD0082A0ED10F4C241F2268236857
:1008D00002F03F025B0207D52068C0F38810A0FB3E
:1008E000010106E0084610BD2168C1F38811A1FB93
:1008F00000010023FFF7B8FC2168C1F30141491C46
:100900004900B0FBF1F010BD083802400024F400AB
:1009100040787D012DE9F84F04006ED02078DFF893
:100920004C93C007A9F104054AD009F104000168FD
:10093000C1F38101012908D00068C0F381000228B9
:100940000AD1D9F80000400206D52868800337D5BF
:1009500060680028E1D033E06068B0F5803F10D0D7
:10096000B0F5A02F286810D020F4803028602868C7
:1009700020F4802028606068A8B1FFF75FFE06467B
:100980000DE0286840F48030F4E740F480202860CF
:10099000F7E700BFFFF752FE801B642873D8286872
:1009A0008003F7D50CE0FFF749FE064605E000BFDF
:1009B000FFF744FE801B6428F0D828688003F7D432
:1009C0002078DFF8AC8280074FF0000A3ED5A748B8
:1009D000001D016811F00C0F08D00068C0F3810001
:1009E00002280BD1D9F80000400207D428688007FC
:1009F00016D5E068012800D112E033E1E068B8B113
:100A00000120C8F80000FFF719FE064605E000BF08
:100A1000FFF714FE801B0228C0D828688007F7D58E
:100A20002868216920F0F80040EAC10028600DE044
:100A3000C8F800A0FFF702FE064604E0FFF7FEFD3F
:100A4000801B02281FD828688007F7D42078000769
:100A500022D5864F87486169703771B101210160E5
:100A6000FFF7ECFD064604E0FFF7E8FD801B0228D7
:100A700009D838688007F7D50EE0C0F800A0FFF766
:100A8000DDFD064605E082E0FFF7D8FD801B022869
:100A90007DD838688007F7D42078400768D5DFF81C
:100AA000CCB100270BF13C0BDBF80000C0000BD4ED
:100AB000DBF8001041F08051CBF80010DBF80000AB
:100AC000012700F0805000906B4E3068C00510D4B4
:100AD000306840F480703060FFF7B0FD009005E0B2
:100AE000FFF7ACFD0099401A022850D83068C005C5
:100AF000F6D55E4EA0686C3601280FD00528306808
:100B000010D020F001003060306820F00400306028
:100B1000A068B8B1FFF792FD00900FE0306840F098
:100B20000100F4E740F004003060F7E7FFF786FDCE
:100B30000099411A41F28830814266D830688007B6
:100B4000F4D50EE0FFF77AFD009007E0FFF776FDA1
:100B50000099411A41F28830814256D830688007A6
:100B6000F4D42FB1DBF8001021F08051CBF8001045
:100B7000A069C8B33D49091D0968C1F38101022973
:100B80004AD00228504607D0C8F8600000E03CE098
:100B9000FFF754FD04463BE04746C8F86000FFF706
:100BA0004DFD064605E000BFFFF748FD801B02280B
:100BB0002BD828688001F7D4D4E907010843A16A3B
:100BC0002E4A490802EB0141626A41EA8211084358
:100BD00094F82C1040EA0161C9F800100120386631
:100BE000FFF72CFD044606E03EE000BFFFF726FDC0
:100BF000001B022809D828688001F7D534E000BF1F
:100C0000FFF71CFD001B022802D90320BDE8F88F66
:100C100028688001F4D427E00128F7D0D9F8000033
:100C2000E26900F4800191421CD1226A00F03F0188
:100C3000914217D147F6C071626A0140B1EB821F41
:100C400010D1A26A4FF0FF3300F4403103EB52029F
:100C5000B1EB024F06D194F82C1000F07060B0EBAD
:100C6000016F01D00120D1E70020CFE70438024016
:100C700000004742800E4742007000400000FFFF26
:100C80007047000038B5016804464A688868C04368
:100C9000430606D5C30704D1D3435B0601D4216CB8
:100CA00005E0830708D4D3431B0605D4616C01B06B
:100CB0002046BDE830400847830603D5430601D5EA
:100CC000C30551D4D3439B064ED443060AD494F8AB
:100CD0005130032B49D0636D43F004036365CB6847
:100CE0008B680093830609D4636D43F00103636549
:100CF0008B6800930B6823F040030B60C00506D49B
:100D0000606D40F008006065206880680090606D4C
:100D1000002829D02068416821F0E00141600120CD
:100D200084F85100900701D4D00722D02068416890
:100D300021F003014160114DE06C40B10565E06CAC
:100D4000FFF771FB18B1606D40F040006065A06C6A
:100D5000002809D00565A06CFFF765FB002803D0CB
:100D6000606D40F04000606538BDC86888680090DC
:100D700038BD2046FFF784FF38BD0000BD100008D5
:100D800070B5040009D0606A002540B12561656135
:100D9000A56294F8510040B10CE0012070BD60687C
:100DA000B0F5827FF4D0E561F2E784F85050204638
:100DB00000F044F8022084F851002068016821F016
:100DC00040010160A088218900F4827001F404418F
:100DD0000843A18901F400610843217C01F002016C
:100DE0000843217D01F001010843218B01F40071CA
:100DF0000843217F01F03801084394F8201001F0E6
:100E000080010843218D01F40051084321680860E6
:100E1000A069042101EA104094F8241001F01001A7
:100E20000843216848602068C16921F40061C161FC
:100E30006565012084F85100002070BD10B586B0B2
:100E4000044614216846FFF786FA1749206888424D
:100E500028D116480021026842F4805202600068DE
:100E600000F48050059011481438026842F00102E5
:100E70000260006800F001000590E0200090022070
:100E8000CDE901010320039005200490694608483C
:100E9000FFF7DCFA002211462320FFF73DFC232058
:100EA000FFF72CFC06B010BD003001404438024072
:100EB000000002402DE9F84F984616468A4604463F
:100EC000FFF7BCFB814694F8510001281ED1BAF10E
:100ED000000F73D0002E71D094F85000012815D067
:100EE000012784F85070032084F8510000256565BF
:100EF000C4F830A0A686E686A563A587E587656465
:100F00002564A068B0F5004F03D00CE00220BDE8D6
:100F1000F88F2068016821F04001016020680168B5
:100F200041F48041016020680168490603D40168EA
:100F300041F040010160E068B0F5006F606803D0E7
:100F400048B3012E27D047E008B1012E1FD1206BF6
:100F500021680088C86006E020688168890709D593
:100F6000216B0988C160206B801C2063E08E401ECD
:100F7000E0860CE0FFF762FBA0EB0901414503D3DB
:100F8000B8F1FF3F03D035E0B8F1000F32D0E08E6A
:100F90000028E1D123E0206B21680078087306E087
:100FA0002068816889070AD5216B09780173206B55
:100FB000401C2063E08E401EE0860DE02BE0FFF732
:100FC0003DFBA0EB0901414503D3B8F1FF3F03D03E
:100FD00010E0B8F1000F0DD0E08E0028E0D14A46B5
:100FE0004146204600F072F808B120206065A068F4
:100FF00030B109E084F8517084F85050032086E73E
:101000002068C1688068009084F8517004F8505FCF
:1010100060680028F3D0012079E710B5401EB0F1D8
:10102000807F01D3012010BD4FF0E02460610F21CB
:10103000601700F034F90020A06107202061002033
:1010400010BDFEE7054808B5016841F001010160E7
:10105000006800F00100009008BD00003038024038
:10106000104810B50E4901604FF4827141600021B3
:1010700002228160C0E903120122426152028261B0
:101080001022C0E90721416281620A21C162FFF793
:1010900077FE002803D0BDE81040FFF7C2B910BDAD
:1010A0000030014010000020FEE7FEE7704700001E
:1010B0000148FFF7E7BD00001000002010B5806B6D
:1010C0000021C187C186FFF7DBFD10BDF8B51546CD
:1010D0000E460B46009204460122022100F02CF835
:1010E000A0B9134813490068B0FBF1F04FF47A71CE
:1010F000484300906068B0F5827F0DD133460022EE
:1011000080212046009500F017F870B1606D40F026
:10111000200060650320F8BD009830B1401E0090AB
:1011200020688068C0430006F6D50020F8BD0000A6
:101130000C00002000366E012DE9F8431E46914652
:1011400088460446089DFFF779FA401B351AFFF7D9
:1011500075FA074625480068C0F3CB30684338E08D
:10116000701C37D0FFF76AFAC01BA84203D215B132
:10117000009860B32CE02068416821F0E0014160F4
:101180006068B0F5827F0BD1A068B0F5004F02D047
:10119000B0F5806F04D12068016821F04001016042
:1011A000A06AB0F5005F09D12068016821F4005100
:1011B00001602068016841F400510160012084F859
:1011C0005100002084F850000320BDE8F88300257A
:1011D000401E00902068816838EA010004D0002198
:1011E0004945BDD10020F0E70121F9E70C000020BE
:1011F0007047FFF729BA000010B592B03021684659
:10120000FFF7A9F814210CA8FFF7A5F81D48002145
:10121000026842F080520260006800F08050119035
:101220001948026842F4804202600068022400F417
:1012300080401190012003901020049000940694A7
:101240000820CDE907105020CDE9090404200B90B7
:101250006846FFF75FFB08B172B6FEE70F20CDE9E5
:101260000C04A0200E9040010F904FF4805010907D
:1012700000210CA8FFF782FA002801D072B6FEE721
:1012800012B010BD403802400070004002480168B2
:1012900041F470010160704788ED00E0FEE7090746
:1012A000090E002804DB00F1E02080F800147047EC
:1012B00000F00F0000F1E02080F8141D70470000DE
:1012C00008B5FFF7C9F9FFF797FFFFF7BBFEFFF778
:1012D000C7FE05A000680090C823022269460348A3
:1012E000FFF7E8FDF8E70000010000001000002013
:1012F0004FF04070E1EE100A70470000000000005F
:101300000000010203040607080900002C1300086E
:101310000000002010000000C40100083C13000879
:1013200010000020B8060000E001000801000000E5
:0C13300010000000000000000024F40089
:040000050800018965
:00000001FF
