:020000040800F2
:1000000088130020710200081F150008071400085B
:100010001D15000867040008811800080000000092
:100020000000000000000000000000002315000890
:1000300069040008000000002115000825150008CB
:100040008B0200088B0200088B0200088B0200085C
:100050008B0200088B0200088B0200088B0200084C
:100060008B0200088B0200088B0200088B0200083C
:100070008B0200088B0200088B0200088B0200082C
:100080008B0200088B0200088B0200088B0200081C
:100090008B0200088B0200088B0200088B0200080C
:1000A000B5150008D9150008CD150008C1150008C0
:1000B0008B0200088B0200088B0200088B020008EC
:1000C0008B0200088B0200088B0200088B020008DC
:1000D0008B0200088B0200088B0200088B020008CC
:1000E0008B0200088B0200088B0200088B020008BC
:1000F0008B0200088B0200088B0200088B020008AC
:100100008B0200088B0200088B0200088B0200089B
:100110008B0200088B020008E51500088B0200081E
:100120008B0200088B0200088B0200088B0200087B
:100130008B0200088B0200088B0200088B0200086B
:100140008B0200088B0200088B0200088B0200085B
:100150008B0200088B0200088B0200088B0200084B
:100160008B0200088B0200088B0200088B0200083B
:100170008B0200088B0200088B02000800000000C0
:100180008B0200088B02000800F002F800F060F813
:100190000AA090E8000C82448344AAF10107DA45E2
:1001A00001D100F055F8AFF2090EBAE80F0013F0D4
:1001B000010F18BFFB1A43F001031847941D0000FC
:1001C000B41D000010F8013B0A4413F0030408BFFB
:1001D00010F8014B1D1108BF10F8015B641E05D01B
:1001E00010F8016B641E01F8016BF9D1002D15D0D8
:1001F00010F8014B03F00C030C2BA1EB04040ABF15
:1002000010F8013BA4EB8314A4EB032405F10103D4
:1002100014F8016B5B1E01F8016BF9D5914238BFF0
:1002200010F8013BD1D3704700230024002500269D
:10023000103A28BF78C1FBD8520728BF30C148BF49
:100240000B6070471FB501F076FE1FBD10B510BDE5
:1002500000F0CFF81146FFF7F5FF01F023FB00F0A7
:10026000EDF803B4FFF7F2FF03BC00F0F5F800006F
:100270000948804709480047FEE7FEE7FEE7FEE73A
:10028000FEE7FEE7FEE7FEE7FEE7FEE70448054976
:10029000054A064B70470000A515000889010008B3
:1002A000880D002088130020880F0020880F002070
:1002B00053EA020C00F069802DE9F04B4FF0000684
:1002C000002B1FBFB3FA83F503FA05F424FA05F6F1
:1002D0005E4012BF1643B2FA82F502FA05F4C5F188
:1002E00020051EBF22FA05FC44EA0C04203556EA1C
:1002F000044C4FEA144418BF641C4FF000084FF040
:100300000009904271EB030C39D3002919BFB1FAEF
:1003100081F701FA07F6B0FA80F700FA07F6C7F19D
:1003200020071EBF20FA07FC46EA0C062037B6FB62
:10033000F4FCA7EB0507103F07F01F0BCBF12006DD
:100340000CFA0BFB2CFA06F644BFB3460026202F0E
:10035000A4BF5E464FF0000B5BEA060C08BF4FF0EF
:10036000010B19EB0B09ABFB027C48EB0608C01B29
:1003700006FB02CC0BFB03CC71EB0C01C1E70B4677
:10038000024641464846BDE8F08B13B54FF00000E9
:100390004FF00001AFF30080BDE81C4070474FF004
:1003A000000200B5134694469646203922BFA0E8C5
:1003B0000C50A0E80C50B1F12001BFF4F7AF0907D1
:1003C00028BFA0E80C5048BF0CC05DF804EB8900C2
:1003D00028BF40F8042B08BF704748BF20F8022B05
:1003E00011F0804F18BF00F8012B7047704770471D
:1003F0007047754600F02CF8AE4605006946534636
:1004000020F00700854618B020B5FFF73FFFBDE894
:1004100020404FF000064FF000074FF000084FF06B
:10042000000B21F00701AC46ACE8C009ACE8C009FC
:10043000ACE8C009ACE8C0098D46704710B5044669
:10044000AFF300802046BDE81040FFF70ABF000070
:1004500000487047280D002001491820ABBEFEE778
:10046000260002007047FEE7704772B6FEE7000004
:100470002DE9F84FDFF8BCA10022012503264FF03B
:100480000F090AF1040BAAF1040E00BF0B6805FA6C
:1004900002F42340A34270D10F7907F00307012F24
:1004A00001D0022F16D187684FEA420806FA08FCED
:1004B00027EA0C07D1F80CC00CFA08FC4CEA070C30
:1004C000C0F808C04768A7430C79C4F300149440EF
:1004D0003C4344600C79E443A4070AD0C4684FEA63
:1004E000420C06FA0CF7BC438F6807FA0CF7274357
:1004F000C7600C7904F00304022C12D1D40800EB7D
:10050000840CDCF820405707FF0E09FA07F824EAAC
:100510000804D1F8108008FA07F848EA0408CCF873
:10052000208004684FEA420C06FA0CF7BC430F79AE
:1005300007F0030707FA0CF7274307604C6814F429
:10054000403F70D03C4C276847F4804727602468C0
:1005500022F0030704F480440094384C07EB040CA9
:10056000DCF8084897074FEA177809FA08F7BC4300
:10057000334FB84202D1002724E054E0314FB84253
:1005800001D101271EE0304FB84201D1022719E006
:100590002E4FB84201D1032714E02D4FB84201D1AC
:1005A00004270FE02B4FB84201D105270AE02A4F5C
:1005B000B84201D1062705E0284FB84201D10727EC
:1005C00000E0082707FA08F72743CCF80878DAF89C
:1005D00000405746D1F804C09C435FEACC2C00D5BC
:1005E0001C433C60DBF800405F46D1F804C09C43EC
:1005F0005FEA8C2C00D51C433C60DEF80040774657
:10060000D1F804C09C435FEA8C3C00D51C433C609D
:10061000084F083F3C68D1F804C09C435FEACC3CDB
:1006200000D51C433C60521C102AFFF42FAFBDE8DC
:10063000F88F0000083C014044380240003001407F
:10064000000002400004024000080240000C02408A
:10065000001002400014024000180240001C02403A
:100660000148806870470000880C002002488168BB
:100670000278114481607047880C00200B4810B547
:10068000016841F400710160016841F4806101601A
:10069000016841F480710160032000F06FF80F20C1
:1006A00000F006F800F024F8002010BD003C0240E5
:1006B00070B50D4D04464FF47A712878B1FBF0F017
:1006C0000A490968B1FBF0F000F0ECFA48B9102CC7
:1006D00007D200222146501E00F030F800206C6046
:1006E00070BD012070BD0000880C0020940C00201B
:1006F0000A4808B5016841F480410160006800F4CF
:10070000804000900548001F016841F08051016061
:10071000006800F08050009008BD0000443802409E
:10072000002809DB00F01F020121914040098000F0
:1007300000F1E020C0F8001170470000F0B40E4B4B
:100740001B680C46C3F30223C3F10705042D00D92F
:100750000425191D072901D2002300E0DB1E012614
:1007600006FA05F1491E214099409E40761E16402A
:100770003143F0BC01F085B80CED00E0064900F013
:10078000070208684FF6FF03184040EA0220034AB8
:1007900010430860704700000CED00E00000FA050F
:1007A0002DE9F0470E46050065D0DFF81481D8F832
:1007B0000000F7B200F00700B04207D288F80070DE
:1007C000D8F8000000F00700B04254D128683D4C32
:1007D000810712D5400703D5206840F4E05020601F
:1007E0002878000703D5206840F460402060206826
:1007F000A96820F0F000084320602878C0072DD0B9
:10080000304968680839012812D0022813D003281B
:1008100011D00968890700292DDA216821F0030128
:1008200001432160FFF71CFF814641F2883A0EE048
:1008300009688903EFE709688901ECE7FFF710FF12
:10084000A0EB0901514502D90320BDE8F0872068DB
:10085000696800F00C00B0EB810FEFD1D8F8001000
:10086000404601F00701B14207D90770006800F067
:100870000700B04201D00120E7E72878400705D5FE
:100880002068E96820F4E0500843206028780007D9
:1008900006D52068296920F4604040EAC100206044
:1008A00000F018F82168084AC1F30311515CC840F0
:1008B0000649086006480068FFF7FAFE0020C4E712
:1008C000003C024008380240401F0008940C002001
:1008D0008C0C0020154810B5006810F00C0214486C
:1008E00013D01449042A0FD0082A0ED10F4C241F0C
:1008F0002268236802F03F025B0207D52068C0F33C
:100900008810A0FB010106E0084610BD2168C1F374
:100910008811A1FB00010023FFF7CAFC2168C1F385
:100920000141491C4900B0FBF1F010BD08380240FC
:100930000024F40040787D012DE9F84F04006ED0CA
:100940002078DFF84C93C007A9F104054AD009F1DB
:1009500004000168C1F38101012908D00068C0F3D7
:10096000810002280AD1D9F80000400206D5286883
:10097000800337D560680028E1D033E06068B0F5C7
:10098000803F10D0B0F5A02F286810D020F4803020
:100990002860286820F4802028606068A8B1FFF7EC
:1009A0005FFE06460DE0286840F48030F4E740F42E
:1009B00080202860F7E700BFFFF752FE801B642805
:1009C00073D828688003F7D50CE0FFF749FE064688
:1009D00005E000BFFFF744FE801B6428F0D82868BC
:1009E0008003F7D42078DFF8AC8280074FF0000A4C
:1009F0003ED5A748001D016811F00C0F08D0006813
:100A0000C0F3810002280BD1D9F80000400207D4BE
:100A10002868800716D5E068012800D112E033E18C
:100A2000E068B8B10120C8F80000FFF719FE0646DB
:100A300005E000BFFFF714FE801B0228C0D828681D
:100A40008007F7D52868216920F0F80040EAC10046
:100A500028600DE0C8F800A0FFF702FE064604E09B
:100A6000FFF7FEFD801B02281FD828688007F7D4F7
:100A70002078000722D5864F87486169703771B1A9
:100A800001210160FFF7ECFD064604E0FFF7E8FDF9
:100A9000801B022809D838688007F7D50EE0C0F817
:100AA00000A0FFF7DDFD064605E082E0FFF7D8FD78
:100AB000801B02287DD838688007F7D4207840074B
:100AC00068D5DFF8CCB100270BF13C0BDBF8000058
:100AD000C0000BD4DBF8001041F08051CBF80010BF
:100AE000DBF80000012700F0805000906B4E30686A
:100AF000C00510D4306840F480703060FFF7B0FD5E
:100B0000009005E0FFF7ACFD0099401A022850D88C
:100B10003068C005F6D55E4EA0686C3601280FD04F
:100B20000528306810D020F001003060306820F0D7
:100B300004003060A068B8B1FFF792FD00900FE0AC
:100B4000306840F00100F4E740F004003060F7E75F
:100B5000FFF786FD0099411A41F28830814266D83C
:100B600030688007F4D50EE0FFF77AFD009007E0CB
:100B7000FFF776FD0099411A41F28830814256D83C
:100B800030688007F4D42FB1DBF8001021F08051D9
:100B9000CBF80010A069C8B33D49091D0968C1F32D
:100BA000810102294AD00228504607D0C8F86000C7
:100BB00000E03CE0FFF754FD04463BE04746C8F840
:100BC0006000FFF74DFD064605E000BFFFF748FD5A
:100BD000801B02282BD828688001F7D4D4E90701AC
:100BE0000843A16A2E4A490802EB0141626A41EAC0
:100BF0008211084394F82C1040EA0161C9F80010F2
:100C000001203866FFF72CFD044606E03EE000BFF9
:100C1000FFF726FD001B022809D828688001F7D5B8
:100C200034E000BFFFF71CFD001B022802D903209F
:100C3000BDE8F88F28688001F4D427E00128F7D0B8
:100C4000D9F80000E26900F4800191421CD1226AC7
:100C500000F03F01914217D147F6C071626A01402E
:100C6000B1EB821F10D1A26A4FF0FF3300F4403184
:100C700003EB5202B1EB024F06D194F82C1000F0B6
:100C80007060B0EB016F01D00120D1E70020CFE709
:100C90000438024000004742800E47420070004086
:100CA0000000FFFF10B5401EB0F1807F01D301208E
:100CB00010BD4FF0E02460610F21601700F0E1FDEE
:100CC0000020A06107202061002010BD7047704700
:100CD00010B590F83C20012A22D0012280F83C2057
:100CE000CA688C6822F4407222434C6822F4806205
:100CF00022430C6822F4006222430C6922F48052E1
:100D000022434C6922F400522243C969002322F491
:100D100080420A4301684A6480F83C30002010BDDC
:100D2000022010BD70B590F83C20012A32D0012479
:100D300080F83C40022280F83D2003685A689D6894
:100D400022F070060A6832435A60134B02689A42D6
:100D500014D0B2F1804F11D0104B9A420ED0104BEC
:100D60009A420BD00F4B9A4208D00F4B9A4205D0B3
:100D70000E4B9A4202D00E4B9A4204D1496825F09C
:100D800080031943916080F83D40002180F83C10B9
:100D9000084670BD022070BD000001400004004004
:100DA00000080040000C00400004014000400140E9
:100DB0000018004010B50446022249B104290ED0A3
:100DC000082913D094F84500012816D0012010BD41
:100DD00094F842000128F9D184F842200FE094F8F9
:100DE00043000128F2D184F8432008E094F844003D
:100DF0000128EBD184F8442001E084F84520042246
:100E0000206800F06EFC2068416C41F400414164B0
:100E100011492068884214D0B0F1804F11D00F4999
:100E200088420ED00E4988420BD00E49884208D025
:100E30000D49884205D00D49884202D00C498842AC
:100E400004D1816801F00701062903D0016841F04F
:100E500001010160002010BD0000014000040040BD
:100E600000080040000C0040000401400040014028
:100E70000018004010B5040003D094F83D0010B1F4
:100E800007E0012010BD002084F83C00204600F05F
:100E90001FF8022084F83D00211D206800F0A8FB07
:100EA000012084F8460084F83E0084F83F0084F86E
:100EB000400084F8410084F8420084F8430084F83C
:100EC000440084F8450084F83D00002010BD000077
:100ED00008B500680B49884212D10B48016841F0FF
:100EE000100101600068002200F01000009011461F
:100EF0003620FFF723FCBDE808403620FFF710BC82
:100F000008BD0000001000404038024090F83D103D
:100F1000012901D001207047022180F83D100168AD
:100F2000CA6842F00102CA6000681149884214D0C0
:100F3000B0F1804F11D00F4988420ED00E4988423F
:100F40000BD00E49884208D00D49884205D00D4982
:100F5000884202D00C49884204D1816801F007011F
:100F6000062903D0016841F00101016000207047AB
:100F7000000001400004004000080040000C004058
:100F800000040140004001400018004070472DE976
:100F9000F04104460068C66805694FF00007A907DC
:100FA00013D5B10711D5F91E016101202077206802
:100FB00080698007204602D0FFF7E8FF04E000F0D8
:100FC000BDF8204600F084F92777680716D570072A
:100FD00014D521686FF00400086102202077206892
:100FE000806910F4407F204602D0FFF7CFFF04E075
:100FF00000F0A4F8204600F06BF92777280715D5F4
:10100000300713D521686FF00800086104202077AD
:101010002068C0698007204602D0FFF7B7FF04E0D0
:1010200000F08CF8204600F053F92777E80616D533
:10103000F00614D521686FF01000086108202077B1
:101040002068C06910F4407F204602D0FFF79EFF61
:1010500004E000F073F8204600F03AF92777E8073B
:1010600008D0F00706D021686FF001000861204623
:1010700000F094F9280608D5300606D521686FF0EF
:10108000800008612046FFF721FE680608D570063B
:1010900006D521686FF040000861204600F0B2F9E3
:1010A000A8060AD5B00608D521686FF020000861AF
:1010B0002046BDE8F041FFF70ABEBDE8F081000020
:1010C00070B586B0044614216846FFF768F91749E1
:1010D0002068884227D116480024016841F00101A8
:1010E0000160016801F001010591016841F0100102
:1010F00001600068022500F010000590802000903B
:10110000CDE901540126CDE9034669460948FFF7B8
:10111000AFF928020090CDE90154CDE903466946B4
:101120000548FFF7A5F906B070BD000000000140BA
:10113000303802400000024000100240704770B595
:10114000044690F83C0000260D4601280FD00120EF
:1011500084F83C006AB1042A1DD0082A2FD00C2A3A
:101160003FD00126002084F83C00304670BD0220AC
:1011700070BD206800F0C2FA2068816941F0080162
:1011800081612068816921F00401816120688169A1
:101190002A69114311E0206800F0E0FA20688169B3
:1011A00041F4006181612068816921F4806181617D
:1011B000206881692A6941EA02218161D2E72068B9
:1011C00000F002FB2068C16941F00801C16120689C
:1011D000C16921F00401C1612068C1692A69114314
:1011E00011E0206800F024FB2068C16941F400612F
:1011F000C1612068C16921F48061C1612068C16951
:101200002A6941EA0221C161ACE710B5040003D0AC
:1012100094F83D0010B107E0012010BD002084F8D3
:101220003C00204600F01EF8022084F83D00211DFD
:10123000206800F0DDF9012084F8460084F83E00C3
:1012400084F83F0084F8400084F8410084F84200AC
:1012500084F8430084F8440084F8450084F83D0095
:10126000002010BD08B50068174988422AD11748E8
:10127000016841F0010101600068002200F00100F6
:10128000009011461820FFF759FA1820FFF748FA86
:10129000002211461920FFF751FA1920FFF740FAF2
:1012A000002211461A20FFF749FA1A20FFF738FAF0
:1012B000002211461B20FFF741FABDE808401B2021
:1012C000FFF72EBA08BD000000000140443802407C
:1012D0007047000010B50446022249B104290ED01F
:1012E000082913D094F84100012816D0012010BD20
:1012F00094F83E000128F9D184F83E200FE094F8DC
:101300003F000128F2D184F83F2008E094F8400023
:101310000128EBD184F8402001E084F8412001222B
:10132000206800F0D1F916492068164A884201D099
:10133000904203D1436C43F40043436420688842E5
:1013400013D0B0F1804F10D00F4988420DD00F4913
:1013500088420AD00E49884207D0904205D00D49F4
:10136000884202D00C49884204D1816801F007010B
:10137000062903D0016841F001010160002010BD81
:10138000000001400004014000040040000800404B
:10139000000C0040004001400018004070B51449A6
:1013A000884224D1134C606800F054FD41EC100BCE
:1013B000258804F1080000EBC50090ED001B51ECFE
:1013C000100B53EC112B00F05DFB9FED0B1B53EC4E
:1013D000112B00F081FA00F027FB094948636D1CCE
:1013E000A8B22080B0F5C87F01D10020208070BD58
:1013F000E00C002000000020000000000040AF4092
:10140000000001407047FEE7094808B5016841F057
:1014100001010160016801F001010091016841F0E2
:1014200010010160006800F01000009008BD00008D
:101430003038024010B592B000240F941C2108A847
:101440001094FEF7ACFF20216846FEF7A8FF214864
:101450001F49C0E9001441F63F71C0E902418021F3
:101460000461C0E90541FFF7D0FE08B1FEF7FDFFBA
:101470000F940FA917481094FFF754FC08B1FEF71A
:10148000F4FF602008904FF47A60CDE909040B94D2
:101490000C940D94002208A90E480E94FFF74FFEFD
:1014A00008B1FEF7E2FF00944FF40050CDE904408C
:1014B000029401940394694606480794FFF708FCD8
:1014C00008B1FEF7D2FF0348FFF7FAFD12B010BDD6
:1014D00000000140980C00201CB500240E48009428
:1014E0000C490194C0E9001441F63F71C0E9024182
:1014F0008461FFF7BFFC08B1FEF7B7FF00946946AF
:1015000005480194FFF70EFC002801D0FEF7ADFF5F
:101510001CBD000000100040E00C0020FEE7FEE7CC
:1015200070477047FFF7A2B810B592B030216846F7
:10153000FEF735FF14210CA8FEF731FF17480024F1
:10154000016841F080510160006800F08050119006
:101550001348016841F4804101600068069400F47A
:1015600080401190022000900120039010200490F0
:101570006846FFF7E1F908B172B6FEE70F20CDE942
:101580000C040E940F9400210CA81094FFF708F996
:10159000002801D072B6FEE712B010BD40380240FC
:1015A000007000400248016841F47001016070471A
:1015B00088ED00E00148FFF7EABC0000980C00202D
:1015C0000148FFF7E4BC0000980C00200148FFF739
:1015D000DEBC0000980C00200148FFF7D8BC0000DA
:1015E000980C00200148FFF7D2BC0000E00C00205E
:1015F000F0B50268294C2A4D2A4E2B4F2B4B4FF049
:10160000804CA04209D0604507D0A84205D0B04226
:1016100003D0B84201D0984204D122F0700E4A683B
:1016200042EA0E02A0421BD0604519D0A84217D052
:10163000B04215D0B84213D0984211D01C4DA842E8
:101640000ED01C4DA8420BD01B4DA84208D01B4DFC
:10165000A84205D01A4DA84202D01A4DA84203D183
:1016600022F44075CA682A434D6922F080022A4359
:1016700002608A68C2620A688262A04201D098420F
:1016800001D109690163012141610169C90703D0E1
:10169000016921F001010161F0BD0000000001407D
:1016A0000004004000080040000C0040000401401D
:1016B0000040014000440140004801400018004043
:1016C000001C00400020004010B501F01F03012164
:1016D000046A99408C430462016A9A401143016292
:1016E00010BD10B501F00F030421046A99408C432A
:1016F0000462016A9A401143016210BDF0B5036AA9
:10170000026A22F00102026242688469124E24F0E9
:1017100073050C682C4323F002058B682B430D4D99
:10172000A84201D0B04205D123F00807CB683B4363
:1017300023F00403A84201D0B04205D14D6922F440
:10174000407215438A692A43426084614968416353
:101750000362F0BD0000014000040140F0B5026AE0
:10176000036A23F010030362436884690D6824F45C
:10177000E64444EA05248D6822F0200242EA05127C
:101780000F4D104EA84201D0B04206D1CF6822F0D2
:10179000800242EA071222F04002A84201D0B04281
:1017A00007D14D6923F4406343EA85038D6943EA19
:1017B000850343608461496881630262F0BD000073
:1017C0000000014000040140F0B5026A036A23F4FE
:1017D000807303624368C46922F4007224F07305C5
:1017E0000C68124E2C438D6842EA05220E4DA84229
:1017F00001D0B04206D1CF6822F4006242EA07224B
:1018000022F48062A84201D0B04207D14D6923F48E
:10181000405343EA05138D6943EA05134360C461ED
:101820004968C1630262F0BD00000140000401404C
:1018300030B5046A026A22F4805202624268C369C7
:101840000D6823F4E64343EA05238D6824F400542D
:1018500044EA0534084DA84202D0084DA84204D1FC
:101860004D6922F4804242EA85124260C3614968B0
:101870000164046230BD000000000140000401402A
:10188000FEE70907090E002804DB00F1E02080F8DC
:101890000014704700F00F0000F1E02080F8141DE4
:1018A00070470000FEF7EAFEFFF73EFEFFF7ACFDD3
:1018B000FFF7C0FDFFF710FE0548FFF727FB0021EB
:1018C0000448FFF707FD00210248FFF773FAFEE71F
:1018D000E00C0020980C002010B591EA030F48BFDF
:1018E00083F0004300F1D481841A71EB030C05D21C
:1018F000121943EB0C03001B61EB0C01DFF824E130
:101900004FEA1154A4EB135C1EEA430F18BF9EEA82
:10191000445F73D023EA0E03DCF1200E21EA045168
:1019200043F4801332D322FA0CFE10EB0E0023FA9C
:101930000CFE41EB0E01CCF1200E03FA0EFE10EB73
:101940000E0051F10001B1F5801FCCF1200E32D212
:1019500001EB045112FA0EF2BDE8104058BF704777
:10196000401C38BF5FEA420218BF7047002814BF0E
:1019700020F0010041F100014FEA410313F5001F7F
:1019800038BF7047A1F1C04100F074B9012A43EBA0
:101990000302ACF1200CDCF11F0E32BF4FF0000E41
:1019A00023FA0CF310EB030041EB0451B4EB115F8D
:1019B000D0D0A1EB045101F5801149085FEA300055
:1019C00001EB04510ED350F1000038BF12FA0EFEA5
:1019D00008D1BDE81040C9E7401C38BF5FEA4202A9
:1019E000CAD1C3E7BDE810404FEA410313F5001F19
:1019F00038BF7047A1F1C04100F03CB99EEA445F96
:101A000008D011EA5E0FBDE8104004BF01F00041AC
:101A100000207047BDE8104070B500F0DDF800BF51
:101A200064FBBE3E0000E0FF4FEA1153A3F5806364
:101A3000D3F11E03A8BFD3F1200C08DB4FF0004206
:101A400042EAC12252EA505232FA03F07047094288
:101A50000BD4102BC4BF0020704703F5787CBCF179
:101A6000FF3F05D04FF0FF3070474FF00000704748
:101A700070B500F0B1F800BF499224800020704793
:101A8000F0E70000DFF848C170B51CEA111E1EBF68
:101A90001CEA13159EEA0C0F95EA0C0F00F06F80FC
:101AA00081EA030423EA4C134EEAD47E21EA4C1166
:101AB00041F4801143F48013AE44A1FB024CA0FB1F
:101AC0000365AEF17F7E361955EB0C05A1FB034C87
:101AD0004CF10003A0FB021C16EB0C06654153F110
:101AE0000003094218BF46F0010613F4007F0BD132
:101AF0004FEA03314FEA0530340341EA155140EA19
:101B000016506FF003020AE04FEAC3214FEAC520E6
:101B1000F40241EA555140EA56506FF0020202EBDE
:101B20002E4201EB025585EACE710AD05FEA440CE1
:101B300018BF24F0004450F1000041F1000120EAF8
:101B4000D47040F2FE7C624500D270BDA84214BF42
:101B50004FF080444FF04044002E08BF0024BEF1F7
:101B6000806FA8BFA1F1C041BDE8704080F28280C3
:101B70004FF0000001F1C04101F0004170479EEAC2
:101B80000C0F0CEA131518BF95EA0C0F06D04FF096
:101B9000000081EA030E0EF0004170BD00F01CF859
:101BA0008900013E00F007B800F009B84FEA430C85
:101BB0005FEA5C5C08D081EA030100F05BB84FEAA1
:101BC000410C5FEA5C5CF6D14FF0000001497047C0
:101BD0000000FF070000F87F0EF1020E2EF0030E4A
:101BE0005EF8046B364205D4012A43EB030515F574
:101BF000001F12D8012841EB010C1CF5001F0CD866
:101C00000ED14FEAD17C15F5001F0CEB4C0C0CF1FA
:101C1000020C08BF4CEBD37C04E04FF0080C01E051
:101C20004FEAD37C0CEB4C0526FA05F606F00706C6
:101C3000B6F1040C06D20EEB860CBDE870404CF0F9
:101C4000010C6047DFE80CF0090B02024FF0004185
:101C50004FF00000A1F5002170BD19461046012883
:101C600051EB010418BFD4F5001484BF002001F02B
:101C7000004170BD0808A0F500114FEA310170471E
:101C800010B591EA030F48BF83F000433FF52CAE37
:101C9000841A71EB030C07D212198CF0004C43EB41
:101CA0000C03001B61EB0C01DFF8A4E14FEA1154B7
:101CB000A4EB135C1EEA430F18BF9EEA445F00F0DA
:101CC000B08023EA6E03524221EA0451C3EB6E0353
:101CD00038BF5B1EDCF1200E25D322FA0CFE10EB80
:101CE0000E0043FA0CFE41EB0E01CCF1200E03FA7C
:101CF0000EFE10EB0E0051F10001CCF1200E29D4A4
:101D000012FA0EF201EB0451BDE8104058BF7047C3
:101D1000401C1CBFB2F1004F704700280CBF491C8B
:101D200020F00100704712EB020E43EB030218BFD4
:101D30004FF0010E4EEA4202ACF1200CDCF11E0E17
:101D400054D943FA0CFE10EB0E0051F1FF31CCF1E7
:101D50001E0ED5D50EF1010E12FA0EFE404141EBDA
:101D6000010101EB445C5FEA5C5C10D910EBDE70B2
:101D700001EB045138BFBEF1004FBDE8104018BF61
:101D8000704700280CBF491C20F00100704730D27A
:101D90004FEAD42C11F5001124F400641BD0B1FAE1
:101DA00081F20B3AA41AA41ED2F12003914030FA1A
:101DB00003F31943904001EBCC71002C01EB04516B
:101DC000BDE81040A8BF704701F1C0414FF00000CE
:101DD00001F000417047B0FA80F310FA03F100D12E
:101DE00010BDE41A173C4805C90AE4E701EB0451A9
:101DF00010BD491001EB0451BDE810404FEA30001E
:101E000002E04FF0000170474A0008BF0042F8D0DE
:101E1000B2F5001F28BF704701F000414FF00000ED
:101E200070479EEA445F07D011EA5E0FBDE810409C
:101E300004BF002100207047BDE8104070B5FFF7D7
:101E4000CBFE00BF40DFF63E83F0004110467047F6
:101E50000000E0FF43004FEAD30C4FEA3C0C434044
:101E60001FBF40070CF1605113F0FE4F70471CF08C
:101E7000006F03D100200CF0004170470CF00043CC
:101E800043EA507010B540EACC0000F00EF800BFF5
:101E9000000000924FEA0001FFF7ECBE4FF0004156
:101EA0004FF00000A1F5002170470EF1020E2EF058
:101EB000030E5EF8044B244204D44FEA4102B2F10F
:101EC0007F4F11D84FEA4003B3F17F4F0CD80ED1AA
:101ED0004FEAD07CB2F17F4F0CEB4C0C0CF1020CB2
:101EE00008BF4CEBD17C04E04FF0080C01E04FEA56
:101EF000D17C0CEB4C0324FA03F404F00704B4F196
:101F0000040C06D20EEB840CBDE810404CF0010C22
:101F10006047DFE80CF0070802024FF00040A0F530
:101F2000800010BD0846420018BFD2F1807288BF01
:101F300000F0004010BD4FF04070E1EE100A704715
:101F40000000000000000000010203040607080969
:101F5000701F000800000020980C0000C401000859
:101F60001C270008980C0020F0060000280200083A
:101F70001200015006CDCC4C3F000100FF0031544F
:101F8000A47E256A4F409C18C78127695F408F4611
:101F9000462DA08D674008A072BE2F656F40F334B8
:101FA0000CD3619D7340602FFC9AEE8677404B48BE
:101FB000F2F3FE6E7B407227DFB253557F40E8405C
:101FC0005CE4D69C814080613A23E78D834097583A
:101FD0008230BB7D85409A65A5BA336C874071100D
:101FE000088631598940AE32FB6E95448B40E57DC1
:101FF000B36B402E8D40685F3F8E13168F40CF909D
:102000003D03F87D9040BA950192DB6F9140301FFF
:10201000122CA5609240D7C9E49B45509340E95CDF
:10202000B4BEAD3E944054897585CE2B9540E5698C
:10203000CAF59817964022B5F42AFE0197406C9194
:10204000C656EFEA974047FC91C25DD29840BDB5B5
:1020500016D03AB8994093A06EFA779C9A40B68809
:10206000F8D6067F9B40CD404116D95F9C4046087C
:10207000EB84E03E9D405A2B930C0F1C00FF009E0A
:10208000405FCEB5B456F79E4025D68FA3A9D09F0A
:1020900040846F7F0FFD53A0404D9AAF469DBEA078
:1020A00040E4DD33BB2E28A140E5E001C2AA90A1A7
:1020B00040F35095C10AF8A140409A5A32485EA2B6
:1020C00040FB7C189F5CC3A240037A58A54127A31C
:1020D000402B10CEF5F089A340B2C3BC5464EBA3EF
:1020E0004055E95C9A954BA440BA2E3FB37EAAA412
:1020F00040E0D9AEA01908A54054B912796064A592
:10210000401FBF4C684DBFA540664018B0DA18A606
:1021100040A2D366A80271A640C5C7BBBFBFC7A671
:1021200040632E867B0C1DA74039737978E370A736
:10213000407A7BE46A3FC3A7406347071F1B14A88C
:1021400040AD1067797163A84086E020773DB1A863
:1021500040DD973A2E7AFDA840EC64F2CD2248A9E2
:1021600040F0A00C9F3291A94023112004A5D8A9CA
:10217000403286E079751EAA406FD5679700FF0050
:102180009F62AA4020277D0E1FA5AA407F95DAAB4B
:10219000EFE5AA40DE1771570D25AB40D8B5AA145C
:1021A0007462AB402DFEAA02209EAB4061BD8D5CE7
:1021B0000DD8AB400DF0A3793810AC400BEDAECD8F
:1021C0009D46AC40D4C319E9397BAC405DCB307936
:1021D00009AEAC40F65D574809DFAC40C4BE3B3E9B
:1021E000360EAD40912509608D3BAD40D9ED97D0BD
:1021F0000B67AD40DBE59BD0AE90AD4001BBD0BEE0
:1022000073B8AD409380241858DEAD40314EE0776E
:102210005902AE4070F3CE977524AE4027BE615090
:10222000AA44AE402851D398F562AE401A89488737
:10223000557FAE407C6DEF50C899AE40C32B1C4A11
:102240004CB2AE40D01A64E6DFC8AE4002C5B6B8A4
:1022500081DDAE404DF7747330F0AE40EDD385E8CC
:10226000EA00AF4047E76909B00FAF40E83D4CE7EF
:102270007E1CAF406B7A11B35627AF4066EA3C1F15
:1022800064BD3630AF408699C3761E37AF402362B7
:10229000856F0D3CAF40C0FAE357033FAF401D03CD
:1022A0008240106120613061406150616061705214
:1022B000EC8061905201A052CFB052C2C061D06197
:1022C000E05227F065006510652065306540655077
:1022D00056D86065706580659065A056D3B0560A83
:1022E000C065D05662E0562BF05AD6005ADD106910
:1022F000205A21305A6E405A31505A22605AEF709B
:1023000069805ADB905A85A069B069C05A79D05A61
:1023100037E05A62F06D00036D10036D20035E1DFF
:1023200030035E5240036D50036D60036D70035EB9
:10233000B080035E2A90035E02A0036DB0035E418D
:10234000C0035EF1D0035EE4E0035EE3F0036D00E2
:10235000045E8210045E2120045E5B30045E5840FF
:10236000046D50045EC760045EB370045E8F800429
:102370005EBB90046DA0045E65B0045E1FC0045E89
:10238000E2D0045E52E0045EEAF0045ED200055E34
:102390002B10055EB720055ECD30055E6940055EF9
:1023A000DA50055EA560055E6B70055E9880055E7F
:1023B0009890055E75A0055EDFB0055E66C0055E9F
:1023C00046D0055E62E0055EDDF0054FE79F000642
:1023D0005E7A10065E8C20065E4430064C0A110FB1
:1023E0000F59DFA176BDB440064FC0C5400643C0BB
:1023F00096304FC00440063004C00A355043C070C8
:10240000604FC05440064FC07340064FC0E64006C0
:1024100043C08BA04FC09F400643C09FC04FC072B7
:1024200040064FC0AC400643C0F0F047C070004FBC
:10243000C0D140065EC040064FC02E40064FC0DDF2
:10244000400647C0ED5047C055605EC0400647C0DB
:1024500028804FC07040064FC04A40064FC0BE4063
:102460000647C092C04FC0BC400647C0D2E047C03C
:1024700049F04FC05B40064BC05E104FC02B40067A
:102480004FC08740064FC04E40065EC040065EC04B
:1024900040064BC0F6704FC04240064BC0FD904B0B
:1024A000C004A05EC040064FC0B440064FC05640B6
:1024B000064FC0BC40064BC0E1F05EC040064FC0B6
:1024C0002140064FC06740064FC0A340065EC04093
:1024D000035EC040064FC03B40064FC07B40065ED7
:1024E000C040064FC0AE40065EC040064FC0DC4054
:1024F000064FC0EB40064FC0F2D0034FC026E003AA
:102500004FC03440064FC07100044FC02240064FF8
:10251000C08040065EC040064FC0D740044FC02C6C
:1025200050045EC040064FC00F70044FC00D4006FF
:102530004FC0D540064FC05E40064FC0F740065E14
:10254000C0C0044FC09240065EC0E0045EC0F0040C
:102550005EC000054FC09540064FC03220054FC0F9
:102560007130054FC02840055EC040065EC0400681
:102570005EC040065EC040065EC090055EC0A0051D
:102580004FC04E40065EC040065EC0D0055EC040F3
:10259000065EC0F0055EC040065EC010065EC0402C
:1025A000065EC030065EC040067110522220528581
:1025B00030614061506160617061805DD0065EC0D5
:1025C000E00671B05D400653C07BD05219E05D401B
:1025D000065EC040065EC040065EC040065EC0703B
:1025E0000757C0024056D95056D76056907056C211
:1025F0008056F590565CA05D40065EC000085EC047
:10260000400657C060E0562AF05AD5005ADB105AEF
:102610007D205D70085EC040065EC040065EC0A0C2
:10262000085EC0B0085BC0E8805AD9905A83A05AAF
:10263000ABB05A61C05A78D05A38E069F06D0003E7
:102640006D10035E6120035E1B30035E5040035E2D
:10265000DD50035EB960035E5270035EB180036DAE
:1026600090035DE0095FC0FCB0035E3BC0035EEF1A
:10267000D0035EE1E0035EE0F0035E4A00045E83A7
:1026800010045E2320045E5D30045D800A5FC04854
:1026900050045EC260045EAE70045E8B80045EB661
:1026A00090045E43A0045E67B0045E20C0045EE454
:1026B000D0045D200B5FC0ECF0045ECC00055E260C
:1026C00010055EB120055EC830055E5E40055EDD2A
:1026D00050055EA960055E7070055E9C80055E7E9B
:1026E00090055E6AA0055ED4B0055E50C0055E3000
:1026F000D0055E4CE0054EE640064FC0F940065F4F
:10270000C08B10065EAF20064F955230061E017C2E
:0C2710000C6E10850C00040024F4000086
:040000050800018965
:00000001FF
