:020000040800F2
:1000000070060020290200086B110008DD0F0008AF
:10001000691100081F040008011200080000000018
:100020000000000000000000000000006F11000848
:1000300021040008000000006D1100087111000883
:10004000430200084302000843020008430200087C
:100050004302000843020008230400083F0400088C
:10006000450400084B04000843020008430200084E
:10007000430200084302000843020008430200084C
:10008000430200084302000843020008430200083C
:10009000430200084302000843020008430200082C
:1000A000430200084302000843020008430200081C
:1000B000430200084302000843020008430200080C
:1000C00043020008430200084302000843020008FC
:1000D00043020008430200084302000843020008EC
:1000E00029040008430200084302000843020008F4
:1000F00043020008430200084302000843020008CC
:1001000043020008430200084302000843020008BB
:1001100043020008430200084302000843020008AB
:10012000430200084302000843020008430200089B
:10013000430200084302000843020008430200088B
:10014000430200084302000843020008430200087B
:10015000430200084302000843020008430200086B
:10016000430200084302000843020008430200085B
:100170004302000843020008430200080000000098
:10018000430200085104000800F002F800F03CF8B7
:100190000AA090E8000C82448344AAF10107DA45E2
:1001A00001D100F031F8AFF2090EBAE80F0013F0F8
:1001B000010F18BFFB1A43F001031847901000000D
:1001C000B0100000103A24BF78C878C1FAD852079E
:1001D00024BF30C830C144BF04680C6070470000C1
:1001E0000023002400250026103A28BF78C1FBD840
:1001F000520728BF30C148BF0B6070471FB501F0E0
:1002000017F81FBD10B510BD00F0CFF81146FFF76D
:10021000F5FF01F006F800F0EDF803B4FFF7F2FF88
:1002200003BC00F0F5F80000094880470948004782
:10023000FEE7FEE7FEE7FEE7FEE7FEE7FEE7FEE796
:10024000FEE7FEE704480549054A064B70470000F3
:10025000F1110008890100087000002070060020DC
:10026000700200207002002053EA020C00F0698046
:100270002DE9F04B4FF00006002B1FBFB3FA83F5BA
:1002800003FA05F424FA05F65E4012BF1643B2FAEB
:1002900082F502FA05F4C5F120051EBF22FA05FC1D
:1002A00044EA0C04203556EA044C4FEA144418BFC3
:1002B000641C4FF000084FF00009904271EB030CF2
:1002C00039D3002919BFB1FA81F701FA07F6B0FA5C
:1002D00080F700FA07F6C7F120071EBF20FA07FCD7
:1002E00046EA0C062037B6FBF4FCA7EB0507103FE7
:1002F00007F01F0BCBF120060CFA0BFB2CFA06F6CD
:1003000044BFB3460026202FA4BF5E464FF0000B2B
:100310005BEA060C08BF4FF0010B19EB0B09ABFBB6
:10032000027C48EB0608C01B06FB02CC0BFB03CC8F
:1003300071EB0C01C1E70B46024641464846BDE859
:10034000F08B13B54FF000004FF00001AFF30080C9
:10035000BDE81C4070474FF0000200B513469446BC
:100360009646203922BFA0E80C50A0E80C50B1F10D
:100370002001BFF4F7AF090728BFA0E80C5048BF21
:100380000CC05DF804EB890028BF40F8042B08BFBF
:10039000704748BF20F8022B11F0804F18BF00F8BB
:1003A000012B7047704770477047754600F02CF876
:1003B000AE4605006946534620F00700854618B052
:1003C00020B5FFF73FFFBDE820404FF000064FF09B
:1003D00000074FF000084FF0000B21F00701AC467A
:1003E000ACE8C009ACE8C009ACE8C009ACE8C00999
:1003F0008D46704710B50446AFF300802046BDE837
:100400001040FFF70ABF00000048704710000020AE
:1004100001491820ABBEFEE7260002007047FEE748
:100420007047012000F092B910B54FF4005000F071
:100430008DF9BDE810404FF4004000F087B902206C
:1004400000F084B9042000F081B9082000F07EB9E2
:10045000704700002DE9F0474FF48071B74BB84C5E
:10046000B84DB94ECF014FF4804908283BD004283D
:100470007CD002287BD001287AD0B84279D10122E1
:100480009846184600F066FA01223946204600F0E8
:1004900061FA01221146284600F05CFA0122494621
:1004A000204600F057FA00221021304600F052FAA0
:1004B00001220421404600F04DFA01220821404665
:1004C00000F048FA00221021404600F043FA0122D1
:1004D0002021304600F03EFA01220221284600F099
:1004E00039FA002218E100229846184600F032FA44
:1004F00001223946204600F02DFA012211462846F5
:1005000000F028FA01224946204600F023FA012291
:100510001021304600F01EFA01220421404600F06E
:1005200019FA01220421404600F014FA00220821A1
:10053000404600F00FFA01221021404600F00AFA6E
:1005400001222021304600F005FA0022022128462F
:1005500000F000FA00222021404600F0FBF90022C2
:100560004021404600F0F6F90022DFE002E035E0ED
:100570006DE09BE001229846184600F0EBF900225E
:100580003946204600F0E6F901221146284600F0DF
:10059000E1F901224946204600F0DCF90122102150
:1005A000304600F0D7F901220421404600F0D2F98C
:1005B00001220821404600F0CDF9012210214046D9
:1005C00000F0C8F900222021304600F0C3F90122D2
:1005D0000221284600F0BEF9012232E001229846AD
:1005E000184600F0B7F901223946204600F0B2F96A
:1005F00000220121284600F0ADF90122494620469B
:1006000000F0A8F901221021304600F0A3F90122E0
:100610000421404600F09EF901220821404600F0E6
:1006200099F901221021404600F094F9012220217D
:10063000304600F08FF901220221284600F08AF9A5
:1006400000222021404600F085F9002269E00122C5
:100650009846184600F07EF901223946204600F0FF
:1006600079F901221146284600F074F90022494622
:10067000204600F06FF901221021304600F06AF99F
:1006800001220421404600F065F90022082140467D
:1006900000F060F901221021404600F05BF90122D0
:1006A0002021304600F056F9002216E7B0F5005F31
:1006B00042D101229846184600F04CF901223946F1
:1006C000204600F047F901221146284600F042F981
:1006D00001224946204600F03DF901221021304612
:1006E00000F038F900220421404600F033F90122DD
:1006F0000821404600F02EF900221021404600F06B
:1007000029F901222021304600F024F9012202219A
:10071000284600F01FF901222021404600F01AF976
:1007200001224021404600F015F901224046BDE873
:10073000F047802100F00EB9BDE8F08700180240B4
:10074000000802400014024000100240044910B5A5
:100750000A68024202D00860FFF77CFE10BD00006C
:10076000143C01402DE9F84FDFF8BCA1002201251F
:1007700003264FF00F090AF1040BAAF1040E00BF83
:100780000B6805FA02F42340A34270D10F7907F0F9
:100790000307012F01D0022F16D187684FEA4208C4
:1007A00006FA08FC27EA0C07D1F80CC00CFA08FC82
:1007B0004CEA070CC0F808C04768A7430C79C4F39B
:1007C000001494403C4344600C79E443A4070AD0ED
:1007D000C4684FEA420C06FA0CF7BC438F6807FA6C
:1007E0000CF72743C7600C7904F00304022C12D1E4
:1007F000D40800EB840CDCF820405707FF0E09FA00
:1008000007F824EA0804D1F8108008FA07F848EA43
:100810000408CCF8208004684FEA420C06FA0CF772
:10082000BC430F7907F0030707FA0CF7274307606B
:100830004C6814F4403F70D03C4C276847F4804724
:100840002760246822F0030704F480440094384CA5
:1008500007EB040CDCF8084897074FEA177809FA09
:1008600008F7BC43334FB84202D1002724E054E0DC
:10087000314FB84201D101271EE0304FB84201D1BB
:10088000022719E02E4FB84201D1032714E02D4F63
:10089000B84201D104270FE02B4FB84201D1052700
:1008A0000AE02A4FB84201D1062705E0284FB84296
:1008B00001D1072700E0082707FA08F72743CCF8FB
:1008C0000878DAF800405746D1F804C09C435FEA44
:1008D000CC2C00D51C433C60DBF800405F46D1F8CF
:1008E00004C09C435FEA8C2C00D51C433C60DEF8BE
:1008F00000407746D1F804C09C435FEA8C3C00D5A9
:100900001C433C60084F083F3C68D1F804C09C433E
:100910005FEACC3C00D51C433C60521C102AFFF41B
:100920002FAFBDE8F88F0000083C0140443802407A
:100930000030014000000240000402400008024074
:10094000000C024000100240001402400018024057
:10095000001C02400AB1816170470904FBE70000F6
:10096000014880687047000000000020024881684C
:100970000278114481607047000000200B4810B5D8
:10098000016841F400710160016841F48061016017
:10099000016841F480710160032000F077F80F20B6
:1009A00000F006F800F024F8002010BD003C0240E2
:1009B00070B50D4D04464FF47A712878B1FBF0F014
:1009C0000A490968B1FBF0F000F0F4FA48B9102CBC
:1009D00007D200222146501E00F038F800206C603B
:1009E00070BD012070BD0000000000200C00002040
:1009F0000E4808B5016841F480410160006800F4C8
:100A0000804000900948001F016841F0805101605A
:100A10000068002200F0805000901146512000F044
:100A200015F8BDE80840512000F002B844380240F3
:100A3000002809DB00F01F020121914040098000DD
:100A400000F1E020C0F8001170470000F0B40E4B38
:100A50001B680C46C3F30223C3F10705042D00D91C
:100A60000425191D072901D2002300E0DB1E012601
:100A700006FA05F1491E214099409E40761E164017
:100A80003143F0BC00F0BDBB0CED00E0064900F0C6
:100A9000070208684FF6FF03184040EA0220034AA5
:100AA00010430860704700000CED00E00000FA05FC
:100AB0002DE9F0470E46050065D0DFF81481D8F81F
:100AC0000000F7B200F00700B04207D288F80070CB
:100AD000D8F8000000F00700B04254D128683D4C1F
:100AE000810712D5400703D5206840F4E05020600C
:100AF0002878000703D5206840F460402060206813
:100B0000A96820F0F000084320602878C0072DD0A5
:100B1000304968680839012812D0022813D0032808
:100B200011D00968890700292DDA216821F0030115
:100B300001432160FFF714FF814641F2883A0EE03D
:100B400009688903EFE709688901ECE7FFF708FF07
:100B5000A0EB0901514502D90320BDE8F0872068C8
:100B6000696800F00C00B0EB810FEFD1D8F80010ED
:100B7000404601F00701B14207D90770006800F054
:100B80000700B04201D00120E7E72878400705D5EB
:100B90002068E96820F4E0500843206028780007C6
:100BA00006D52068296920F4604040EAC100206031
:100BB00000F018F82168084AC1F30311515CC840DD
:100BC0000649086006480068FFF7F2FE0020C4E707
:100BD000003C0240083802403A1200080C00002095
:100BE00004000020154810B5006810F00C021448ED
:100BF00013D01449042A0FD0082A0ED10F4C241FF9
:100C00002268236802F03F025B0207D52068C0F328
:100C10008810A0FB010106E0084610BD2168C1F361
:100C20008811A1FB00010023FFF71EFB2168C1F31F
:100C30000141491C4900B0FBF1F010BD08380240E9
:100C40000024F40040787D012DE9F84F04006ED0B7
:100C50002078DFF84C93C007A9F104054AD009F1C8
:100C600004000168C1F38101012908D00068C0F3C4
:100C7000810002280AD1D9F80000400206D5286870
:100C8000800337D560680028E1D033E06068B0F5B4
:100C9000803F10D0B0F5A02F286810D020F480300D
:100CA0002860286820F4802028606068A8B1FFF7D9
:100CB00057FE06460DE0286840F48030F4E740F423
:100CC00080202860F7E700BFFFF74AFE801B6428FA
:100CD00073D828688003F7D50CE0FFF741FE06467D
:100CE00005E000BFFFF73CFE801B6428F0D82868B1
:100CF0008003F7D42078DFF8AC8280074FF0000A39
:100D00003ED5A748001D016811F00C0F08D00068FF
:100D1000C0F3810002280BD1D9F80000400207D4AB
:100D20002868800716D5E068012800D112E033E179
:100D3000E068B8B10120C8F80000FFF711FE0646D0
:100D400005E000BFFFF70CFE801B0228C0D8286812
:100D50008007F7D52868216920F0F80040EAC10033
:100D600028600DE0C8F800A0FFF7FAFD064604E091
:100D7000FFF7F6FD801B02281FD828688007F7D4EC
:100D80002078000722D5864F87486169703771B196
:100D900001210160FFF7E4FD064604E0FFF7E0FDF6
:100DA000801B022809D838688007F7D50EE0C0F804
:100DB00000A0FFF7D5FD064605E082E0FFF7D0FD75
:100DC000801B02287DD838688007F7D42078400738
:100DD00068D5DFF8CCB100270BF13C0BDBF8000045
:100DE000C0000BD4DBF8001041F08051CBF80010AC
:100DF000DBF80000012700F0805000906B4E306857
:100E0000C00510D4306840F480703060FFF7A8FD52
:100E1000009005E0FFF7A4FD0099401A022850D881
:100E20003068C005F6D55E4EA0686C3601280FD03C
:100E30000528306810D020F001003060306820F0C4
:100E400004003060A068B8B1FFF78AFD00900FE0A1
:100E5000306840F00100F4E740F004003060F7E74C
:100E6000FFF77EFD0099411A41F28830814266D831
:100E700030688007F4D50EE0FFF772FD009007E0C0
:100E8000FFF76EFD0099411A41F28830814256D831
:100E900030688007F4D42FB1DBF8001021F08051C6
:100EA000CBF80010A069C8B33D49091D0968C1F31A
:100EB000810102294AD00228504607D0C8F86000B4
:100EC00000E03CE0FFF74CFD04463BE04746C8F835
:100ED0006000FFF745FD064605E000BFFFF740FD57
:100EE000801B02282BD828688001F7D4D4E9070199
:100EF0000843A16A2E4A490802EB0141626A41EAAD
:100F00008211084394F82C1040EA0161C9F80010DE
:100F100001203866FFF724FD044606E03EE000BFEE
:100F2000FFF71EFD001B022809D828688001F7D5AD
:100F300034E000BFFFF714FD001B022802D9032094
:100F4000BDE8F88F28688001F4D427E00128F7D0A5
:100F5000D9F80000E26900F4800191421CD1226AB4
:100F600000F03F01914217D147F6C071626A01401B
:100F7000B1EB821F10D1A26A4FF0FF3300F4403171
:100F800003EB5202B1EB024F06D194F82C1000F0A3
:100F90007060B0EB016F01D00120D1E70020CFE7F6
:100FA0000438024000004742800E47420070004073
:100FB0000000FFFF10B5401EB0F1807F01D301207B
:100FC00010BD4FF0E02460610F21601700F019F9A7
:100FD0000020A06107202061002010BDFEE7000076
:100FE0002DE9F04F87B014216846FFF7B4F959484E
:100FF0000024016841F010010160016801F0100156
:101000000591016841F004010160016801F00401EB
:101010000591016841F020010160016801F02001A3
:101020000591016841F0400101600068DFF8288106
:1010300000F040000590012210214046FFF78AFC95
:10104000002220214046FFF785FCDFF810914FF485
:101050004047012239464846FFF77CFCDFF800A1F3
:10106000012211465046FFF775FC0022062150462A
:10107000FFF770FCDFF8ECB001224FF482715846A4
:10108000FFF768FC0022F8215846FFF763FC0F20A9
:101090004FF48816CDE90006694602944046FFF7F2
:1010A00061FB302000900125CDE90154694640469E
:1010B0000394FFF757FB0097CDE901546946484672
:1010C0000394FFF74FFB07200090CDE901546946D8
:1010D00050460394FFF746FB4FF4FE700090CDE9B5
:1010E0000154694658460394FFF73CFB4FF42040F7
:1010F000CDE90006694602945846FFF733FB00220B
:1011000011460620FFF7A2FC0620FFF791FC002203
:1011100011460720FFF79AFC0720FFF789FC002201
:1011200011460820FFF792FC0820FFF781FC0022FF
:1011300011460920FFF78AFC0920FFF779FC0022FD
:1011400011462820FFF782FC2820FFF771FC07B02A
:10115000BDE8F08F30380240001002400008024025
:101160000014024000180240FEE7FEE77047704797
:10117000FFF7FCBB10B592B030216846FFF7EBF8E3
:1011800014210CA8FFF7E7F817480024016841F084
:1011900080510160006800F0805011901348016890
:1011A00041F4804101600068069400F48040119091
:1011B0000220009001200390102004906846FFF761
:1011C00043FD08B172B6FEE70F20CDE90C040E9482
:1011D0000F9400210CA81094FFF76AFC002801D09E
:1011E00072B6FEE712B010BD4038024000700040F9
:1011F0000248016841F470010160704788ED00E029
:10120000FEE70907090E002804DB00F1E02080F862
:101210000014704700F00F0000F1E02080F8141D6A
:101220007047FFF7ABFBFFF7A5FFFFF7D9FEFEE71F
:101230004FF04070E1EE100A70470000000000001F
:101240000000010203040607080900006C120008F0
:101250000000002010000000C40100087C120008FB
:101260001000002060060000E001000801000000FE
:0C12700010000000000000000024F4004A
:040000050800018965
:00000001FF
