:020000040800F2
:10000000F80B002029020008271D0008411B0008EA
:10001000251D000855050008F32300080000000016
:100020000000000000000000000000001122000895
:100030005705000800000000CD200008132200082A
:10004000430200084302000843020008430200087C
:10005000430200084302000843020008430200086C
:10006000430200084302000843020008430200085C
:10007000430200084302000843020008430200084C
:10008000430200084302000821040008430200085C
:10009000430200084302000843020008430200082C
:1000A000430200084302000843020008430200081C
:1000B000430200084302000843020008430200080C
:1000C00043020008430200084302000843020008FC
:1000D000D120000843020008430200084302000840
:1000E00043020008430200084302000843020008DC
:1000F00043020008430200084302000843020008CC
:1001000043020008430200084302000843020008BB
:100110004302000843020008A52200084302000829
:10012000430200084302000843020008430200089B
:10013000430200084302000843020008430200088B
:10014000430200084302000843020008430200087B
:10015000430200084302000843020008430200086B
:10016000430200084302000843020008430200085B
:100170004302000843020008430200080000000098
:10018000430200084302000800F002F800F03CF8C7
:100190000AA090E8000C82448344AAF10107DA45E2
:1001A00001D100F031F8AFF2090EBAE80F0013F0F8
:1001B000010F18BFFB1A43F0010318473441000038
:1001C00054410000103A24BF78C878C1FAD85207C9
:1001D00024BF30C830C144BF04680C6070470000C1
:1001E0000023002400250026103A28BF78C1FBD840
:1001F000520728BF30C148BF0B6070471FB502F0DF
:1002000061F91FBD10B510BD00F0CFF81146FFF722
:10021000F5FF02F0FFF800F0EDF803B4FFF7F2FF8E
:1002200003BC00F0F5F80000094880470948004782
:10023000FEE7FEE7FEE7FEE7FEE7FEE7FEE7FEE796
:10024000FEE7FEE704480549054A064B70470000F3
:100250009522000889010008F8050020F80B00200D
:10026000F8070020F807002053EA020C00F069802C
:100270002DE9F04B4FF00006002B1FBFB3FA83F5BA
:1002800003FA05F424FA05F65E4012BF1643B2FAEB
:1002900082F502FA05F4C5F120051EBF22FA05FC1D
:1002A00044EA0C04203556EA044C4FEA144418BFC3
:1002B000641C4FF000084FF00009904271EB030CF2
:1002C00039D3002919BFB1FA81F701FA07F6B0FA5C
:1002D00080F700FA07F6C7F120071EBF20FA07FCD7
:1002E00046EA0C062037B6FBF4FCA7EB0507103FE7
:1002F00007F01F0BCBF120060CFA0BFB2CFA06F6CD
:1003000044BFB3460026202FA4BF5E464FF0000B2B
:100310005BEA060C08BF4FF0010B19EB0B09ABFBB6
:10032000027C48EB0608C01B06FB02CC0BFB03CC8F
:1003300071EB0C01C1E70B46024641464846BDE859
:10034000F08B13B54FF000004FF00001AFF30080C9
:10035000BDE81C4070474FF0000200B513469446BC
:100360009646203922BFA0E80C50A0E80C50B1F10D
:100370002001BFF4F7AF090728BFA0E80C5048BF21
:100380000CC05DF804EB890028BF40F8042B08BFBF
:10039000704748BF20F8022B11F0804F18BF00F8BB
:1003A000012B7047704770477047754600F02CF876
:1003B000AE4605006946534620F00700854618B052
:1003C00020B5FFF73FFFBDE820404FF000064FF09B
:1003D00000074FF000084FF0000B21F00701AC467A
:1003E000ACE8C009ACE8C009ACE8C009ACE8C00999
:1003F0008D46704710B50446AFF300802046BDE837
:100400001040FFF70ABF0000004870479405002025
:1004100001491820ABBEFEE726000200704700002D
:10042000014800F0ADB9000098040020464910B51D
:100430004A6822F440324A604A6843681A434A6074
:1004400001684A6822F480724A6001684A68036958
:1004500042EA03224A6001684A6822F040724A6018
:1004600001684A6883681A434A6001688A6822F40E
:1004700000628A6001688A68C3681A438A60816A78
:100480006FF07062D14201688A6822F070628A60FF
:1004900001688A680CD0836A1A438A6001688A6896
:1004A00022F040528A6001688A68C36A1A4301E0F8
:1004B00022F040528A6001688A6822F002028A6053
:1004C00001688A68037E42EA43028A6090F820103D
:1004D000002901684A680FD042F400624A6001684E
:1004E0004A6822F460424A6001684A68174C436ACD
:1004F00004EB43331A4301E022F400624A600168CE
:10050000CA6A22F47002CA620168CA6A838B104CFC
:1005100004EB03531A43CA6201688A6822F400722A
:100520008A6001688A6890F8303042EA43228A6023
:1005300001688A6822F480628A6001688A6840697A
:1005400042EA8020886010BD0023014000E0FFFFE8
:100550000000F0FFFEE7704772B6FEE7704700004C
:1005600078B50024009490F83C20012A19D001228B
:1005700080F83C200A6807230568092A13D9EE6829
:100580000A3A02EB420293409E43EE600B788A687F
:100590000A3B03EB43039A400368DD682A43DA60B1
:1005A00010E0022078BD2E6902EB420293409E4388
:1005B0002E610B788A6803EB43039A4003681D6938
:1005C0002A431A614A681F23072A13D205686E6BF3
:1005D000521E02EB820293409E436E630B790A889F
:1005E0005B1E92B203EB83039A4003685D6B2A4360
:1005F0005A6327E005680D2A12D22E6BD21F02EB38
:10060000820293409E432E630B790A88DB1F92B2CD
:1006100003EB83039A4003681D6B2A431A6311E0BE
:10062000EE6A0D3A02EB820293409E43EE620B7932
:100630000A880D3B92B203EB83039A400368DD6A9C
:100640002A43DA62164B0568144A9D4206D10D68AA
:10065000122D03D1556845F48005556005689D420B
:1006600018D10B68102B01D0112B13D1536843F410
:1006700000035360096810290CD10A490A4A096825
:10068000B1FBF2F101EB8101490000E0491E00914C
:100690000029FBD180F83C40002078BD00230140B8
:1006A000002001401400002040420F0070B50546B4
:1006B000006827498AB0884247D126A2012407CA88
:1006C00002AE009486E80700082302AA21462046CD
:1006D00001F0B3FC22A205AE07CA009486E8070029
:1006E000082305AA0A21012001F0A7FC1FA0082366
:1006F0000068089008AA01210094552001F09DFC93
:10070000082308AA0A215520009401F096FC2846E7
:1007100000F033F8054640F6E44045430826144807
:10072000CDE900644268042301213C2001F04EFC25
:10073000CDE900642A0B04230A213C2001F046FC89
:1007400001F0ACFB0B4801F051F90AB070BD00009C
:1007500000200140496E707574566F6C743D000046
:100760004465746563566F6C743D00006D560000FF
:10077000000000204C05002070470068C06C7047E6
:1007800070B5044600680668456816F0020F05F06B
:1007900020012AD049B3216CC90603D4216C41F44D
:1007A00000712164816811F0405F17D1217EA9B9E1
:1007B000C16A11F4700F02D0816849050ED44168F6
:1007C00021F020014160206C20F480702064206CB6
:1007D000C00403D4206C40F0010020642046FFF7E1
:1007E00065FF21686FF01200086016F0040F05F035
:1007F000800132D089B3206CC00603D4206C40F451
:10080000005020642068816811F4401F1ED1816B64
:1008100011F4401F02D08168490517D44168490589
:1008200014D4816811F0405F10D1217E71B9416804
:1008300021F080014160206C20F480502064206C05
:10084000C00503D4206C40F0010020642046FFF76F
:1008500085FE21686FF00C00086016F0010F05F0AE
:1008600040010FD071B120680068C0070AD0206C29
:1008700040F480302064204600F043F821686FF097
:100880000100086016F0200F05F080610ED00029ED
:100890000CD0606C40F00200606420686FF02005AE
:1008A00005602046FFF768FF2068056070BD70B5E1
:1008B00004004FF0000503D0206C002610B107E0C3
:1008C000012070BD204600F01DF8666484F83C608D
:1008D000206CC00610D4206C20F4885040F0020038
:1008E00020642046FFF7A2FD6664206C20F0020021
:1008F00040F00100206400E0012584F83C602846B7
:1009000070BD704710B586B0044614216846FFF7E5
:1009100022FD15492068884224D11448002102682C
:1009200042F480720260006800F4807005900F4805
:100930001438026842F001020260006800F0010011
:100940000590202000900320CDE901016946084868
:1009500000F0A6F900220121122000F011FB122064
:1009600000F000FB06B010BD0020014044380240FA
:100970000000024018B50021009190F83C20012AA7
:1009800007D0012280F83C2002689368DB0702D080
:1009900011E0022018BD936843F001039360314ACF
:1009A000314B1268B2FBF3F202EB420200E0521E3E
:1009B0000092002AFBD102689368DB0747D0036CE2
:1009C00040F20164A34343F48073036453685B05FE
:1009D00005D5036C23F4005343F480530364036C84
:1009E000DB0404D5436C23F00603436400E0416458
:1009F00080F83C101D4B6FF02201116001684A68BD
:100A00001B4C22434A6059680068CA06194906D03F
:100A1000884224D1816811F0405F13D01FE08842E2
:100A2000F8D0154A904203D1D1F80423D206F1D070
:100A3000124A904213D1D1F8041301F01F0110297A
:100A4000E8D30CE0816841F08041816007E0016CEF
:100A500041F010010164416C41F00101416400204A
:100A600018BD00001400002040420F000023014088
:100A7000200000040020014000210140002201402C
:100A8000704770B500B3F9B14379012B1ED0012630
:100A900046710223037105682C6802F0100340F6CA
:100AA000FE729A409443D1E900210A439A402243BE
:100AB0002A6001680A68C0249C40A2430A6006714B
:100AC00000214171084670BD012070BD022070BD3B
:100AD00070472DE9F041044600680668456BB10493
:100AE0004FF0040710D5A9040ED52771216941F0F4
:100AF00001012161F90241632068016821F48051FC
:100B000001602046FFF7E4FFB00014D5A80012D51D
:100B10002771206940F00200206121684FF00050E9
:100B200048632068016821F0805101602046BDE8DB
:100B3000F041FFF7A5BFBDE8F08170B5040003D018
:100B40002079002510B105E0012070BD65712046B7
:100B500000F008F80220207125610120207100209A
:100B600070BD000010B586B0044614216846FFF73A
:100B7000F2FB15492068884224D1144800210268FC
:100B800042F000520260006800F0005005900F48EB
:100B90001038026842F001020260006800F00100B3
:100BA0000590102000900320CDE901016946084816
:100BB00000F076F800221146362000F0E1F93620E8
:100BC00000F0D0F906B010BD00740040403802407B
:100BD0000000024018B50024009440B10068009065
:100BE000104431B1143000900360002018BD012082
:100BF00018BD0830F7E770B508B34279012A20D054
:100C000001224271022303710468266801F0100377
:100C100002FA03F52E4326600029016813D00C6800
:100C200004F470153C249C40A54203D14B6843F06A
:100C300002034B60027100214171084670BD012022
:100C400070BD022070BD0B68C3F383030F2BF1D17D
:100C50004B6843F00103ECE790F83510022903D00C
:100C60008021416501207047052180F8351000681A
:100C7000016821F0010101600020704770B5044651
:100C800000F010F90546601C02D0044800780444C6
:100C900000F008F9401BA042FAD370BD0800002004
:100CA0002DE9F84FDFF8BCA10022012503264FF003
:100CB0000F090AF1040BAAF1040E00BF0B6805FA34
:100CC00002F42340A34270D10F7907F00307012FEC
:100CD00001D0022F16D187684FEA420806FA08FCB5
:100CE00027EA0C07D1F80CC00CFA08FC4CEA070CF8
:100CF000C0F808C04768A7430C79C4F300149440B7
:100D00003C4344600C79E443A4070AD0C4684FEA2A
:100D1000420C06FA0CF7BC438F6807FA0CF727431E
:100D2000C7600C7904F00304022C12D1D40800EB44
:100D3000840CDCF820405707FF0E09FA07F824EA74
:100D40000804D1F8108008FA07F848EA0408CCF83B
:100D5000208004684FEA420C06FA0CF7BC430F7976
:100D600007F0030707FA0CF7274307604C6814F4F1
:100D7000403F70D03C4C276847F480472760246888
:100D800022F0030704F480440094384C07EB040C71
:100D9000DCF8084897074FEA177809FA08F7BC43C8
:100DA000334FB84202D1002724E054E0314FB8421B
:100DB00001D101271EE0304FB84201D1022719E0CE
:100DC0002E4FB84201D1032714E02D4FB84201D174
:100DD00004270FE02B4FB84201D105270AE02A4F24
:100DE000B84201D1062705E0284FB84201D10727B4
:100DF00000E0082707FA08F72743CCF80878DAF864
:100E000000405746D1F804C09C435FEACC2C00D583
:100E10001C433C60DBF800405F46D1F804C09C43B3
:100E20005FEA8C2C00D51C433C60DEF8004077461E
:100E3000D1F804C09C435FEA8C3C00D51C433C6065
:100E4000084F083F3C68D1F804C09C435FEACC3CA3
:100E500000D51C433C60521C102AFFF42FAFBDE8A4
:100E6000F88F0000083C0140443802400030014047
:100E7000000002400004024000080240000C024052
:100E8000001002400014024000180240001C024002
:100E90000069084000D0012070470AB181617047A5
:100EA0000904FBE701488068704700000800002043
:100EB0000248816802781144816070470800002070
:100EC0000B4810B5016841F400710160016841F4FC
:100ED00080610160016841F480710160032000F0CD
:100EE0006FF80F2000F006F800F024F8002010BD85
:100EF000003C024070B50D4D04464FF47A712878DD
:100F0000B1FBF0F00A490968B1FBF0F000F0CFFC4A
:100F100048B9102C07D200222146501E00F030F8AC
:100F200000206C6070BD012070BD00000800002032
:100F3000140000200A4808B5016841F480410160AE
:100F4000006800F4804000900548001F016841F0EF
:100F500080510160006800F08050009008BD0000E2
:100F600044380240002809DB00F01F0201219140B3
:100F70004009800000F1E020C0F800117047000037
:100F8000F0B40E4B1B680C46C3F30223C3F10705F4
:100F9000042D00D90425191D072901D2002300E0E2
:100FA000DB1E012606FA05F1491E214099409E40AC
:100FB000761E16403143F0BC01F01CBA0CED00E087
:100FC000064900F0070208684FF6FF03184040EAA0
:100FD0000220034A10430860704700000CED00E057
:100FE0000000FA052DE9F0470E46050065D0DFF850
:100FF0001481D8F80000F7B200F00700B04207D221
:1010000088F80070D8F8000000F00700B04254D112
:1010100028683D4C810712D5400703D5206840F46D
:10102000E05020602878000703D5206840F4604035
:1010300020602068A96820F0F0000843206028782C
:10104000C0072DD0304968680839012812D002281D
:1010500013D0032811D00968890700292DDA2168E7
:1010600021F0030101432160FFF71CFF814641F29B
:10107000883A0EE009688903EFE709688901ECE71F
:10108000FFF710FFA0EB0901514502D90320BDE88D
:10109000F0872068696800F00C00B0EB810FEFD199
:1010A000D8F80010404601F00701B14207D9077097
:1010B000006800F00700B04201D00120E7E728787F
:1010C000400705D52068E96820F4E0500843206017
:1010D0002878000706D52068296920F4604040EA96
:1010E000C100206000F018F82168084AC1F303111C
:1010F000515CC8400649086006480068FFF7FAFEE0
:101100000020C4E7003C024008380240DE420008EC
:10111000140000200C000020154810B5006810F0E5
:101120000C02144813D01449042A0FD0082A0ED1F7
:101130000F4C241F2268236802F03F025B0207D590
:101140002068C0F38810A0FB010106E0084610BD2E
:101150002168C1F38811A1FB00010023FFF784F887
:101160002168C1F30141491C4900B0FBF1F010BDF9
:10117000083802400024F40040787D012DE9F84F42
:1011800004006ED02078DFF84C93C007A9F1040565
:101190004AD009F104000168C1F38101012908D096
:1011A0000068C0F3810002280AD1D9F8000040028B
:1011B00006D52868800337D560680028E1D033E081
:1011C0006068B0F5803F10D0B0F5A02F286810D02F
:1011D00020F480302860286820F48020286060682F
:1011E000A8B1FFF75FFE06460DE0286840F48030A6
:1011F000F4E740F480202860F7E700BFFFF752FED5
:10120000801B642873D828688003F7D50CE0FFF7AB
:1012100049FE064605E000BFFFF744FE801B642838
:10122000F0D828688003F7D42078DFF8AC828007F4
:101230004FF0000A3ED5A748001D016811F00C0FC1
:1012400008D00068C0F3810002280BD1D9F8000053
:10125000400207D42868800716D5E068012800D12D
:1012600012E033E1E068B8B10120C8F80000FFF7F0
:1012700019FE064605E000BFFFF714FE801B02289A
:10128000C0D828688007F7D52868216920F0F800C1
:1012900040EAC10028600DE0C8F800A0FFF702FE98
:1012A000064604E0FFF7FEFD801B02281FD82868D1
:1012B0008007F7D42078000722D5864F87486169D8
:1012C000703771B101210160FFF7ECFD064604E0C3
:1012D000FFF7E8FD801B022809D838688007F7D59A
:1012E0000EE0C0F800A0FFF7DDFD064605E082E055
:1012F000FFF7D8FD801B02287DD838688007F7D417
:101300002078400768D5DFF8CCB100270BF13C0B03
:10131000DBF80000C0000BD4DBF8001041F0805176
:10132000CBF80010DBF80000012700F0805000909F
:101330006B4E3068C00510D4306840F48070306067
:10134000FFF7B0FD009005E0FFF7ACFD0099401AF3
:10135000022850D83068C005F6D55E4EA0686C36BD
:1013600001280FD00528306810D020F0010030602F
:10137000306820F004003060A068B8B1FFF792FD3B
:1013800000900FE0306840F00100F4E740F0040006
:101390003060F7E7FFF786FD0099411A41F2883087
:1013A000814266D830688007F4D50EE0FFF77AFDF9
:1013B000009007E0FFF776FD0099411A41F288306E
:1013C000814256D830688007F4D42FB1DBF8001082
:1013D00021F08051CBF80010A069C8B33D49091D28
:1013E0000968C1F3810102294AD00228504607D07A
:1013F000C8F8600000E03CE0FFF754FD04463BE025
:101400004746C8F86000FFF74DFD064605E000BFFF
:10141000FFF748FD801B02282BD828688001F7D4ED
:10142000D4E907010843A16A2E4A490802EB0141A9
:10143000626A41EA8211084394F82C1040EA016183
:10144000C9F8001001203866FFF72CFD044606E0BD
:101450003EE000BFFFF726FD001B022809D82868E0
:101460008001F7D534E000BFFFF71CFD001B022808
:1014700002D90320BDE8F88F28688001F4D427E062
:101480000128F7D0D9F80000E26900F48001914208
:101490001CD1226A00F03F01914217D147F6C0717A
:1014A000626A0140B1EB821F10D1A26A4FF0FF3394
:1014B00000F4403103EB5202B1EB024F06D194F835
:1014C0002C1000F07060B0EB016F01D00120D1E76B
:1014D0000020CFE70438024000004742800E474218
:1014E000007000400000FFFF7047000038B5016841
:1014F00004464A688868C043430606D5C30704D13A
:10150000D3435B0601D4216C05E0830708D4D343A1
:101510001B0605D4616C01B02046BDE83040084789
:10152000830603D5430601D5C30551D4D3439B0697
:101530004ED443060AD494F85130032B49D0636D3E
:1015400043F004036365CB688B680093830609D47A
:10155000636D43F0010363658B6800930B6823F0B0
:1015600040030B60C00506D4606D40F00800606564
:10157000206880680090606D002829D0206841684C
:1015800021F0E0014160012084F85100900701D46E
:10159000D00722D02068416821F003014160114D3D
:1015A000E06C40B10565E06CFFF756FB18B1606D6B
:1015B00040F040006065A06C002809D00565A06C73
:1015C000FFF74AFB002803D0606D40F040006065E3
:1015D00038BDC8688868009038BD2046FFF784FF92
:1015E00038BD0000DD20000870B5040009D0606A35
:1015F000002540B125616561A56294F8510040B1B4
:101600000CE0012070BD6068B0F5827FF4D0E56128
:10161000F2E784F85050204600F044F8022084F8A5
:1016200051002068016821F040010160A0882189F3
:1016300000F4827001F404410843A18901F40061BF
:101640000843217C01F002010843217D01F00101E2
:101650000843218B01F400710843217F01F0380118
:10166000084394F8201001F080010843218D01F413
:101670000051084321680860A069042101EA104074
:1016800094F8241001F01001084321684860206894
:10169000C16921F40061C1616565012084F85100D0
:1016A000002070BDF0B587B0044614216846FEF7EF
:1016B00052FE2149206888423BD12048002401681D
:1016C00041F480410160006800F4804005901B48AF
:1016D0001038016841F004010160016801F0040163
:1016E0000591016841F0020101600068022500F0E7
:1016F000020005900820CDE9000502AA032605276F
:1017000082E8D00069460E48FFF7CAFA4FF4A840B5
:10171000CDE9000502AA694682E8D0000948FFF732
:10172000BFFA002211462420FFF72AFC2420FFF7ED
:1017300019FC07B0F0BD00000038004040380240FE
:1017400000080240000402402DE9F84F9846164672
:101750008A460446FFF7A6FB814694F8510001280B
:101760001ED1BAF1000F73D0002E71D094F8500042
:10177000012815D0012784F85070032084F8510007
:1017800000256565C4F830A0A686E686A563A58712
:10179000E58765642564A068B0F5004F03D00CE0D0
:1017A0000220BDE8F88F2068016821F04001016047
:1017B0002068016841F480410160206801684906A1
:1017C00003D4016841F040010160E068B0F5006FAA
:1017D000606803D048B3012E27D047E008B1012E3E
:1017E0001FD1206B21680088C86006E020688168EE
:1017F000890709D5216B0988C160206B801C206393
:10180000E08E401EE0860CE0FFF74CFBA0EB0901E8
:10181000414503D3B8F1FF3F03D035E0B8F1000FE5
:1018200032D0E08E0028E1D123E0206B21680078DF
:10183000087306E02068816889070AD5216B09785A
:101840000173206B401C2063E08E401EE0860DE09B
:101850002BE0FFF727FBA0EB0901414503D3B8F1CB
:10186000FF3F03D010E0B8F1000F0DD0E08E00284C
:10187000E0D14A464146204600F038FC08B120201D
:101880006065A06830B109E084F8517084F8505068
:10189000032086E72068C1688068009084F8517052
:1018A00004F8505F60680028F3D0012079E710B594
:1018B000401EB0F1807F01D3012010BD4FF0E02425
:1018C00060610F21601700F095FD0020A0610720E6
:1018D0002061002010BD000070B590F83C20012A66
:1018E00032D0012480F83C40022280F83D20036879
:1018F0005A689D6822F070060A6832435A60134B9A
:1019000002689A4214D0B2F1804F11D0104B9A4223
:101910000ED0104B9A420BD00F4B9A4208D00F4B6F
:101920009A4205D00E4B9A4202D00E4B9A4204D1F5
:10193000496825F080031943916080F83D400021FB
:1019400080F83C10084670BD022070BD00000140C8
:101950000004004000080040000C0040000401406A
:10196000004001400018004010B5040003D094F876
:101970003D0010B107E0012010BD002084F83C00BC
:10198000204600F01FF8022084F83D00211D206849
:1019900000F08EFC012084F8460084F83E0084F8B4
:1019A0003F0084F8400084F8410084F8420084F845
:1019B000430084F8440084F8450084F83D0000208A
:1019C00010BD000008B500680649884208D10648E5
:1019D000016841F002010160006800F0020000901F
:1019E00008BD0000000400404038024090F83D105F
:1019F000012901D001207047022180F83D100068C4
:101A00001149884214D0B0F1804F11D00F4988425B
:101A10000ED00F4988420BD00E49884208D00E499B
:101A2000884205D00D49884202D00D49884204D130
:101A3000816801F00701062903D0016841F0010126
:101A400001600020704700000000014000040040D9
:101A500000080040000C004000040140004001402C
:101A60000018004070B5044690F83C00002501289D
:101A700017D0012684F83C60022084F83D002068DD
:101A8000826822F0770222F47F4282600868502840
:101A900038D00DDC20284FD005DC90B3102811D1B0
:101AA0004AE0022070BD302846D040280AD13BE0F1
:101AB00060282FD070280DD0B0F5805F03D0B0F52E
:101AC000005F12D0012584F83D60002084F83C00BE
:101AD000284670BDCB68D1E90121206800F054FC94
:101AE0002068816841F0770109E0CB68D1E90121E4
:101AF000206800F049FC2068816841F480418160E1
:101B0000E1E719E0CA684968206800F04FFC5021FD
:101B1000206806E0CA684968206800F058FC602127
:101B2000206800F03BFCCEE7CA684968206800F0F6
:101B30003DFC40212068F4E7226801461046F0E7AA
:101B4000FEE700001FB500211648009101910291A7
:101B5000134A0391C0E9002181600161017680F898
:101B600020104FF08052C26201245210C461826280
:101B7000C16080F830104461FEF799FE08B1FEF7AD
:101B8000EBFC0520CDE900040220029069460548DF
:101B9000FEF7E6FC002801D0FEF7DEFC1FBD0000CA
:101BA00000200140980400201CB500240C4900943A
:101BB0000A48019408600846FEF7BFFF08B1FEF727
:101BC000CBFC00940022694605480194FEF759FFBA
:101BD000002801D0FEF7C0FC1CBD000000740040CE
:101BE000E004002030B587B014216846FEF7B3FB4F
:101BF0001D480024016841F010010160016801F0F6
:101C000010010591016841F004010160016801F0D3
:101C100004010591016841F001010160016801F0D2
:101C200001010591016841F00201016000680F4D5A
:101C300000F002000590002206212846FFF72DF94A
:101C40000E20CDE90004694609480294FFF728F800
:101C5000062000900120CDE901046946284603943E
:101C6000FFF71EF807B030BD3038024000080240D0
:101C7000001002400F4810B50D4901604FF4827109
:101C8000416000218160C1604FF480220161C0E9A0
:101C90000512C1610162416281620A21C162FFF7DE
:101CA000A3FC002803D0BDE81040FEF755BC10BDD2
:101CB00000380040F404002010B586B00024184815
:101CC00000940194029403940494144905940160CF
:101CD00043F67F61C0E901144FF4FA71C0E90314BF
:101CE0008461FFF741FE08B1FEF736FC4FF48050E7
:101CF000009069460A48FFF7B5FE08B1FEF72CFCD4
:101D00002020CDE9040404A90548FFF7E5FD0028DB
:101D100001D0FEF721FC06B010BD00000004004019
:101D20004C050020FEE7FEE730B40021084B0A46D0
:101D30005FF0000003EBC004401CC0B26254802876
:101D4000F8D3491CC9B20829F2D330BC00F0A6B8B8
:101D50001800002030B5CC0801F0070301259D4094
:101D6000EBB2064D05EBC005C808285C0AB1184364
:101D700002E063EA0000C043285530BD180000208F
:101D800010B5414C002202212046FFF786F8C820FA
:101D9000FEF774FF012202212046FFF77EF80021A2
:101DA000AE2000F069F90021084600F065F9002135
:101DB000102000F061F90021B02000F05DF9002151
:101DC000402000F059F90021812000F055F9002150
:101DD000882000F051F90021822000F04DF9002107
:101DE000084600F049F90021A12000F045F9002142
:101DF000A22000F041F90021A42000F03DF90021CB
:101E0000A62000F039F90021A82000F035F90021C2
:101E10003F2000F031F90021C82000F02DF9002109
:101E2000D32000F029F90021084600F025F900210F
:101E3000D52000F021F90021A02000F01DF900219B
:101E4000D92000F019F90021222000F015F9002115
:101E5000DB2000F011F90021402000F00DF90021F5
:101E6000312000F009F90021AD2000F005F9002132
:101E70008B2000F001F9FFF757FF0021BDE810406B
:101E8000AF2000F0F9B8000000080240024601202F
:101E900000E05043491EC9B2FBD2704770B5114EE5
:101EA000002400BF04F1B000C0B2002100F0E4F84B
:101EB0000021084600F0E0F80021102000F0DCF8D6
:101EC0005FF0000506EBC5000121005D00F0D4F8CD
:101ED0006D1CEDB2802DF5D3641CE4B2082CE1D367
:101EE00070BD0000180000202DE9FC4F1C460E4676
:101EF00082468B460190082B0ED0600700D001204F
:101F000000EBD400610810FB01F0C0B28146203A1A
:101F1000D0B2009000204AE00620F7E7082C12D04B
:101F20000C2C17D0102C1AD0182C43D10098234910
:101F300000EBC00001EB8001002711F80850E80712
:101F400012D00B9A13E000981D4900EB400001EB02
:101F50004001F1E700981B4900EB4000EAE71A490D
:101F6000009801EB0011E7E70B9828B300223146F7
:101F70005046FFF7EFFE761C7F1C6D08FFB2F6B2ED
:101F8000082FDCD30AF1010000F0FF0A082C0AD068
:101F90000199AAEB0100B0EB540F04D10BF108003A
:101FA0008A4600F0FF0B08F101005E46C0B2804691
:101FB0004845B3D3BDE8FC8F0122D8E75A31000869
:101FC000CE240008F62600086A2B00082DE9F84FF9
:101FD0000025DDE90A691F4692468B468046082E99
:101FE00000D1022500241CE0381B401EC1B20A208B
:101FF000FFF74CFFBAFBF0F00A21B0FBF1F201FB56
:102000001200CDF8009080B13030C2B205EB56011D
:1020100001FB0480C0B233465946FFF765FF641CDC
:10202000E4B2BC42E0D3BDE8F88F05EB560101FBFA
:102030000480C0B233463022EEE72DE9F8411E4657
:10204000154688460446079F0BE033464146204626
:102050000097FFF749FF082E0AD004EB5600C4B2E0
:102060006D1C2A78A2F120005E28EED9BDE8F88127
:10207000A41DE4B2F4E7000073B5114C09B10122CC
:1020800000E0002204212046FEF707FF0D4E4FF42A
:102090008055002229463046FEF7FFFE4FF47A7342
:1020A000012269460848FFF74FFB012229463046C6
:1020B000FEF7F3FE012204212046FEF7EEFE7CBD72
:1020C0000008024000040240F404002070470000B1
:1020D0000148FFF70BBA0000F404002010B5806B34
:1020E0000021C187C186FFF7FFF910BDF8B515467D
:1020F0000E460B46009204460122022100F02CF805
:10210000A0B9134813490068B0FBF1F04FF47A719D
:10211000484300906068B0F5827F0DD133460022BD
:1021200080212046009500F017F870B1606D40F0F6
:10213000200060650320F8BD009830B1401E00907B
:1021400020688068C0430006F6D50020F8BD000076
:102150001400002000366E012DE9F8431E4691461A
:1021600088460446089DFEF79DFE401B351AFEF783
:1021700099FE074625480068C0F3CB30684338E035
:10218000701C37D0FEF78EFEC01BA84203D215B1DB
:10219000009860B32CE02068416821F0E0014160C4
:1021A0006068B0F5827F0BD1A068B0F5004F02D017
:1021B000B0F5806F04D12068016821F04001016012
:1021C000A06AB0F5005F09D12068016821F40051D0
:1021D00001602068016841F400510160012084F829
:1021E0005100002084F850000320BDE8F88300254A
:1021F000401E00902068816838EA010004D0002168
:102200004945BDD10020F0E70121F9E71400002085
:102210007047FEF74DBE000010B592B03021684601
:10222000FEF799F814210CA8FEF795F8174800243A
:10223000016841F080510160006800F08050119009
:102240001348016841F4804101600068069400F47D
:1022500080401190022000900120039010200490F3
:102260006846FEF78BFF08B172B6FEE70F20CDE996
:102270000C040E940F9400210CA81094FEF7B2FEEB
:10228000002801D072B6FEE712B010BD40380240FF
:10229000007000400248016841F47001016070471D
:1022A00088ED00E00148FEF714BC0000E0040020C7
:1022B000F0B50268294C2A4D2A4E2B4F2B4B4FF07C
:1022C000804CA04209D0604507D0A84205D0B0425A
:1022D00003D0B84201D0984204D122F0700E4A686F
:1022E00042EA0E02A0421BD0604519D0A84217D086
:1022F000B04215D0B84213D0984211D01C4DA8421C
:102300000ED01C4DA8420BD01B4DA84208D01B4D2F
:10231000A84205D01A4DA84202D01A4DA84203D1B6
:1023200022F44075CA682A434D6922F080022A438C
:1023300002608A68C2620A688262A04201D0984242
:1023400001D109690163012141610169C90703D014
:10235000016921F001010161F0BD000000000140B0
:102360000004004000080040000C00400004014050
:102370000040014000440140004801400018004076
:10238000001C00400020004010B5846842EA03228F
:1023900024F47F440A432243826010BD826822F005
:1023A00070020A4342F007018160704710B5036A6A
:1023B000046A24F001040462846924F0F00444EA0D
:1023C000021423F00A020A438461026210BD10B5B0
:1023D000036A046A24F010040462846923F0A003F1
:1023E00024F4704444EA023243EA0111826101623A
:1023F00010BDFEE70907090E002804DB00F1E0200C
:1024000080F80014704700F00F0000F1E02080F821
:10241000141D7047FEF754FDFFF7FEFEFFF7E2FBC9
:10242000FFF790FBFFF748FCFFF7BEFBFFF722FC2E
:1024300000211F48FEF7DFFB1E4C40F6B2130022BE
:1024400011461B482360FEF7C5FB206840F6E441B7
:102450004843000B60601848FEF78CFA1748FFF7F6
:10246000C5FAFFF78DFC164D4FF4967608212846E5
:10247000FEF70EFD28B104212846FEF709FD28B11C
:1024800011E0236840F6E4407C3303E0236840F623
:10249000E4407C3B5843000BC4E900300022114665
:1024A0000348FEF797FB3046FEF7E8FBDEE7000047
:1024B000E004002000000020980400204C050020CB
:1024C000001002404FF04070E1EE100A704700002B
:1024D000000000000000002F0000000007000700BF
:1024E00000147F147F1400242A7F2A1200626408DB
:1024F0001323003649552250000005030000000058
:102500001C224100000041221C000014083E081457
:102510000008083E0808000000A060000008080845
:102520000808000060600000002010080402003E5F
:102530005149453E0000427F4000004261514946FA
:10254000002141454B31001814127F1000274545EA
:102550004539003C4A4949300001710905030036FC
:102560004949493600064949291E0000363600000F
:102570000000563600000008142241000014141414
:10258000141400004122140800020151090600320F
:102590004959513E007C1211127C007F494949364D
:1025A000003E41414122007F4141221C007F4949B8
:1025B0004941007F09090901003E4149497A007FEC
:1025C0000808087F0000417F4100002040413F0192
:1025D000007F08142241007F40404040007F020CF1
:1025E000027F007F0408107F003E4141413E007F92
:1025F00009090906003E4151215E007F091929465B
:102600000046494949310001017F0101003F404036
:10261000403F001F2040201F003F4038403F0063E4
:102620001408146300070870080700615149454306
:1026300000007F41410000552A552A5500004141C4
:102640007F000004020102040040404040400000BE
:1026500001020400002054545478007F4844443858
:1026600000384444442000384444487F00385454DF
:10267000541800087E0901020018A4A4A47C007F5D
:10268000080404780000447D4000004080847D0000
:10269000007F102844000000417F4000007C0418A7
:1026A0000478007C0804047800384444443800FC72
:1026B000242424180018242418FC007C080404088E
:1026C00000485454542000043F444020003C404003
:1026D000207C001C2040201C003C4030403C00443A
:1026E00028102844001CA0A0A07C004464544C4442
:1026F0001414141414140000000000000000000062
:1027000000000000FC000000000002000000000CBF
:10271000020C020000000000000090D0BCD0BC9071
:102720000003000300001824FE448C00030207028B
:1027300001001824D8B04C80000300010201C03809
:10274000E438E00001020201020208060000000075
:10275000000000000000000000F80402000000017A
:102760000204000204F8000000040201000090606E
:10277000F86090000000010000002020FC202000F4
:10278000000001000000000000000000080600003A
:102790000000202020202000000000000000000099
:1027A000000000000002000000000080601C020029
:1027B000040300000000F8040404F800010202020F
:1027C00001000008FC000000000203020000188461
:1027D0004424180003020202020008042424D80042
:1027E00001020202010040B088FC800000000003EA
:1027F00002003C242424C400010202020100F82447
:10280000242CC0000102020201000C04E41C04009C
:10281000000003000000D8242424D8000102020292
:10282000010038444444F8000003020201000000A3
:102830001000000000000200000000002000000066
:102840000000060000000020508804020000000084
:1028500001029090909090000000000000000002A3
:10286000048850200002010000001804C42418004D
:10287000000002000000F804E494F80001020202E3
:10288000020000E09CF0800002030000030204FC50
:102890002424D800020302020100F80404040C00FE
:1028A00001020202010004FC0404F8000203020217
:1028B000010004FC24740C0002030202030004FC67
:1028C00024740C00020302000000F0080444CC4011
:1028D00000010202010004FC2020FC0402030000AD
:1028E00003020404FC0404000202030202000004C8
:1028F00004FC040406040403000004FC24D00C04BB
:1029000002030200030204FC0400000002030202AE
:102910000203FC3CC03CFC0003000300030004FC79
:1029200030C4FC04020302000300F8040404F800AD
:1029300001020202010004FC242418000203020028
:102940000000F8848404F80001020207050004FC7A
:1029500024649800020302000302182424448C001B
:102960000302020201000C04FC040C00000203023A
:10297000000004FC0000FC04000102020100047CD1
:1029800080E01C040000030000001CE03CE01C0090
:10299000000300030000049C609C04000203000389
:1029A0000200041CE01C04000002030200000C846E
:1029B000641C04000203020203000000FE02020085
:1029C000000007040400000E30C0000000000001F9
:1029D0000200000202FE00000004040700000004E0
:1029E00002040000000000000000000000000000E1
:1029F00008080808080800000200000000000000A5
:102A000000000040A0A0C00000010202030204FC7C
:102A10002020C00000030202010000C0202060004E
:102A200000010202020000C02024FC00000102029A
:102A3000030200C0A0A0C0000001020202000020AA
:102A4000F82424040002030202000040A0A0602039
:102A500000070A0A0A0404FC2020C0000203020046
:102A600003020020E4000000000203020000000056
:102A700020E4000008080807000004FC80E0202093
:102A80000203020003020404FC000000020203022D
:102A90000200E020E020C00003000300030020E06B
:102AA0002020C00002030200030200C02020C0005A
:102AB00000010202010020E02020C000080F0A02ED
:102AC000010000C02020E0000001020A0F0820E001
:102AD000402020000203020000000060A0A02000AF
:102AE0000002020203000020F820000000000102A2
:102AF000020020E00020E00000010202030220E0CA
:102B0000208060200000030100006080E080600001
:102B10000003000300002060806020000203000327
:102B2000020020E02080602008080701000000204B
:102B3000A0602000000203020200000020DE02006C
:102B4000000000070400000000FF00000000000F6C
:102B500000000002DE200000000407000000020167
:102B60000204040200000000000000000000000059
:102B700000000000000000000000000000F800005D
:102B80000000000000333000000000100C06100CA4
:102B90000600000000000000000040C07840C0783F
:102BA0004000043F04043F040400007088FC083027
:102BB0000000001820FF211E0000F008F000E018BF
:102BC000000000211C031E211E0000F00888700078
:102BD00000001E2123241927211010160E000000CA
:102BE00000000000000000000000000000E01804E9
:102BF0000200000000071820400000020418E00056
:102C000000000040201807000000404080F0804095
:102C100040000202010F01020200000000F000006B
:102C200000000101011F010101000000000000007F
:102C3000000080B0700000000000000000000000F4
:102C4000000000010101010101010000000000007D
:102C50000000003030000000000000000000806034
:102C60001804006018060100000000E010080810B9
:102C7000E000000F102020100F00001010F80000DE
:102C800000000020203F2020000000700808088875
:102C90007000003028242221300000300888884845
:102CA00030000018202020110E000000C02010F875
:102CB000000000070424243F240000F80888880846
:102CC00008000019212020110E0000E0108888184B
:102CD0000000000F112020110E0000380808C8382D
:102CE00008000000003F000000000070880808880D
:102CF0007000001C222121221C0000E01008081096
:102D0000E0000000312222110F00000000C0C000CE
:102D100000000000003030000000000000800000D3
:102D200000000000806000000000000080402010D3
:102D300008000001020408102000404040404040CC
:102D4000400004040404040404000008102040802F
:102D50000000002010080402010000704808080864
:102D6000F0000000003036010000C030C828E81034
:102D7000E0000718272423140B000000C038E000EF
:102D80000000203C23020227382008F88888887039
:102D90000000203F202020110E00C0300808080845
:102DA0003800071820202010080008F8080808102C
:102DB000E000203F202020100F0008F88888E80855
:102DC0001000203F20202320180008F88888E808F9
:102DD0001000203F200003000000C0300808083821
:102DE000000007182020221E020008F80800000832
:102DF000F808203F210101213F20000808F80808B9
:102E000000000020203F2020000000000808F808F3
:102E10000800C08080807F00000008F888C0281863
:102E20000800203F20012638200008F80800000094
:102E30000000203F20202020300008F8F800F8F89B
:102E40000800203F003F003F200008F830C0000885
:102E5000F808203F200007183F00E010080808107D
:102E6000E0000F10202020100F0008F808080808C4
:102E7000F000203F210101010000E01008080810C7
:102E8000E0000F18242438504F0008F888888888FC
:102E90007000203F2000030C3020007088080808D4
:102EA00038000038202121221C00180808F80808E2
:102EB00018000000203F2000000008F8080000086B
:102EC000F808001F202020201F000878880000C874
:102ED0003808000007380E010000F80800F8000864
:102EE000F800033C0700073C03000818688080686E
:102EF000180820302C03032C30200838C800C838AC
:102F000008000000203F2000000010080808C83812
:102F100008002038262120201800000000FE0202B0
:102F200002000000007F40404000000C30C0000064
:102F30000000000000010638C00000020202FE008E
:102F40000000004040407F00000000000402020238
:102F5000040000000000000000000000000000006D
:102F60000000808080808080808000020204000059
:102F70000000000000000000000000008080808051
:102F800000000019242222223F2008F8008080003F
:102F90000000003F112020110E0000000080808002
:102FA0000000000E11202020110000000080808809
:102FB000F800000E112020103F200000808080804B
:102FC0000000001F222222221300008080F0888847
:102FD00088180020203F2020000000008080808092
:102FE0008000006B94949493600008F800808080C7
:102FF0000000203F210000203F2000809898000022
:1030000000000020203F2020000000000080989851
:10301000000000C08080807F000008F800008080F1
:103020008000203F24022D302000000808F8000016
:1030300000000020203F20200000808080808080D1
:103040008000203F20003F20003F80800080808063
:103050000000203F210000203F2000008080808071
:103060000000001F202020201F00808000808000A2
:10307000000080FFA12020110E0000000080808051
:103080008000000E112020A0FF80808080008080C2
:10309000800020203F2120000100000080808080EF
:1030A00080000033242424241900008080E08080E4
:1030B00000000000001F2020000080800000008031
:1030C0008000001F202020103F2080808000008092
:1030D000808000010E3008060100808000800080A2
:1030E00080800F300C030C300F0000808000808047
:1030F00080000020312E0E31200080808000008072
:10310000808080818E701806010000808080808021
:1031100080000021302C2221300000000000807C43
:10312000020200000000003F404000000000FF00DD
:10313000000000000000FF0000000002027C800090
:1031400000000040403F00000000000601010202B4
:103150000404000000000000000000000000000067
:10316000000000000000000000000000000000005F
:10317000000000000000000000000000000000004F
:10318000000000F0F0F0000000000000000000016E
:103190007F010000000000000000001C1C1C00005B
:1031A000000000008060301C8C60301C0C000000AF
:1031B000000000000000000000000000000000000F
:1031C000000000000000000000E00000000000E03F
:1031D00000000086E69F86868686E69F86000001C0
:1031E0001F01010101011F010100000080C06020DA
:1031F000F820E0C00000000003070C18FF70E18118
:1032000000000000070F10107F100F070000806003
:10321000206080000000E02000000F3020309F7010
:10322000DC371030C0000000100E03000718101823
:1032300007000000C02020E0C0000000000080E087
:103240001F38E88703C43C040000070F1810100B58
:10325000070D1010080000808C4C380000000000A2
:10326000000000000000000000000000000000005E
:10327000000000000000000000000000000000004E
:1032800080E0300804000000000000FEFF010000A4
:103290000000000000000000030F182040000004A0
:1032A0000830E0800000000000000000000001FF86
:1032B000FE0000000000004020180F030000000086
:1032C0000000000000000000C000000000000042FC
:1032D00066663C18FF183C6666420000000000006D
:1032E000030000000000000000000000800000005B
:1032F0000000001010101010FF101010101000002F
:1033000000000000030000000000000000000000BA
:1033100000000000000000000000000000000000AD
:10332000000000808C4C380000000000000000000D
:10333000000000000000000000000010101010103D
:10334000101010101000000000000000000000002D
:10335000000000000000000000000000000000006D
:103360000000000000000000000000001C1C1C0009
:103370000000000000000000000000000000E03835
:103380000C000000000080701C03000000000060C2
:10339000380E0100000000000000000080C0602026
:1033A0002060C080000000FEFF010000000001FF5F
:1033B000FE000001070E181010180E070100000093
:1033C000808080C0E000000000000000000000FFDE
:1033D000FF000000000000001010101F1F10101050
:1033E00000000080402020202060C08000000003FA
:1033F0000300804020381F070000001C1A1918180D
:103400001818181F00000080C020202060C0800015
:103410000000000303001010182FE78000000007D1
:103420000F10101010180F0700000000000000001F
:10343000C0E0F000000000C0B088868180FFFF80FF
:103440008000000000000010101F1F10100000007E
:10345000E060606060606060000000003F1008088D
:103460000818F0E0000000070B101010101C0F03EC
:103470000000000080C040202020E0C0000000FCD0
:10348000FF211008080818F0E0000001070C1810D0
:103490001010080F03000000C0E06060606060E092
:1034A0006000000003000000E018070000000000BA
:1034B0000000001F1F00000000000080C0602020EE
:1034C000202060C080000087EF2C1818303068CFB3
:1034D000830000070F0810101010180F07000000DD
:1034E000C0C020202020C0800000001F3F6040405E
:1034F000402010FFFE0000000C1C101010080F03ED
:1035000000000000000000000000000000000000BB
:103510000000000E0E0E0000000000000000001C65
:103520001C1C000000000000000000000000000063
:10353000000000000000000C0C0000000000000073
:1035400000000058380000000000000000000000EB
:10355000008040201000000010284482010000007C
:10356000000000000000000001020408100000003C
:1035700000000000000000000000008484848484B7
:1035800084848484840000000000000000000000A7
:10359000000000001020408000000000000000003B
:1035A00000000000018244281000000010080402FE
:1035B00001000000000000C020201010101030E0BA
:1035C000C0000003030000F010080C070300000017
:1035D00000001C1C1C0000000000000000C0406037
:1035E00020202040C00000FCFF01F00E03C1FE03BC
:1035F000807F0001070E081111101109040200005C
:10360000000080E0E000000000000000807C4340FB
:10361000477FF880000010181F1000000000131FE3
:103620001C1020E0E02020202060C080000000FF6F
:10363000FF10101010182FE78000101F1F1010101F
:103640001010180F0700000080C0402020202060CC
:10365000E00000FCFF01000000000000010000018C
:10366000070E181010100804030020E0E0202020AE
:103670002040C080000000FFFF000000000001FFAC
:10368000FE00101F1F10101018080E07010020E088
:10369000E020202020202060800000FFFF1010107C
:1036A000107C00000000101F1F10101010101018C8
:1036B000060020E0E020202020206060800000FF45
:1036C000FF101010107C00000100101F1F100000E0
:1036D000000000000000000080C06020202040E0CA
:1036E000000000FCFF0100004040C0C1404000015C
:1036F000070E181010100F0F000020E0E02000004F
:10370000000020E0E02000FFFF101010101010FF5C
:10371000FF00101F1F1000000000101F1F100000EE
:10372000202020E0E020202000000000000000FF1A
:10373000FF000000000000001010101F1F101010EC
:10374000000000000000202020E0E02020200000F9
:103750000000000000FFFF0000000060E0808080AB
:10376000C07F3F00000020E0E020000020A060209B
:10377000200000FFFF30187CE3C000000000101F95
:103780001F10000001131F1C181020E0E020000093
:1037900000000000000000FFFF000000000000002B
:1037A0000000101F1F10101010101018060020E04D
:1037B000E0E000000000E0E0E02000FF013FFEC08C
:1037C000E01E01FFFF00101F1000031F0300101F69
:1037D0001F1020E0E0C0000000000020E02000FFFB
:1037E0000003071C78E08000FF00101F100000009D
:1037F0000000030F1F00000080C060202060C08018
:10380000000000FEFF010000000000FFFE000001BC
:10381000070E181010180C07010020E0E0202020EF
:10382000202060C0800000FFFF2020202020301FCB
:103830000F00101F1F10000000000000000000001B
:1038400080C060202060C080000000FEFF010000FA
:10385000000000FFFE000001070E1111133C7C6701
:10386000210020E0E0202020202060C0800000FF18
:10387000FF101030F0D0080F0700101F1F100000BD
:1038800000030F1C10100080C0602020202040404A
:10389000E00000070F0C1818303060E08100001FB6
:1038A0000C0810101010180F07008060202020E076
:1038B000E020202060800100000000FFFF000000E9
:1038C000000100000000101F1F100000000020E099
:1038D000E020000000000020E02000FFFF000000CA
:1038E00000000000FF0000070F1810101010100853
:1038F00007002060E0E02000000020E060200000E1
:10390000077FF88000807C03000000000000071F94
:103910001C070000000020E0E02000E0E020002084
:10392000E0200007FFF8E01FFFFCE01F00000000A0
:10393000031F0300011F03000000002060E0A0003F
:103940000020E0602000000000038F7CF8C601002A
:1039500000000010181E130001171F18100020602F
:10396000E0E02000000020E06020000001073EF8B9
:10397000E0180700000000000010101F1F101000CA
:10398000000000806020202020A0E0E02000000057
:103990000000C0F03E0F0300000000101C1F1710B5
:1039A0001010101806000000000000FC04040404BD
:1039B00004000000000000FF000000000000000004
:1039C0000000007F404040404000000010E0000048
:1039D00000000000000000000000031C60800000E8
:1039E000000000000000000000030C7080000000D8
:1039F0000404040404FC00000000000000000000B7
:103A000000FF00000000000040404040407F0000F8
:103A1000000000000010080C040C0810000000005A
:103A20000000000000000000000000000000000096
:103A30000000000000000000000000000000000086
:103A40000000000000000000000000000000808076
:103A50008080808080808080808000000004040856
:103A6000080000000000000000000000000000004E
:103A70000000000000000000000000000000000046
:103A800000000000000000000000000098D844641E
:103A90002424FCF80000000F1F18101010081F1F2E
:103AA00010180020E0F000000000000000000000FE
:103AB000FFFF180804040CF8F00000001F0F181096
:103AC0001010180F030000000000000000000000AC
:103AD000000000E0F8180404043C38000000000373
:103AE0000F0C10101010080600000000000000006D
:103AF0000020E0F0000000E0F81C04040408FFFFD0
:103B0000000000030F18101010081F0F080000001D
:103B1000000000000000000000000000E0F8484441
:103B200044444C7870000000030F0C18101010086B
:103B300004000000000080C0602020E0C0000004FD
:103B40000404FFFF040404040000000010101F1F01
:103B50001010100000000000000000000000000035
:103B60000000000070F88C04048CF874040C0070E1
:103B700076CF8D8D8D89C87870000020E0F0000030
:103B80000000000000000000FFFF08040404FCF82F
:103B9000000000101F1F100000101F1F1000000069
:103BA000000000606000000000000000040404FC4D
:103BB000FC000000000000001010101F1F1010106B
:103BC0000000000000000000006060000000000035
:103BD0000000040404FCFC0000000000C0C0808061
:103BE000C07F3F0000000020E0F000000000000067
:103BF00000000000FFFF80C0F41C0404000000105F
:103C00001F1F1100031F1C1010000000202020E0C7
:103C1000F000000000000000000000FFFF000000B6
:103C2000000000001010101F1F10101000000000F6
:103C30000000000000000000000004FCFC0804FC80
:103C4000FC0804FCFC00101F1F10001F1F10001FA9
:103C50001F10000000000000000000000000000431
:103C6000FCFC08080404FCF8000000101F1F1000F2
:103C700000101F1F100000000000000000000000E6
:103C8000000000E0F0180C04040C18F0E000000341
:103C90000F0C101010100C0F0300000000000000AB
:103CA0000000000000000004FCFC080404040CF800
:103CB000F0000080FFFF889010101C0F0300000030
:103CC0000000000000000000000000E0F81C0404F8
:103CD0000408F8FC000000030F1810109088FFFF84
:103CE000800000000000000000000000000004044C
:103CF00004FCFC100804040C0C001010101F1F1012
:103D00001010000000000000000000000000000093
:103D1000000000003078CCC48484840C1C000000B7
:103D20001E1810101011190F06000000000000C02E
:103D300000000000000000040404FFFF040404006D
:103D40000000000000000F1F1010100C0000000009
:103D5000000000000000000000000004FCFE000065
:103D60000004FCFE000000000F1F181010081F0FB9
:103D70000800000000000000000000000000000437
:103D80000C3CFCC40000C43C0C0400000000010F0B
:103D90001E0E0100000000000000000000000000F6
:103DA0000000043CFCC400E47CFC84807C04000033
:103DB000071F070000071F070000000000000000A9
:103DC0000000000000000004041C7CE4C0341C045B
:103DD00004000010101C1601131F1C181000000016
:103DE0000000000000000000000000040C3CFCC4C7
:103DF00000C43C0404000000C080C1370E01000074
:103E000000000000000000000000000000000000B2
:103E10001C0404C4F47C1C0400000000101C1F17C8
:103E2000111010180E0000000000000000F80C0433
:103E3000000000000000001028EF0000000000005B
:103E400000000000003F6040000000000000000093
:103E5000FF0000000000000000000000FF00000064
:103E60000000000000000000FF0000000000000053
:103E7000040CF80000000000000000000000EF2823
:103E8000100000000000000040603F000000000043
:103E9000000000180602020408102020300800006C
:103EA0000000000000000000000000000000000012
:103EB0000000000000000000F010101010FF1010B3
:103EC0001010F000000000000F04040404FF0404BC
:103ED00004040F0000004040405F5555557555558E
:103EE000555F404040000040200F09498979090989
:103EF000090F2040000000FE02424ACA4A4ACA4A4C
:103F00004A4202FE000000FF40504C4340404F50E8
:103F1000505C40FF00000000F888888888FF88888F
:103F20008888F800000000001F080808087F8888BB
:103F300088889F80F00080828282828282E2A292C0
:103F40008A8682808000000000000040807F0000A0
:103F5000000000000000101010FF109008888888F2
:103F6000FF88888808000444827F01808040432CB9
:103F70001028468180000010101010D030FF30D083
:103F8000121C1010000010080402010000FF0000C5
:103F900001020408100004040484E43C27242424BF
:103FA00024E40404040004020100FF09090909498A
:103FB000897F0000000000FE225A8600FE92929245
:103FC0009292FE00000000FF04080700FF4020035B
:103FD0000C14224140000080402018068000071881
:103FE000204080000000010020702826212020248D
:103FF0003860000101000010129292929292921287
:104000001202FE0000000000003F101010103F00E0
:1040100040807F000000000000C0808080808080A1
:1040200080FC84808080808080C0C0000000000010
:1040300000FF7F404040404040FF40404040404003
:1040400040FF7F00000000000000000000000000B2
:10405000007F700000000000000000000000000071
:1040600000000000000000000000000000FCF8005C
:104070000000000000000000000000000000000040
:104080000000FFFE020202020202020202FFFF0221
:104090000202020202020202FF030000000000000E
:1040A00000001F1F040404040404040404FFFF04AC
:1040B00004040404040404041F00000000000000C1
:1040C000000000000000000000000000007F3F0032
:1040D00000000000000000000000000000000000E0
:1040E00000000000000000000000000000000000D0
:1040F0000000000000000000000000F8F8F0F07080
:10410000200000000000000000000000000000008F
:10411000000000000000000000000000000000009F
:10412000000000000000800000000000000000000F
:104130000000000000000000000000FFFFFFFF0083
:10414000000000000000000000000000000000006F
:10415000000080800000000000000000000000005F
:1041600000000000000000FFFFFE0606060606062F
:104170000606060606060606060606FFFFFFFF06FB
:1041800006060606060606060606060606060606CF
:1041900006FFFFFFFF070200000000000000000014
:1041A00000000000000000FFFFFF00000000000012
:1041B0000000000000000000000000FFFFFFFF0003
:1041C00000000000000000000000000000000000EF
:1041D00000FFFFFFFF0000000000000000000000E3
:1041E00000000000000000FFFFFF18181818181842
:1041F0001818181818181818181818FFFFFFFF18A3
:10420000181818181818181818181818181818182E
:1042100018FFFFFFFF00000000000000000000008A
:10422000000000000000020101000000000000008A
:104230000000000000000000000000FFFFFFFF0082
:10424000000000000000000000000000000000006E
:10425000000101000000000000000000000000005C
:10426000000000000000000000000000000000004E
:104270000000000000000000000000FFFFFFFF0042
:10428000000000000000000000000000000000002E
:10429000000000000000000000000000000000001E
:1042A000000000000000000000000000000000000E
:1042B00000000000000000000000001F1F0F0F00A2
:1042C00000000000000000000000000000000000EE
:1042D00000000000000000000000000000000000DE
:1042E00000000000000001020304060708090000A6
:1042F000104300080000002018000000C40100085E
:104300002843000818000020E00B0000E00100082E
:10431000000000000000000001000000100000008C
:08432000000000000024F4007D
:040000050800018965
:00000001FF
