:020000040800F2
:10000000B00D00204D020008774D00086F49000830
:10001000754D00082D230008D95C00080000000081
:100020000000000000000000000000002956000849
:100030002F230008000000007954000881560008B2
:1000400067020008670200086702000867020008EC
:1000500067020008670200086702000867020008DC
:1000600067020008670200086702000867020008CC
:1000700067020008670200086702000867020008BC
:1000800067020008670200086702000867020008AC
:10009000670200086702000867020008670200089C
:1000A000670200086702000867020008670200088C
:1000B000670200086702000867020008670200087C
:1000C000670200086702000867020008670200086C
:1000D00067020008CD5C000867020008670200089C
:1000E000670200086702000867020008670200084C
:1000F000670200086702000867020008670200083C
:10010000670200086702000867020008670200082B
:100110006702000867020008155700086702000818
:10012000670200086702000867020008670200080B
:1001300067020008670200086702000867020008FB
:1001400067020008670200086702000867020008EB
:1001500067020008670200086702000867020008DB
:1001600067020008670200086702000867020008CB
:10017000670200086702000867020008000000002C
:10018000670200086702000800F002F800F04FF86C
:100190000AA090E8000C82448344AAF10107DA45E2
:1001A00001D100F044F8AFF2090EBAE80F0013F0E5
:1001B000010F18BFFB1A43F001031847988D000088
:1001C000B88D0000103A24BF78C878C1FAD8520719
:1001D00024BF30C830C144BF04680C6070470000C1
:1001E0000023002400250026103A28BF78C1FBD840
:1001F000520728BF30C148BF0B607047662906F020
:10020000AB86002070471FB506F099FE00F028FE6F
:1002100004000020002106F0E9F8401C6060002086
:10022000002106F0CDF8E0601FBD10B510BD01F053
:10023000DDF81146FFF7E7FF05F0E0FE01F03AFBBD
:1002400003B4FFF7F2FF03BC01F0A0FB09488047AD
:1002500009480047FEE7FEE7FEE7FEE7FEE7FEE7A8
:10026000FEE7FEE7FEE7FEE704480549054A064BC0
:10027000704700000557000889010008B0070020FA
:10028000B00D0020B0090020B009002053EA020C94
:1002900000F069802DE9F04B4FF00006002B1FBFE6
:1002A000B3FA83F503FA05F424FA05F65E4012BFAB
:1002B0001643B2FA82F502FA05F4C5F120051EBF15
:1002C00022FA05FC44EA0C04203556EA044C4FEAB5
:1002D000144418BF641C4FF000084FF0000990420E
:1002E00071EB030C39D3002919BFB1FA81F701FA78
:1002F00007F6B0FA80F700FA07F6C7F120071EBF2D
:1003000020FA07FC46EA0C062037B6FBF4FCA7EB04
:100310000507103F07F01F0BCBF120060CFA0BFB73
:100320002CFA06F644BFB3460026202FA4BF5E4633
:100330004FF0000B5BEA060C08BF4FF0010B19EB06
:100340000B09ABFB027C48EB0608C01B06FB02CC8A
:100350000BFB03CC71EB0C01C1E70B460246414697
:100360004846BDE8F08B13B54FF000004FF0000198
:10037000AFF30080BDE81C40704700000FB41CB50F
:10038000084B06AA7B4469460090059800F09DFA48
:1003900004460020694600F0ABFA20461CBC5DF81C
:1003A00014FB0000690500002DE9F0410E460446EB
:1003B000002020622046E168884730B3252805D018
:1003C000D4E901219047206A401CF2E7E168204609
:1003D00000278847050018D0A5F14100192802D848
:1003E00020354FF400673246294620462760FFF744
:1003F00005FF40B1012804D0F61D26F00706083697
:10040000D8E7361DD6E72846DAE7206ABDE8F0814E
:100410000FB400B58DB010A9099000910B904FF06A
:10042000FF300A9000200C90064878440690064859
:1004300078446A4607900F9909A800F0E1FC0DB0D6
:100440005DF814FBF30900000B0A00004FF00002F6
:1004500000B5134694469646203922BFA0E80C50BA
:10046000A0E80C50B1F12001BFF4F7AF090728BF95
:10047000A0E80C5048BF0CC05DF804EB890028BF11
:1004800040F8042B08BF704748BF20F8022B11F03A
:10049000804F18BF00F8012B7047704770477047B6
:1004A00070472DE9FF4F0C461E464FF0FF378BB0CB
:1004B000D2E90001DDF860800A908A46C1F30A554E
:1004C00005B93D46002108464FF00000BAF1000F83
:1004D00000F4400005DA00EB80004FF4400101EA2F
:1004E00050004FEA9059B9F1010F00DDB9460A9862
:1004F00050EA4A000ED044F61050A5F2FF354543AD
:100500002F14B8F1000F1ED07542291E1EDDC9F14F
:1005100000021CE0B8F1010F4FF0000001D03021C3
:1005200003E0F24305E02154401CB042FBDB3046BF
:100530000022002121540B99C1F80880C1E9002054
:100540000FB0BDE8F08FBD1B6D1CDEE74A4600DA38
:10055000694206A800F0D4FE06AB93E8070003AB9F
:1005600083E8070050460A9901F017FA8DE8070062
:10057000A0F500501F3800900398002D0ADD42F2CC
:100580001F014A460844002303A90390684601F06E
:10059000C3FC09E0A0F500504A461F38002303A918
:1005A0000390684601F0E2FC8DE807000004000CAF
:1005B00003D04FF0FF30410800E01046B8F1000FC3
:1005C00003D00022009215461EE0751E05D400F0EF
:1005D0004FFC303262556D1EF9D5B34601220843F7
:1005E00002D000227F1C04E02078302801D10022B4
:1005F0007F1E002A099784D01DE0112D07DA00F034
:1006000037FC303262556D1C50EA0102F5D10843C7
:1006100002D00098C8B10EE00021681E05E0235CFE
:10062000625C63542254401E491C8142F7DBAB4696
:10063000A81B401E0990002004F80B000B98099A93
:10064000C0F80880C0E9002B7AE711264FF00008B7
:1006500057E72DE9F04F88460446D21D22F00701E6
:1006600091B0D1E90001CDE90A0105F036FB02465F
:100670000B98C00F01D02D2007E02068810701D51D
:100680002B2002E0202101EAC000032A099001D0BA
:10069000072A05DB03464146204600F037FC0BE104
:1006A0002078800601D5E06900E00620B8F1650FEA
:1006B000814606D0B8F1660F18D0B8F1670F70D137
:1006C00031E00020B9F1110F009001DB112301E0AE
:1006D00009F101030AAA01A90CA8FFF7E2FEDDE96E
:1006E0000C70002609F10105834647E001204B46C6
:1006F00000904FF000470AAA01A90CA8FFF7D1FE0D
:10070000DDE90DB00C995D46002610B909F1010034
:100710000D18B9EB050003D4C0F1FF3609F101054E
:10072000A5EB09002BE0B9F1010F01DA4FF0010947
:100730000020B9F1110F0090484601DD112300E0BF
:1007400003460AAA01A90CA8FFF7ABFEDDE90C706D
:100750004D4600268346207800070AD4AB4500DAD0
:100760005D4601A8012D04DD411911F8011C302955
:1007700007D04F4502DA17F1040F04DA0120824650
:100780000FE06D1EEEE7002F02DCED1B3E4403E0A0
:10079000781CA84200DD7D1CB81B00F1010A4FF057
:1007A00000472078000703D4AA4501DB4FF0FF3A49
:1007B0000021B7F1004F0DF143088DF8431024D00C
:1007C00002202B23002F01DA7F422D230A21021E53
:1007D000A0F1010000DC5FB197FBF1FC97FBF1F2A7
:1007E00001FB1C7C17460CF1300C08F801CDEEE73C
:1007F000A8F1010003702188090501D5452100E019
:100800006521A0F1010800F8011C09980FA9A1EBCE
:100810000807FF1D00B10120411901EBEA70A16931
:100820003844081A401EA0612078C00602D4204631
:10083000AFF30080099828B1D4E901219047206ADC
:10084000401C20622078C00622D52046AFF30080ED
:100850001EE0002E04DBB34502DD01A8805D00E050
:100860003020D4E901219047206A401C2062761C88
:10087000AAF101005FEA000A0AD100F0F1FAC068AB
:100880000168405CD4E901219047206A401C206245
:10089000281EA5F10105DCDC07E0D4E9012118F8E8
:1008A000010B9047206A401C2062381EA7F1010707
:1008B000F3DC2046AFF30080032011B041E60000D6
:1008C00001694A1C02610878704700B58FB0CDE914
:1008D00001310021059105497944CDE90310114604
:1008E0006846FFF761FD0FB000BD0000E5FFFFFFA8
:1008F0000A6802F8010B0A60704700002DE9FF4FFB
:1009000006468BB00878FF2806D0491C2D2805D054
:1009100000244FF0000908E000200CE00124F8E773
:1009200009EB8903491C00EB43090878FF28F7D13C
:1009300014B1C9F100008146107800252C46AA4662
:1009400029462D2801D02B2804D1521C2D2813D044
:10095000002082468B461078FF280FD04FF0000C05
:100960000A21521CA5FB017804FB018105FB0C1137
:10097000C5194BEB0104EEE70120EAE70021084628
:100980004FF00000BAF1000F02D000EB80004008E9
:10099000C0F38157012F01DD4FF0FF370E9955EA63
:1009A000040009EB01080BD04FF0020918F5FA7F9B
:1009B00016DA4FEACA70002F706008DD012007E0E8
:1009C0004FEACA70C6E900B00FB0BDE8F08F002052
:1009D000306000F049FAC0F800901821084616E08F
:1009E000B8F5FA7F18DD002F02DAF748784401E005
:1009F000F6487844D0E90010C6E9001040EACA7011
:100A0000706000F031FAC0F80090142108460FB071
:100A1000BDE8F04F06F09DBA002108464FF00000F7
:100A2000B8F10001099002DAC7F1000200E03A468D
:100A300001DAC8F1000106A800F062FC06AB93E8F9
:100A4000070003AB83E8070044F23E005BEA0401C1
:100A50000090584604D144F21E012C465D46009198
:100A6000210C0904014306D10099240444EA1544E9
:100A70002D041039009104F07F41014306D1009903
:100A8000240244EA15642D020839009104F07041F3
:100A9000014306D10099240144EA15742D01091F70
:100AA000009104F04041014306D10099A40044EABA
:100AB0009574AD00891E009104F00041084304D1F3
:100AC00000986D196441401E00904FF001033A46B2
:100AD0006846B8F1000FCDE9014503A902DD01F038
:100AE0005AFA01E001F02DFABAF1000F04460D4662
:100AF00001D084F00044002108464FF0000009991D
:100B000040F2FF77484010F00C0F07D124F000406E
:100B1000284303D0C4F30A50B84212D100F0A4F91C
:100B2000C0F80090C4F30A50B8420AD1A8487844EB
:100B3000D0E90010C6E9001004F0004108437060DD
:100B400042E7C6E900543FE72DE9FF4F1F464FF04B
:100B5000000A4FF0FF38454691B0D7E90146CDF87D
:100B60003CA000F07DF9C0680168405C1090B96954
:100B700012986D1C8847396A814688470028F6D14B
:100B8000B9F1FF3F0AD0002E24F4D06411DDB9F191
:100B90002B0F08D0B9F12D0F0BD102E0404615B054
:100BA00013E744F48064B96912986D1C8847761E77
:100BB0008146600504A901D52D2000E02B20002EE0
:100BC00001F1010B0DF130088DF810003FDDB9F196
:100BD000690F08D0B9F1490F05D0B9F16E0F02D0F5
:100BE000B9F14E0F1CD13B4601A8009580E8500298
:100BF000DDE912126FF0020006F014FAC11CCED12A
:100C00000EE0B96912986D1C884781461398761ECC
:100C100044F4007405600F98401C002E0F9016DD00
:100C2000B9F1300FEDD0B9F1780F02D0B9F1580F0A
:100C30000DD10F9801280AD13B46CDE90054DDE9DA
:100C40001212001F029606F0EBF9C11CA7D11099F1
:100C500089453ED144F0800406E01399681CAAF14E
:100C6000010A44F400740860B9696D1C1298761E7C
:100C7000884730288146F0D02BE01099894505D16E
:100C8000200603D4761E44F0800418E0484605F0A0
:100C900066F908B3761E0DF123018B4544F4007408
:100CA00008D2A9F130000BF8010B200607D5AAF1F4
:100CB000010003E0200602D40AF101008246A005EB
:100CC00002D51399681C0860B96912986D1C884791
:100CD0008146002ED1DC53E0002E51DDB9F1650FC5
:100CE00002D0B9F1450F4BD1A00549D5B9696D1CAA
:100CF0001298761E24F440748847002E81460CDD3D
:100D00002B2804D0B9F12D0F07D144F48074B969B0
:100D100012986D1C8847761E8146E00501D52D216D
:100D200000E02B2108F8011BCDF8008021E0761EA1
:100D30000DF13901884544F400740CD2A9F130005A
:100D400010F0FF0088F8000002D10099884509D909
:100D500008F1010806E0E00501D51E4801E042F275
:100D60000F708246B96912986D1C884781461398A6
:100D70000560002E04DD484605F0F1F80028D6D1C4
:100D8000F96912988847FF2053468BF8000088F8CD
:100D9000000000200A900B9004AA0CA90AA8FFF7F3
:100DA000ADFDA00502D46FF00100F8E614F0240FA9
:100DB00012D0E0071CD13868DDE90A12031D3B6040
:100DC0000068C0E9001213E08C8500007E850000F9
:100DD00042840000F1D8FFFF0AA9684605F0ACF88C
:100DE000E00705D13868009A011D3960006802608B
:100DF0002846D4E60268114413780160184670470B
:100E0000D160054979445161044979441162002156
:100E10001161114600F0BAB8EDFFFFFFED000000D0
:100E2000426842B1016811F8013B23B1521EC0E98A
:100E30000012184670470121C160881E7047426841
:100E40005AB1C368016843B983688B4205D0491E13
:100E5000521CC0E90012002070474FF0FF3070476D
:100E6000004870476C070020004870474C0700207E
:100E700030B5B0F10A024FEA900E71F100034EEA6C
:100E8000817EB0EB0E0061EB91014FEA101E4EEA3D
:100E9000017E10EB0E0041EB11114FEA102E4EEACD
:100EA000016E10EB0E0041EB11214FEA104E4EEA9D
:100EB000014E10EB0E0041EB1141401841F10001D1
:100EC0004FEAD00040EA41704FEAD10110EB8005B3
:100ED0004FEA810444EA907444EB01046D1944EB39
:100EE0000404521BA3414FF0000348BF0A3200D54F
:100EF00030BD401C41F1000130BD10B5044600F08A
:100F00009BFA0068005D00F0010010BD2DE9F04182
:100F10001F46044603260168072A01F4006004DB2B
:100F200008B116A505E016A503E008B115A500E077
:100F300015A521F010002060A069C01EA0610FB1AE
:100F4000401EA0612046AFF300804FB1D4E90121DB
:100F500038469047206A401C2062C01C206206E090
:100F6000206AFAE7D4E9012115F8010B9047761EB3
:100F7000F8D22046AFF30080BDE8F0814E414E002C
:100F80006E616E00494E4600696E66002DE9F34FB2
:100F90004FF0000A0C4656468DB001200C9001F12E
:100FA0000C000B9062690B9801219047051E2DD013
:100FB000252D2CD0216A8847C0B162690B98012188
:100FC0009047216A88470028F7D16269411E0B9833
:100FD000904700E0761CA1690D988847216A8847F0
:100FE0000028F7D1E1690D988847DBE7A1690D98E2
:100FF0008847A842074601D1761CD3E7E1690D98DE
:1010000088477F1C02D1BAF1000F6FD06CE1626992
:101010000B9800273D46394690472A2804D162693B
:101020000B98012190470125DFF8D08262690B9867
:1010300001219047A0F130010A290AD24745E5DC99
:1010400007EB870100EB4107303FDFD445F0100587
:10105000ECE7E90601D46FF000476C280AD04C2871
:1010600014D0682815D06A280DD074281CD07A288E
:101070001AD01DE062690B98012190476C2802D0BC
:1010800045F0040514E045F002050DE045F02005AB
:101090000AE062690B9801219047682802D045F068
:1010A000080505E045F4006562690B980121904749
:1010B000C4E9015765283DD019DC58287AD00CDCEA
:1010C000452837D004DC252826D041289ED131E0A0
:1010D00046282FD0472899D12CE05B2877D061286B
:1010E00028D063287CD0642823D15AE0F7E06F2809
:1010F00048D008DC66281DD067281BD0692821D07D
:101100006E2816D127E0702845D0732868D075283E
:1011100047D078280DD14DE0A1690D988847252842
:1011200005463FF469AFE1690D9888476D1C3FF4AF
:101130006AAFD9E00D9923466A466FF0010005F0C9
:101140006DFFC6E045F0400023464FF000026060AE
:10115000A80736D43EE0E8077FF447AF2068011DBA
:1011600021600068290501D506701BE7290701D514
:10117000068017E7A90703D5F117C0E9006111E759
:1011800006600FE745F0400023464FF0080260601C
:10119000A80716D41EE040F60E0125EA01006060A3
:1011A00016E045F0400023464FF00A026060A807B1
:1011B00007D40FE045F040006060A80708D523463B
:1011C00010220D996FF00100AFF3008081E007E07D
:1011D000102223460D996FF00100AFF3008078E0F4
:1011E0004FF0000963284F46C8464B46CB4602D015
:1011F0005B2807D039E02079C00601D40120A06027
:10120000012732E06269D4F80CB00B9801219047B5
:101210005E2807D14FF0010949466269D4F80CB045
:101220000B989047216939B900210A4603AB43F86E
:101230002120491C0829FADBD8B3216949B308F1F8
:10124000010862690B98012190475D28F4D1B9F13A
:10125000000F09D0002003A951F82020D24341F803
:101260002020401C0828F7DB03AB206900282079E8
:101270004FEA40701ED05B462246CDF80080CDE993
:1012800001970D9900286FF0010020DAAFF300807C
:101290001FE0C11703AA00EBD1614B1121F01F0120
:1012A00002EB8302411A1368012088400343136054
:1012B000C7E719E00D99224600286FF0010000975A
:1012C00002DAAFF3008004E0AFF3008001E0AFF397
:1012D000008000280ADA401C06D10C9820B14FF09B
:1012E000FF300FB0BDE8F08F5046FAE7E90701D1B3
:1012F0000AF1010A064400200C9053E6CCCCCC0C39
:101300002DE9F047814616468AB0354878440DC825
:101310008DE80D0032487844801C03AC0DC884E889
:101320000D0041F69B300844372190FBF1F290FB11
:10133000F1F5A5F1800501FB12041B3C02D56442C6
:10134000012000E00020DFF898A080460027FA4442
:10135000AAF1BE0A0EE0E0070AD03246684607EB63
:10136000470101230AEB810100F000FE8DE8070030
:1013700064107F1C002CEED1194F7F44AE3F19E062
:10138000E80715D007EB04100DF1180A90E80E00DD
:101390008AE80E00C068F04201D1981908903246E0
:1013A000012306A903A800F0E1FD03AB83E80700D1
:1013B0006D10641C002DE3D14FF0010332466946E5
:1013C000B8F1000F03A802D000F0A6FD01E000F084
:1013D000CDFDC9E90001C9F808200AB0BDE8F087D1
:1013E0002C7C0000004870474C0700207546FFF732
:1013F000F9FFAE4605006946534620F007008546D2
:1014000018B020B5FEF730FFBDE820404FF00006D1
:101410004FF000074FF000084FF0000B21F00701DC
:10142000AC46ACE8C009ACE8C009ACE8C009ACE81F
:10143000C0098D467047000010B5FFF711FD001D73
:1014400010BD00BFA94F000010B5FFF70DFD0068EB
:1014500010BD10B50446FFF707FD046010BD000085
:101460002DE9FF4F1F464FF03C0987B04FF0004277
:10147000DDE9141001F10108DDF858A002EA40503E
:101480000390002005908346054604460490B96900
:10149000461E08988847AAF1010A0290BAF1000F87
:1014A0003BDD02982E2815D0102100F060FA0028AC
:1014B0002EDB4FF0010B0599014317D0B9F1000F56
:1014C0000BDB4A46C11700F03FFA05430C43A9F174
:1014D000040905E0012004900BE008B145F0010586
:1014E00001200590049820B9361D02E0049800B14F
:1014F000361FB969089808F101088847BBF1000F49
:10150000AAF1010A0290C9D00999C1F80080C5E783
:101510000298702808D0502806D0F96908988847A2
:10152000BBF1000F14D04FE0002002900120BBF16E
:10153000000F049009D0B969089808F1010888479C
:10154000AAF10109B9F1000F07DCF9690898884789
:101550006FF001000BB0BDE8F08F2B2804D02D28D0
:101560000CD14FF0FF300490B969089808F10108D8
:101570008847A9F10109B9F1000FE6DD411CE4D06B
:101580000A2100F0F4F90028DFDB029908F10108D4
:1015900001EB810100EB41000290B969089888478E
:1015A0000A2100F0E4F9099AA9F10109B9F1000F43
:1015B000C2F8008001DD0028E7DAF9690898884759
:1015C0000499029800FB016655EA040004D004F077
:1015D0004041090002D006E0039898E0A40044EAE4
:1015E0009574AD00B61E04F00041080002D16D19DB
:1015F0006441761E159810F0240F03D04FF00B09AC
:101600005C4803E04FF028096FF07D0082465645A4
:1016100007DAAAEB06018944B9F1410F01DD4FF069
:10162000410901200021A9F1010200F08DF90246D3
:1016300028400B462140084301D0012100E0002151
:10164000501E029143F1FF3128402140084301D050
:10165000012000E000200299834651EA0B014FD09F
:10166000002108464FF00000039900F4400039B112
:1016700000EB80004FF4400100EBD07001EA600005
:101680008015012802DD4FF0FF3000E013D0401C30
:1016900036D0029860B3BBF1000F0CD14A4601204E
:1016A000002100F051F928402140084301D00120D9
:1016B00000E00020E0B101204A46002100F044F99A
:1016C000034640190A4661412D1A8C4111D3B9F1E4
:1016D000400F09DD159810F0240F02D0AAF134064E
:1016E00003E0AAF1170600E0761C00254FF0004445
:1016F00006E05B1E42F1FF3220EA030521EA020404
:10170000CAF10100B04206DA1B4903980843019070
:10171000002000900EE0039AC4F3D321E80A0A43A4
:10172000164940EA44500A433146CDE90002684672
:1017300004F00BFC159810F0240F0BD01598C0077F
:1017400015D13868DDE90012031D3B600068C0E96F
:1017500000120CE002A8694604F0EEFB1598C007E1
:1017600005D13868029A011D396000680260404660
:10177000F0E6000002FCFFFF0000F07F0000F03FF9
:101780002DE9FF4F92461D4685B04FF00041DDE93F
:10179000124BDDE914727F1E01EA4B50414940F0C3
:1017A000FF4940EA0108002122F020004928049165
:1017B00002D04E2828D04CE03BA0012607C88DE877
:1017C0000700A9690698641C88477F1E014606D455
:1017D0001DF8060018B121F0200181420BD0E96903
:1017E00006988847032E34D0082E32D06FF00100BF
:1017F00009B0BDE8F08F761C032E01D0082EE0D191
:10180000601CCAF80000DCE7A9690698641C8847D8
:101810007F1E2AD420F02000412826D1A9690698ED
:10182000641C88477F1E20D420F020004E281CD145
:10183000A9690698641C88477F1E48F4002849F46B
:101840008009CAF8004001D4282806D0E969069822
:1018500088475FEACB7012D022E0A9690698641C21
:1018600088477F1E01D4002803DAE9690698884773
:10187000BCE72928F1D1641CCAF80040E9E71BF055
:10188000240F07D028680499031D2B600068C0E965
:10189000001805E02868021D2A600068C0F8009062
:1018A0002046A5E70000F07F494E46494E4954596D
:1018B0000000000010B50446AFF300802046BDE8EC
:1018C0001040FEF7BDBC00004FF0013C50F8042B67
:1018D00051F8043B9A4221D1A2EB0C03934313EA43
:1018E000CC1317D150F8042B51F8043B9A4215D170
:1018F000A2EB0C03934313EACC130BD150F8042B47
:1019000051F8043B9A4209D1A2EB0C03934313EA2A
:10191000CC13DBD04FF00000704700BFD01A01BAE3
:10192000B1FA81F101F0180122FA01F0CB40C1F1C6
:101930002001DBB2C0B2C01A2CFA01F3D11A9143D4
:1019400011EAC311E6D17047B2F120030AD5C2F102
:10195000200301FA02F120FA03F300FA02F041EA4F
:101960000301704700FA03F14FF0000070473A2876
:1019700000D2303820F02002412A01D3A2F13700F2
:10198000884201D34FF0FF30704700000149182012
:10199000ABBEFEE72600020070475FEA400C08BFBE
:1019A00091F0000F4FEA8C234FEAC12243EA5151D4
:1019B0004FEA1C5018BF00F5F0404FEA300018BF46
:1019C00041F000415FEA6C5C00F02980BCF1FF3F10
:1019D00008BF40F080407047130C06BF12044FF060
:1019E000100C4FF0000C130E04BF12020CF1080C87
:1019F000130F04BF12010CF1040C930F04BF9200EB
:101A00000CF1020CD30F04BF52000CF1010C114673
:101A10004FF00002A0F11F00A0EB0C00704711F086
:101A2000004F08BF704731F000413FF4D5AF0B0CB9
:101A300006BF09044FF0100C4FF0000C0B0E04BF52
:101A400009020CF1080C0B0F04BF09010CF1040C86
:101A50008B0F04BF89000CF1020CCB0F04BF4900AF
:101A60000CF1010CCCF12003A0EB0C0022FA03F3E3
:101A700002FA0CF241EA030100F10100704720F084
:101A80007F4C80EA030023F07F47ACEB070303F5AC
:101A90007C5300F0004003F1FF032DE980494FEA39
:101AA000154B09B44FEA144325EA0B4E24EA0348C8
:101AB0000FF2042606EB132749083E785FEA32024C
:101AC00003FB0667C7F5000707FB06F64FEA543726
:101AD0004FEAD64606F1020607FB066CCCF1005C25
:101AE0004FEA1C472CEA074C07FB06F40CFB06F5F3
:101AF00004EB15464FEA961634BF00204FF0004025
:101B00004FEAD13706FB07FC4FEA1C4C0CFB0BF7E6
:101B1000D21B03FB0CF761EB07010CFB0EF7B0EBDC
:101B2000074072EB17420CFB08F734BFA2EB0742E9
:101B3000B2EB074261EB17414FEA0C444FEA9107C1
:101B400006FB07FC4FEA1C4C0CFB0BF7B0EBC74045
:101B500072EB573203FB0CF734BFA2EBC742B2EB78
:101B6000C74261EB57310CFB0EF7B0EBC70072EBCD
:101B700057720CFB08F734BFA2EBC702B2EBC702E7
:101B800061EB5771039F4FEA816141EA921104EBC7
:101B9000CC044FEAD1374FEA826206FB07FC42EAE7
:101BA00090124FEA80604FEA1C4C0CFB0BF7D21BE3
:101BB00003FB0CF761EB07010CFB0EF7B0EB0740E2
:101BC00072EB17420CFB08F734BFA2EB0742B2EBF3
:101BD000074261EB17414FEA8C554FEA910704EB3E
:101BE0009C2406FB07FC4FEA1C4C0CFB0BF7B0EBEC
:101BF000C74072EB573203FB0CF734BFA2EBC7426E
:101C0000B2EBC74261EB57310CFB0EF7B0EBC700EC
:101C100072EB57720CFB08F734BFA2EBC702B2EBB2
:101C2000C70261EB577115EB4C254FEA816141EA20
:101C300092114FEA82624FEAD13742EA901206FBD4
:101C400007FC44F100044FEA80604FEA1C4C0CFB97
:101C50000BF7D21B03FB0CF761EB07010CFB0EF734
:101C6000B0EB074072EB17420CFB08F734BFA2EB56
:101C70000742B2EB074261EB174115EB1C154FEA27
:101C8000813141EA92414FEA823242EA90424FEA80
:101C900080304FEA0C7644F1000448EA03434EEAF0
:101CA0000B484FF0000EB2EB080C71EB030724BF9A
:101CB000624639464EEB0E0E4FF0000B00185241B3
:101CC00049414BEB0B0BB2EB080C71EB03077BF1BB
:101CD000000B24BF624639464EEB0E0E4FF0000B50
:101CE0000018524149414BEB0B0BB2EB080C71EB66
:101CF00003077BF1000B24BF624639464EEB0E0E04
:101D000051EA020718BF46F0010616EB0E7655F1B0
:101D1000000254F1000103D5BDE88901BDE8008847
:101D2000BDE88901BDE80048B619524141EB010107
:101D3000A3F10103704780807F7E7D7C7B7A797878
:101D4000777676757473727171706F6E6E6D6C6C80
:101D50006B6A6A6968686766666564646363626122
:101D60006160605F5F5E5E5D5D5C5C5B5B5A5A59A3
:101D7000595858575756565555555454535352520F
:101D80005251515050504F4F4F4E4E4D4D4D4C4C67
:101D90004C4B4B4B4A4A4A494949484848474747B0
:101DA00047464646454545444444444343434342ED
:101DB000424242414141000046EA0646A3F57053C3
:101DC0004FEA164646EA42564FEAD22242EA4152CA
:101DD00010B54FEAD121A3F1010300F02FF820F054
:101DE000004000F1020C00F0004701EB00501146EA
:101DF000BCF5006F40EA070000D210BDBAF1000F39
:101E00000AD01CB503B44FF004004FF004014FF0AA
:101E100000000FBCBDE810404FF00001BBF1010F06
:101E2000B9BF04484FF0FF310348002140EA0700E2
:101E300010BD00BFFFFFEF7F0000F07F002B9C462E
:101E400030D477002BD01CB54FEA370703B44FF0DE
:101E500010004FF01001BAF1000F06D0BCF1000FD6
:101E6000DCBF40F0080040F008014FF000000FBC5C
:101E7000BDE810400BF1010BBBF1010F08BF5FEA99
:101E8000170722BF12F1010211F101014FF00041C9
:101E900043F1000300F0004043EA00007047F9D32B
:101EA0005708D0E746EA064613F1400F4FEA1646B8
:101EB0001FDD13F1200FDFBF16430A460021203338
:101EC0005B42BED0C3F1200746EA064602FA07F796
:101ED0004FEA164646EA0706C3F1200722FA03F244
:101EE00001FA07F721FA03F14FF0000342EA070273
:101EF000A7E746EA020646EA06464FEA164646EADB
:101F00000106BCBF46EA0646360C4FF000034FF010
:101F100000024FF0000194E72DE9804C9A46934669
:101F200070B491E8380007C831EA400C48BF34EA81
:101F3000430C03D5FFF7A3FDFFF780FFF0BCBDE81E
:101F4000008C2DE9804C9A46934670B491E8380095
:101F500007C831EA400C48BF34EA430C03D5FFF709
:101F60008EFDFFF729FFF0BCBDE8008C2DE9804C09
:101F70009A46934670B491E8380007C810F0804F35
:101F800008BF13F0804F03D100F01AF8FFF756FF97
:101F9000F0BCBDE8008C2DE9804C9A46934670B4A5
:101FA00091E8380007C810F0804F08BF13F0804F49
:101FB00003D100F005F8FFF7FFFEF0BCBDE8008C90
:101FC00020F07F4780EA030023F07F4C07EB0C03EF
:101FD000A3F57C5300F00040A3F1FE0392F0000F44
:101FE00000F0B38095F0000F00F077802DE90149F3
:101FF0004FEA11404FEA144621EA004800FB06FC74
:1020000024EA064708FB06F607FB08F800FB07F77B
:1020100018EB06484CEB164C4FEA124B18EB0748EE
:102020004FEA15464CEB174022EA0B4E0BFB06FC21
:1020300025EA06470EFB06F607FB0EFE0BFB07F72D
:102040001EEB064E4CEB164C4FF000061EEB074EF7
:102050004CEB174B18EB0B0840F1000018EB0E0B84
:1020600058EB000840F100008F1A4FF000013CBF10
:10207000C943661B14BFB5EB040C00213CBFC94328
:10208000F61B4FEA17444EEA8E0E27EA04454FEA44
:102090001C4704FB07622CEA074C05FB07F70CFB07
:1020A00005F604FB0CFC16EB074642EB174216EB59
:1020B0000C4642EB1C421BEB060658EB0202414168
:1020C00046EA9E0601D5BDE80189B619524141EBA9
:1020D0000101A3F10103BDE801894FEA14454FEA6C
:1020E000114724EA054621EA074C05FB07F406FBE5
:1020F00007F70CFB06F105FB0CFC11EB074144EB69
:1021000017444FEA124711EB0C4144EB1C4422EAFE
:10211000074C05FB07F206FB07F70CFB06F605FB71
:102120000CFC16EB074642EB174216EB0C4642EB53
:102130001C456A1854F1000148BF7047B619524156
:1021400041EB0101A3F10103704795F0000F37D077
:102150004FEA11424FEA144721EA024624EA074CAB
:1021600002FB07F106FB07F70CFB06F402FB0CFC75
:1021700014EB074441EB17414FEA154714EB0C44AD
:1021800041EB1C4125EA074C02FB07F506FB07F76C
:102190000CFB06F602FB0CFC16EB074645EB17455D
:1021A00016EB0C4645EB1C42121951F1000148BFD9
:1021B0007047B619524141EB0101A3F10103704789
:1021C0004FEA14454FEA114724EA054621EA074C35
:1021D00005FB07F106FB07F70CFB06F24FF00006C4
:1021E00005FB0CFC12EB074241EB174112EB0C42D2
:1021F00051EB1C4148BF7047921841EB0101A3F11C
:1022000001037047464910B54A6822F440324A60DB
:102210004A6843681A434A6001684A6822F4807237
:102220004A6001684A68036942EA03224A60016819
:102230004A6822F040724A6001684A6883681A431B
:102240004A6001688A6822F400628A6001688A68CC
:10225000C3681A438A60816A6FF07062D142016874
:102260008A6822F070628A6001688A680CD0836A8A
:102270001A438A6001688A6822F040528A600168C5
:102280008A68C36A1A4301E022F040528A600168FA
:102290008A6822F002028A6001688A68037E42EA44
:1022A00043028A6090F82010002901684A680FD024
:1022B00042F400624A6001684A6822F460424A605F
:1022C00001684A68174C436A04EB43331A4301E040
:1022D00022F400624A600168CA6A22F47002CA628B
:1022E0000168CA6A838B104C04EB03531A43CA6219
:1022F00001688A6822F400728A6001688A6890F82E
:10230000303042EA43228A6001688A6822F480629F
:102310008A6001688A68406942EA8020886010BD4E
:102320000023014000E0FFFF0000F0FFFEE77047E0
:1023300070B5264C00224FF48071204600F08DFECF
:10234000234E0122D103304600F087FE214D0122A9
:102350001146284600F081FE01229103304600F02C
:102360007CFE1D4E01221021304600F076FE012237
:102370000421204600F071FE01220421204600F0D5
:102380006CFE01220821204600F067FE0122102188
:10239000204600F062FE01222021304600F05DFE62
:1023A00001220221284600F058FE01222021204669
:1023B00000F053FE01224021204600F04EFE204650
:1023C000BDE870400022802100F047BE00180240A6
:1023D00000080240001402400010024070B5264C74
:1023E00000224FF48071204600F037FE234E012278
:1023F000D103304600F031FE214D0122114628461E
:1024000000F02BFE01229103304600F026FE1D4E07
:1024100001221021304600F020FE01220421204636
:1024200000F01BFE01220421204600F016FE0022CF
:102430000821204600F011FE01221021204600F064
:102440000CFE01222021304600F007FE002202216E
:10245000284600F002FE00222021204600F0FDFD6B
:1024600000224021204600F0F8FD2046BDE87040E3
:102470000022802100F0F1BD001802400008024057
:10248000001402400010024070B5264C00224FF4A8
:102490008071204600F0E1FD234E0122D103304639
:1024A00000F0DBFD214D01221146284600F0D5FD4C
:1024B00001229103304600F0D0FD1D4E0122102173
:1024C000304600F0CAFD01220421204600F0C5FD7F
:1024D00001220421204600F0C0FD012208212046EF
:1024E00000F0BBFD01221021204600F0B6FD0022C5
:1024F0002021304600F0B1FD01220221284600F0E3
:10250000ACFD01222021204600F0A7FD0022402141
:10251000204600F0A2FD2046BDE870400122802147
:1025200000F09BBD00180240000802400014024069
:102530000010024070B5264C00224FF480712046F6
:1025400000F08BFD234E0122D103304600F085FDC3
:10255000214D01221146284600F07FFD0122910302
:10256000304600F07AFD1D4E01221021304600F069
:1025700074FD01220421204600F06FFD0122042198
:10258000204600F06AFD01220821204600F065FD8A
:1025900001221021204600F060FD0122202130465A
:1025A00000F05BFD01220221284600F056FD0022CA
:1025B0002021204600F051FD00224021204600F05D
:1025C0004CFD2046BDE870400122802100F045BD51
:1025D00000180240000802400014024000100240AF
:1025E00070B5264C00224FF48071204600F035FD76
:1025F000234E0122D103304600F02FFD214D012250
:102600001146284600F029FD01229103304600F0D2
:1026100024FD1D4E01221021304600F01EFD012236
:102620000421204600F019FD01220421204600F07B
:1026300014FD00220821204600F00FFD0122102188
:10264000204600F00AFD01222021304600F005FD61
:1026500000220221284600F000FD00222021204611
:1026600000F0FBFC01224021204600F0F6FC204651
:10267000BDE870400122802100F0EFBC001802404C
:1026800000080240001402400010024070B5264CC1
:1026900000224FF48071204600F0DFFC234E01221F
:1026A000D103304600F0D9FC214D012211462846C5
:1026B00000F0D3FC01229103304600F0CEFC1D4E09
:1026C00001221021304600F0C8FC012204212046DE
:1026D00000F0C3FC01220421204600F0BEFC0122D0
:1026E0000821204600F0B9FC00221021204600F00D
:1026F000B4FC01222021304600F0AFFC012202216F
:10270000284600F0AAFC00222021204600F0A5FC6B
:1027100001224021204600F0A0FC2046BDE8704088
:102720000122802100F099BC0018024000080240FC
:10273000001402400010024070B5264C00224FF4F5
:102740008071204600F089FC234E0122D1033046DF
:1027500000F083FC214D01221146284600F07DFC4B
:1027600001229103304600F078FC1D4E0122102119
:10277000304600F072FC01220421204600F06DFC7E
:1027800001220421204600F068FC01220821204695
:1027900000F063FC00221021204600F05EFC0122C4
:1027A0002021304600F059FC01220221284600F089
:1027B00054FC01222021204600F04FFC0122402140
:1027C000204600F04AFC2046BDE8704001228021EE
:1027D00000F043BC00180240000802400014024010
:1027E0000010024070B5264C00224FF48071204644
:1027F00000F033FC234E0122D103304600F02DFCC3
:10280000214D01221146284600F027FC01229103A8
:10281000304600F022FC1D4E01221021304600F00F
:102820001CFC01220421204600F017FC0122042197
:10283000204600F012FC01220821204600F00DFC89
:1028400001221021204600F008FC01222021304600
:1028500000F003FC00220221284600F0FEFB0022CB
:102860002021204600F0F9FB00224021204600F004
:10287000F4FB2046BDE870400022802100F0EDBB53
:1028800000180240000802400014024000100240FC
:1028900070B5264C00224FF48071204600F0DDFB1D
:1028A000234E0122D103304600F0D7FB214D0122F7
:1028B0001146284600F0D1FB01229103304600F07A
:1028C000CCFB1D4E01221021304600F0C6FB012238
:1028D0000421204600F0C1FB01220421204600F023
:1028E000BCFB01220821204600F0B7FB0122102189
:1028F000204600F0B2FB01222021304600F0ADFB63
:1029000001220221284600F0A8FB012220212046B6
:1029100000F0A3FB01224021204600F09EFB204650
:10292000BDE870400122802100F097BB00180240F2
:1029300000080240001402400010024072B6FEE798
:10294000024600685FF0010152F82130834200DD49
:102950001846491C0529F7DB70470000024600684D
:102960005FF0010152F82130834200DA1846491C19
:102970000529F7DB7047000010B5D0E900121144BB
:10298000D0E902231A4400691144084403F0F5FF1A
:102990009FED041B53EC112B03F02CFEBDE81040FF
:1029A00003F0BCBF000000000000144078B5002414
:1029B000009490F83C20012A19D0012280F83C2094
:1029C0000A6807230568092A13D9EE680A3A02EB58
:1029D000420293409E43EE600B788A680A3B03EB09
:1029E00043039A400368DD682A43DA6010E002205E
:1029F00078BD2E6902EB420293409E432E610B7814
:102A00008A6803EB43039A4003681D692A431A61ED
:102A10004A681F23072A13D205686E6B521E02EB09
:102A2000820293409E436E630B790A885B1E92B2CA
:102A300003EB83039A4003685D6B2A435A6327E0E4
:102A400005680D2A12D22E6BD21F02EB8202934030
:102A50009E432E630B790A88DB1F92B203EB83033C
:102A60009A4003681D6B2A431A6311E0EE6A0D3A1F
:102A700002EB820293409E43EE620B790A880D3B83
:102A800092B203EB83039A400368DD6A2A43DA6259
:102A9000164B0568144A9D4206D10D68122D03D1CC
:102AA000556845F48005556005689D4218D10B684E
:102AB000102B01D0112B13D1536843F40003536042
:102AC000096810290CD10A490A4A0968B1FBF2F1D8
:102AD00001EB8101490000E0491E00910029FBD172
:102AE00080F83C40002078BD0023014000200140D8
:102AF000A000002040420F0070B504004FF0000518
:102B000003D0206C002610B107E0012070BD2046E4
:102B100000F01CF8666484F83C60206CC00610D499
:102B2000206C20F4885040F0020020642046FFF71B
:102B300069FB6664206C20F0020040F00100206414
:102B400000E0012584F83C60284670BD10B586B0D1
:102B5000044614216846FDF779FC11492068884233
:102B60001CD110480021026842F4807202600068A3
:102B700000F4807005900B481438026842F001029E
:102B80000260006800F001000590602000900320C2
:102B9000CDE901016946044800F062F906B010BDB4
:102BA000002001404438024000000240704770B5E8
:102BB00000B3F9B14379012B1ED0012646710223DF
:102BC000037105682C6802F0100340F6FE729A400B
:102BD0009443D1E900210A439A4022432A600168C4
:102BE0000A68C0249C40A2430A600671002141711A
:102BF000084670BD012070BD022070BD70472DE9F0
:102C0000F041044600680668456BB1044FF00407C4
:102C100010D5A9040ED52771216941F00101216168
:102C2000F90241632068016821F480510160204667
:102C3000FFF7E4FFB00014D5A80012D52771206972
:102C400040F00200206121684FF000504863206886
:102C5000016821F0805101602046BDE8F041FFF796
:102C6000A5BFBDE8F08170B5040003D02079002530
:102C700010B105E0012070BD6571204600F008F834
:102C800002202071256101202071002070BD00000C
:102C900010B586B0044614216846FDF7D7FB1549E8
:102CA0002068884224D114480021026842F0005272
:102CB0000260006800F0005005900F48103802686C
:102CC00042F001020260006800F00100059030202F
:102CD00000900320CDE901016946084800F0C0F8E2
:102CE00000221146362000F02BFA362000F01AFAA6
:102CF00006B010BD007400404038024000000240A1
:102D000018B50024009440B100680090104431B11F
:102D1000143000900360002018BD012018BD083059
:102D2000F7E770B508B34279012A20D00122427139
:102D3000022303710468266801F0100302FA03F508
:102D40002E4326600029016813D00C6804F4701526
:102D50003C249C40A54203D14B6843F002034B60E6
:102D6000027100214171084670BD012070BD022032
:102D700070BD0B68C3F383030F2BF1D14B6843F095
:102D80000103ECE72DE9F0410446876D00F06AF994
:102D9000064694F835000025022806D0802060659C
:102DA00084F834500120BDE8F0812068016821F0EA
:102DB000160101602068416921F080014161206CA9
:102DC00008B9A06C20B12068016821F008010160F9
:102DD0002068016821F0010101600CE000F042F977
:102DE000801B052807D920206065032084F8350062
:102DF00084F83450D7E720680068C007EED194F813
:102E00005C103F208840B860012084F8350084F8C9
:102E100034500020C7E790F83510022903D08021F4
:102E2000416501207047052180F835100068016870
:102E300021F00101016000207047000070B50446D8
:102E400000F010F90546601C02D0044800780444E4
:102E500000F008F9401BA042FAD370BD9400002096
:102E60002DE9F84FDFF8BCA10022012503264FF021
:102E70000F090AF1040BAAF1040E00BF0B6805FA52
:102E800002F42340A34270D10F7907F00307012F0A
:102E900001D0022F16D187684FEA420806FA08FCD3
:102EA00027EA0C07D1F80CC00CFA08FC4CEA070C16
:102EB000C0F808C04768A7430C79C4F300149440D5
:102EC0003C4344600C79E443A4070AD0C4684FEA49
:102ED000420C06FA0CF7BC438F6807FA0CF727433D
:102EE000C7600C7904F00304022C12D1D40800EB63
:102EF000840CDCF820405707FF0E09FA07F824EA93
:102F00000804D1F8108008FA07F848EA0408CCF859
:102F1000208004684FEA420C06FA0CF7BC430F7994
:102F200007F0030707FA0CF7274307604C6814F40F
:102F3000403F70D03C4C276847F4804727602468A6
:102F400022F0030704F480440094384C07EB040C8F
:102F5000DCF8084897074FEA177809FA08F7BC43E6
:102F6000334FB84202D1002724E054E0314FB84239
:102F700001D101271EE0304FB84201D1022719E0EC
:102F80002E4FB84201D1032714E02D4FB84201D192
:102F900004270FE02B4FB84201D105270AE02A4F42
:102FA000B84201D1062705E0284FB84201D10727D2
:102FB00000E0082707FA08F72743CCF80878DAF882
:102FC00000405746D1F804C09C435FEACC2C00D5A2
:102FD0001C433C60DBF800405F46D1F804C09C43D2
:102FE0005FEA8C2C00D51C433C60DEF8004077463D
:102FF000D1F804C09C435FEA8C3C00D51C433C6084
:10300000084F083F3C68D1F804C09C435FEACC3CC1
:1030100000D51C433C60521C102AFFF42FAFBDE8C2
:10302000F88F0000083C0140443802400030014065
:10303000000002400004024000080240000C024070
:10304000001002400014024000180240001C024020
:103050000069084000D0012070470AB181617047C3
:103060000904FBE7014880687047000094000020D5
:103070000248816802781144816070479400002002
:103080000B4810B5016841F400710160016841F41A
:1030900080610160016841F480710160032000F0EB
:1030A0006FF80F2000F006F800F024F8002010BDA3
:1030B000003C024070B50D4D04464FF47A712878FB
:1030C000B1FBF0F00A490968B1FBF0F000F0A1FE95
:1030D00048B9102C07D200222146501E00F030F8CB
:1030E00000206C6070BD012070BD000094000020C5
:1030F000A00000200A4808B5016841F48041016041
:10310000006800F4804000900548001F016841F00D
:1031100080510160006800F08050009008BD000000
:1031200044380240002809DB00F01F0201219140D1
:103130004009800000F1E020C0F800117047000055
:10314000F0B40E4B1B680C46C3F30223C3F1070512
:10315000042D00D90425191D072901D2002300E000
:10316000DB1E012606FA05F1491E214099409E40CA
:10317000761E16403143F0BC02F0C7BD0CED00E0F6
:10318000064900F0070208684FF6FF03184040EABE
:103190000220034A10430860704700000CED00E075
:1031A0000000FA052DE9F843054600684FF00109D3
:1031B000C1074FF0000601D1400727D5DFF80C8189
:1031C000C8F86860FFF74EFF0746414C05E000BFB6
:1031D000FFF748FFC01B022857D820680001F7D42A
:1031E00068688101287A41EA0070394984310860B1
:1031F000C8F86890FFF736FF074604E0FFF732FF94
:10320000C01B022841D820680001F7D52878800724
:1032100052D52F484030016841F08051016000686C
:103220002C4C00F080500090206840F480702060AA
:10323000FFF718FF074604E0FFF714FFC01B022842
:1032400023D82068C005F7D5214C7034206810F4CD
:10325000407020D0A98901F4407181421BD02068C0
:103260001D4920F44070C1F800900E602060206875
:10327000C00710D0FFF7F6FE064641F2883707E098
:10328000FFF7F0FE801BB84202D90320BDE8F883A7
:1032900020688007F4D5E9680D48C1F301220830A1
:1032A000032A0BD0016821F4F81101602068A98974
:1032B000C1F30B01084320600020E7E70268074BD9
:1032C00022F4F81219400A430260EFE70000474277
:1032D0000038024000700040400E4742FFFCFF0FE4
:1032E0002DE9F0470E46050065D0DFF81481D8F8C7
:1032F0000000F7B200F00700B04207D288F8007073
:10330000D8F8000000F00700B04254D128683D4CC6
:10331000810712D5400703D5206840F4E0502060B3
:103320002878000703D5206840F4604020602068BA
:10333000A96820F0F000084320602878C0072DD04D
:10334000304968680839012812D0022813D00328B0
:1033500011D00968890700292DDA216821F00301BD
:1033600001432160FFF77EFE814641F2883A0EE07C
:1033700009688903EFE709688901ECE7FFF772FE46
:10338000A0EB0901514502D90320BDE8F087206870
:10339000696800F00C00B0EB810FEFD1D8F8001095
:1033A000404601F00701B14207D90770006800F0FC
:1033B0000700B04201D00120E7E72878400705D593
:1033C0002068E96820F4E05008432060287800076E
:1033D00006D52068296920F4604040EAC1002060D9
:1033E00000F038F82168084AC1F30311515CC84065
:1033F0000649086006480068FFF75CFE0020C4E745
:10340000003C02400838024096700008A0000020EE
:10341000980000200448054900680968044AC1F37F
:103420008221515CC8407047A0000020083802404B
:10343000A67000080448054900680968044AC1F3F9
:103440004231515CC8407047A0000020083802405B
:10345000A6700008154810B5006810F00C0214485A
:1034600013D01449042A0FD0082A0ED10F4C241F60
:103470002268236802F03F025B0207D52068C0F390
:103480008810A0FB010106E0084610BD2168C1F3C9
:103490008811A1FB00010023FCF7F8FE2168C1F3AD
:1034A0000141491C4900B0FBF1F010BD0838024051
:1034B0000024F40040787D012DE9F84F04006ED01F
:1034C0002078DFF84C93C007A9F104054AD009F130
:1034D00004000168C1F38101012908D00068C0F32C
:1034E000810002280AD1D9F80000400206D52868D8
:1034F000800337D560680028E1D033E06068B0F51C
:10350000803F10D0B0F5A02F286810D020F4803074
:103510002860286820F4802028606068A8B1FFF740
:10352000A1FD06460DE0286840F48030F4E740F441
:1035300080202860F7E700BFFFF794FD801B642818
:1035400073D828688003F7D50CE0FFF78BFD06469B
:1035500005E000BFFFF786FD801B6428F0D82868CF
:103560008003F7D42078DFF8AC8280074FF0000AA0
:103570003ED5A748001D016811F00C0F08D0006867
:10358000C0F3810002280BD1D9F80000400207D413
:103590002868800716D5E068012800D112E033E1E1
:1035A000E068B8B10120C8F80000FFF75BFD0646EF
:1035B00005E000BFFFF756FD801B0228C0D8286831
:1035C0008007F7D52868216920F0F80040EAC1009B
:1035D00028600DE0C8F800A0FFF744FD064604E0AF
:1035E000FFF740FD801B02281FD828688007F7D40A
:1035F0002078000722D5864F87486169703771B1FE
:1036000001210160FFF72EFD064604E0FFF72AFDC9
:10361000801B022809D838688007F7D50EE0C0F86B
:1036200000A0FFF71FFD064605E082E0FFF71AFD48
:10363000801B02287DD838688007F7D4207840079F
:1036400068D5DFF8CCB100270BF13C0BDBF80000AC
:10365000C0000BD4DBF8001041F08051CBF8001013
:10366000DBF80000012700F0805000906B4E3068BE
:10367000C00510D4306840F480703060FFF7F2FC71
:10368000009005E0FFF7EEFC0099401A022850D8A0
:103690003068C005F6D55E4EA0686C3601280FD0A4
:1036A0000528306810D020F001003060306820F02C
:1036B00004003060A068B8B1FFF7D4FC00900FE0C0
:1036C000306840F00100F4E740F004003060F7E7B4
:1036D000FFF7C8FC0099411A41F28830814266D850
:1036E00030688007F4D50EE0FFF7BCFC009007E0DF
:1036F000FFF7B8FC0099411A41F28830814256D850
:1037000030688007F4D42FB1DBF8001021F080512D
:10371000CBF80010A069C8B33D49091D0968C1F381
:10372000810102294AD00228504607D0C8F860001B
:1037300000E03CE0FFF796FC04463BE04746C8F853
:103740006000FFF78FFC064605E000BFFFF78AFC2C
:10375000801B02282BD828688001F7D4D4E9070100
:103760000843A16A2E4A490802EB0141626A41EA14
:103770008211084394F82C1040EA0161C9F8001046
:1037800001203866FFF76EFC044606E03EE000BF0D
:10379000FFF768FC001B022809D828688001F7D5CC
:1037A00034E000BFFFF75EFC001B022802D90320B3
:1037B000BDE8F88F28688001F4D427E00128F7D00D
:1037C000D9F80000E26900F4800191421CD1226A1C
:1037D00000F03F01914217D147F6C071626A014083
:1037E000B1EB821F10D1A26A4FF0FF3300F44031D9
:1037F00003EB5202B1EB024F06D194F82C1000F00B
:103800007060B0EB016F01D00120D1E70020CFE75D
:103810000438024000004742800E474200700040DA
:103820000000FFFF2DE9F74F0446007F9346012873
:103830001BD04FF0010884F81C80022060772168BB
:10384000CA204862206853214162206880684FF096
:10385000000540054FF0FF064FF0030A4FF47A7958
:103860000FD5FFF7FFFB074607E00220BDE8FE8FFC
:10387000FFF7F8FBC01B484519D82068C06840070F
:10388000F6D42068816821F4806181602068C16875
:1038900001F0800161F49061C160FFF7E3FB07462E
:1038A0000CE000BFFFF7DEFBC01B484506D92068CF
:1038B000466284F81DA025770320D7E72068C068FA
:1038C0004007EFD52068816821F0070181602068FA
:1038D000816841EA0B018160216801984861206894
:1038E000816841F4806181602068466284F81D80AF
:1038F00025770020BAE7000010B5040002D0607FF1
:1039000010B106E0012010BD00202077204600F015
:1039100041F8022060772068C168C943C90632D5E2
:10392000CA214162216853204862204601F0B0FD5F
:1039300020BB20688168164A114081602168886830
:1039400062681043D4E904231A4310438860216855
:10395000E068086120680169228941EA0241016149
:10396000204601F0B9FD48B921680A6C22F4802292
:103970000A6421680A6CA3691A430A642268FF2159
:10398000516208B110BD00200121617710BD000017
:10399000BFFF8FFF1FB5002100910191029103919C
:1039A0000068084988420CD1022000900002039070
:1039B0006846FFF7F7FB08B1FEF7C0FF0249012098
:1039C00008601FBD002800403C0E474270B5044609
:1039D000007F0B46012819D0012626770220607748
:1039E000B2B19878D97840EA014558781978000240
:1039F00040EA413005432168CA20486221685320CB
:103A00004862204601F044FDD0B122E0022070BDA2
:103A10005878C10603D500F0EF000A305870D87806
:103A200001F02BFD0204587801F027FD42EA002244
:103A3000987801F022FD0243187842EA4035DAE72F
:103A40000748054020684560204601F045FD00B963
:103A500066772268FF2151620021217770BD000046
:103A60003FFFFF002DE9F0410446007F0D4601288D
:103A700023D04FF0010884F81C8002206077206872
:103A8000002780684FEA4060D2B1002800DBEF7069
:103A9000A878297840EA01466878E978000240EA87
:103AA000815006432168CA20486221685320486239
:103AB000204601F0EDFCB8B12CE00220BDE8F08119
:103AC000002800DBEF70287801F0D7FC020468784A
:103AD00001F0D3FC42EA0022A87801F0CEFC0243B8
:103AE000E87842EA8056DDE70D4806402068066027
:103AF0002068816821F480218160D5E903010843B1
:103B000021688A6810438860204601F0E5FC08B906
:103B100084F81D802268FF2151622777CEE70000DC
:103B20007F7F7F0070B504460B482168C860FFF7AF
:103B300099FA05464FF47A7607E000BFFFF792FA4C
:103B4000401BB04201D9032070BD2068C0688006C8
:103B5000F4D5002070BD00005F7F010070B5040047
:103B600009D0606A002540B125616561A56294F8BD
:103B7000510040B10CE0012070BD6068B0F5827F5B
:103B8000F4D0E561F2E784F85050204600F044F8A4
:103B9000022084F851002068016821F04001016092
:103BA000A088218900F4827001F404410843A189AE
:103BB00001F400610843217C01F002010843217DEA
:103BC00001F001010843218B01F400710843217FBA
:103BD00001F03801084394F8201001F080010843F7
:103BE000218D01F40051084321680860A069042177
:103BF00001EA104094F8241001F0100108432168F4
:103C000048602068C16921F40061C16165650120D7
:103C100084F85100002070BDF0B587B0044614212F
:103C20006846FCF713FC1D492068884233D11C48C4
:103C30000024016841F480410160006800F4804084
:103C4000059017481038016841F0040101600168CF
:103C500001F004010591016841F002010160006872
:103C6000022500F0020005900820CDE9000502AA17
:103C70000326052782E8D00069460A48FFF7F0F8D6
:103C80004FF4A840CDE9000502AA694682E8D000B9
:103C90000548FFF7E5F807B0F0BD00000038004028
:103CA0004038024000080240000402402DE9F84F6D
:103CB000984616468A460446FFF7D4F9814694F89A
:103CC000510001281ED1BAF1000F73D0002E71D01F
:103CD00094F85000012815D0012784F85070032073
:103CE00084F8510000256565C4F830A0A686E686F4
:103CF000A563A587E58765642564A068B0F5004FD6
:103D000003D00CE00220BDE8F88F2068016821F0A4
:103D1000400101602068016841F480410160206831
:103D20000168490603D4016841F040010160E06880
:103D3000B0F5006F606803D048B3012E27D047E08C
:103D400008B1012E1FD1206B21680088C86006E0F1
:103D500020688168890709D5216B0988C160206BBB
:103D6000801C2063E08E401EE0860CE0FFF77AF9AD
:103D7000A0EB0901414503D3B8F1FF3F03D035E083
:103D8000B8F1000F32D0E08E0028E1D123E0206BA3
:103D900021680078087306E02068816889070AD5E1
:103DA000216B09780173206B401C2063E08E401E5C
:103DB000E0860DE02BE0FFF755F9A0EB0901414546
:103DC00003D3B8F1FF3F03D010E0B8F1000F0DD0DE
:103DD000E08E0028E0D14A464146204601F092FBA1
:103DE00008B120206065A06830B109E084F8517006
:103DF00084F85050032086E72068C16880680090EE
:103E000084F8517004F8505F60680028F3D00120F6
:103E100079E710B5401EB0F1807F01D3012010BDBD
:103E20004FF0E02460610F21601701F06EFF002069
:103E3000A06107202061002010BD7047704700007E
:103E400070B590F83C20012A32D0012480F83C4023
:103E5000022280F83D2003685A689D6822F07006AF
:103E60000A6832435A60134B02689A4214D0B2F186
:103E7000804F11D0104B9A420ED0104B9A420BD06B
:103E80000F4B9A4208D00F4B9A4205D00E4B9A42E4
:103E900002D00E4B9A4204D1496825F080031943A1
:103EA000916080F83D40002180F83C10084670BDCC
:103EB000022070BD000001400004004000080040E6
:103EC000000C004000040140004001400018004088
:103ED00010B5040003D094F83D0010B107E00120B4
:103EE00010BD002084F83C00204600F01FF802209E
:103EF00084F83D00211D206801F01AFC012084F89F
:103F0000460084F83E0084F83F0084F8400084F8BE
:103F1000410084F8420084F8430084F8440084F8A7
:103F2000450084F83D00002010BD000008B5114A8E
:103F300001681148914211D1016841F010010160FE
:103F40000068002200F01000009011463620FFF7B4
:103F5000F7F8BDE808403620FFF7E4B8074A914279
:103F600007D1016841F480710160006800F480703D
:103F7000009008BD00100040403802400020004082
:103F800090F83D10012901D001207047022180F8EE
:103F90003D1000681149884214D0B0F1804F11D013
:103FA0000F4988420ED00F4988420BD00E498842F3
:103FB00008D00E49884205D00D49884202D00D49EB
:103FC000884204D1816801F00701062903D0016805
:103FD00041F0010101600020704700000000014035
:103FE0000004004000080040000C004000040140B4
:103FF00000400140001800402DE9F0410D4604004A
:1040000003D094F83D0018B108E00120BDE8F0812C
:10401000002084F83C00204600F040F8022084F89C
:104020003D002068816844F2070291438160211DB0
:10403000206801F07DFB226890689169166A2B6800
:10404000AF69034340F20330814341EA0721A86886
:10405000EF6908434FF6FC418843E96840EA0720CE
:10406000014328692F6A000140EA07300843696864
:104070006D6926F0AA0646EA051529439360226871
:10408000906154F8460B0162012004F81F09E075A5
:104090002076E0762077A0750020B7E710B586B0CF
:1040A000044614216846FCF7D1F913492068884278
:1040B0001FD112480021026842F008020260006825
:1040C00000F0080005900D481038026842F0010227
:1040D00002600068012200F00100059003200090BA
:1040E0000220CDE90102CDE9031069460448FEF73C
:1040F000B7FE06B010BD0000000C00404038024082
:104100000000024070B590F83E60044690F83F50C1
:1041100090F8423090F84320022021B104290ED0BB
:10412000012E1BD114E0012E18D1012B16D184F8D9
:104130003E0084F8420001220021206820E0012D89
:104140000CD1012A0AD184F83F0084F8430014E01E
:10415000012D03D1012B01D1012A01D0012070BD15
:1041600084F83E0084F83F0084F8420084F843005D
:1041700001220021206801F047FB01220421206870
:1041800001F042FB2068016841F00101016000205C
:1041900070BD70472DE9F04104460068C6680569A6
:1041A0004FF00007A90713D5B10711D5F91E01611A
:1041B00001202077206880698007204602D0FFF721
:1041C000E8FF04E000F0A8F8204600F03AF927776D
:1041D000680716D5700714D521686FF004000861D0
:1041E000022020772068806910F4407F204602D0AA
:1041F000FFF7CFFF04E000F08FF8204600F021F930
:104200002777280715D5300713D521686FF00800E8
:104210000861042020772068C0698007204602D00A
:10422000FFF7B7FF04E000F077F8204600F009F947
:104230002777E80616D5F00614D521686FF0100030
:104240000861082020772068C06910F4407F20466C
:1042500002D0FFF79EFF04E000F05EF8204600F079
:10426000F0F82777E80708D0F00706D021686FF04C
:1042700001000861204600F049F9280608D53006FB
:1042800006D521686FF0800008612046FFF7D5FD54
:10429000680608D5700606D521686FF040000861F1
:1042A000204600F034F9A8060AD5B00608D52168E2
:1042B0006FF0200008612046BDE8F041FFF7BEBD69
:1042C000BDE8F08110B586B0044614216846FCF7BD
:1042D000BDF80E492068884215D10D4800210268BA
:1042E00042F001020260006800F0010005908020A9
:1042F00000900220CDE901010920CDE903106946B3
:104300000448FEF7ADFD06B010BD000000200040DF
:104310003038024000000240704770B5044690F803
:104320003C0000260D4601280FD0012084F83C00F7
:104330006AB1042A1DD0082A2FD00C2A3FD00126AA
:10434000002084F83C00304670BD022070BD20681B
:1043500001F068FA2068816941F0080181612068F4
:10436000816921F004018161206881692A69114312
:1043700011E0206801F086FA2068816941F400614B
:1043800081612068816921F480618161206881698F
:104390002A6941EA02218161D2E7206801F0A8FA86
:1043A0002068C16941F00801C1612068C16921F03C
:1043B0000401C1612068C1692A69114311E02068C4
:1043C00001F0CAFA2068C16941F40061C161206846
:1043D000C16921F48061C1612068C1692A6941EA2B
:1043E0000221C161ACE710B5040003D094F83D0090
:1043F00010B107E0012010BD002084F83C002046E9
:1044000000F01EF8022084F83D00211D206801F014
:104410008FF9012084F8460084F83E0084F83F00BC
:1044200084F8400084F8410084F8420084F8430096
:1044300084F8440084F8450084F83D00002010BD55
:104440007047704710B50446022249B104290ED0C6
:10445000082913D094F84100012816D0012010BD7E
:1044600094F83E000128F9D184F83E200FE094F83A
:104470003F000128F2D184F83F2008E094F8400082
:104480000128EBD184F8402001E084F8412001228A
:10449000206801F0B9F916492068164A884201D00F
:1044A000904203D1436C43F4004343642068884244
:1044B00013D0B0F1804F10D00F4988420DD00F4972
:1044C00088420AD00E49884207D0904205D00D4953
:1044D000884202D00C49884204D1816801F007016A
:1044E000062903D0016841F001010160002010BDE0
:1044F00000000140000401400004004000080040AA
:10450000000C004000400140001800407047704718
:1045100070477047F8B5016804460868CA684B6977
:1045200010F00F0F4FF0000559D003F0010602F410
:104530009077374365D0C10705D0D10503D5616CAD
:1045400041F001016164410705D5D90703D0616CD1
:1045500041F002016164810705D5D90703D0616C80
:1045600041F004016164010707D502F020013143E5
:1045700003D0616C41F008016164616C00293AD09C
:10458000800604D5900602D5204601F064FA206822
:104590004069616CC0F38010090700D460B3204605
:1045A00001F032FA20684069400621D520681430B5
:1045B00050E8001F21F0400140E80012002AF5D128
:1045C000E06BA8B16E490165E06BFEF724FC0028A2
:1045D00011D0E06B016D01B0BDE8F04008478306E3
:1045E0000FD593060DD52046BDE8F84001F033BA4B
:1045F0002046FFF78EFFF8BD2046FFF78AFF65646F
:10460000F8BD266B2023012E7DD1C6067BD5D606AC
:1046100079D508684868009048694FF0020640065E
:1046200041D5E16B086840680004000CE8D0A28D19
:104630008242E5D9E085C869B0F5807F2DD0206839
:104640000C3050E8001F21F4807140E80012002A6D
:10465000F5D12068143050E8001F21F0010140E836
:104660000012002AF5D12068143050E8001F21F014
:10467000400140E80012002AF5D184F84230256359
:1046800020680C3050E8001F21F0100140E80012B3
:10469000002AF5D1E06BFEF775FB6663A08DE18D16
:1046A000401A81B22AE0A08DE18D401A81B2E08DDE
:1046B0000028A5D00029A3D022680C3252E8000FB0
:1046C00020F4907042E80007002FF5D120681430E4
:1046D00050E8002F22F0010240E80027002FF5D11A
:1046E00084F84230256320680C3050E8002F22F017
:1046F000100240E80023002BF5D166632046FFF747
:1047000007FFF8BDFFE705062BD5150629D594F858
:1047100041002128F5D1A068B0F5805F01D1206962
:10472000B0B1206A411C2162216800784860E08CA9
:10473000401E0004000CE084E3D12068C16821F031
:104740008001C1602068C16841F04001C160D8E7C4
:10475000206A0088C0F308004860206A801C20623C
:10476000E5E74006CDD55006CBD5CA68204622F0F5
:104770004002CA6084F8413000F0F8F8C1E7000058
:10478000F959000870B5040004D094F841000025E0
:1047900010B106E0012070BD84F84050204600F0C2
:1047A00023F8242084F841002068C16821F40051D6
:1047B000C160204601F0B0F92068016921F4904100
:1047C00001612068416921F02A0141612068C168C6
:1047D00041F40051C1606564202084F8410084F8F0
:1047E00042006563002070BD10B586B004461421F8
:1047F0006846FBF72BFE18492068884229D11748E4
:104800000021026842F010020260006800F010000F
:10481000059012481438026842F0010202600068F4
:1048200000F0010005904FF4C06000900220CDE937
:104830000101032003900720049069460848FEF711
:104840000FFB002211462520FEF77AFC2520FEF7FB
:1048500069FC06B010BD0000001001404438024061
:104860000000024090F84230202B01D00220704717
:1048700021B11AB10023036301F0D4B901207047BC
:1048800070B50F4DA84213D1286842680E4C0D48F0
:10489000A16B4254491C0844A16310F8011C0A2969
:1048A00006D1002600F8016C064801F061FDA66300
:1048B0002968BDE8704001220148091DFFF7D2BFF9
:1048C00084020020B8000020000000202DE9F843F9
:1048D000044690F84100984616460D46202802D01E
:1048E0000220BDE8F88385B17EB1002060642120FC
:1048F00084F84100FEF7B6FBA6848146E684A068F2
:104900002027B0F5805F02D003E00120E9E72069AD
:1049100010B12E4600250EE000260CE08021204636
:1049200001F09BF9A8B9C6B116F8010B21684860DF
:10493000E08C401EE084E08C4B464FF00002CDF846
:1049400000800028EAD14FF04001204601F085F9AF
:1049500040B184F841700320C3E735F8020BC0F37F
:104960000800E3E784F841700020BAE77047FEE7EB
:104970007FB50024144800940194029411490394D3
:10498000C0E9001484600461047680F820400F4977
:10499000C0E90A140125C561C46080F83040456152
:1049A000FEF7AAF808B1FDF7C9FF0620CDE900051A
:1049B000694602940448FDF7F9FF002801D0FDF78D
:1049C000BDFF7FBD00200140D80000200100000F86
:1049D0001CB50024104900940E4801940860084654
:1049E000FEF741F908B1FDF7A9FF009400226946DE
:1049F00009480194FEF7DBF808B1FDF79FFF10228C
:104A000069460548FEF7D3F8002801D0FDF796FF68
:104A10001CBD000000740040200100202DE9F04F73
:104A200087B014216846FBF711FD44480024016853
:104A300041F010010160016801F010010591016869
:104A400041F004010160016801F004010591016871
:104A500041F020010160016801F020010591016829
:104A600041F001010160016801F001010591016857
:104A700041F002010160016801F002010591016845
:104A800041F0400101600068DFF8B48000F04000B0
:104A90000590002230214046FEF7DFFADFF8A490AF
:104AA0004CF20606002231464846FEF7D6FADFF8F9
:104AB00098A0002207215046FEF7CFFADFF88CB00D
:104AC0004FF4FE77002239465846FEF7C6FA0F200B
:104AD000CDE90004694640460294FEF7C1F9302052
:104AE00000900125CDE90154694640460394FEF744
:104AF000B7F90096CDE90154694648460394FEF79C
:104B0000AFF907200090CDE901546946504603945F
:104B1000FEF7A6F90097CDE901546946584603947B
:104B2000FEF79EF94FF42040CDE90004694658464F
:104B30000294FEF795F907B0BDE8F08F30380240D7
:104B40000010024000080240001402400018024019
:104B500010B586B014216846FBF778FC1F48002486
:104B60001D490594C0E900147F218160FF21C0E93F
:104B7000031444618461FEF7BFFE08B1FDF7DEFE59
:104B80008DF800408DF801408DF802400394012219
:104B9000694612480494FEF765FF08B1FDF7CEFEA2
:104BA00001208DF814008DF815008DF816000246CE
:104BB0008DF8174005A90948FEF708FF08B1FDF771
:104BC000BDFE042200210548FEF72CFE002801D07E
:104BD000FDF7B4FE06B010BD0028004034010020EF
:104BE0000F4810B50D4901604FF4827141600021FA
:104BF0008160C1604FF480220161C0E90512C1618A
:104C00000162416281620A21C162FEF7A7FF0028AA
:104C100003D0BDE81040FDF791BE10BD0038004044
:104C20005401002010B588B01C216846FBF70EFC2B
:104C3000154814490024016043F67F61C0E901145E
:104C40006321C0E903148461FFF742F908B1FDF75D
:104C500075FE0D48FFF7C7FB08B1FDF76FFE60203A
:104C6000CDE9000402940022694607480494FFF746
:104C700054FB08B1FDF762FE0348FFF723FB08B0C1
:104C800010BD0000002000403C02002010B58CB098
:104C900024216846FBF7DAFB0024164809941449DE
:104CA0000A94C0E900144FF6FF71C0E902410461A3
:104CB00084610320CDE900040120CDE902040494BD
:104CC000CDE90540079469460A480894FFF794F92E
:104CD00008B1FDF733FE099409A906480A94FFF7C5
:104CE000AFF8002801D0FDF729FE0CB010BD000080
:104CF000000C0040AC0100201CB500240E480094BC
:104D00000C490194016043F67F61C0E90114092157
:104D10008461C160FFF7DCF808B1FDF70FFE009475
:104D2000694605480194FFF78BF8002801D0FDF78C
:104D300005FE1CBD00100040F40100200C4810B519
:104D40000A4901604FF4E1314160002181600C2289
:104D5000C160C0E904128161C161FFF713FD002841
:104D600003D0BDE81040FDF7E9BD10BD00100140C3
:104D700084020020FEE7FEE730B40021084B0A461B
:104D80005FF0000003EBC004401CC0B262548028F6
:104D9000F8D3491CC9B20829F2D330BC00F014BAC8
:104DA000CC020020411A6422514391FBF0F030B54F
:104DB00085B0002800DA404210A2C5B207CA01241B
:104DC0000DF1080C00948CE80700082302AA2E219C
:104DD000204600F0C8FA0820CDE9000403232A4643
:104DE0002E21502000F088FA082325222E2164204D
:104DF000009400F00FFA05B030BD00004D6F745004
:104E000065724572000000002DE9F043074638A0A6
:104E100087B00068039037A0012400689946904647
:104E20000E460290082303AA13210094204600F0A6
:104E30009AFA0825CDE9005403233A461321142099
:104E400000F05AFA082302AA13212820009400F047
:104E50008AFA29A008230068049004AA1321009468
:104E60003D2000F080FACDE900540323324613219F
:104E7000502000F041FA082302AA13216420009474
:104E800000F071FA1DA0082300680094059005AA9F
:104E90001C21012000F067FACDE9005403234246AB
:104EA0001C21142000F028FA082302AA1C21282023
:104EB000009400F058FA12A008230068069006AA91
:104EC0001C2100943D2000F04EFACDE9005403234C
:104ED0004A461C21502000F00FFA082302AA1C2188
:104EE0006420009400F03FFA07B0BDE8F0830000B2
:104EF0005265540072706D00417665004D61780016
:104F00004D696E0030B513A2054607CA87B001246B
:104F10000DF1040C00948CE80700082301AA252158
:104F2000204600F020FA012D0FD0022D0FD00CA149
:104F30000823D1E900010094CDE9040104AA252148
:104F4000502000F010FA07B030BD07A1F0E708A12B
:104F5000EEE700004D6F746F725F526F446972002C
:104F6000556E646574650000506F7344697200008B
:104F70004E6567446972000030B512A2054687B0DD
:104F800007CA02AB012483E8070011A008230068C8
:104F90000094059002AA3721204600F0E4F9082089
:104FA000CDE9000407232A463721382000F0A4F970
:104FB000082305AA37216420009400F0D4F907B033
:104FC00030BD00005365747454696D6500000000C5
:104FD0006D7300007FB50FA10546D1E900010124E2
:104FE000CDE90201082302AA00940A21204600F01C
:104FF000BAF90820CDE9000403232A460A215020EB
:1050000000F07AF9082325220A216420009400F098
:1050100001F97FBD50574D436F6D70002DE9FF4F73
:1050200085B0814612A8934690E8F00111A29A46F5
:1050300007CA01AB83E8070001200146009008235E
:1050400001AA1E2000F08FF94846FFF7C3FF234650
:10505000524659460698FFF7D7FE31462846FFF7D5
:10506000A1FE3846FFF788FF4046FFF74BFF09B027
:10507000BDE8F08F53797374656D4461746100000D
:1050800030B5CC0801F0070301259D40EBB2064D79
:1050900005EBC005C808285C0AB1184302E063EAC2
:1050A0000000C043285530BDCC02002010B5414C53
:1050B000002202212046FDF7D0FFC820FDF7BEFEEA
:1050C000012202212046FDF7C8FF0021AE2000F09A
:1050D00069F90021084600F065F90021102000F070
:1050E00061F90021B02000F05DF90021402000F0BE
:1050F00059F90021812000F055F90021882000F0A5
:1051000051F90021822000F04DF90021084600F0FD
:1051100049F90021A12000F045F90021A22000F06A
:1051200041F90021A42000F03DF90021A62000F063
:1051300039F90021A82000F035F900213F2000F0C6
:1051400031F90021C82000F02DF90021D32000F012
:1051500029F90021084600F025F90021D52000F0AA
:1051600021F90021A02000F01DF90021D92000F034
:1051700019F90021222000F015F90021DB2000F0B0
:1051800011F90021402000F00DF90021312000F03C
:1051900009F90021AD2000F005F900218B2000F075
:1051A00001F9FFF7E9FD0021BDE81040AF2000F054
:1051B000F9B80000000802400246012000E0504318
:1051C000491EC9B2FBD2704770B5114E002400BF12
:1051D00004F1B000C0B2002100F0E4F8002108465C
:1051E00000F0E0F80021102000F0DCF85FF000058E
:1051F00006EBC5000121005D00F0D4F86D1CEDB296
:10520000802DF5D3641CE4B2082CE1D370BD0000FE
:10521000CC0200202DE9FC4F1C460E4682468B46F0
:105220000190082B0ED0600700D0012000EBD400C5
:10523000610810FB01F0C0B28146203AD0B2009064
:1052400000204AE00620F7E7082C12D00C2C17D0DB
:10525000102C1AD0182C43D10098234900EBC00021
:1052600001EB8001002711F80850E80712D00B9AD3
:1052700013E000981D4900EB400001EB4001F1E70D
:1052800000981B4900EB4000EAE71A49009801EB3F
:105290000011E7E70B9828B3002231465046FFF78C
:1052A000EFFE761C7F1C6D08FFB2F6B2082FDCD330
:1052B0000AF1010000F0FF0A082C0AD00199AAEBBC
:1052C0000100B0EB540F04D10BF108008A4600F046
:1052D000FF0B08F101005E46C0B280464845B3D3DB
:1052E000BDE8FC8F0122D8E73A7D0008AE700008C7
:1052F000D67200084A7700082DE9F84F0025DDE94D
:105300000A691F4692468B468046082E00D1022528
:1053100000241CE0381B401EC1B20A20FFF74CFFDE
:10532000BAFBF0F00A21B0FBF1F201FB1200CDF85C
:10533000009080B13030C2B205EB560101FB048011
:10534000C0B233465946FFF765FF641CE4B2BC4265
:10535000E0D3BDE8F88F05EB560101FB0480C0B235
:1053600033463022EEE72DE9F8411E4615468846C1
:105370000446079F0BE03346414620460097FFF75F
:1053800049FF082E0AD004EB5600C4B26D1C2A78DF
:10539000A2F120005E28EED9BDE8F881A41DE4B298
:1053A000F4E7000073B5114C09B1012200E00022BE
:1053B00004212046FDF751FE0D4E4FF4805500228A
:1053C00029463046FDF749FE4FF47A7301226946BB
:1053D0000848FEF76BFC012229463046FDF73DFEEA
:1053E000012204212046FDF738FE7CBD0008024062
:1053F0000004024054010020081A00EE100A1B4865
:105400001B4AB8EEC00A00F1880180ED130AD0ED06
:105410001B0A90ED151AF8EEE01AF8EEE00A00EE1D
:10542000211A80ED151A90ED162AD1ED021A30EEF0
:10543000422A21EE822AC2EE201AD1ED000A91ED15
:10544000012A60EE800A42EE010A71EEA00AC0ED68
:10545000140A80ED160A0168914202DAB0EE600A81
:1054600070479FED040A80ED140A70470000002089
:105470000000C8420000C8427047002102E00A381C
:10548000C0B2491C0A28FAD2090740EA11607047E5
:105490002DE9F041044600680025C168490618D48A
:1054A000C16841F08001C160FDF7DCFD06464FF4A4
:1054B0007A78042707E000BFFDF7D4FD801B404544
:1054C00001D9677701252068C068400601D4002D06
:1054D000F2D02846BDE8F08170B50446006800258A
:1054E000C16821F08001C16020688068800606D410
:1054F0002046FEF717FB10B10420607701252846EF
:1055000070BD0000F8B515460E460B4600920446E5
:105510000122022100F02CF8A0B9134813490068B9
:10552000B0FBF1F04FF47A71484300906068B0F539
:10553000827F0DD13346002280212046009500F065
:1055400017F870B1606D40F0200060650320F8BD71
:10555000009830B1401E009020688068C04300066B
:10556000F6D50020F8BD0000A000002000366E0136
:105570002DE9F8431E46914688460446089DFDF7EE
:1055800071FD401B351AFDF76DFD07462548006883
:10559000C0F3CB30684338E0701C37D0FDF762FDB4
:1055A000C01BA84203D215B1009860B32CE020685C
:1055B000416821F0E00141606068B0F5827F0BD165
:1055C000A068B0F5004F02D0B0F5806F04D120681C
:1055D000016821F040010160A06AB0F5005F09D1C7
:1055E0002068016821F4005101602068016841F4DD
:1055F00000510160012084F85100002084F850001F
:105600000320BDE8F8830025401E009020688168D3
:1056100038EA010004D000214945BDD10020F0E75F
:105620000121F9E7A00000207047000070B52DEDC2
:10563000028B044692B0B0EE408A10EE900A01F060
:105640000DFC05460E4618EE100A01F007FC41EC71
:10565000100BCDE9005653EC102B07A102A8FAF766
:105660008DFE82B24FF47A7302A92046FFF72EF91D
:1056700012B0BDEC028B70BD25662C25660A0000B9
:10568000FDF7F6BC10B592B030216846FAF7DEFEA1
:1056900014210CA8FAF7DAFE18480024016841F03A
:1056A00080510160006800F080501190144801683A
:1056B00041F4804101600068102100F480401190A5
:1056C0000A2000900120CDE90301CDE905046846D8
:1056D000FDF7F2FE08B172B6FEE70F20CDE90C042B
:1056E0000E940F9400210CA81094FDF7F9FD0028EA
:1056F00001D072B6FEE712B010BD00004038024083
:10570000007000400248016841F470010160704778
:1057100088ED00E010B50448FDF771FABDE81040CF
:105720000248FEF737BD000020010020F4010020F0
:10573000F0B50268294C2A4D2A4E2B4F2B4B4FF0C7
:10574000804CA04209D0604507D0A84205D0B042A5
:1057500003D0B84201D0984204D122F0700E4A68BA
:1057600042EA0E02A0421BD0604519D0A84217D0D1
:10577000B04215D0B84213D0984211D01C4DA84267
:105780000ED01C4DA8420BD01B4DA84208D01B4D7B
:10579000A84205D01A4DA84202D01A4DA84203D102
:1057A00022F44075CA682A434D6922F080022A43D8
:1057B00002608A68C2620A688262A04201D098428E
:1057C00001D109690163012141610169C90703D060
:1057D000016921F001010161F0BD000000000140FC
:1057E0000004004000080040000C0040000401409C
:1057F00000400140004401400048014000180040C2
:10580000001C00400020004010B501F01F030121E2
:10581000046A99408C430462016A9A401143016210
:1058200010BD0000F0B5036A026A22F001020262B4
:1058300042688469124E24F073050C682C4323F0EF
:1058400002058B682B430D4DA84201D0B04205D113
:1058500023F00807CB683B4323F00403A84201D0A0
:10586000B04205D14D6922F4407215438A692A433A
:1058700042608461496841630362F0BD00000140F9
:1058800000040140F0B5026A036A23F010030362CA
:10589000436884690D6824F4E64444EA05248D686D
:1058A00022F0200242EA05120F4D104EA84201D00C
:1058B000B04206D1CF6822F0800242EA071222F0FD
:1058C0004002A84201D0B04207D14D6923F44063A1
:1058D00043EA85038D6943EA85034360846149682F
:1058E00081630262F0BD000000000140000401403D
:1058F000F0B5026A036A23F4807303624368C469E3
:1059000022F4007224F073050C68124E2C438D684B
:1059100042EA05220E4DA84201D0B04206D1CF681E
:1059200022F4006242EA072222F48062A84201D0F7
:10593000B04207D14D6923F4405343EA05138D6902
:1059400043EA05134360C4614968C1630262F0BD64
:10595000000001400004014030B5046A026A22F4EC
:10596000805202624268C3690D6823F4E64343EA49
:1059700005238D6824F4005444EA0534084DA842F8
:1059800002D0084DA84204D14D6922F4804242EA77
:1059900085124260C36149680164046230BD000041
:1059A000000001400004014010B5002240F6FF73E2
:1059B00011460548FDF7A4F90023BDE810401A463A
:1059C00010210148FDF79CB92001002010B540F6D8
:1059D000FF73002210210548FDF792F90023BDE86E
:1059E00010401A4619460148FDF78AB920010020E7
:1059F000401F7047401D704710B5806B0021C18566
:105A0000C184FEF786FD10BD01680C3151E8002FFE
:105A100022F4907241E80023002BF5D10168143183
:105A200051E8002F22F0010241E80023002BF5D1BC
:105A3000016B012909D101680C3151E8002F22F0D6
:105A4000100241E80023002BF5D1202180F84210FC
:105A500000210163704708B590F84210222901D057
:105A6000022008BD82684FF480539A4201D1016937
:105A700021B1816A9A421BD04AB10AE00268816A68
:105A80005268C2F308020A80816A891C08E0026930
:105A900072B10268526802F07F020A70816A491C82
:105AA0008162C18D491E0904090CC18503D01BE028
:105AB00002685268F1E70168CA6822F02002CA60F1
:105AC0000168CA6822F48072CA6001684A6922F0DB
:105AD00001024A61202180F8421000214163026BDB
