:020000040800F2
:10000000A00B00202902000863200008A7150008A3
:10001000612000081F040008DD2500080000000022
:10002000000000000000000000000000492500085A
:100030002104000800000000052400084B250008EA
:10004000430200084302000843020008430200087C
:10005000430200084302000843020008430200086C
:10006000430200084302000843020008430200085C
:10007000430200084302000843020008430200084C
:10008000430200084302000843020008430200083C
:10009000430200084302000843020008430200082C
:1000A000430200084302000843020008430200081C
:1000B000430200084302000843020008B515000887
:1000C000A91500084302000843020008092400089B
:1000D00043020008430200084302000843020008EC
:1000E00043020008430200084302000843020008DC
:1000F00043020008430200084302000843020008CC
:1001000043020008430200084302000843020008BB
:1001100043020008430200084302000843020008AB
:10012000430200084302000843020008430200089B
:10013000430200084302000843020008430200088B
:10014000430200084302000843020008430200087B
:10015000430200084302000843020008430200086B
:10016000430200084302000843020008430200085B
:100170004302000843020008430200080000000098
:10018000430200084302000800F002F800F03CF8C7
:100190000AA090E8000C82448344AAF10107DA45E2
:1001A00001D100F031F8AFF2090EBAE80F0013F0F8
:1001B000010F18BFFB1A43F001031847E842000083
:1001C00008430000103A24BF78C878C1FAD8520713
:1001D00024BF30C830C144BF04680C6070470000C1
:1001E0000023002400250026103A28BF78C1FBD840
:1001F000520728BF30C148BF0B6070471FB502F0DF
:1002000037FA1FBD10B510BD00F0CFF81146FFF74B
:10021000F5FF02F0F5F900F0EDF803B4FFF7F2FF97
:1002200003BC00F0F5F80000094880470948004782
:10023000FEE7FEE7FEE7FEE7FEE7FEE7FEE7FEE796
:10024000FEE7FEE704480549054A064B70470000F3
:10025000CD25000889010008A0050020A00B002082
:10026000A0070020A007002053EA020C00F06980DC
:100270002DE9F04B4FF00006002B1FBFB3FA83F5BA
:1002800003FA05F424FA05F65E4012BF1643B2FAEB
:1002900082F502FA05F4C5F120051EBF22FA05FC1D
:1002A00044EA0C04203556EA044C4FEA144418BFC3
:1002B000641C4FF000084FF00009904271EB030CF2
:1002C00039D3002919BFB1FA81F701FA07F6B0FA5C
:1002D00080F700FA07F6C7F120071EBF20FA07FCD7
:1002E00046EA0C062037B6FBF4FCA7EB0507103FE7
:1002F00007F01F0BCBF120060CFA0BFB2CFA06F6CD
:1003000044BFB3460026202FA4BF5E464FF0000B2B
:100310005BEA060C08BF4FF0010B19EB0B09ABFBB6
:10032000027C48EB0608C01B06FB02CC0BFB03CC8F
:1003300071EB0C01C1E70B46024641464846BDE859
:10034000F08B13B54FF000004FF00001AFF30080C9
:10035000BDE81C4070474FF0000200B513469446BC
:100360009646203922BFA0E80C50A0E80C50B1F10D
:100370002001BFF4F7AF090728BFA0E80C5048BF21
:100380000CC05DF804EB890028BF40F8042B08BFBF
:10039000704748BF20F8022B11F0804F18BF00F8BB
:1003A000012B7047704770477047754600F02CF876
:1003B000AE4605006946534620F00700854618B052
:1003C00020B5FFF73FFFBDE820404FF000064FF09B
:1003D00000074FF000084FF0000B21F00701AC467A
:1003E000ACE8C009ACE8C009ACE8C009ACE8C00999
:1003F0008D46704710B50446AFF300802046BDE837
:100400001040FFF70ABF0000004870473C0500207D
:1004100001491820ABBEFEE7260002007047FEE748
:10042000704772B6FEE790F83510022903D080219C
:10043000416501207047052180F83510006801688A
:1004400021F0010101600020704790F835007047ED
:1004500070B5044600F00CF90546601C02D0044853
:100460000078044400F004F9401BA042FAD370BDA8
:10047000000000202DE9F84FDFF8BCA10022012583
:1004800003264FF00F090AF1040BAAF1040E00BF76
:100490000B6805FA02F42340A34270D10F7907F0EC
:1004A0000307012F01D0022F16D187684FEA4208B7
:1004B00006FA08FC27EA0C07D1F80CC00CFA08FC75
:1004C0004CEA070CC0F808C04768A7430C79C4F38E
:1004D000001494403C4344600C79E443A4070AD0E0
:1004E000C4684FEA420C06FA0CF7BC438F6807FA5F
:1004F0000CF72743C7600C7904F00304022C12D1D7
:10050000D40800EB840CDCF820405707FF0E09FAF2
:1005100007F824EA0804D1F8108008FA07F848EA36
:100520000408CCF8208004684FEA420C06FA0CF765
:10053000BC430F7907F0030707FA0CF7274307605E
:100540004C6814F4403F70D03C4C276847F4804717
:100550002760246822F0030704F480440094384C98
:1005600007EB040CDCF8084897074FEA177809FAFC
:1005700008F7BC43334FB84202D1002724E054E0CF
:10058000314FB84201D101271EE0304FB84201D1AE
:10059000022719E02E4FB84201D1032714E02D4F56
:1005A000B84201D104270FE02B4FB84201D10527F3
:1005B0000AE02A4FB84201D1062705E0284FB84289
:1005C00001D1072700E0082707FA08F72743CCF8EE
:1005D0000878DAF800405746D1F804C09C435FEA37
:1005E000CC2C00D51C433C60DBF800405F46D1F8C2
:1005F00004C09C435FEA8C2C00D51C433C60DEF8B1
:1006000000407746D1F804C09C435FEA8C3C00D59B
:100610001C433C60084F083F3C68D1F804C09C4331
:100620005FEACC3C00D51C433C60521C102AFFF40E
:100630002FAFBDE8F88F0000083C0140443802406D
:100640000030014000000240000402400008024067
:10065000000C02400010024000140240001802404A
:10066000001C02400AB1816170470904FBE70000E9
:100670000148806870470000000000207047704704
:100680002DE9F041016804464A694E6890F83E0041
:100690000025D743FA0506D4F243D20503D46FF4FC
:1006A000807201254A61B90508D4F143C90505D412
:1006B00022686FF4007145F002055161790525D477
:1006C000F143C90522D4638D94F83D10226B202894
:1006D00008D13BB9212910D029290ED0282901D1D0
:1006E000212A0AD022686FF48061516145F0040527
:1006F000102806D0402804D008E0204601F042FB34
:1007000004E02068016841F400710160380508D4F4
:10071000F043C00505D421686FF4006045F008057A
:100720004861002D07D0206C284320642046BDE896
:10073000F04100F0ABBFBDE8F0812DE9F047026861
:1007400000215368C66A90F83E4090F83D50102C46
:1007500012D0402C10D0046C002C7DD05469E4439E
:10076000A6077AD4DE43B60577D4036C03B191694A
:10077000BDE8F04701F0E2BA976951694FF42A0CDD
:10078000C9435FEAC1784FF02A4904D066452AD0B0
:100790004E4528D010E0DE43B6050DD4C16A614550
:1007A00001D1012103E0C16A494501D10821C1629B
:1007B000BDE8F04701F028BA0E0716D4DE43B605AF
:1007C00013D4416CC9B21161416B09B1C96B29B92C
:1007D000816B002907D0C96B002904D000684168EB
:1007E00041F400614160BDE8F0878E0706D4DE4326
:1007F000B60503D4BDE8F04701F07AB9FE4352686C
:1008000076074FEA02521DD4002AECDB0A0608D410
:10081000DA43520505D4490705D5BDE8F04701F094
:100820000BB94907DFD4D9438905DCD4212D05D084
:10083000402CD8D1BDE8F04701F02CBABDE8F04714
:1008400001F0B8B8002ACEDB4A060BD4DA435205D1
:1008500008D4490708D501E00DE00EE0BDE8F047F7
:1008600001F02EB84907BED4D9438905BBD4BDE8F1
:10087000F04700F0B7BF916970E7E10606D4D943AD
:10088000890503D4BDE8F04701F0C4BA2821212D21
:1008900027D0292D25D0650655D4DD436D0552D4CA
:1008A000640752D590F83D30448D002C9BD01269DE
:1008B000446A2270426A521C4262428D521E428534
:1008C000428D002A8FD12A2B8DD10268536823F4E0
:1008D000806353602222026380F83D1000F054F9D7
:1008E00081E7250623D4DD436D0520D4640720D598
:1008F00090F83D30448D002CF2D0446A2478146185
:10090000426A521C4262428D521E4285428D002A2A
:10091000E6D1292BE4D10268536823F48063536045
:100920002122026380F83D1000F02FF95BE7610798
:10093000D6D4D9438905D3D4418D0029D0D0416A7A
:10094000097811610AE06107CAD4D9438905C7D47F
:10095000418D0029C4D01169426A1170416A491C55
:100960004162418D491E41853DE7704770B50400E5
:1009700025D094F83D00002520B984F83C5020464D
:1009800000F0BEF8242084F83D002068016821F0C2
:10099000010101602068016841F4004101602068A4
:1009A000016821F40041016000F024FA4D4A6168B9
:1009B000914201D84C4900E04C49884201D20120C3
:1009C00070BD4B492368B0FBF1F15E6826F03F062D
:1009D0000E435E606368934206D94FF496735943A1
:1009E0004FF47A73B1FBF3F12368491C1E6A26F0B9
:1009F0003F06314319626168914210D84900401E98
:100A0000B0FBF1F2521CC2F30B02042A01D2042003
:100A100022E0B0FBF1F0401CC0F30B001CE0A26828
:100A2000F2B301EBC10303EB0116431EB3FBF6F374
:100A30005B1C43F480431B0549D092B301EBC10218
:100A400002EB0111401EB0FBF1F0401CC0F30B00A3
:100A500040F4804040F400402168CA694CF6FF73BE
:100A60009A431043C861D4E9071001432068026823
:100A700022F0C00211430160D4E903010143206860
:100A8000826848F2FF339A4311438160D4E905013B
:100A900008432168CA6822F0FF021043C86001E0E1
:100AA0000EE016E02068016841F001010160256454
:100AB000202084F83D00256384F83E50002070BD5E
:100AC00001EB4106431EB3FBF6F35B1CB3E70120C9
:100AD000C2E701EB4101401EB0FBF1F0401CC0F346
:100AE0000B00B7E7A086010080841E0000093D00CE
:100AF00040420F00704770477047704770470000D2
:100B000010B586B0044614216846FFF724FC1B4943
:100B10002068884230D11A480021026842F002025F
:100B20000260006800F002000590C02000901220D2
:100B3000CDE9010103200390042004906946114887
:100B4000FFF798FC0E481030016841F40011016075
:100B50000068002200F40010059011461F2000F0EC
:100B60007DF81F2000F06CF800221146202000F0D4
:100B700075F8202000F064F806B010BD0054004065
:100B800030380240000402407047704702488168D4
:100B90000278114481607047000000200B4810B5B6
:100BA000016841F400710160016841F480610160F5
:100BB000016841F480710160032000F06FF80F209C
:100BC00000F006F800F024F8002010BD003C0240C0
:100BD00070B50D4D04464FF47A712878B1FBF0F0F2
:100BE0000A490968B1FBF0F000F0C9FC48B9102CC3
:100BF00007D200222146501E00F030F800206C6021
:100C000070BD012070BD0000000000200C0000201D
:100C10000A4808B5016841F480410160006800F4A9
:100C2000804000900548001F016841F0805101603C
:100C3000006800F08050009008BD00004438024079
:100C4000002809DB00F01F020121914040098000CB
:100C500000F1E020C0F8001170470000F0B40E4B26
:100C60001B680C46C3F30223C3F10705042D00D90A
:100C70000425191D072901D2002300E0DB1E0126EF
:100C800006FA05F1491E214099409E40761E164005
:100C90003143F0BC01F0A3BC0CED00E0064900F0CC
:100CA000070208684FF6FF03184040EA0220034A93
:100CB00010430860704700000CED00E00000FA05EA
:100CC0002DE9F0470E46050065D0DFF81481D8F80D
:100CD0000000F7B200F00700B04207D288F80070B9
:100CE000D8F8000000F00700B04254D128683D4C0D
:100CF000810712D5400703D5206840F4E0502060FA
:100D00002878000703D5206840F460402060206800
:100D1000A96820F0F000084320602878C0072DD093
:100D2000304968680839012812D0022813D00328F6
:100D300011D00968890700292DDA216821F0030103
:100D400001432160FFF794FC814641F2883A0EE0AE
:100D500009688903EFE709688901ECE7FFF788FC78
:100D6000A0EB0901514502D90320BDE8F0872068B6
:100D7000696800F00C00B0EB810FEFD1D8F80010DB
:100D8000404601F00701B14207D90770006800F042
:100D90000700B04201D00120E7E72878400705D5D9
:100DA0002068E96820F4E0500843206028780007B4
:100DB00006D52068296920F4604040EAC10020601F
:100DC00000F028F82168084AC1F30311515CC840BB
:100DD0000649086006480068FFF7FAFE0020C4E7ED
:100DE000003C0240083802408A4400080C00002001
:100DF000040000200448054900680968044AC1F35A
:100E00008221515CC84070470C0000200838024025
:100E10009A440008154810B5006810F00C021448F8
:100E200013D01449042A0FD0082A0ED10F4C241FC6
:100E30002268236802F03F025B0207D52068C0F3F6
:100E40008810A0FB010106E0084610BD2168C1F32F
:100E50008811A1FB00010023FFF706FA2168C1F306
:100E60000141491C4900B0FBF1F010BD08380240B7
:100E70000024F40040787D012DE9F84F04006ED085
:100E80002078DFF84C93C007A9F104054AD009F196
:100E900004000168C1F38101012908D00068C0F392
:100EA000810002280AD1D9F80000400206D528683E
:100EB000800337D560680028E1D033E06068B0F582
:100EC000803F10D0B0F5A02F286810D020F48030DB
:100ED0002860286820F4802028606068A8B1FFF7A7
:100EE000C7FB06460DE0286840F48030F4E740F484
:100EF00080202860F7E700BFFFF7BAFB801B64285B
:100F000073D828688003F7D50CE0FFF7B1FB0646DD
:100F100005E000BFFFF7ACFB801B6428F0D8286811
:100F20008003F7D42078DFF8AC8280074FF0000A06
:100F30003ED5A748001D016811F00C0F08D00068CD
:100F4000C0F3810002280BD1D9F80000400207D479
:100F50002868800716D5E068012800D112E033E147
:100F6000E068B8B10120C8F80000FFF781FB064631
:100F700005E000BFFFF77CFB801B0228C0D8286873
:100F80008007F7D52868216920F0F80040EAC10001
:100F900028600DE0C8F800A0FFF76AFB064604E0F1
:100FA000FFF766FB801B02281FD828688007F7D44C
:100FB0002078000722D5864F87486169703771B164
:100FC00001210160FFF754FB064604E0FFF750FBE8
:100FD000801B022809D838688007F7D50EE0C0F8D2
:100FE00000A0FFF745FB064605E082E0FFF740FB67
:100FF000801B02287DD838688007F7D42078400706
:1010000068D5DFF8CCB100270BF13C0BDBF8000012
:10101000C0000BD4DBF8001041F08051CBF8001079
:10102000DBF80000012700F0805000906B4E306824
:10103000C00510D4306840F480703060FFF718FBB2
:10104000009005E0FFF714FB0099401A022850D8E1
:101050003068C005F6D55E4EA0686C3601280FD00A
:101060000528306810D020F001003060306820F092
:1010700004003060A068B8B1FFF7FAFA00900FE002
:10108000306840F00100F4E740F004003060F7E71A
:10109000FFF7EEFA0099411A41F28830814266D892
:1010A00030688007F4D50EE0FFF7E2FA009007E021
:1010B000FFF7DEFA0099411A41F28830814256D892
:1010C00030688007F4D42FB1DBF8001021F0805194
:1010D000CBF80010A069C8B33D49091D0968C1F3E8
:1010E000810102294AD00228504607D0C8F8600082
:1010F00000E03CE0FFF7BCFA04463BE04746C8F896
:101100006000FFF7B5FA064605E000BFFFF7B0FA4A
:10111000801B02282BD828688001F7D4D4E9070166
:101120000843A16A2E4A490802EB0141626A41EA7A
:101130008211084394F82C1040EA0161C9F80010AC
:1011400001203866FFF794FA044606E03EE000BF4F
:10115000FFF78EFA001B022809D828688001F7D50E
:1011600034E000BFFFF784FA001B022802D90320F5
:10117000BDE8F88F28688001F4D427E00128F7D073
:10118000D9F80000E26900F4800191421CD1226A82
:1011900000F03F01914217D147F6C071626A0140E9
:1011A000B1EB821F10D1A26A4FF0FF3300F440313F
:1011B00003EB5202B1EB024F06D194F82C1000F071
:1011C0007060B0EB016F01D00120D1E70020CFE7C4
:1011D0000438024000004742800E47420070004041
:1011E0000000FFFF7047000038B5016804464A68F8
:1011F0008868C043430606D5C30704D1D3435B06C2
:1012000001D4216C05E0830708D4D3431B0605D421
:10121000616C01B02046BDE830400847830603D525
:10122000430601D5C30551D4D3439B064ED4430690
:101230000AD494F85130032B49D0636D43F0040372
:101240006365CB688B680093830609D4636D43F0B4
:10125000010363658B6800930B6823F040030B6008
:10126000C00506D4606D40F00800606520688068A5
:101270000090606D002829D02068416821F0E001CD
:101280004160012084F85100900701D4D00722D09A
:101290002068416821F003014160114DE06C40B1CC
:1012A0000565E06CFFF7BFF818B1606D40F04000D5
:1012B0006065A06C002809D00565A06CFFF7B3F845
:1012C000002803D0606D40F04000606538BDC868FC
:1012D0008868009038BD2046FFF784FF38BD0000C5
:1012E0001524000870B5040009D0606A002540B1DB
:1012F00025616561A56294F8510040B10CE00120C0
:1013000070BD6068B0F5827FF4D0E561F2E784F8E3
:101310005050204600F044F8022084F85100206824
:10132000016821F040010160A088218900F48270E9
:1013300001F404410843A18901F400610843217CC0
:1013400001F002010843217D01F001010843218BD6
:1013500001F400710843217F01F03801084394F83B
:10136000201001F080010843218D01F40051084351
:1013700021680860A069042101EA104094F8241053
:1013800001F010010843216848602068C16921F418
:101390000061C1616565012084F85100002070BDC5
:1013A00010B586B0044614216846FEF7D4FF1749ED
:1013B0002068884228D116480021026842F48052F1
:1013C0000260006800F480500590114814380268EB
:1013D00042F001020260006800F001000590F02078
:1013E00000900220CDE90101032003900520049024
:1013F00069460848FFF73EF8002211462320FFF710
:101400002DFC2320FFF71CFC06B010BD003001406E
:1014100044380240000002402DE9F84F9846164635
:101420008A460446FFF724F9814694F851000128C2
:101430001ED1BAF1000F73D0002E71D094F8500075
:10144000012815D0012784F85070032084F851003A
:1014500000256565C4F830A0A686E686A563A58745
:10146000E58765642564A068B0F5004F03D00CE003
:101470000220BDE8F88F2068016821F0400101607A
:101480002068016841F480410160206801684906D4
:1014900003D4016841F040010160E068B0F5006FDD
:1014A000606803D048B3012E27D047E008B1012E71
:1014B0001FD1206B21680088C86006E02068816821
:1014C000890709D5216B0988C160206B801C2063C6
:1014D000E08E401EE0860CE0FFF7CAF8A0EB0901A1
:1014E000414503D3B8F1FF3F03D035E0B8F1000F19
:1014F00032D0E08E0028E1D123E0206B2168007813
:10150000087306E02068816889070AD5216B09788D
:101510000173206B401C2063E08E401EE0860DE0CE
:101520002BE0FFF7A5F8A0EB0901414503D3B8F183
:10153000FF3F03D010E0B8F1000F0DD0E08E00287F
:10154000E0D14A464146204600F06CFF08B1202019
:101550006065A06830B109E084F8517084F850509B
:10156000032086E72068C1688068009084F8517085
:1015700004F8505F60680028F3D0012079E710B5C7
:10158000401EB0F1807F01D3012010BD4FF0E02458
:1015900060610F21601701F022F80020A061072090
:1015A0002061002010BDFEE70148FFF769B8000088
:1015B000900400200148FFF7C0B80000900400200C
:1015C00038B5806B002190F83D202B4B46F2A814D3
:1015D0001B68B3FBF4F3C3EBC30303EB8303009378
:1015E0003BB15B1E009303681B689B0505D5009B00
:1015F000F6E7036C43F020030364436B03B1D96344
:10160000836B03B1D96303681C6824F480641C6095
:101610004185436B03B11965836B03B11965036899
:101620001C6824F001041C6090F83D402023602CCD
:101630000BD0282434EA02020FD080F83D3080F825
:101640003E1000BFFFF791F938BD80F83D3080F8BB
:101650003E100164FFF712F838BD0268136843F0CA
:10166000010313600268136843F48063136001632D
:1016700080F83D40E6E700000C000020006841696A
:10168000C943090601D400210161704770B50446C1
:1016900090F83D0094F83E10102901D0402906D161
:1016A000222804D121680A6822F400620A602821F5
:1016B00031EA00024FF000054FF0200626D02168E5
:1016C0004968090505D4602803D084F83D6084F892
:1016D0003E50256320684168090537D5416821F4EB
:1016E00000614160606B90F835203C49012A11D0BF
:1016F0000165606BFEF797FE38B32068016821F042
:101700000101016084F83D60606B1CE0256384F892
:101710003D10DFE7A06B0165A06BFEF784FEA0B172
:1017200020684169C943490605D40069616A0870A7
:10173000606A401C60622068016821F0010101605C
:1017400084F83D60A06B016D884710E094F83D106F
:10175000602910D04169C943490605D40069616A0E
:101760000870606A401C60622046FFF7FEF8206C3B
:10177000C1071CD115E084F83D6025644169C94367
:10178000490605D40069616A0870606A401C60629D
:101790002068016821F0010101602046FEF76EFF1C
:1017A000E5E7810703D4410701D4000704D5206889
:1017B000416821F4E061416094F83D00216C4907E3
:1017C0000BD5282809D10648E062256384F83D60DE
:1017D00084F83E502046FFF78DF970BDC115000812
:1017E0000000FFFF10B5C26A438D0168042B06D0CC
:1017F000438D032B08D0438D022B1DD012E04A6885
:1018000022F480624A600CE04B6823F480634B60F2
:10181000042A06D0022A04D001680A6822F48062F1
:101820000A6001680969426A1170416A491C416293
:10183000418D491E418510BD012A34D0102A32D075
:10184000042A34D0022A32D00B6843F400730B60B0
:1018500001680969436A1970416A491C4162438DF4
:101860005B1E438503681B690B70416A491C41621A
:10187000418D491E418501684B6823F440734B60DC
:10188000202180F83D1090F83E300021402B80F858
:101890003E1010D0082A02D0202A00D01221016365
:1018A000FFF729F910BD0B6823F48063CFE70B68BD
:1018B00043F48063CBE70163FFF71FF910BD00001D
:1018C00038B590F83D10222910D1C36A418D032903
:1018D0000DD901680969426A1170416A491C416267
:1018E000418D491E4185418D032906D038BDC26A0C
:1018F000022A02D0012906D029B10068416821F4EA
:101900008061416038BD2A4A46F2A814002112685D
:10191000B2FBF4F202EB8202009202682024009DE6
:101920006D1E009526D01568AD05F8D4156825F410
:10193000806515600268556825F4E06555600268A9
:101940001269456A2A70426A521C4262428D521ED6
:10195000428580F83D4090F83E2080F83E10402AB5
:1019600021D0082B02D0202B00D012210163FFF7D9
:10197000C2F838BD036C43F020030364536823F4BA
:10198000E063536002681269436A1A70426A521C2B
:101990004262428D521E428580F83D4080F83E10E2
:1019A000FEF7E3FF38BD0163FFF7A7F838BD00007D
:1019B0000C00002010B5C26A90F83D1021290BD10F
:1019C000418D51B1416A026809781161416A491C2F
:1019D0004162418D491E418510BD20230021082A06
:1019E00013D0202A11D012F5803F0ED0026854681F
:1019F00024F4E06454601122026380F83E1080F801
:101A00003D3000BFFFF778F810BD0268546824F439
:101A1000E06454600268146844F400741460016364
:101A200080F83D3090F83E2080F83E10402AE9D101
:101A3000FFF764F810BD000010B590F83D1090F865
:101A40003E30C26A048DB4B1212903D0402B11D19C
:101A500022290FD1418DE1B390F83E10402942D0A8
:101A6000416A026809781161416A491C4162418DED
:101A7000491E418510BD2129E8D120230021082AD3
:101A800013D0202A11D012F5803F0ED0026854687E
:101A900024F4E06454601122026380F83E1080F860
:101AA0003D3000BFFFF728F810BD0268546824F4E9
:101AB000E06454600268146844F4007414600163C4
:101AC00080F83D3090F83E2080F83E10402AE9D161
:101AD00000E002E0FFF712F810BD0068416821F451
:101AE0008061416010BDBDE8104000F0D3B8000037
:101AF00078B590F83E50C26A036B90F83D600024C0
:101B00000168222E7AD1066D0EB9402D76D0056D72
:101B10001DB90569B5F5404F09D0458D05B3468D12
:101B2000384D012E0ED0438D022B3AD05DE04A692C
:101B30008A6900920A6842F480720A60016D491C49
:101B4000016578BDAA4213D10A6822F480620A6056
:101B500001684A68120503D50A6822F4806216E01B
:101B60004A698A6900920A6842F400720A6039E0A0
:101B7000082A10D0202A0ED0122B0AD0042A03D013
:101B8000022A01D0102AE7D10A6842F480620A6072
:101B900024E0012AE0D00A6822F480620A60016829
:101BA000DEE7042A21D0022A1FD0102A1DD00B689C
:101BB00023F480630B6001680B6843F400630B60DF
:101BC00001684B681B0509D5AA4212D0012A10D022
:101BD000082A0ED0102A0CD0202A0AD001684A699F
:101BE00089690091046578BD08E00B6843F480635F
:101BF000E5E74A6842F480524A60EFE7486988693D
:101C00000090F0E70000FFFF90F83E10402910D050
:101C10000169B1F5804F19D0016DA9B3016D01299A
:101C200010D1416C5FF0F10201F4407142EAD11130
:101C300006E0016D0029416C05D0C9B241F00101F7
:101C400000680161704701F0FE01F9E790F83D106E
:101C50002129416C09D0C9B241F00101026811612A
:101C6000416B29B1C96B49B902E001F0FE01F5E70A
:101C7000816B0029E6D0C96B0029E3D00068416878
:101C800041F4006141607047FFE7416CF02201F4CC
:101C90004071CBE710B590F83D10026D4AB1026D6E
:101CA000012A14D0026D022A16D0BDE81040FFF7B9
:101CB000E5BCC16C0129816C02D0C1F3072108E0A9
:101CC0000268C9B21161016D891C016510BD816C8A
:101CD000C9B20268116123E022291CD0428D0AB1E9
:101CE000212920D0428D002AF0D12129EED101688E
:101CF0004A6822F4E0624A6001680A6842F40072AD
:101D00000A6000210163202280F83D2080F83E1007
:101D1000FEF7F4FE10BD01680A6842F480720A60A2
:101D2000016D491CD1E7416A026809781161416A75
:101D3000491C4162418D491E418510BD38B50C4694
:101D400090F83D2000212825954302680B4605D0D8
:101D500051699169009180F83C3038BD556825F48F
:101D600080655560E243540700D50121120601D574
:101D7000828900E0028B80F83C3092B2FEF77FFC53
:101D800038BD00002DE9F04190F83D300446C26AAC
:101D9000002120261E4F00686FF48065082A01D0BC
:101DA000202A01D1282B04D0212B17D04561BDE872
:101DB000F081E762426822F4E06242602068456197
:101DC0002068026822F480620260216384F83D602A
:101DD00084F83E102046FEF78DFEE8E7E7622122F8
:101DE000226384F83D6084F83E10416821F4E0618C
:101DF0004160206845612068016821F480610160CC
:101E00002046FFF73BFC2046FEF7BFFECFE7000071
:101E10000000FFFFF8B590F83D6004460068416897
:101E200021F4E0614160206800254169009101686A
:101E300041F0010101602068016821F480610160C6
:101E400020684168090520D5474F222E48D02A2E08
:101E500046D0616B096849686185618D19B1216C53
:101E600041F004012164416821F400614160606B2C
:101E7000FEF7EBFA012808D0606B0765606BFEF790
:101E8000D2FA10B1606B016D8847608D08B320688D
:101E90004169C943490708D40069616A0870606AEA
:101EA000401C6062608D401E608520684169C943A6
:101EB000490608D40069616A0870606A401C606263
:101EC000608D401E6085608D18B1206C40F004006C
:101ED0002064206C00B32046BDE8F840FFF7D6BB75
:101EE000A16B096849686185618D19B1216C41F068
:101EF00004012164416821F400614160A06BFEF798
:101F0000A4FA0128C1D0A06B0765A06BFEF78BFA7D
:101F10000028BAD0A06BB6E72A2E06D12563282068
:101F200084F83D002046FEF72FFE94F83D10202057
:101F300028290DD0216B222901D0222E07D125631B
:101F400084F83D0084F83E502046FEF71DFEF8BDA3
:101F50000649E162256384F83D0084F83E5020463E
:101F6000FEF7C8FDF8BD0000C11500080000FFFF26
:101F700030B587B014216846FEF7EDF91548002406
:101F8000016841F004010160016801F0040105915C
:101F9000016841F001010160016801F00101059152
:101FA000016841F00201016000680B4D00F0020081
:101FB0000590002206212846FEF754FB06200090DB
:101FC0000120CDE90104694628460394FEF752FA40
:101FD00007B030BD30380240000802400D4810B54F
:101FE0000B4901600C49416000214FF4804281603F
:101FF000C0E9031241618161C1610162FEF7B6FC73
:10200000002803D0BDE81040FEF70BBA10BD000059
:102010000054004090040020A08601000F4810B535
:102020000D4901604FF48271416000218160C160FF
:102030004FF400720161C0E90512C16101624162A1
:1020400081620A21C162FFF74DF9002803D0BDE883
:102050001040FEF7E6B910BD00300140E404002056
:10206000FEE7FEE730B40021084B0A465FF00000AF
:1020700003EBC004401CC0B262548028F8D3491C52
:10208000C9B20829F2D330BC00F0A6B81000002075
:1020900030B5CC0801F0070301259D40EBB2064D99
:1020A00005EBC005C808285C0AB1184302E063EAE2
:1020B0000000C043285530BD1000002010B5414C31
:1020C000002202212046FEF7CDFAC820FEF7C0F913
:1020D000012202212046FEF7C5FA0021AE2000F0C1
:1020E00069F90021084600F065F90021102000F090
:1020F00061F90021B02000F05DF90021402000F0DE
:1021000059F90021812000F055F90021882000F0C4
:1021100051F90021822000F04DF90021084600F01D
:1021200049F90021A12000F045F90021A22000F08A
:1021300041F90021A42000F03DF90021A62000F083
:1021400039F90021A82000F035F900213F2000F0E6
:1021500031F90021C82000F02DF90021D32000F032
:1021600029F90021084600F025F90021D52000F0CA
:1021700021F90021A02000F01DF90021D92000F054
:1021800019F90021222000F015F90021DB2000F0D0
:1021900011F90021402000F00DF90021312000F05C
:1021A00009F90021AD2000F005F900218B2000F095
:1021B00001F9FFF757FF0021BDE81040AF2000F004
:1021C000F9B80000000802400246012000E0504338
:1021D000491EC9B2FBD2704770B5114E002400BF32
:1021E00004F1B000C0B2002100F0E4F8002108467C
:1021F00000F0E0F80021102000F0DCF85FF00005AE
:1022000006EBC5000121005D00F0D4F86D1CEDB2B5
:10221000802DF5D3641CE4B2082CE1D370BD00001E
:10222000100000202DE9FC4F1C460E4682468B46CE
:102230000190082B0ED0600700D0012000EBD400E5
:10224000610810FB01F0C0B28146203AD0B2009084
:1022500000204AE00620F7E7082C12D00C2C17D0FB
:10226000102C1AD0182C43D10098234900EBC00041
:1022700001EB8001002711F80850E80712D00B9AF3
:1022800013E000981D4900EB400001EB4001F1E72D
:1022900000981B4900EB4000EAE71A49009801EB5F
:1022A0000011E7E70B9828B3002231465046FFF7AC
:1022B000EFFE761C7F1C6D08FFB2F6B2082FDCD350
:1022C0000AF1010000F0FF0A082C0AD00199AAEBDC
:1022D0000100B0EB540F04D10BF108008A4600F066
:1022E000FF0B08F101005E46C0B280464845B3D3FB
:1022F000BDE8FC8F0122D8E7063300087A260008E3
:10230000A2280008162D00082DE9F84F0025DDE968
:102310000A691F4692468B468046082E00D1022548
:1023200000241CE0381B401EC1B20A20FFF74CFFFE
:10233000BAFBF0F00A21B0FBF1F201FB1200CDF87C
:10234000009080B13030C2B205EB560101FB048031
:10235000C0B233465946FFF765FF641CE4B2BC4285
:10236000E0D3BDE8F88F05EB560101FB0480C0B255
:1023700033463022EEE72DE9F8411E4615468846E1
:102380000446079F0BE03346414620460097FFF77F
:1023900049FF082E0AD004EB5600C4B26D1C2A78FF
:1023A000A2F120005E28EED9BDE8F881A41DE4B2B8
:1023B000F4E7000073B5104C09B1012200E00022DF
:1023C00004212046FEF74EF90C4D0022102128462C
:1023D000FEF748F94FF47A73012269460848FFF77F
:1023E0001BF8012210212846FEF73CF901220421A6
:1023F0002046FEF737F97CBD00080240000002408D
:10240000E4040020704700000148FEF7EDBE000024
:10241000E404002010B5806B0021C187C186FEF75F
:10242000E1FE10BDF8B515460E460B460092044677
:102430000122022100F02CF8A0B9134813490068CA
:10244000B0FBF1F04FF47A71484300906068B0F54A
:10245000827F0DD13346002280212046009500F076
:1024600017F870B1606D40F0200060650320F8BD82
:10247000009830B1401E009020688068C04300067C
:10248000F6D50020F8BD00000C00002000366E01DB
:102490002DE9F8431E46914688460446089DFEF7FE
:1024A000E7F8401B351AFEF7E3F8074625480068B1
:1024B000C0F3CB30684338E0701C37D0FEF7D8F853
:1024C000C01BA84203D215B1009860B32CE020686D
:1024D000416821F0E00141606068B0F5827F0BD176
:1024E000A068B0F5004F02D0B0F5806F04D120682D
:1024F000016821F040010160A06AB0F5005F09D1D8
:102500002068016821F4005101602068016841F4ED
:1025100000510160012084F85100002084F850002F
:102520000320BDE8F8830025401E009020688168E4
:1025300038EA010004D000214945BDD10020F0E770
:102540000121F9E70C0000207047FEF71FBB0000D7
:1025500010B592B030216846FDF7FDFE14210CA89D
:10256000FDF7F9FE17480024016841F08051016031
:10257000006800F0805011901348016841F48041D8
:1025800001600068069400F48040119002200090E1
:1025900001200390102004906846FEF76DFC08B1FE
:1025A00072B6FEE70F20CDE90C040E940F940021C3
:1025B0000CA81094FEF784FB002801D072B6FEE749
:1025C00012B010BD4038024000700040024801685F
:1025D00041F470010160704788ED00E0FEE70907F3
:1025E000090E002804DB00F1E02080F80014704799
:1025F00000F00F0000F1E02080F8141D704700008B
:1026000086B0FEF7CBFAFFF7A3FFFFF7B1FCFFF7A9
:10261000E5FCFFF703FDFFF751FD10A301240FCBED
:102620000DF1080C00948CE80F00082302AA002189
:102630000A20FFF7A0FE0820CDE9000406230B4A7C
:1026400028213220FFF760FE0C2326220A211E20BB
:102650000094FFF7E7FDFFF7BFFDFEE748656C6CF0
:102660006F20576F726C64210000000052BF0100A0
:102670004FF04070E1EE100A7047000000000000CB
:102680000000002F000000000700070000147F1466
:102690007F1400242A7F2A12006264081323003664
:1026A0004955225000000503000000001C22410093
:1026B000000041221C000014083E08140008083ED7
:1026C0000808000000A060000008080808080000D2
:1026D00060600000002010080402003E5149453EA1
:1026E0000000427F400000426151494600214145BF
:1026F0004B31001814127F10002745454539003C26
:102700004A494930000171090503003649494936F3
:1027100000064949291E00003636000000005636E2
:1027200000000008142241000014141414140000C6
:102730004122140800020151090600324959513E54
:10274000007C1211127C007F49494936003E41410C
:102750004122007F4141221C007F49494941007FBD
:1027600009090901003E4149497A007F0808087FAC
:102770000000417F4100002040413F01007F0814DC
:102780002241007F40404040007F020C027F007FDA
:102790000408107F003E4141413E007F09090906BF
:1027A000003E4151215E007F0919294600464949F2
:1027B00049310001017F0101003F4040403F001FBF
:1027C0002040201F003F4038403F0063140814633E
:1027D00000070870080700615149454300007F4128
:1027E000410000552A552A55000041417F00000450
:1027F0000201020400404040404000000102040089
:10280000002054545478007F4844443800384444ED
:10281000442000384444487F003854545418000879
:102820007E0901020018A4A4A47C007F0804047897
:102830000000447D4000004080847D00007F10281F
:1028400044000000417F4000007C04180478007CB4
:102850000804047800384444443800FC2424241834
:102860000018242418FC007C080404080048545470
:10287000542000043F444020003C4040207C001C89
:102880002040201C003C4030403C0044281028449C
:10289000001CA0A0A07C004464544C4414141414E4
:1028A0001414000000000000000000000000000000
:1028B000FC000000000002000000000C020C0200FE
:1028C00000000000000090D0BCD0BC9000030003CA
:1028D00000001824FE448C000302070201001824A3
:1028E000D8B04C80000300010201C038E438E00099
:1028F00001020201020208060000000000000000C0
:102900000000000000F804020000000102040002C0
:1029100004F800000004020100009060F8609000DC
:102920000000010000002020FC2020000000010029
:102930000000000000000000080600000000202049
:102940002020200000000000000000000000000027
:102950000002000000000080601C02000403000070
:102960000000F8040404F80001020202010000085B
:10297000FC00000000020302000018844424180038
:1029800003020202020008042424D8000102020209
:10299000010040B088FC80000000000302003C24DD
:1029A0002424C400010202020100F824242CC000E7
:1029B0000102020201000C04E41C040000000300F8
:1029C0000000D8242424D800010202020100384467
:1029D0004444F8000003020201000000100000005F
:1029E00000000200000000002000000000000600BF
:1029F00000000020508804020000000001029090B6
:102A00009090900000000000000000020488502018
:102A10000002010000001804C42418000000020095
:102A20000000F804E494F80001020202020000E051
:102A30009CF0800002030000030204FC2424D80060
:102A4000020302020100F80404040C000102020265
:102A5000010004FC0404F80002030202010004FC6B
:102A600024740C0002030202030004FC24740C0012
:102A7000020302000000F0080444CC4000010202FE
:102A8000010004FC2020FC040203000003020404F3
:102A9000FC040400020203020200000404FC04041B
:102AA00006040403000004FC24D00C04020302000A
:102AB000030204FC04000000020302020203FC3CC7
:102AC000C03CFC0003000300030004FC30C4FC0411
:102AD000020302000300F8040404F80001020202E9
:102AE000010004FC24241800020302000000F88402
:102AF0008404F80001020207050004FC2464980025
:102B0000020302000302182424448C000302020280
:102B100001000C04FC040C0000020302000004FC91
:102B20000000FC04000102020100047C80E01C049F
:102B30000000030000001CE03CE01C000003000358
:102B40000000049C609C0400020300030200041CBB
:102B5000E01C04000002030200000C84641C04005A
:102B60000203020203000000FE020200000007044C
:102B70000400000E30C0000000000001020000024E
:102B800002FE00000004040700000004020400002C
:102B90000000000000000000000000000808080815
:102BA00008080000020000000000000000000040D3
:102BB000A0A0C00000010202030204FC2020C0000B
:102BC00000030202010000C0202060000001020298
:102BD000020000C02024FC0000010202030200C029
:102BE000A0A0C0000001020202000020F82424047A
:102BF0000002030202000040A0A0602000070A0AB1
:102C00000A0404FC2020C00002030200030200208A
:102C1000E4000000000203020000000020E40000C5
:102C200008080807000004FC80E0202002030200DE
:102C300003020404FC000000020203020200E02080
:102C4000E020C00003000300030020E02020C000BB
:102C500002030200030200C02020C00000010202A3
:102C6000010020E02020C000080F0A02010000C07F
:102C70002020E0000001020A0F0820E04020200090
:102C80000203020000000060A0A020000002020277
:102C900003000020F820000000000102020020E0F4
:102CA0000020E00000010202030220E020806020FA
:102CB0000000030100006080E0806000000300036A
:102CC000000020608060200002030003020020E07A
:102CD000208060200808070100000020A06020007C
:102CE000000203020200000020DE020000000007D4
:102CF0000400000000FF00000000000F00000002C0
:102D0000DE200000000407000000020102040402AB
:102D100000000000000000000000000000000000B3
:102D2000000000000000000000F8000000000000AB
:102D300000333000000000100C06100C06000000EC
:102D400000000000000040C07840C0784000043F10
:102D500004043F040400007088FC083000000018E0
:102D600020FF211E0000F008F000E0180000002104
:102D70001C031E211E0000F00888700000001E21A8
:102D800023241927211010160E0000000000000057
:102D9000000000000000000000E018040200000035
:102DA00000071820400000020418E0000000004066
:102DB000201807000000404080F0804040000202E0
:102DC000010F01020200000000F0000000000101FC
:102DD000011F01010100000000000000000080B0A0
:102DE0007000000000000000000000000000000172
:102DF000010101010101000000000000000000309D
:102E00003000000000000000000080601804006036
:102E100018060100000000E010080810E000000F94
:102E2000102020100F00001010F8000000000020FB
:102E3000203F202000000070080808887000003043
:102E400028242221300000300888884830000018EB
:102E5000202020110E000000C02010F80000000704
:102E60000424243F240000F808888808080000197A
:102E7000212020110E0000E0108888180000000FAB
:102E8000112020110E0000380808C8380800000082
:102E9000003F000000000070880808887000001CD7
:102EA000222121221C0000E010080810E000000090
:102EB000312222110F00000000C0C00000000000FD
:102EC0000030300000000000008000000000000022
:102ED0008060000000000000804020100800000119
:102EE00002040810200040404040404040000404DC
:102EF00004040404040000081020408000000020A6
:102F0000100804020100007048080808F0000000E2
:102F1000003036010000C030C828E810E000071873
:102F2000272423140B000000C038E0000000203CE0
:102F300023020227382008F8888888700000203F84
:102F4000202020110E00C03008080808380007189B
:102F500020202010080008F808080810E000203F92
:102F6000202020100F0008F88888E8081000203F73
:102F700020202320180008F88888E8081000203F47
:102F8000200003000000C0300808083800000718BF
:102F90002020221E020008F808000008F808203F40
:102FA000210101213F20000808F808080000002046
:102FB000203F2020000000000808F8080800C0801A
:102FC00080807F00000008F888C028180800203F93
:102FD00020012638200008F8080000000000203FEB
:102FE00020202020300008F8F800F8F80800203FE2
:102FF000003F003F200008F830C00008F808203FDC
:10300000200007183F00E01008080810E0000F102B
:10301000202020100F0008F808080808F000203FC2
:10302000210101010000E01008080810E0000F185D
:10303000242438504F0008F8888888887000203F82
:103040002000030C30200070880808083800003881
:10305000202121221C00180808F808081800000088
:10306000203F2000000008F808000008F808001FB2
:10307000202020201F000878880000C838080000A1
:1030800007380E010000F80800F80008F800033CBB
:103090000700073C03000818688080681808203083
:1030A0002C03032C30200838C800C8380800000062
:1030B000203F2000000010080808C8380800203809
:1030C000262120201800000000FE0202020000005D
:1030D000007F40404000000C30C0000000000000B5
:1030E00000010638C00000020202FE00000000409D
:1030F00040407F00000000000402020204000000C3
:1031000000000000000000000000000000008080BF
:1031100080808080808000020204000000000000A7
:103120000000000000000000808080800000001986
:10313000242222223F2008F8008080000000003F67
:10314000112020110E000000008080800000000E81
:10315000112020201100000000808088F800000E5F
:10316000112020103F200000808080800000001F80
:10317000222222221300008080F0888888180020F4
:10318000203F202000000000808080808000006BB5
:1031900094949493600008F8008080800000203FA1
:1031A000210000203F2000809898000000000020AF
:1031B000203F20200000000000809898000000C000
:1031C0008080807F000008F8000080808000203F21
:1031D00024022D302000000808F800000000002024
:1031E000203F202000008080808080808000203F61
:1031F00020003F20003F8080008080800000203F32
:10320000210000203F200000808080800000001FFF
:10321000202020201F00808000808000000080FF90
:10322000A12020110E000000008080808000000E90
:10323000112020A0FF8080808000808080002020DE
:103240003F2120000100000080808080800000334A
:10325000242424241900008080E0808000000000E5
:10326000001F202000008080000000808000001FE0
:10327000202020103F20808080000080808000017E
:103280000E300806010080800080008080800F30B2
:103290000C030C300F000080800080808000002034
:1032A000312E0E312000808080000080808080815F
:1032B0008E701806010000808080808080000021D0
:1032C000302C2221300000000000807C020200002F
:1032D0000000003F404000000000FF000000000030
:1032E0000000FF0000000002027C8000000000409F
:1032F000403F00000000000601010202040400003B
:1033000000000000000000000000000000000000BD
:1033100000000000000000000000000000000000AD
:10332000000000000000000000000000000000F0AD
:10333000F0F0000000000000000000017F0100002C
:10334000000000000000001C1C1C00000000000029
:103350008060301C8C60301C0C00000000000000FD
:10336000000000000000000000000000000000005D
:103370000000000000E00000000000E00000008607
:10338000E69F86868686E69F860000011F01010172
:1033900001011F010100000080C06020F820E0C092
:1033A0000000000003070C18FF70E181000000001E
:1033B000070F10107F100F07000080602060800052
:1033C0000000E02000000F3020309F70DC3710300C
:1033D000C0000000100E03000718101807000000BE
:1033E000C02020E0C0000000000080E01F38E88717
:1033F00003C43C040000070F1810100B070D101039
:10340000080000808C4C3800000000000000000024
:1034100000000000000000000000000000000000AC
:1034200000000000000000000000000080E0300804
:1034300004000000000000FEFF010000000000008A
:1034400000000000030F1820400000040830E08056
:103450000000000000000000000001FFFE0000006E
:103460000000004020180F030000000000000000D2
:1034700000000000C00000000000004266663C182A
:10348000FF183C66664200000000000003000000D8
:10349000000000000000000080000000000000109C
:1034A00010101010FF10101010100000000000008D
:1034B0000300000000000000000000000000000009
:1034C000000000000000000000000000000000807C
:1034D0008C4C3800000000000000000000000000DC
:1034E000000000000000001010101010101010104C
:1034F00010000000000000000000000000000000BC
:1035000000000000000000000000000000000000BB
:1035100000000000000000001C1C1C000000000057
:1035200000000000000000000000E0380C00000077
:10353000000080701C03000000000060380E0100D5
:10354000000000000000000080C060202060C080FB
:10355000000000FEFF010000000001FFFE0000016E
:10356000070E181010180E0701000000808080C0A0
:10357000E000000000000000000000FFFF0000006D
:10358000000000001010101F1F101010000000801D
:10359000402020202060C080000000030300804005
:1035A00020381F070000001C1A1918181818181FB7
:1035B00000000080C020202060C0800000000003C8
:1035C00003001010182FE780000000070F101010E4
:1035D00010180F070000000000000000C0E0F0001D
:1035E000000000C0B088868180FFFF80800000005E
:1035F00000000010101F1F1010000000E06060604D
:1036000060606060000000003F1008080818F0E0EB
:10361000000000070B101010101C0F03000000002A
:1036200080C040202020E0C0000000FCFF211008E6
:10363000080818F0E0000001070C18101010080F1F
:1036400003000000C0E06060606060E060000000B7
:1036500003000000E0180700000000000000001F49
:103660001F00000000000080C0602020202060C0FB
:1036700080000087EF2C1818303068CF83000007D7
:103680000F0810101010180F07000000C0C02020F5
:103690002020C0800000001F3F604040402010FFFD
:1036A000FE0000000C1C101010080F0300000000AA
:1036B0000000000000000000000000000000000EFC
:1036C0000E0E0000000000000000001C1C1C00008A
:1036D00000000000000000000000000000000000EA
:1036E0000000000C0C00000000000000000000586A
:1036F00038000000000000000000000000804020B2
:1037000010000000102844820100000000000000AA
:10371000000000000102040810000000000000008A
:1037200000000000000000848484848484848484F5
:103730008400000000000000000000000000000005
:103740001020408000000000000000000000000089
:10375000018244281000000010080402010000004B
:10376000000000C020201010101030E0C000000346
:10377000030000F010080C070300000000001C1CF0
:103780001C0000000000000000C04060202020401D
:10379000C00000FCFF01F00E03C1FE03807F0001AA
:1037A000070E08111110110904020000000080E04A
:1037B000E000000000000000807C4340477FF8806C
:1037C000000010181F1000000000131F1C1020E044
:1037D000E02020202060C080000000FFFF101010BB
:1037E00010182FE78000101F1F1010101010180F56
:1037F0000700000080C0402020202060E00000FC86
:10380000FF0100000000000001000001070E181079
:1038100010100804030020E0E02020202040C08099
:10382000000000FFFF000000000001FFFE00101F6D
:103830001F10101018080E07010020E0E0202020C3
:1038400020202060800000FFFF101010107C00007E
:103850000000101F1F10101010101018060020E09C
:10386000E020202020206060800000FFFF1010106A
:10387000107C00000100101F1F100000000000005D
:103880000000000080C06020202040E0000000FC1C
:10389000FF0100004040C0C140400001070E181069
:1038A00010100F0F000020E0E0200000000020E0DA
:1038B000E02000FFFF101010101010FFFF00101F7D
:1038C0001F1000000000101F1F100000202020E02B
:1038D000E020202000000000000000FFFF000000AA
:1038E000000000001010101F1F101010000000003A
:1038F0000000202020E0E020202000000000000048
:1039000000FFFF0000000060E0808080C07F3F007B
:10391000000020E0E020000020A06020200000FF48
:10392000FF30187CE3C000000000101F1F100000D3
:1039300001131F1C181020E0E02000000000000010
:10394000000000FFFF000000000000000000101F4A
:103950001F10101010101018060020E0E0E000000A
:103960000000E0E0E02000FF013FFEC0E01E01FF9C
:10397000FF00101F1000031F0300101F1F1020E086
:10398000E0C0000000000020E02000FF0003071C52
:1039900078E08000FF00101F100000000000030FFF
:1039A0001F00000080C060202060C080000000FE7A
:1039B000FF010000000000FFFE000001070E1810CC
:1039C00010180C07010020E0E0202020202060C01B
:1039D000800000FFFF2020202020301F0F00101F3C
:1039E0001F100000000000000000000080C06020E8
:1039F0002060C080000000FEFF010000000000FF0A
:103A0000FE000001070E1111133C7C67210020E02D
:103A1000E0202020202060C0800000FFFF10103038
:103A2000F0D0080F0700101F1F10000000030F1C2C
:103A300010100080C060202020204040E0000007DF
:103A40000F0C1818303060E08100001F0C081010B7
:103A50001010180F07008060202020E0E0202020B8
:103A600060800100000000FFFF0000000001000076
:103A70000000101F1F100000000020E0E0200000E8
:103A800000000020E02000FFFF0000000000000018
:103A9000FF0000070F18101010101008070020601A
:103AA000E0E02000000020E060200000077FF880B8
:103AB00000807C03000000000000071F1C070000BE
:103AC000000020E0E02000E0E0200020E0200007EF
:103AD000FFF8E01FFFFCE01F00000000031F0300D1
:103AE000011F03000000002060E0A0000020E06053
:103AF0002000000000038F7CF8C6010000000010C9
:103B0000181E130001171F1810002060E0E02000AD
:103B1000000020E06020000001073EF8E0180700E8
:103B2000000000000010101F1F1010000000008097
:103B30006020202020A0E0E0200000000000C0F075
:103B40003E0F0300000000101C1F1710101010186B
:103B500006000000000000FC04040404040000004F
:103B6000000000FF00000000000000000000007FD7
:103B7000404040404000000010E000000000000015
:103B8000000000000000031C608000000000000036
:103B90000000000000030C70800000000404040416
:103BA00004FC0000000000000000000000FF000016
:103BB0000000000040404040407F00000000000046
:103BC0000010080C040C08100000000000000000A9
:103BD00000000000000000000000000000000000E5
:103BE00000000000000000000000000000000000D5
:103BF00000000000000000000000808080808080C5
:103C0000808080808080000000040408080000009C
:103C100000000000000000000000000000000000A4
:103C20000000000000000000000000000000000094
:103C3000000000000000000098D844642424FCF830
:103C40000000000F1F18101010081F1F1018002070
:103C5000E0F000000000000000000000FFFF180876
:103C600004040CF8F00000001F0F18101010180FBB
:103C7000030000000000000000000000000000E061
:103C8000F8180404043C3800000000030F0C101066
:103C90001010080600000000000000000020E0F006
:103CA000000000E0F81C04040408FFFF000000030B
:103CB0000F18101010081F0F08000000000000006F
:103CC0000000000000000000E0F8484444444C7844
:103CD00070000000030F0C18101010080400000002
:103CE000000080C0602020E0C00000040404FFFF4A
:103CF000040404040000000010101F1F1010100026
:103D000000000000000000000000000000000000B3
:103D100070F88C04048CF874040C007076CF8D8DD0
:103D20008D89C87870000020E0F0000000000000DD
:103D300000000000FFFF08040404FCF8000000106D
:103D40001F1F100000101F1F100000000000006067
:103D50006000000000000000040404FCFC000000FF
:103D6000000000001010101F1F10101000000000B5
:103D7000000000000060600000000000000004047B
:103D800004FCFC0000000000C0C08080C07F3F0039
:103D900000000020E0F00000000000000000000033
:103DA000FFFF80C0F41C0404000000101F1F11005E
:103DB000031F1C1010000000202020E0F000000075
:103DC00000000000000000FFFF00000000000000F5
:103DD0001010101F1F101010000000000000000045
:103DE00000000000000004FCFC0804FCFC0804FCCB
:103DF000FC00101F1F10001F1F10001F1F100000CD
:103E0000000000000000000000000004FCFC0808A6
:103E10000404FCF8000000101F1F100000101F1FFA
:103E2000100000000000000000000000000000E0A2
:103E3000F0180C04040C18F0E00000030F0C101034
:103E400010100C0F03000000000000000000000034
:103E500000000004FCFC080404040CF8F0000080DE
:103E6000FFFF889010101C0F0300000000000000EE
:103E700000000000000000E0F81C04040408F8FC46
:103E8000000000030F1810109088FFFF8000000052
:103E900000000000000000000000040404FCFC100E
:103EA0000804040C0C001010101F1F10101000004C
:103EB0000000000000000000000000000000000002
:103EC0003078CCC48484840C1C0000001E181010B0
:103ED0001011190F06000000000000C000000000D3
:103EE000000000040404FFFF0404040000000000BC
:103EF00000000F1F1010100C000000000000000058
:103F00000000000000000004FCFE00000004FCFEB5
:103F1000000000000F1F181010081F0F08000000FD
:103F20000000000000000000000000040C3CFCC485
:103F30000000C43C0C0400000000010F1E0E010034
:103F40000000000000000000000000000000043C31
:103F5000FCC400E47CFC84807C040000071F070094
:103F600000071F0700000000000000000000000024
:103F700000000004041C7CE4C0341C040400001095
:103F8000101C1601131F1C18100000000000000078
:103F900000000000000000040C3CFCC400C43C0411
:103FA00004000000C080C1370E01000000000000C6
:103FB0000000000000000000000000001C0404C419
:103FC000F47C1C0400000000101C1F1711101018B6
:103FD0000E0000000000000000F80C0400000000CB
:103FE0000000001028EF00000000000000000000AA
:103FF000003F60400000000000000000FF000000E3
:104000000000000000000000FF00000000000000B1
:1040100000000000FF00000000000000040CF80099
:1040200000000000000000000000EF281000000069
:104030000000000040603F00000000000000001889
:1040400006020204081020203008000000000000D2
:104050000000000000000000000000000000000060
:1040600000000000F010101010FF10101010F000F1
:10407000000000000F04040404FF040404040F0003
:1040800000004040405F555555755555555F4040BF
:1040900040000040200F094989790909090F204093
:1040A000000000FE02424ACA4A4ACA4A4A4202FE86
:1040B000000000FF40504C4340404F50505C40FFD8
:1040C00000000000F888888888FF88888888F800C1
:1040D000000000001F080808087F888888889F80E3
:1040E000F00080828282828282E2A2928A8682802C
:1040F0008000000000000040807F00000000000001
:104100000000101010FF109008888888FF888888A9
:1041100008000444827F01808040432C102846819F
:1041200080000010101010D030FF30D0121C101082
:10413000000010080402010000FF00000102040852
:10414000100004040484E43C2724242424E404040C
:10415000040004020100FF0909090949897F0000E0
:10416000000000FE225A8600FE9292929292FE0079
:10417000000000FF04080700FF4020030C14224148
:104180004000008040201806800007182040800072
:104190000000010020702826212020243860000122
:1041A0000100001012929292929292121202FE005C
:1041B00000000000003F101010103F0040807F0002
:1041C0000000000000C080808080808080FC8480AF
:1041D0008080808080C0C0000000000000FF7F4021
:1041E0004040404040FF40404040404040FF7F0052
:1041F000000000000000000000000000007F7000D0
:1042000000000000000000000000000000000000AE
:10421000000000000000000000FCF80000000000AA
:104220000000000000000000000000000000FFFE91
:10423000020202020202020202FFFF020202020264
:1042400002020202FF0300000000000000001F1F26
:10425000040404040404040404FFFF040404040428
:10426000040404041F00000000000000000000001F
:104270000000000000000000007F3F000000000080
:10428000000000000000000000000000000000002E
:10429000000000000000000000000000000000001E
:1042A00000000000000000F8F8F0F07020000000AE
:1042B00000000000000000000000000000000000FE
:1042C00000000000000000000000000000000000EE
:1042D000000080000000000000000000000000005E
:1042E00000000000000000FFFFFFFF0000000000D2
:1042F00000000000000000000000000000008080BE
:1043000000000000000000000000000000000000AD
:10431000000000FFFFFE0606060606060606060665
:1043200006060606060606FFFFFFFF060606060649
:1043300006060606060606060606060606FFFFFF32
:10434000FF07020000000000000000000000000065
:10435000000000FFFFFF0000000000000000000060
:1043600000000000000000FFFFFFFF000000000051
:1043700000000000000000000000000000FFFFFF40
:10438000FF0000000000000000000000000000002E
:10439000000000FFFFFF1818181818181818181830
:1043A00018181818181818FFFFFFFF1818181818F1
:1043B00018181818181818181818181818FFFFFFC8
:1043C000FF000000000000000000000000000000EE
:1043D00000000201010000000000000000000000D9
:1043E00000000000000000FFFFFFFF0000000000D1
:1043F00000000000000000000000000000010100BB
:1044000000000000000000000000000000000000AC
:10441000000000000000000000000000000000009C
:1044200000000000000000FFFFFFFF000000000090
:10443000000000000000000000000000000000007C
:10444000000000000000000000000000000000006C
:10445000000000000000000000000000000000005C
:10446000000000000000001F1F0F0F0000000000F0
:10447000000000000000000000000000000000003C
:10448000000000000000000000000000000000002C
:1044900000000102030406070809000000000102F1
:1044A00003040000C44400080000002010000000C5
:1044B000C4010008D444000810000020900B000044
:1044C000E0010008010000001000000000000000F2
:0444D0000024F400D0
:040000050800018965
:00000001FF
